{
  "_format": "hh-sol-artifact-1",
  "contractName": "InitCodeHash",
  "sourceName": "contracts/InitCodeHash.sol",
  "abi": [
    {
      "inputs": [],
      "name": "getInitHash",
      "outputs": [
        {
          "internalType": "bytes32",
          "name": "",
          "type": "bytes32"
        }
      ],
      "stateMutability": "pure",
      "type": "function"
    }
  ],
  "bytecode": "0x608060405234801561001057600080fd5b50613d41806100206000396000f3fe608060405234801561001057600080fd5b506004361061002b5760003560e01c80633c9de1b814610030575b600080fd5b61003861004a565b60405190815260200160405180910390f35b6000806040518060200161005d906100a0565b6020820181038252601f19601f8201166040525090508060405160200161008491906100ad565b6040516020818303038152906040528051906020012091505090565b613c23806100e983390190565b6000825160005b818110156100ce57602081860181015185830152016100b4565b818111156100dd576000828501525b50919091019291505056fe60806040523480156200001157600080fd5b506040805180820182526009815268050756c7361722d4c560bc1b602080830191825283518085019094526006845265050554c2d4c560d41b908401528151919291620000619160039162000104565b5080516200007790600490602084019062000104565b505060058054336001600160a01b031990911617905550600654600754620000be916009916001600160a01b03918216911643600a620000c4602090811b6200119b17901c565b620001e7565b6002850180546001600160a01b039586166001600160a01b0319918216179091556003860180549490951693169290921790925560018301919091559055565b8280546200011290620001aa565b90600052602060002090601f01602090048101928262000136576000855562000181565b82601f106200015157805160ff191683800117855562000181565b8280016001018555821562000181579182015b828111156200018157825182559160200191906001019062000164565b506200018f92915062000193565b5090565b5b808211156200018f576000815560010162000194565b600181811c90821680620001bf57607f821691505b60208210811415620001e157634e487b7160e01b600052602260045260246000fd5b50919050565b613a2c80620001f76000396000f3fe608060405234801561001057600080fd5b50600436106101e55760003560e01c80635f64b55b1161010f5780639a89f22d116100a2578063bde1077e11610071578063bde1077e1461042c578063c45a01551461043f578063ceb2894c14610452578063dd62ed3e1461047257600080fd5b80639a89f22d146103e0578063a201ccf6146103f3578063a457c2d714610406578063a9059cbb1461041957600080fd5b8063659509c5116100de578063659509c5146103895780636f9d42d21461039c57806370a08231146103af57806395d89b41146103d857600080fd5b80635f64b55b146103535780635fea61201461036657806360a9d50514610379578063637842451461038157600080fd5b8063313ce567116101875780633b4a6bc3116101565780633b4a6bc31461030557806342b98a1414610325578063485cc955146103385780635e3f27271461034b57600080fd5b8063313ce567146102a357806337bc5e4a146102b257806339509351146102d25780633a8c885e146102e557600080fd5b806310d82173116101c357806310d821731461025657806313bf4fd21461026b57806318160ddd1461027e57806323b872dd1461029057600080fd5b806306fdde03146101ea578063095ea7b3146102085780630fc63d101461022b575b600080fd5b6101f26104ab565b6040516101ff9190613684565b60405180910390f35b61021b6102163660046136f0565b61053d565b60405190151581526020016101ff565b60065461023e906001600160a01b031681565b6040516001600160a01b0390911681526020016101ff565b6102696102643660046136f0565b610554565b005b6102696102793660046136f0565b6105c3565b6002545b6040519081526020016101ff565b61021b61029e36600461371a565b610618565b604051601281526020016101ff565b6102c56102c0366004613756565b6106c9565b6040516101ff9190613771565b61021b6102e03660046136f0565b610735565b6102826102f3366004613756565b60086020526000908152604090205481565b6006546001600160a01b0316600090815260086020526040902054610282565b6102696103333660046136f0565b610771565b6102696103463660046137b5565b6107ba565b610282601e81565b60075461023e906001600160a01b031681565b6102696103743660046136f0565b610834565b610282600a81565b610269610afd565b6102696103973660046137e8565b610b0b565b6102696103aa3660046137e8565b610b60565b6102826103bd366004613756565b6001600160a01b031660009081526020819052604090205490565b6101f2610da1565b6102696103ee3660046136f0565b610db0565b6102696104013660046136f0565b610e16565b61021b6104143660046136f0565b6110a0565b61021b6104273660046136f0565b611139565b61026961043a3660046137e8565b611146565b60055461023e906001600160a01b031681565b6007546001600160a01b0316600090815260086020526040902054610282565b6102826104803660046137b5565b6001600160a01b03918216600090815260016020908152604080832093909416825291909152205490565b6060600380546104ba9061381b565b80601f01602080910402602001604051908101604052809291908181526020018280546104e69061381b565b80156105335780601f1061050857610100808354040283529160200191610533565b820191906000526020600020905b81548152906001019060200180831161051657829003601f168201915b5050505050905090565b600061054a3384846111db565b5060015b92915050565b6006546007546000916105769185916001600160a01b039081169116856112ff565b60408051848152602081018390529192506001600160a01b038516917f1a442df1f5a0e29117f2a0d6ceb8d5db8b4e68203b0d5edac8e267920708522e91015b60405180910390a2505050565b6105d160098383600861153f565b816001600160a01b03167fe91f05f05f7e013ffc245507e3fd86ec0ca1d2f5ab431eea8827cc80f303bf7a8260405161060c91815260200190565b60405180910390a25050565b60006106258484846116bf565b6001600160a01b0384166000908152600160209081526040808320338452909152902054828110156106af5760405162461bcd60e51b815260206004820152602860248201527f45524332303a207472616e7366657220616d6f756e74206578636565647320616044820152676c6c6f77616e636560c01b60648201526084015b60405180910390fd5b6106bc85338584036111db565b60019150505b9392505050565b6001600160a01b03811660009081526010602090815260409182902080548351818402810184019094528084526060939283018282801561072957602002820191906000526020600020905b815481526020019060010190808311610715575b50505050509050919050565b3360008181526001602090815260408083206001600160a01b0387168452909152812054909161054a91859061076c90869061386c565b6111db565b61077f60098383600861188e565b816001600160a01b03167fec1efa7415f20eabaabbfdfc33d5c736e9d413afcc9dedd898c035c0d1889eaa8260405161060c91815260200190565b6005546001600160a01b031633146108065760405162461bcd60e51b815260206004820152600f60248201526e2820a4a91d102327a92124a22222a760891b60448201526064016106a6565b600680546001600160a01b039384166001600160a01b03199182161790915560078054929093169116179055565b6002546108ba5760405162461bcd60e51b815260206004820152604860248201527f6e6f206c697175696469747920686173206265656e2070726f7669646564207960448201527f65742c206e65656420746f2063616c6c2070726f76696465496e697469616c4c606482015267697175696469747960c01b608482015260a4016106a6565b6108c660096008611aa8565b60006108d160025490565b6006546001600160a01b03166000908152600860205260409020546108f69084613884565b61090091906138b9565b9050600061090d60025490565b6007546001600160a01b03166000908152600860205260409020546109329085613884565b61093c91906138b9565b6006546040516323b872dd60e01b81529192506001600160a01b0316906323b872dd90610971908790309087906004016138cd565b602060405180830381600087803b15801561098b57600080fd5b505af115801561099f573d6000803e3d6000fd5b505050506040513d601f19601f820116820180604052508101906109c391906138f1565b506007546040516323b872dd60e01b81526001600160a01b03909116906323b872dd906109f8908790309086906004016138cd565b602060405180830381600087803b158015610a1257600080fd5b505af1158015610a26573d6000803e3d6000fd5b505050506040513d601f19601f82011682018060405250810190610a4a91906138f1565b506006546001600160a01b031660009081526008602052604081208054849290610a7590849061386c565b90915550506007546001600160a01b031660009081526008602052604081208054839290610aa490849061386c565b90915550610ab490508484611b1b565b836001600160a01b03167fccb2ae3a2936bf4c94fa4e12cdf0cdad6ed0e4888a044cef89afa60f2e4b92d384604051610aef91815260200190565b60405180910390a250505050565b610b0960096008611aa8565b565b6000610b1c60098585856008611bfb565b60408051858152602081018390529192506001600160a01b038616917f3f9021da39409c8415526f6f5150f90f549aff31c146178262479dd8778944009101610aef565b60025415610be15760405162461bcd60e51b815260206004820152604260248201527f6c69717569646974792068617320616c7265616479206265656e2070726f766960448201527f6465642c206e65656420746f2063616c6c2070726f766964654c697175696469606482015261747960f01b608482015260a4016106a6565b6006546040516323b872dd60e01b81526001600160a01b03909116906323b872dd90610c15908690309087906004016138cd565b602060405180830381600087803b158015610c2f57600080fd5b505af1158015610c43573d6000803e3d6000fd5b505050506040513d601f19601f82011682018060405250810190610c6791906138f1565b506007546040516323b872dd60e01b81526001600160a01b03909116906323b872dd90610c9c908690309086906004016138cd565b602060405180830381600087803b158015610cb657600080fd5b505af1158015610cca573d6000803e3d6000fd5b505050506040513d601f19601f82011682018060405250810190610cee91906138f1565b506006546001600160a01b039081166000908152600860205260408082208590556007549092168152908120829055610d54610d46610d34610d2f85611c2e565b611c7b565b610d40610d2f87611c2e565b90611ccd565b670de0b6b3a7640000900490565b9050610d608482611b1b565b60408051848152602081018490526001600160a01b038616917f6f6e8d9cc87c64a4776e719d1ad22f4b0b45089829effa9a2a8cddbdbc43b62b9101610aef565b6060600480546104ba9061381b565b600754600654600091610dd29185916001600160a01b039081169116856112ff565b60408051848152602081018390529192506001600160a01b038516917f1201e4c6b2a8cfdbb8440a213b3b16f2e11b23315ddb1751c9522fa3f3e6b35591016105b6565b600254811115610e685760405162461bcd60e51b815260206004820152601e60248201527f6e6f7420656e6f756768206c7020746f6b656e7320617661696c61626c65000060448201526064016106a6565b610e7460096008611aa8565b6000610e7f60025490565b6006546001600160a01b0316600090815260086020526040902054610ea5908490613884565b610eaf91906138b9565b90506000610ebc60025490565b6007546001600160a01b0316600090815260086020526040902054610ee2908590613884565b610eec91906138b9565b60065460405163a9059cbb60e01b81526001600160a01b0387811660048301526024820186905292935091169063a9059cbb90604401602060405180830381600087803b158015610f3c57600080fd5b505af1158015610f50573d6000803e3d6000fd5b505050506040513d601f19601f82011682018060405250810190610f7491906138f1565b5060075460405163a9059cbb60e01b81526001600160a01b038681166004830152602482018490529091169063a9059cbb90604401602060405180830381600087803b158015610fc357600080fd5b505af1158015610fd7573d6000803e3d6000fd5b505050506040513d601f19601f82011682018060405250810190610ffb91906138f1565b506006546001600160a01b031660009081526008602052604081208054849290611026908490613913565b90915550506007546001600160a01b031660009081526008602052604081208054839290611055908490613913565b9091555061106590508484611cd9565b836001600160a01b03167fc2c3f06e49b9f15e7b4af9055e183b0d73362e033ad82a07dec9bf984017171984604051610aef91815260200190565b3360009081526001602090815260408083206001600160a01b0386168452909152812054828110156111225760405162461bcd60e51b815260206004820152602560248201527f45524332303a2064656372656173656420616c6c6f77616e63652062656c6f77604482015264207a65726f60d81b60648201526084016106a6565b61112f33858584036111db565b5060019392505050565b600061054a3384846116bf565b600061115760098585856008611e27565b60408051858152602081018390529192506001600160a01b038616917f3118cfac1ed5d8e668c193690497d56fff82f1aabbdf08f598025b0dfe3087279101610aef565b6002850180546001600160a01b039586166001600160a01b0319918216179091556003860180549490951693169290921790925560018301919091559055565b6001600160a01b03831661123d5760405162461bcd60e51b8152602060048201526024808201527f45524332303a20617070726f76652066726f6d20746865207a65726f206164646044820152637265737360e01b60648201526084016106a6565b6001600160a01b03821661129e5760405162461bcd60e51b815260206004820152602260248201527f45524332303a20617070726f766520746f20746865207a65726f206164647265604482015261737360f01b60648201526084016106a6565b6001600160a01b0383811660008181526001602090815260408083209487168084529482529182902085905590518481527f8c5be1e5ebec7d5bd14f71427d1e84f3dd0314c0f7b2291e5b200ac8c7c3b925910160405180910390a3505050565b60008082116113505760405162461bcd60e51b815260206004820152601c60248201527f7377617020616d6f756e74206d75737420626520706f7369746976650000000060448201526064016106a6565b61135c60096008611aa8565b6001600160a01b03841660009081526008602052604081205461138090849061386c565b6001600160a01b0385166000908152600860205260409020546113a4908590613884565b6113ae91906138b9565b90506127106113be601e82613913565b6113c89083613884565b6113d291906138b9565b6040516323b872dd60e01b81529092506001600160a01b038616906323b872dd90611405908990309088906004016138cd565b602060405180830381600087803b15801561141f57600080fd5b505af1158015611433573d6000803e3d6000fd5b505050506040513d601f19601f8201168201806040525081019061145791906138f1565b5060405163a9059cbb60e01b81526001600160a01b0387811660048301526024820184905285169063a9059cbb90604401602060405180830381600087803b1580156114a257600080fd5b505af11580156114b6573d6000803e3d6000fd5b505050506040513d601f19601f820116820180604052508101906114da91906138f1565b506001600160a01b0385166000908152600860205260408120805485929061150390849061386c565b90915550506001600160a01b03841660009081526008602052604081208054849290611530908490613913565b90915550919695505050505050565b6115498482611aa8565b6000828152600685016020526040902060038101546001600160a01b038581169116146115b85760405162461bcd60e51b815260206004820152601a60248201527f73656e646572206d757374206265206f72646572206f776e657200000000000060448201526064016106a6565b6004818101546001600160a01b0316600090815290860160205260408120906115e18286611e50565b90506000811161162d5760405162461bcd60e51b81526020600482015260176024820152766e6f2070726f636565647320746f20776974686472617760481b60448201526064016106a6565b600583015460405163a9059cbb60e01b81526001600160a01b038881166004830152602482018490529091169063a9059cbb90604401602060405180830381600087803b15801561167d57600080fd5b505af1158015611691573d6000803e3d6000fd5b505050506040513d601f19601f820116820180604052508101906116b591906138f1565b5050505050505050565b6001600160a01b0383166117235760405162461bcd60e51b815260206004820152602560248201527f45524332303a207472616e736665722066726f6d20746865207a65726f206164604482015264647265737360d81b60648201526084016106a6565b6001600160a01b0382166117855760405162461bcd60e51b815260206004820152602360248201527f45524332303a207472616e7366657220746f20746865207a65726f206164647260448201526265737360e81b60648201526084016106a6565b6001600160a01b038316600090815260208190526040902054818110156117fd5760405162461bcd60e51b815260206004820152602660248201527f45524332303a207472616e7366657220616d6f756e7420657863656564732062604482015265616c616e636560d01b60648201526084016106a6565b6001600160a01b0380851660009081526020819052604080822085850390559185168152908120805484929061183490849061386c565b92505081905550826001600160a01b0316846001600160a01b03167fddf252ad1be2c89b69c2b068fc378daa952ba7f163c4a11628f55a4df523b3ef8460405161188091815260200190565b60405180910390a350505050565b6118988482611aa8565b6000828152600685016020526040902060038101546001600160a01b038581169116146119075760405162461bcd60e51b815260206004820152601a60248201527f73656e646572206d757374206265206f72646572206f776e657200000000000060448201526064016106a6565b6004818101546001600160a01b031660009081529086016020526040812090806119318387611f65565b9150915060008211806119445750600081115b61198a5760405162461bcd60e51b81526020600482015260176024820152766e6f2070726f636565647320746f20776974686472617760481b60448201526064016106a6565b600584015460405163a9059cbb60e01b81526001600160a01b038981166004830152602482018490529091169063a9059cbb90604401602060405180830381600087803b1580156119da57600080fd5b505af11580156119ee573d6000803e3d6000fd5b505050506040513d601f19601f82011682018060405250810190611a1291906138f1565b5060048481015460405163a9059cbb60e01b81526001600160a01b038a8116938201939093526024810185905291169063a9059cbb90604401602060405180830381600087803b158015611a6557600080fd5b505af1158015611a79573d6000803e3d6000fd5b505050506040513d601f19601f82011682018060405250810190611a9d91906138f1565b505050505050505050565b8154600183015460009190611abe90829061392a565b8460010154611acd9190613913565b611ad7919061386c565b90505b43811015611b0057611aed838383612086565b8254611af9908261386c565b9050611ada565b43836001015414611b1657611b16838343612086565b505050565b6001600160a01b038216611b715760405162461bcd60e51b815260206004820152601f60248201527f45524332303a206d696e7420746f20746865207a65726f20616464726573730060448201526064016106a6565b8060026000828254611b83919061386c565b90915550506001600160a01b03821660009081526020819052604081208054839290611bb090849061386c565b90915550506040518181526001600160a01b038316906000907fddf252ad1be2c89b69c2b068fc378daa952ba7f163c4a11628f55a4df523b3ef9060200160405180910390a35b5050565b60038501546002860154600091611c249188916001600160a01b0390811691168888888861228a565b9695505050505050565b60007812725dd1d243aba0e75fe645cc4873f9e65afe688c928e1f21821115611c6d57604051633492ffd960e01b8152600481018390526024016106a6565b50670de0b6b3a76400000290565b60007812725dd1d243aba0e75fe645cc4873f9e65afe688c928e1f21821115611cba57604051636155b67d60e01b8152600481018390526024016106a6565b61054e670de0b6b3a7640000830261252b565b60006106c283836126a6565b6001600160a01b038216611d395760405162461bcd60e51b815260206004820152602160248201527f45524332303a206275726e2066726f6d20746865207a65726f206164647265736044820152607360f81b60648201526084016106a6565b6001600160a01b03821660009081526020819052604090205481811015611dad5760405162461bcd60e51b815260206004820152602260248201527f45524332303a206275726e20616d6f756e7420657863656564732062616c616e604482015261636560f01b60648201526084016106a6565b6001600160a01b0383166000908152602081905260408120838303905560028054849290611ddc908490613913565b90915550506040518281526000906001600160a01b038516907fddf252ad1be2c89b69c2b068fc378daa952ba7f163c4a11628f55a4df523b3ef9060200160405180910390a3505050565b60028501546003860154600091611c249188916001600160a01b0390811691168888888861228a565b600081815260048301602052604081205480611eb95760405162461bcd60e51b815260206004820152602260248201527f73616c6573207261746520616d6f756e74206d75737420626520706f73697469604482015261766560f01b60648201526084016106a6565b6000838152600385016020908152604080832054600588019092529091205443821015611f24576000828152600687016020526040902054611f0a610d46611f0086611c2e565b610d408585613913565b60008781526004890160205260408120559450611f5c9050565b611f43610d46611f3385611c2e565b838960010154610d409190613913565b6001870154600087815260058901602052604090205593505b50505092915050565b60008181526003830160205260408120548190438111611fc05760405162461bcd60e51b81526020600482015260166024820152751bdc99195c88185b1c9958591e48199a5b9a5cda195960521b60448201526064016106a6565b600084815260048601602052604081205490611fdc4384613913565b9050611fe88282613884565b600087815260058901602052604090205490955061201b610d4661200b85611c2e565b838b60010154610d409190613913565b9450828860000160008282546120319190613913565b90915550506000878152600489016020908152604080832083905560038b01825280832083905586835260028b0190915281208054859290612074908490613913565b92505081905550505050509250929050565b60008360010154826120989190613913565b60028501546001600160a01b03166000908152600486016020526040812054919250906120c6908390613884565b60038601546001600160a01b03166000908152600487016020526040812054919250906120f4908490613884565b60028701546001600160a01b039081166000908152602088905260408082205460038b0154909316825281205492935090919080808061213686868a8a612768565b9350935093509350818b60008e60020160009054906101000a90046001600160a01b03166001600160a01b03166001600160a01b0316815260200190815260200160002081905550808b60008e60030160009054906101000a90046001600160a01b03166001600160a01b03166001600160a01b031681526020019081526020016000208190555060008c60040160008e60020160009054906101000a90046001600160a01b03166001600160a01b03166001600160a01b03168152602001908152602001600020905060008d60040160008f60030160009054906101000a90046001600160a01b03166001600160a01b03166001600160a01b031681526020019081526020016000209050612255858361290490919063ffffffff16565b61225f8187612904565b612269828d612946565b612273818d612946565b505050506001909901969096555050505050505050565b60006122968883611aa8565b6040516323b872dd60e01b81526001600160a01b038816906323b872dd906122c6908890309089906004016138cd565b602060405180830381600087803b1580156122e057600080fd5b505af11580156122f4573d6000803e3d6000fd5b505050506040513d601f19601f8201168201806040525081019061231891906138f1565b508754439060009061232a908361392a565b6123349083613913565b905060008161234487600161386c565b8c546123509190613884565b61235a919061386c565b905060006123688483613913565b61237290896138b9565b6001600160a01b038c16600090815260048e016020526040902060058e0154919250906123a2908290848661298a565b6040518060c001604052808e6005015481526020018481526020018381526020018b6001600160a01b031681526020018d6001600160a01b031681526020018c6001600160a01b03168152508d60060160008f60050154815260200190815260200160002060008201518160000155602082015181600101556040820151816002015560608201518160030160006101000a8154816001600160a01b0302191690836001600160a01b0316021790555060808201518160040160006101000a8154816001600160a01b0302191690836001600160a01b0316021790555060a08201518160050160006101000a8154816001600160a01b0302191690836001600160a01b031602179055509050508c60070160008b6001600160a01b03166001600160a01b031681526020019081526020016000208d6005015490806001815401808255809150506001900390600052602060002001600090919091909150558c60050160008154809291906125169061393e565b909155509d9c50505050505050505050505050565b60008161253a57506000919050565b50600181600160801b81106125545760409190911b9060801c5b68010000000000000000811061256f5760209190911b9060401c5b64010000000081106125865760109190911b9060201c5b62010000811061259b5760089190911b9060101c5b61010081106125af5760049190911b9060081c5b601081106125c25760029190911b9060041c5b600881106125d257600182901b91505b60018284816125e3576125e36138a3565b048301901c915060018284816125fb576125fb6138a3565b048301901c91506001828481612613576126136138a3565b048301901c9150600182848161262b5761262b6138a3565b048301901c91506001828481612643576126436138a3565b048301901c9150600182848161265b5761265b6138a3565b048301901c91506001828481612673576126736138a3565b048301901c9150600082848161268b5761268b6138a3565b0490508083101561269c578261269e565b805b949350505050565b60008080600019848609848602925082811083820303915050670de0b6b3a764000081106126ea5760405163698d9a0160e11b8152600481018290526024016106a6565b600080670de0b6b3a76400008688099150506706f05b59d3b1ffff8111826127245780670de0b6b3a764000085040194505050505061054e565b620400008285030493909111909103600160ee1b02919091177faccb18165bd6fe31ae1cf318dc5b51eee0e1ba569b88cd74c1773b91fac106690201905092915050565b600080808085158015612779575084155b1561278f575060009250829150869050856128f9565b856127d55761279e858861386c565b6127a8868a613884565b6127b291906138b9565b9350600092506127c28489613913565b91506127ce858861386c565b90506128f9565b8461281457600093506127e8868961386c565b6127f28789613884565b6127fc91906138b9565b9250612808868961386c565b91506127ce8388613913565b600061281f876129fe565b9050600061282c876129fe565b905060006128398b6129fe565b905060006128468b6129fe565b905060006128548383612a7b565b9050600061286484848888612b40565b90506000612876878784868989612b9d565b9050600061288e856128888885612c42565b90612a7b565b905060008261289d8a89613959565b6128a7919061399a565b90506000826128b68a89613959565b6128c0919061399a565b90506128cb82612d08565b6128d482612d08565b6128dd86612d08565b6128e686612d08565b9d509d509d509d50505050505050505050505b945094509450949050565b815415611bf75761292a61291b8360000154611c2e565b61292483611c2e565b90612d1c565b82600101600082825461293d919061386c565b90915550505050565b600081815260028301602052604081205483549091829185919061296b908490613913565b9091555050506001820154600091825260069092016020526040902055565b8184600001600082825461299e919061386c565b90915550506001840154600084815260058601602090815260408083209390935560038701815282822084905560048701815282822085905583825260028701905290812080548492906129f390849061386c565b909155505050505050565b60007809392ee8e921d5d073aff322e62439fcf32d7f344649470f8f19821215612a3e5760405163e608e18b60e01b8152600481018390526024016106a6565b7809392ee8e921d5d073aff322e62439fcf32d7f344649470f90821315611c6d576040516371f72a3160e01b8152600481018390526024016106a6565b6000600160ff1b831480612a925750600160ff1b82145b15612ab057604051630d01a11b60e21b815260040160405180910390fd5b60008060008512612ac15784612ac6565b846000035b915060008412612ad65783612adb565b836000035b90506000612ae983836126a6565b90506001600160ff1b03811115612b165760405163bf79e8d960e01b8152600481018290526024016106a6565b600019808713908613808218600114612b2f5782612b34565b826000035b98975050505050505050565b600080612b58612b4f84612d31565b61288888612d31565b90506000612b68612b4f86612d31565b90506000612b76828461399a565b90506000612b848385613959565b9050612b908282612c42565b9998505050505050505050565b600080612bba612bb5886128888b61288860046129fe565b612d31565b90506000612bd2612bcd612b4f86612d31565b612d94565b90506000612be8612be38484612a7b565b612db4565b90506000612c09612bf98a8461399a565b612c038b85613959565b90612c42565b90506000612c26612c198d612d31565b612888612bb58c8f612c42565b9050612c328282612a7b565b9c9b505050505050505050505050565b6000600160ff1b831480612c595750600160ff1b82145b15612c775760405163b3c754a360e01b815260040160405180910390fd5b60008060008512612c885784612c8d565b846000035b915060008412612c9d5783612ca2565b836000035b90506000612cb983670de0b6b3a764000084612e24565b90506001600160ff1b03811115612ce657604051637cb4bef560e01b8152600481018290526024016106a6565b600019808713908613808218600114612cff5782612b34565b612b34836139d9565b6000670de0b6b3a7640000825b0592915050565b60006106c283670de0b6b3a764000084612e24565b600080821215612d575760405163608c83ff60e11b8152600481018390526024016106a6565b7809392ee8e921d5d073aff322e62439fcf32d7f344649470f90821315611cba57604051632c482c3960e01b8152600481018390526024016106a6565b6000816ec097ce7bc90715b34b9f100000000081612d1557612d156138a3565b600068023f2fa8f6da5b9d3119821215612dd057506000919050565b680736ea4425c11ac6318212612dfc576040516399bb754160e01b8152600481018390526024016106a6565b6714057b7ef767814f82026106c2670de0b6b3a76400006706f05b59d3b20000830105612ef2565b600080806000198587098587029250828110838203039150508060001415612e5f57838281612e5557612e556138a3565b04925050506106c2565b838110612e8957604051631dcf306360e21b815260048101829052602481018590526044016106a6565b60008486880960026001871981018816978890046003810283188082028403028082028403028082028403028082028403028082028403029081029092039091026000889003889004909101858311909403939093029303949094049190911702949350505050565b600080821215612f3f5768033dd1780914b9711419821215612f1657506000919050565b612f2282600003612ef2565b6ec097ce7bc90715b34b9f100000000081612d1557612d156138a3565b680a688906bd8b0000008212612f6b5760405163e69458f960e01b8152600481018390526024016106a6565b670de0b6b3a7640000604083901b046106c281612f88565b919050565b600160bf1b678000000000000000821615612fac5768016a09e667f3bcc9090260401c5b674000000000000000821615612fcb576801306fe0a31b7152df0260401c5b672000000000000000821615612fea576801172b83c7d517adce0260401c5b6710000000000000008216156130095768010b5586cf9890f62a0260401c5b670800000000000000821615613028576801059b0d31585743ae0260401c5b67040000000000000082161561304757680102c9a3e778060ee70260401c5b6702000000000000008216156130665768010163da9fb33356d80260401c5b67010000000000000082161561308557680100b1afa5abcbed610260401c5b66800000000000008216156130a35768010058c86da1c09ea20260401c5b66400000000000008216156130c1576801002c605e2e8cec500260401c5b66200000000000008216156130df57680100162f3904051fa10260401c5b66100000000000008216156130fd576801000b175effdc76ba0260401c5b660800000000000082161561311b57680100058ba01fb9f96d0260401c5b66040000000000008216156131395768010002c5cc37da94920260401c5b6602000000000000821615613157576801000162e525ee05470260401c5b66010000000000008216156131755768010000b17255775c040260401c5b65800000000000821615613192576801000058b91b5bc9ae0260401c5b654000000000008216156131af57680100002c5c89d5ec6d0260401c5b652000000000008216156131cc5768010000162e43f4f8310260401c5b651000000000008216156131e957680100000b1721bcfc9a0260401c5b650800000000008216156132065768010000058b90cf1e6e0260401c5b65040000000000821615613223576801000002c5c863b73f0260401c5b6502000000000082161561324057680100000162e430e5a20260401c5b6501000000000082161561325d576801000000b1721835510260401c5b64800000000082161561327957680100000058b90c0b490260401c5b6440000000008216156132955768010000002c5c8601cc0260401c5b6420000000008216156132b1576801000000162e42fff00260401c5b6410000000008216156132cd5768010000000b17217fbb0260401c5b6408000000008216156132e9576801000000058b90bfce0260401c5b64040000000082161561330557680100000002c5c85fe30260401c5b6402000000008216156133215768010000000162e42ff10260401c5b64010000000082161561333d57680100000000b17217f80260401c5b63800000008216156133585768010000000058b90bfc0260401c5b6340000000821615613373576801000000002c5c85fe0260401c5b632000000082161561338e57680100000000162e42ff0260401c5b63100000008216156133a9576801000000000b17217f0260401c5b63080000008216156133c457680100000000058b90c00260401c5b63040000008216156133df5768010000000002c5c8600260401c5b63020000008216156133fa576801000000000162e4300260401c5b63010000008216156134155768010000000000b172180260401c5b6280000082161561342f576801000000000058b90c0260401c5b6240000082161561344957680100000000002c5c860260401c5b622000008216156134635768010000000000162e430260401c5b6210000082161561347d57680100000000000b17210260401c5b620800008216156134975768010000000000058b910260401c5b620400008216156134b1576801000000000002c5c80260401c5b620200008216156134cb57680100000000000162e40260401c5b620100008216156134e5576801000000000000b1720260401c5b6180008216156134fe57680100000000000058b90260401c5b6140008216156135175768010000000000002c5d0260401c5b612000821615613530576801000000000000162e0260401c5b6110008216156135495768010000000000000b170260401c5b610800821615613562576801000000000000058c0260401c5b61040082161561357b57680100000000000002c60260401c5b61020082161561359457680100000000000001630260401c5b6101008216156135ad57680100000000000000b10260401c5b60808216156135c557680100000000000000590260401c5b60408216156135dd576801000000000000002c0260401c5b60208216156135f557680100000000000000160260401c5b601082161561360d576801000000000000000b0260401c5b600882161561362557680100000000000000060260401c5b600482161561363d57680100000000000000030260401c5b600282161561365557680100000000000000010260401c5b600182161561366d57680100000000000000010260401c5b670de0b6b3a76400000260409190911c60bf031c90565b600060208083528351808285015260005b818110156136b157858101830151858201604001528201613695565b818111156136c3576000604083870101525b50601f01601f1916929092016040019392505050565b80356001600160a01b0381168114612f8357600080fd5b6000806040838503121561370357600080fd5b61370c836136d9565b946020939093013593505050565b60008060006060848603121561372f57600080fd5b613738846136d9565b9250613746602085016136d9565b9150604084013590509250925092565b60006020828403121561376857600080fd5b6106c2826136d9565b6020808252825182820181905260009190848201906040850190845b818110156137a95783518352928401929184019160010161378d565b50909695505050505050565b600080604083850312156137c857600080fd5b6137d1836136d9565b91506137df602084016136d9565b90509250929050565b6000806000606084860312156137fd57600080fd5b613806846136d9565b95602085013595506040909401359392505050565b600181811c9082168061382f57607f821691505b6020821081141561385057634e487b7160e01b600052602260045260246000fd5b50919050565b634e487b7160e01b600052601160045260246000fd5b6000821982111561387f5761387f613856565b500190565b600081600019048311821515161561389e5761389e613856565b500290565b634e487b7160e01b600052601260045260246000fd5b6000826138c8576138c86138a3565b500490565b6001600160a01b039384168152919092166020820152604081019190915260600190565b60006020828403121561390357600080fd5b815180151581146106c257600080fd5b60008282101561392557613925613856565b500390565b600082613939576139396138a3565b500690565b600060001982141561395257613952613856565b5060010190565b600080821280156001600160ff1b038490038513161561397b5761397b613856565b600160ff1b839003841281161561399457613994613856565b50500190565b60008083128015600160ff1b8501841216156139b8576139b8613856565b6001600160ff1b03840183138116156139d3576139d3613856565b50500390565b6000600160ff1b8214156139ef576139ef613856565b506000039056fea2646970667358221220a5f5c442cf4121b22a59c9f32d961ec12f290fa06c8e0867a2f0cc37e9f2d14264736f6c63430008090033a264697066735822122008292d97d3a7b3168fa969e50ec982daae3204594776b7603d401cd9ca6085e664736f6c63430008090033",
  "linkReferences": {},
  "deployedLinkReferences": {}
}