{
  "_format": "hh-sol-artifact-1",
  "contractName": "CallHash",
  "sourceName": "contracts/initcode/CallHash.sol",
  "abi": [
    {
      "inputs": [],
      "name": "getInitCodeHash",
      "outputs": [
        {
          "internalType": "bytes32",
          "name": "",
          "type": "bytes32"
        }
      ],
      "stateMutability": "pure",
      "type": "function"
    }
  ],
  "bytecode": "0x608060405234801561001057600080fd5b506141b2806100206000396000f3fe608060405234801561001057600080fd5b506004361061002b5760003560e01c80635431927d14610030575b600080fd5b61003861004a565b60405190815260200160405180910390f35b6000806040518060200161005d906100a0565b6020820181038252601f19601f8201166040525090508060405160200161008491906100ad565b6040516020818303038152906040528051906020012091505090565b614094806100e983390190565b6000825160005b818110156100ce57602081860181015185830152016100b4565b818111156100dd576000828501525b50919091019291505056fe60806040523480156200001157600080fd5b506040805180820182526009815268050756c7361722d4c560bc1b602080830191825283518085019094526006845265050554c2d4c560d41b908401528151919291620000619160039162000104565b5080516200007790600490602084019062000104565b505060058054336001600160a01b031990911617905550600654600754620000be916009916001600160a01b03918216911643600a620000c4602090811b6200126517901c565b620001e7565b6002850180546001600160a01b039586166001600160a01b0319918216179091556003860180549490951693169290921790925560018301919091559055565b8280546200011290620001aa565b90600052602060002090601f01602090048101928262000136576000855562000181565b82601f106200015157805160ff191683800117855562000181565b8280016001018555821562000181579182015b828111156200018157825182559160200191906001019062000164565b506200018f92915062000193565b5090565b5b808211156200018f576000815560010162000194565b600181811c90821680620001bf57607f821691505b60208210811415620001e157634e487b7160e01b600052602260045260246000fd5b50919050565b613e9d80620001f76000396000f3fe608060405234801561001057600080fd5b50600436106101f05760003560e01c80635fea61201161010f5780639a89f22d116100a2578063bde1077e11610071578063bde1077e1461045a578063c45a01551461046d578063ceb2894c14610480578063dd62ed3e146104a057600080fd5b80639a89f22d1461040e578063a201ccf614610421578063a457c2d714610434578063a9059cbb1461044757600080fd5b806366f55ece116100de57806366f55ece146103a75780636f9d42d2146103ca57806370a08231146103dd57806395d89b411461040657600080fd5b80635fea61201461037157806360a9d50514610384578063637842451461038c578063659509c51461039457600080fd5b806337bc5e4a1161018757806342b98a141161015657806342b98a1414610330578063485cc955146103435780635e3f2727146103565780635f64b55b1461035e57600080fd5b806337bc5e4a146102bd57806339509351146102dd5780633a8c885e146102f05780633b4a6bc31461031057600080fd5b806313bf4fd2116101c357806313bf4fd21461027657806318160ddd1461028957806323b872dd1461029b578063313ce567146102ae57600080fd5b806306fdde03146101f5578063095ea7b3146102135780630fc63d101461023657806310d8217314610261575b600080fd5b6101fd6104d9565b60405161020a9190613ab2565b60405180910390f35b610226610221366004613b3c565b61056b565b604051901515815260200161020a565b600654610249906001600160a01b031681565b6040516001600160a01b03909116815260200161020a565b61027461026f366004613b3c565b610582565b005b610274610284366004613b3c565b6105f1565b6002545b60405190815260200161020a565b6102266102a9366004613b66565b610646565b6040516012815260200161020a565b6102d06102cb366004613ba2565b61070c565b60405161020a9190613bbd565b6102266102eb366004613b3c565b610778565b61028d6102fe366004613ba2565b60086020526000908152604090205481565b6006546001600160a01b031660009081526008602052604090205461028d565b61027461033e366004613b3c565b6107b4565b610274610351366004613c01565b6107fd565b61028d601e81565b600754610249906001600160a01b031681565b61027461037f366004613b3c565b61089d565b61028d600a81565b610274610b88565b6102746103a2366004613c34565b610b96565b6102266103b5366004613c67565b60009081526011602052604090205460ff1690565b6102746103d8366004613c34565b610beb565b61028d6103eb366004613ba2565b6001600160a01b031660009081526020819052604090205490565b6101fd610e53565b61027461041c366004613b3c565b610e62565b61027461042f366004613b3c565b610ec8565b610226610442366004613b3c565b611152565b610226610455366004613b3c565b611203565b610274610468366004613c34565b611210565b600554610249906001600160a01b031681565b6007546001600160a01b031660009081526008602052604090205461028d565b61028d6104ae366004613c01565b6001600160a01b03918216600090815260016020908152604080832093909416825291909152205490565b6060600380546104e890613c80565b80601f016020809104026020016040519081016040528092919081815260200182805461051490613c80565b80156105615780601f1061053657610100808354040283529160200191610561565b820191906000526020600020905b81548152906001019060200180831161054457829003601f168201915b5050505050905090565b60006105783384846112bd565b5060015b92915050565b6006546007546000916105a49185916001600160a01b03908116911685611415565b60408051848152602081018390529192506001600160a01b038516917f1a442df1f5a0e29117f2a0d6ceb8d5db8b4e68203b0d5edac8e267920708522e91015b60405180910390a2505050565b6105ff60098383600861165c565b816001600160a01b03167fe91f05f05f7e013ffc245507e3fd86ec0ca1d2f5ab431eea8827cc80f303bf7a8260405161063a91815260200190565b60405180910390a25050565b60006106538484846117f9565b6001600160a01b0384166000908152600160209081526040808320338452909152902054828110156106f25760405162461bcd60e51b815260206004820152602860248201527f45524332303a207472616e7366657220616d6f756e742065786365656473206160448201527f6c6c6f77616e636500000000000000000000000000000000000000000000000060648201526084015b60405180910390fd5b6106ff85338584036112bd565b60019150505b9392505050565b6001600160a01b03811660009081526010602090815260409182902080548351818402810184019094528084526060939283018282801561076c57602002820191906000526020600020905b815481526020019060010190808311610758575b50505050509050919050565b3360008181526001602090815260408083206001600160a01b038716845290915281205490916105789185906107af908690613cd1565b6112bd565b6107c2600983836008611a11565b816001600160a01b03167fec1efa7415f20eabaabbfdfc33d5c736e9d413afcc9dedd898c035c0d1889eaa8260405161063a91815260200190565b6005546001600160a01b031633146108575760405162461bcd60e51b815260206004820152600f60248201527f504149523a20464f5242494444454e000000000000000000000000000000000060448201526064016106e9565b600680546001600160a01b039384167fffffffffffffffffffffffff00000000000000000000000000000000000000009182161790915560078054929093169116179055565b6002546109385760405162461bcd60e51b815260206004820152604860248201527f6e6f206c697175696469747920686173206265656e2070726f7669646564207960448201527f65742c206e65656420746f2063616c6c2070726f76696465496e697469616c4c60648201527f6971756964697479000000000000000000000000000000000000000000000000608482015260a4016106e9565b61094460096008611c48565b600061094f60025490565b6006546001600160a01b03166000908152600860205260409020546109749084613ce9565b61097e9190613d1e565b9050600061098b60025490565b6007546001600160a01b03166000908152600860205260409020546109b09085613ce9565b6109ba9190613d1e565b6006546040516323b872dd60e01b81526001600160a01b038781166004830152306024830152604482018690529293509116906323b872dd90606401602060405180830381600087803b158015610a1057600080fd5b505af1158015610a24573d6000803e3d6000fd5b505050506040513d601f19601f82011682018060405250810190610a489190613d32565b506007546040516323b872dd60e01b81526001600160a01b03868116600483015230602483015260448201849052909116906323b872dd90606401602060405180830381600087803b158015610a9d57600080fd5b505af1158015610ab1573d6000803e3d6000fd5b505050506040513d601f19601f82011682018060405250810190610ad59190613d32565b506006546001600160a01b031660009081526008602052604081208054849290610b00908490613cd1565b90915550506007546001600160a01b031660009081526008602052604081208054839290610b2f908490613cd1565b90915550610b3f90508484611cbb565b836001600160a01b03167fccb2ae3a2936bf4c94fa4e12cdf0cdad6ed0e4888a044cef89afa60f2e4b92d384604051610b7a91815260200190565b60405180910390a250505050565b610b9460096008611c48565b565b6000610ba760098585856008611d9b565b60408051858152602081018390529192506001600160a01b038616917f3f9021da39409c8415526f6f5150f90f549aff31c146178262479dd8778944009101610b7a565b60025415610c875760405162461bcd60e51b815260206004820152604260248201527f6c69717569646974792068617320616c7265616479206265656e2070726f766960448201527f6465642c206e65656420746f2063616c6c2070726f766964654c69717569646960648201527f7479000000000000000000000000000000000000000000000000000000000000608482015260a4016106e9565b6006546040516323b872dd60e01b81526001600160a01b03858116600483015230602483015260448201859052909116906323b872dd90606401602060405180830381600087803b158015610cdb57600080fd5b505af1158015610cef573d6000803e3d6000fd5b505050506040513d601f19601f82011682018060405250810190610d139190613d32565b506007546040516323b872dd60e01b81526001600160a01b03858116600483015230602483015260448201849052909116906323b872dd90606401602060405180830381600087803b158015610d6857600080fd5b505af1158015610d7c573d6000803e3d6000fd5b505050506040513d601f19601f82011682018060405250810190610da09190613d32565b506006546001600160a01b039081166000908152600860205260408082208590556007549092168152908120829055610e06610df8610de6610de185611dce565b611e34565b610df2610de187611dce565b90611e9f565b670de0b6b3a7640000900490565b9050610e128482611cbb565b60408051848152602081018490526001600160a01b038616917f6f6e8d9cc87c64a4776e719d1ad22f4b0b45089829effa9a2a8cddbdbc43b62b9101610b7a565b6060600480546104e890613c80565b600754600654600091610e849185916001600160a01b03908116911685611415565b60408051848152602081018390529192506001600160a01b038516917f1201e4c6b2a8cfdbb8440a213b3b16f2e11b23315ddb1751c9522fa3f3e6b35591016105e4565b600254811115610f1a5760405162461bcd60e51b815260206004820152601e60248201527f6e6f7420656e6f756768206c7020746f6b656e7320617661696c61626c65000060448201526064016106e9565b610f2660096008611c48565b6000610f3160025490565b6006546001600160a01b0316600090815260086020526040902054610f57908490613ce9565b610f619190613d1e565b90506000610f6e60025490565b6007546001600160a01b0316600090815260086020526040902054610f94908590613ce9565b610f9e9190613d1e565b60065460405163a9059cbb60e01b81526001600160a01b0387811660048301526024820186905292935091169063a9059cbb90604401602060405180830381600087803b158015610fee57600080fd5b505af1158015611002573d6000803e3d6000fd5b505050506040513d601f19601f820116820180604052508101906110269190613d32565b5060075460405163a9059cbb60e01b81526001600160a01b038681166004830152602482018490529091169063a9059cbb90604401602060405180830381600087803b15801561107557600080fd5b505af1158015611089573d6000803e3d6000fd5b505050506040513d601f19601f820116820180604052508101906110ad9190613d32565b506006546001600160a01b0316600090815260086020526040812080548492906110d8908490613d54565b90915550506007546001600160a01b031660009081526008602052604081208054839290611107908490613d54565b9091555061111790508484611eab565b836001600160a01b03167fc2c3f06e49b9f15e7b4af9055e183b0d73362e033ad82a07dec9bf984017171984604051610b7a91815260200190565b3360009081526001602090815260408083206001600160a01b0386168452909152812054828110156111ec5760405162461bcd60e51b815260206004820152602560248201527f45524332303a2064656372656173656420616c6c6f77616e63652062656c6f7760448201527f207a65726f00000000000000000000000000000000000000000000000000000060648201526084016106e9565b6111f933858584036112bd565b5060019392505050565b60006105783384846117f9565b600061122160098585856008612030565b60408051858152602081018390529192506001600160a01b038616917f3118cfac1ed5d8e668c193690497d56fff82f1aabbdf08f598025b0dfe3087279101610b7a565b6002850180546001600160a01b039586167fffffffffffffffffffffffff0000000000000000000000000000000000000000918216179091556003860180549490951693169290921790925560018301919091559055565b6001600160a01b0383166113385760405162461bcd60e51b8152602060048201526024808201527f45524332303a20617070726f76652066726f6d20746865207a65726f2061646460448201527f726573730000000000000000000000000000000000000000000000000000000060648201526084016106e9565b6001600160a01b0382166113b45760405162461bcd60e51b815260206004820152602260248201527f45524332303a20617070726f766520746f20746865207a65726f20616464726560448201527f737300000000000000000000000000000000000000000000000000000000000060648201526084016106e9565b6001600160a01b0383811660008181526001602090815260408083209487168084529482529182902085905590518481527f8c5be1e5ebec7d5bd14f71427d1e84f3dd0314c0f7b2291e5b200ac8c7c3b925910160405180910390a3505050565b60008082116114665760405162461bcd60e51b815260206004820152601c60248201527f7377617020616d6f756e74206d75737420626520706f7369746976650000000060448201526064016106e9565b61147260096008611c48565b6001600160a01b038416600090815260086020526040812054611496908490613cd1565b6001600160a01b0385166000908152600860205260409020546114ba908590613ce9565b6114c49190613d1e565b90506127106114d4601e82613d54565b6114de9083613ce9565b6114e89190613d1e565b6040516323b872dd60e01b81526001600160a01b03888116600483015230602483015260448201869052919350908616906323b872dd90606401602060405180830381600087803b15801561153c57600080fd5b505af1158015611550573d6000803e3d6000fd5b505050506040513d601f19601f820116820180604052508101906115749190613d32565b5060405163a9059cbb60e01b81526001600160a01b0387811660048301526024820184905285169063a9059cbb90604401602060405180830381600087803b1580156115bf57600080fd5b505af11580156115d3573d6000803e3d6000fd5b505050506040513d601f19601f820116820180604052508101906115f79190613d32565b506001600160a01b03851660009081526008602052604081208054859290611620908490613cd1565b90915550506001600160a01b0384166000908152600860205260408120805484929061164d908490613d54565b90915550919695505050505050565b6116668482611c48565b6000828152600685016020526040902060038101546001600160a01b038581169116146116d55760405162461bcd60e51b815260206004820152601a60248201527f73656e646572206d757374206265206f72646572206f776e657200000000000060448201526064016106e9565b6004818101546001600160a01b0316600090815290860160205260408120906116fe8286612059565b9050600081116117505760405162461bcd60e51b815260206004820152601760248201527f6e6f2070726f636565647320746f20776974686472617700000000000000000060448201526064016106e9565b600583015460405163a9059cbb60e01b81526001600160a01b038881166004830152602482018490529091169063a9059cbb90604401602060405180830381600087803b1580156117a057600080fd5b505af11580156117b4573d6000803e3d6000fd5b505050506040513d601f19601f820116820180604052508101906117d89190613d32565b5050506000928352505060089092016020525060409020805460ff19169055565b6001600160a01b0383166118755760405162461bcd60e51b815260206004820152602560248201527f45524332303a207472616e736665722066726f6d20746865207a65726f20616460448201527f647265737300000000000000000000000000000000000000000000000000000060648201526084016106e9565b6001600160a01b0382166118f15760405162461bcd60e51b815260206004820152602360248201527f45524332303a207472616e7366657220746f20746865207a65726f206164647260448201527f657373000000000000000000000000000000000000000000000000000000000060648201526084016106e9565b6001600160a01b038316600090815260208190526040902054818110156119805760405162461bcd60e51b815260206004820152602660248201527f45524332303a207472616e7366657220616d6f756e742065786365656473206260448201527f616c616e6365000000000000000000000000000000000000000000000000000060648201526084016106e9565b6001600160a01b038085166000908152602081905260408082208585039055918516815290812080548492906119b7908490613cd1565b92505081905550826001600160a01b0316846001600160a01b03167fddf252ad1be2c89b69c2b068fc378daa952ba7f163c4a11628f55a4df523b3ef84604051611a0391815260200190565b60405180910390a350505050565b611a1b8482611c48565b6000828152600685016020526040902060038101546001600160a01b03858116911614611a8a5760405162461bcd60e51b815260206004820152601a60248201527f73656e646572206d757374206265206f72646572206f776e657200000000000060448201526064016106e9565b6004818101546001600160a01b03166000908152908601602052604081209080611ab48387612189565b915091506000821180611ac75750600081115b611b135760405162461bcd60e51b815260206004820152601760248201527f6e6f2070726f636565647320746f20776974686472617700000000000000000060448201526064016106e9565b600584015460405163a9059cbb60e01b81526001600160a01b038981166004830152602482018490529091169063a9059cbb90604401602060405180830381600087803b158015611b6357600080fd5b505af1158015611b77573d6000803e3d6000fd5b505050506040513d601f19601f82011682018060405250810190611b9b9190613d32565b5060048481015460405163a9059cbb60e01b81526001600160a01b038a8116938201939093526024810185905291169063a9059cbb90604401602060405180830381600087803b158015611bee57600080fd5b505af1158015611c02573d6000803e3d6000fd5b505050506040513d601f19601f82011682018060405250810190611c269190613d32565b505050600093845250505060089092016020525060409020805460ff19169055565b8154600183015460009190611c5e908290613d6b565b8460010154611c6d9190613d54565b611c779190613cd1565b90505b43811015611ca057611c8d8383836122b1565b8254611c999082613cd1565b9050611c7a565b43836001015414611cb657611cb68383436122b1565b505050565b6001600160a01b038216611d115760405162461bcd60e51b815260206004820152601f60248201527f45524332303a206d696e7420746f20746865207a65726f20616464726573730060448201526064016106e9565b8060026000828254611d239190613cd1565b90915550506001600160a01b03821660009081526020819052604081208054839290611d50908490613cd1565b90915550506040518181526001600160a01b038316906000907fddf252ad1be2c89b69c2b068fc378daa952ba7f163c4a11628f55a4df523b3ef9060200160405180910390a35b5050565b60038501546002860154600091611dc49188916001600160a01b039081169116888888886124b5565b9695505050505050565b60007812725dd1d243aba0e75fe645cc4873f9e65afe688c928e1f21821115611e26576040517f3492ffd9000000000000000000000000000000000000000000000000000000008152600481018390526024016106e9565b50670de0b6b3a76400000290565b60007812725dd1d243aba0e75fe645cc4873f9e65afe688c928e1f21821115611e8c576040517f6155b67d000000000000000000000000000000000000000000000000000000008152600481018390526024016106e9565b61057c670de0b6b3a7640000830261278e565b60006107058383612916565b6001600160a01b038216611f275760405162461bcd60e51b815260206004820152602160248201527f45524332303a206275726e2066726f6d20746865207a65726f2061646472657360448201527f730000000000000000000000000000000000000000000000000000000000000060648201526084016106e9565b6001600160a01b03821660009081526020819052604090205481811015611fb65760405162461bcd60e51b815260206004820152602260248201527f45524332303a206275726e20616d6f756e7420657863656564732062616c616e60448201527f636500000000000000000000000000000000000000000000000000000000000060648201526084016106e9565b6001600160a01b0383166000908152602081905260408120838303905560028054849290611fe5908490613d54565b90915550506040518281526000906001600160a01b038516907fddf252ad1be2c89b69c2b068fc378daa952ba7f163c4a11628f55a4df523b3ef9060200160405180910390a3505050565b60028501546003860154600091611dc49188916001600160a01b039081169116888888886124b5565b6000818152600483016020526040812054806120dd5760405162461bcd60e51b815260206004820152602260248201527f73616c6573207261746520616d6f756e74206d75737420626520706f7369746960448201527f766500000000000000000000000000000000000000000000000000000000000060648201526084016106e9565b600083815260038501602090815260408083205460058801909252909120544382101561214857600082815260068701602052604090205461212e610df861212486611dce565b610df28585613d54565b600087815260048901602052604081205594506121809050565b612167610df861215785611dce565b838960010154610df29190613d54565b6001870154600087815260058901602052604090205593505b50505092915050565b600081815260038301602052604081205481904381116121eb5760405162461bcd60e51b815260206004820152601660248201527f6f7264657220616c72656164792066696e69736865640000000000000000000060448201526064016106e9565b6000848152600486016020526040812054906122074384613d54565b90506122138282613ce9565b6000878152600589016020526040902054909550612246610df861223685611dce565b838b60010154610df29190613d54565b94508288600001600082825461225c9190613d54565b90915550506000878152600489016020908152604080832083905560038b01825280832083905586835260028b019091528120805485929061229f908490613d54565b92505081905550505050509250929050565b60008360010154826122c39190613d54565b60028501546001600160a01b03166000908152600486016020526040812054919250906122f1908390613ce9565b60038601546001600160a01b031660009081526004870160205260408120549192509061231f908490613ce9565b60028701546001600160a01b039081166000908152602088905260408082205460038b0154909316825281205492935090919080808061236186868a8a612a0b565b9350935093509350818b60008e60020160009054906101000a90046001600160a01b03166001600160a01b03166001600160a01b0316815260200190815260200160002081905550808b60008e60030160009054906101000a90046001600160a01b03166001600160a01b03166001600160a01b031681526020019081526020016000208190555060008c60040160008e60020160009054906101000a90046001600160a01b03166001600160a01b03166001600160a01b03168152602001908152602001600020905060008d60040160008f60030160009054906101000a90046001600160a01b03166001600160a01b03166001600160a01b0316815260200190815260200160002090506124808583612ba790919063ffffffff16565b61248a8187612ba7565b612494828d612be9565b61249e818d612be9565b505050506001909901969096555050505050505050565b60006124c18883611c48565b6040516323b872dd60e01b81526001600160a01b038681166004830152306024830152604482018690528816906323b872dd90606401602060405180830381600087803b15801561251157600080fd5b505af1158015612525573d6000803e3d6000fd5b505050506040513d601f19601f820116820180604052508101906125499190613d32565b508754439060009061255b9083613d6b565b6125659083613d54565b9050600081612575876001613cd1565b8c546125819190613ce9565b61258b9190613cd1565b905060006125998483613d54565b6125a39089613d1e565b6001600160a01b038c16600090815260048e016020526040902060058e0154919250906125d39082908486612c2d565b6040518060c001604052808e6005015481526020018481526020018381526020018b6001600160a01b031681526020018d6001600160a01b031681526020018c6001600160a01b03168152508d60060160008f60050154815260200190815260200160002060008201518160000155602082015181600101556040820151816002015560608201518160030160006101000a8154816001600160a01b0302191690836001600160a01b0316021790555060808201518160040160006101000a8154816001600160a01b0302191690836001600160a01b0316021790555060a08201518160050160006101000a8154816001600160a01b0302191690836001600160a01b031602179055509050508c60070160008b6001600160a01b03166001600160a01b031681526020019081526020016000208d60050154908060018154018082558091505060019003906000526020600020016000909190919091505560018d60080160008f60050154815260200190815260200160002060006101000a81548160ff0219169083151502179055508c600501600081548092919061277990613d7f565b909155509d9c50505050505050505050505050565b60008161279d57506000919050565b5060018170010000000000000000000000000000000081106127c45760409190911b9060801c5b6801000000000000000081106127df5760209190911b9060401c5b64010000000081106127f65760109190911b9060201c5b62010000811061280b5760089190911b9060101c5b610100811061281f5760049190911b9060081c5b601081106128325760029190911b9060041c5b6008811061284257600182901b91505b600182848161285357612853613d08565b048301901c9150600182848161286b5761286b613d08565b048301901c9150600182848161288357612883613d08565b048301901c9150600182848161289b5761289b613d08565b048301901c915060018284816128b3576128b3613d08565b048301901c915060018284816128cb576128cb613d08565b048301901c915060018284816128e3576128e3613d08565b048301901c915060008284816128fb576128fb613d08565b0490508083101561290c578261290e565b805b949350505050565b60008080600019848609848602925082811083820303915050670de0b6b3a76400008110612973576040517fd31b3402000000000000000000000000000000000000000000000000000000008152600481018290526024016106e9565b600080670de0b6b3a76400008688099150506706f05b59d3b1ffff8111826129ad5780670de0b6b3a764000085040194505050505061057c565b6204000082850304939091119091037d40000000000000000000000000000000000000000000000000000000000002919091177faccb18165bd6fe31ae1cf318dc5b51eee0e1ba569b88cd74c1773b91fac106690201905092915050565b600080808085158015612a1c575084155b15612a3257506000925082915086905085612b9c565b85612a7857612a418588613cd1565b612a4b868a613ce9565b612a559190613d1e565b935060009250612a658489613d54565b9150612a718588613cd1565b9050612b9c565b84612ab75760009350612a8b8689613cd1565b612a958789613ce9565b612a9f9190613d1e565b9250612aab8689613cd1565b9150612a718388613d54565b6000612ac287612ca1565b90506000612acf87612ca1565b90506000612adc8b612ca1565b90506000612ae98b612ca1565b90506000612af78383612d56565b90506000612b0784848888612e66565b90506000612b19878784868989612ec3565b90506000612b3185612b2b8885612f68565b90612d56565b9050600082612b408a89613d9a565b612b4a9190613df2565b9050600082612b598a89613d9a565b612b639190613df2565b9050612b6e82613079565b612b7782613079565b612b8086613079565b612b8986613079565b9d509d509d509d50505050505050505050505b945094509450949050565b815415611d9757612bcd612bbe8360000154611dce565b612bc783611dce565b9061308d565b826001016000828254612be09190613cd1565b90915550505050565b6000818152600283016020526040812054835490918291859190612c0e908490613d54565b9091555050506001820154600091825260069092016020526040902055565b81846000016000828254612c419190613cd1565b9091555050600184015460008481526005860160209081526040808320939093556003870181528282208490556004870181528282208590558382526002870190529081208054849290612c96908490613cd1565b909155505050505050565b60007ffffffffffffffff6c6d11716de2a2f8c500cdd19dbc6030cd280cbb9b6b8f070821215612d00576040517fe608e18b000000000000000000000000000000000000000000000000000000008152600481018390526024016106e9565b7809392ee8e921d5d073aff322e62439fcf32d7f344649470f90821315611e26576040517f71f72a31000000000000000000000000000000000000000000000000000000008152600481018390526024016106e9565b6000600160ff1b831480612d6d5750600160ff1b82145b15612da4576040517f3406846c00000000000000000000000000000000000000000000000000000000815260040160405180910390fd5b60008060008512612db55784612dba565b846000035b915060008412612dca5783612dcf565b836000035b90506000612ddd8383612916565b90507f7fffffffffffffffffffffffffffffffffffffffffffffffffffffffffffffff811115612e3c576040517fbf79e8d9000000000000000000000000000000000000000000000000000000008152600481018290526024016106e9565b600019808713908613808218600114612e555782612e5a565b826000035b98975050505050505050565b600080612e7e612e75846130a2565b612b2b886130a2565b90506000612e8e612e75866130a2565b90506000612e9c8284613df2565b90506000612eaa8385613d9a565b9050612eb68282612f68565b9998505050505050505050565b600080612ee0612edb88612b2b8b612b2b6004612ca1565b6130a2565b90506000612ef8612ef3612e75866130a2565b613137565b90506000612f0e612f098484612d56565b613157565b90506000612f2f612f1f8a84613df2565b612f298b85613d9a565b90612f68565b90506000612f4c612f3f8d6130a2565b612b2b612edb8c8f612f68565b9050612f588282612d56565b9c9b505050505050505050505050565b6000600160ff1b831480612f7f5750600160ff1b82145b15612fb6576040517fb3c754a300000000000000000000000000000000000000000000000000000000815260040160405180910390fd5b60008060008512612fc75784612fcc565b846000035b915060008412612fdc5783612fe1565b836000035b90506000612ff883670de0b6b3a7640000846131f6565b90507f7fffffffffffffffffffffffffffffffffffffffffffffffffffffffffffffff811115613057576040517f7cb4bef5000000000000000000000000000000000000000000000000000000008152600481018290526024016106e9565b6000198087139086138082186001146130705782612e5a565b612e5a83613e4a565b6000670de0b6b3a7640000825b0592915050565b600061070583670de0b6b3a7640000846131f6565b6000808212156130e1576040517fc11907fe000000000000000000000000000000000000000000000000000000008152600481018390526024016106e9565b7809392ee8e921d5d073aff322e62439fcf32d7f344649470f90821315611e8c576040517f2c482c39000000000000000000000000000000000000000000000000000000008152600481018390526024016106e9565b6000816ec097ce7bc90715b34b9f10000000008161308657613086613d08565b60007ffffffffffffffffffffffffffffffffffffffffffffffffdc0d0570925a462ce82121561318957506000919050565b680736ea4425c11ac63182126131ce576040517f99bb7541000000000000000000000000000000000000000000000000000000008152600481018390526024016106e9565b6714057b7ef767814f8202610705670de0b6b3a76400006706f05b59d3b200008301056132dd565b6000808060001985870985870292508281108382030391505080600014156132315783828161322757613227613d08565b0492505050610705565b838110613274576040517f773cc18c00000000000000000000000000000000000000000000000000000000815260048101829052602481018590526044016106e9565b60008486880960026001871981018816978890046003810283188082028403028082028403028082028403028082028403028082028403029081029092039091026000889003889004909101858311909403939093029303949094049190911702949350505050565b600080821215613340577ffffffffffffffffffffffffffffffffffffffffffffffffcc22e87f6eb468eeb82121561331757506000919050565b613323826000036132dd565b6ec097ce7bc90715b34b9f10000000008161308657613086613d08565b680a688906bd8b0000008212613385576040517fe69458f9000000000000000000000000000000000000000000000000000000008152600481018390526024016106e9565b670de0b6b3a7640000604083901b04610705816133a2565b919050565b778000000000000000000000000000000000000000000000006780000000000000008216156133da5768016a09e667f3bcc9090260401c5b6740000000000000008216156133f9576801306fe0a31b7152df0260401c5b672000000000000000821615613418576801172b83c7d517adce0260401c5b6710000000000000008216156134375768010b5586cf9890f62a0260401c5b670800000000000000821615613456576801059b0d31585743ae0260401c5b67040000000000000082161561347557680102c9a3e778060ee70260401c5b6702000000000000008216156134945768010163da9fb33356d80260401c5b6701000000000000008216156134b357680100b1afa5abcbed610260401c5b66800000000000008216156134d15768010058c86da1c09ea20260401c5b66400000000000008216156134ef576801002c605e2e8cec500260401c5b662000000000000082161561350d57680100162f3904051fa10260401c5b661000000000000082161561352b576801000b175effdc76ba0260401c5b660800000000000082161561354957680100058ba01fb9f96d0260401c5b66040000000000008216156135675768010002c5cc37da94920260401c5b6602000000000000821615613585576801000162e525ee05470260401c5b66010000000000008216156135a35768010000b17255775c040260401c5b658000000000008216156135c0576801000058b91b5bc9ae0260401c5b654000000000008216156135dd57680100002c5c89d5ec6d0260401c5b652000000000008216156135fa5768010000162e43f4f8310260401c5b6510000000000082161561361757680100000b1721bcfc9a0260401c5b650800000000008216156136345768010000058b90cf1e6e0260401c5b65040000000000821615613651576801000002c5c863b73f0260401c5b6502000000000082161561366e57680100000162e430e5a20260401c5b6501000000000082161561368b576801000000b1721835510260401c5b6480000000008216156136a757680100000058b90c0b490260401c5b6440000000008216156136c35768010000002c5c8601cc0260401c5b6420000000008216156136df576801000000162e42fff00260401c5b6410000000008216156136fb5768010000000b17217fbb0260401c5b640800000000821615613717576801000000058b90bfce0260401c5b64040000000082161561373357680100000002c5c85fe30260401c5b64020000000082161561374f5768010000000162e42ff10260401c5b64010000000082161561376b57680100000000b17217f80260401c5b63800000008216156137865768010000000058b90bfc0260401c5b63400000008216156137a1576801000000002c5c85fe0260401c5b63200000008216156137bc57680100000000162e42ff0260401c5b63100000008216156137d7576801000000000b17217f0260401c5b63080000008216156137f257680100000000058b90c00260401c5b630400000082161561380d5768010000000002c5c8600260401c5b6302000000821615613828576801000000000162e4300260401c5b63010000008216156138435768010000000000b172180260401c5b6280000082161561385d576801000000000058b90c0260401c5b6240000082161561387757680100000000002c5c860260401c5b622000008216156138915768010000000000162e430260401c5b621000008216156138ab57680100000000000b17210260401c5b620800008216156138c55768010000000000058b910260401c5b620400008216156138df576801000000000002c5c80260401c5b620200008216156138f957680100000000000162e40260401c5b62010000821615613913576801000000000000b1720260401c5b61800082161561392c57680100000000000058b90260401c5b6140008216156139455768010000000000002c5d0260401c5b61200082161561395e576801000000000000162e0260401c5b6110008216156139775768010000000000000b170260401c5b610800821615613990576801000000000000058c0260401c5b6104008216156139a957680100000000000002c60260401c5b6102008216156139c257680100000000000001630260401c5b6101008216156139db57680100000000000000b10260401c5b60808216156139f357680100000000000000590260401c5b6040821615613a0b576801000000000000002c0260401c5b6020821615613a2357680100000000000000160260401c5b6010821615613a3b576801000000000000000b0260401c5b6008821615613a5357680100000000000000060260401c5b6004821615613a6b57680100000000000000030260401c5b6002821615613a8357680100000000000000010260401c5b6001821615613a9b57680100000000000000010260401c5b670de0b6b3a76400000260409190911c60bf031c90565b600060208083528351808285015260005b81811015613adf57858101830151858201604001528201613ac3565b81811115613af1576000604083870101525b50601f017fffffffffffffffffffffffffffffffffffffffffffffffffffffffffffffffe016929092016040019392505050565b80356001600160a01b038116811461339d57600080fd5b60008060408385031215613b4f57600080fd5b613b5883613b25565b946020939093013593505050565b600080600060608486031215613b7b57600080fd5b613b8484613b25565b9250613b9260208501613b25565b9150604084013590509250925092565b600060208284031215613bb457600080fd5b61070582613b25565b6020808252825182820181905260009190848201906040850190845b81811015613bf557835183529284019291840191600101613bd9565b50909695505050505050565b60008060408385031215613c1457600080fd5b613c1d83613b25565b9150613c2b60208401613b25565b90509250929050565b600080600060608486031215613c4957600080fd5b613c5284613b25565b95602085013595506040909401359392505050565b600060208284031215613c7957600080fd5b5035919050565b600181811c90821680613c9457607f821691505b60208210811415613cb557634e487b7160e01b600052602260045260246000fd5b50919050565b634e487b7160e01b600052601160045260246000fd5b60008219821115613ce457613ce4613cbb565b500190565b6000816000190483118215151615613d0357613d03613cbb565b500290565b634e487b7160e01b600052601260045260246000fd5b600082613d2d57613d2d613d08565b500490565b600060208284031215613d4457600080fd5b8151801515811461070557600080fd5b600082821015613d6657613d66613cbb565b500390565b600082613d7a57613d7a613d08565b500690565b6000600019821415613d9357613d93613cbb565b5060010190565b6000808212827f7fffffffffffffffffffffffffffffffffffffffffffffffffffffffffffffff03841381151615613dd457613dd4613cbb565b82600160ff1b038412811615613dec57613dec613cbb565b50500190565b600080831283600160ff1b01831281151615613e1057613e10613cbb565b837f7fffffffffffffffffffffffffffffffffffffffffffffffffffffffffffffff018313811615613e4457613e44613cbb565b50500390565b6000600160ff1b821415613e6057613e60613cbb565b506000039056fea264697066735822122065eda24389be7b29f0148d589c8bff76159f7e6632c3b92568537a2c1069ed8364736f6c63430008090033a2646970667358221220eee3efa391a7ef7adcb0c62268abaf9048b1ac8c091fee41ebdcd0cda0ee364164736f6c63430008090033",
  "linkReferences": {},
  "deployedLinkReferences": {}
}