{
  "_format": "hh-sol-artifact-1",
  "contractName": "CallHash",
  "sourceName": "contracts/initcode/CallHash.sol",
  "abi": [
    {
      "inputs": [],
      "name": "getInitCodeHash",
      "outputs": [
        {
          "internalType": "bytes32",
          "name": "",
          "type": "bytes32"
        }
      ],
      "stateMutability": "pure",
      "type": "function"
    }
  ],
  "bytecode": "0x608060405234801561001057600080fd5b50614561806100206000396000f3fe608060405234801561001057600080fd5b506004361061002b5760003560e01c80635431927d14610030575b600080fd5b61003861004a565b60405190815260200160405180910390f35b6000806040518060200161005d906100a0565b6020820181038252601f19601f8201166040525090508060405160200161008491906100ad565b6040516020818303038152906040528051906020012091505090565b614443806100e983390190565b6000825160005b818110156100ce57602081860181015185830152016100b4565b818111156100dd576000828501525b50919091019291505056fe6080604052600160055560016015553480156200001b57600080fd5b506040805180820182526009815268050756c7361722d4c560bc1b602080830191825283518085019094526006845265050554c2d4c560d41b9084015281519192916200006b916003916200010e565b508051620000819060049060208401906200010e565b505060068054336001600160a01b031990911617905550600754600854620000c891600c916001600160a01b03918216911643600a620000ce602090811b6200170c17901c565b620001f1565b6002850180546001600160a01b039586166001600160a01b0319918216179091556003860180549490951693169290921790925560018301919091559055565b8280546200011c90620001b4565b90600052602060002090601f0160209004810192826200014057600085556200018b565b82601f106200015b57805160ff19168380011785556200018b565b828001600101855582156200018b579182015b828111156200018b5782518255916020019190600101906200016e565b50620001999291506200019d565b5090565b5b808211156200019957600081556001016200019e565b600181811c90821680620001c957607f821691505b60208210811415620001eb57634e487b7160e01b600052602260045260246000fd5b50919050565b61424280620002016000396000f3fe608060405234801561001057600080fd5b50600436106102115760003560e01c806360a9d50511610125578063a201ccf6116100ad578063bde1077e1161007c578063bde1077e14610487578063c45a01551461049a578063ceb2894c146104ad578063d5d859c1146104cd578063dd62ed3e146104e057600080fd5b8063a201ccf614610445578063a457c2d714610458578063a9059cbb1461046b578063ba9a7a561461047e57600080fd5b80636f9d42d2116100f45780636f9d42d2146103e557806370a08231146103f857806395d89b41146104215780639b63c15a146104295780639c48a8f91461043257600080fd5b806360a9d5051461039f57806363784245146103a7578063659509c5146103af57806366f55ece146103c257600080fd5b806337bc5e4a116101a857806342b98a141161017757806342b98a141461034b578063485cc9551461035e5780635e3f2727146103715780635f64b55b146103795780635fea61201461038c57600080fd5b806337bc5e4a146102d857806339509351146102f85780633a8c885e1461030b5780633b4a6bc31461032b57600080fd5b806313bf4fd2116101e457806313bf4fd21461029957806318160ddd146102ae57806323b872dd146102b6578063313ce567146102c957600080fd5b806306fdde0314610216578063095ea7b3146102345780630dc6b617146102575780630fc63d101461026e575b600080fd5b61021e610519565b60405161022b9190613dc3565b60405180910390f35b610247610242366004613e2f565b6105ab565b604051901515815260200161022b565b610260600a5481565b60405190815260200161022b565b600754610281906001600160a01b031681565b6040516001600160a01b03909116815260200161022b565b6102ac6102a7366004613e2f565b6105c2565b005b600254610260565b6102476102c4366004613e59565b6106ab565b6040516012815260200161022b565b6102eb6102e6366004613e95565b610757565b60405161022b9190613eb0565b610247610306366004613e2f565b6107c3565b610260610319366004613e95565b600b6020526000908152604090205481565b6007546001600160a01b03166000908152600b6020526040902054610260565b6102ac610359366004613e2f565b6107ff565b6102ac61036c366004613ef4565b6108c9565b610260601e81565b600854610281906001600160a01b031681565b6102ac61039a366004613e2f565b61099b565b610260600a81565b6102ac610cf9565b6102ac6103bd366004613f27565b610d07565b6102476103d0366004613f5a565b60009081526014602052604090205460ff1690565b6102ac6103f3366004613f27565b610ddd565b610260610406366004613e95565b6001600160a01b031660009081526020819052604090205490565b61021e61108c565b61026060095481565b6102ac610440366004613e2f565b61109b565b6102ac610453366004613e2f565b611195565b610247610466366004613e2f565b6114a9565b610247610479366004613e2f565b611542565b6102606103e881565b6102ac610495366004613f27565b61154f565b600654610281906001600160a01b031681565b6008546001600160a01b03166000908152600b6020526040902054610260565b6102ac6104db366004613e2f565b611625565b6102606104ee366004613ef4565b6001600160a01b03918216600090815260016020908152604080832093909416825291909152205490565b60606003805461052890613f73565b80601f016020809104026020016040519081016040528092919081815260200182805461055490613f73565b80156105a15780601f10610576576101008083540402835291602001916105a1565b820191906000526020600020905b81548152906001019060200180831161058457829003601f168201915b5050505050905090565b60006105b833848461174c565b5060015b92915050565b6015546001146105ed5760405162461bcd60e51b81526004016105e490613fae565b60405180910390fd5b60006015556005546001146106145760405162461bcd60e51b81526004016105e490613fce565b60026005556007546001600160a01b039081166000908152600b602052604080822054600854909316825290205461064c9190611870565b61065a600c8383600b6119af565b816001600160a01b03167fe91f05f05f7e013ffc245507e3fd86ec0ca1d2f5ab431eea8827cc80f303bf7a8260405161069591815260200190565b60405180910390a2505060016005819055601555565b60006106b8848484611b46565b6001600160a01b03841660009081526001602090815260408083203384529091529020548281101561073d5760405162461bcd60e51b815260206004820152602860248201527f45524332303a207472616e7366657220616d6f756e74206578636565647320616044820152676c6c6f77616e636560c01b60648201526084016105e4565b61074a853385840361174c565b60019150505b9392505050565b6001600160a01b0381166000908152601360209081526040918290208054835181840281018401909452808452606093928301828280156107b757602002820191906000526020600020905b8154815260200190600101908083116107a3575b50505050509050919050565b3360008181526001602090815260408083206001600160a01b038716845290915281205490916105b89185906107fa908690614008565b61174c565b6015546001146108215760405162461bcd60e51b81526004016105e490613fae565b60006015556005546001146108485760405162461bcd60e51b81526004016105e490613fce565b60026005556007546001600160a01b039081166000908152600b60205260408082205460085490931682529020546108809190611870565b61088e600c8383600b611d15565b816001600160a01b03167fec1efa7415f20eabaabbfdfc33d5c736e9d413afcc9dedd898c035c0d1889eaa8260405161069591815260200190565b6015546001146108eb5760405162461bcd60e51b81526004016105e490613fae565b60006015556005546001146109125760405162461bcd60e51b81526004016105e490613fce565b60026005556006546001600160a01b031633146109635760405162461bcd60e51b815260206004820152600f60248201526e2830b4b91d102337b93134b23232b760891b60448201526064016105e4565b600780546001600160a01b039384166001600160a01b0319918216179091556008805492909316911617905560016005819055601555565b6015546001146109bd5760405162461bcd60e51b81526004016105e490613fae565b60006015556005546001146109e45760405162461bcd60e51b81526004016105e490613fce565b60026005556109f260025490565b610a755760405162461bcd60e51b815260206004820152604860248201527f4e6f204c697175696469747920486173204265656e2050726f7669646564205960448201527f65742c204e65656420546f2043616c6c2070726f76696465496e697469616c4c606482015267697175696469747960c01b608482015260a4016105e4565b6007546001600160a01b039081166000908152600b6020526040808220546008549093168252902054610aa89190611870565b610ab4600c600b611f46565b6000610abf60025490565b6007546001600160a01b03166000908152600b6020526040902054610ae49084614020565b610aee9190614055565b90506000610afb60025490565b6008546001600160a01b03166000908152600b6020526040902054610b209085614020565b610b2a9190614055565b6007546001600160a01b03166000908152600b6020526040812080549293508492909190610b59908490614008565b90915550506008546001600160a01b03166000908152600b602052604081208054839290610b88908490614008565b90915550610b9890508484611fb9565b6007546040516323b872dd60e01b81526001600160a01b03909116906323b872dd90610bcc90879030908790600401614069565b602060405180830381600087803b158015610be657600080fd5b505af1158015610bfa573d6000803e3d6000fd5b505050506040513d601f19601f82011682018060405250810190610c1e919061408d565b506008546040516323b872dd60e01b81526001600160a01b03909116906323b872dd90610c5390879030908690600401614069565b602060405180830381600087803b158015610c6d57600080fd5b505af1158015610c81573d6000803e3d6000fd5b505050506040513d601f19601f82011682018060405250810190610ca5919061408d565b50836001600160a01b03167fccb2ae3a2936bf4c94fa4e12cdf0cdad6ed0e4888a044cef89afa60f2e4b92d384604051610ce191815260200190565b60405180910390a25050600160058190556015555050565b610d05600c600b611f46565b565b601554600114610d295760405162461bcd60e51b81526004016105e490613fae565b6000601555600554600114610d505760405162461bcd60e51b81526004016105e490613fce565b60026005556007546001600160a01b039081166000908152600b6020526040808220546008549093168252902054610d889190611870565b6000610d99600c858585600b612099565b60408051858152602081018390529192506001600160a01b038616917f3f9021da39409c8415526f6f5150f90f549aff31c146178262479dd8778944009101610ce1565b601554600114610dff5760405162461bcd60e51b81526004016105e490613fae565b6000601555600554600114610e265760405162461bcd60e51b81526004016105e490613fce565b6002600555610e3460025490565b15610eb25760405162461bcd60e51b815260206004820152604260248201527f4c69717569646974792048617320416c7265616479204265656e2050726f766960448201527f6465642c204e65656420546f2043616c6c2070726f766964654c697175696469606482015261747960f01b608482015260a4016105e4565b6007546001600160a01b039081166000908152600b602052604080822085905560085490921681529081208290556103e8610f1a610f0c610efa610ef5866120cc565b612119565b610f06610ef5886120cc565b9061216b565b670de0b6b3a7640000900490565b610f2491906140af565b9050610f3360006103e8611fb9565b610f3d8482611fb9565b6007546040516323b872dd60e01b81526001600160a01b03909116906323b872dd90610f7190879030908890600401614069565b602060405180830381600087803b158015610f8b57600080fd5b505af1158015610f9f573d6000803e3d6000fd5b505050506040513d601f19601f82011682018060405250810190610fc3919061408d565b506008546040516323b872dd60e01b81526001600160a01b03909116906323b872dd90610ff890879030908790600401614069565b602060405180830381600087803b15801561101257600080fd5b505af1158015611026573d6000803e3d6000fd5b505050506040513d601f19601f8201168201806040525081019061104a919061408d565b5060408051848152602081018490526001600160a01b038616917f6f6e8d9cc87c64a4776e719d1ad22f4b0b45089829effa9a2a8cddbdbc43b62b9101610ce1565b60606004805461052890613f73565b6015546001146110bd5760405162461bcd60e51b81526004016105e490613fae565b60006015556005546001146110e45760405162461bcd60e51b81526004016105e490613fce565b60026005556007546001600160a01b039081166000908152600b602052604080822054600854909316825290205461111c9190611870565b60085460075460009161113e9185916001600160a01b03908116911685612177565b60408051848152602081018390529192506001600160a01b038516917f4af12e31478f230aa2cdfffcb6fe9525e6d1862db211087abb6fd8771ccdbe5791015b60405180910390a250506001600581905560155550565b6015546001146111b75760405162461bcd60e51b81526004016105e490613fae565b60006015556005546001146111de5760405162461bcd60e51b81526004016105e490613fce565b60026005556111ec60025490565b81111561123b5760405162461bcd60e51b815260206004820152601e60248201527f4e6f7420456e6f756768204c7020546f6b656e7320417661696c61626c65000060448201526064016105e4565b6007546001600160a01b039081166000908152600b602052604080822054600854909316825290205461126e9190611870565b61127a600c600b611f46565b600061128560025490565b6007546001600160a01b03166000908152600b60205260409020546112ab908490614020565b6112b59190614055565b905060006112c260025490565b6008546001600160a01b03166000908152600b60205260409020546112e8908590614020565b6112f29190614055565b6007546001600160a01b03166000908152600b60205260408120805492935084929091906113219084906140af565b90915550506008546001600160a01b03166000908152600b6020526040812080548392906113509084906140af565b90915550611360905084846123b8565b60075460405163a9059cbb60e01b81526001600160a01b038681166004830152602482018590529091169063a9059cbb90604401602060405180830381600087803b1580156113ae57600080fd5b505af11580156113c2573d6000803e3d6000fd5b505050506040513d601f19601f820116820180604052508101906113e6919061408d565b5060085460405163a9059cbb60e01b81526001600160a01b038681166004830152602482018490529091169063a9059cbb90604401602060405180830381600087803b15801561143557600080fd5b505af1158015611449573d6000803e3d6000fd5b505050506040513d601f19601f8201168201806040525081019061146d919061408d565b50836001600160a01b03167fc2c3f06e49b9f15e7b4af9055e183b0d73362e033ad82a07dec9bf984017171984604051610ce191815260200190565b3360009081526001602090815260408083206001600160a01b03861684529091528120548281101561152b5760405162461bcd60e51b815260206004820152602560248201527f45524332303a2064656372656173656420616c6c6f77616e63652062656c6f77604482015264207a65726f60d81b60648201526084016105e4565b611538338585840361174c565b5060019392505050565b60006105b8338484611b46565b6015546001146115715760405162461bcd60e51b81526004016105e490613fae565b60006015556005546001146115985760405162461bcd60e51b81526004016105e490613fce565b60026005556007546001600160a01b039081166000908152600b60205260408082205460085490931682529020546115d09190611870565b60006115e1600c858585600b612506565b60408051858152602081018390529192506001600160a01b038616917f3118cfac1ed5d8e668c193690497d56fff82f1aabbdf08f598025b0dfe3087279101610ce1565b6015546001146116475760405162461bcd60e51b81526004016105e490613fae565b600060155560055460011461166e5760405162461bcd60e51b81526004016105e490613fce565b60026005556007546001600160a01b039081166000908152600b60205260408082205460085490931682529020546116a69190611870565b6007546008546000916116c89185916001600160a01b03908116911685612177565b60408051848152602081018390529192506001600160a01b038516917f4d8578764edd2464e6964176a4bbedef1497b6bed5dd14e0609ad9149a85e5fe910161117e565b6002850180546001600160a01b039586166001600160a01b0319918216179091556003860180549490951693169290921790925560018301919091559055565b6001600160a01b0383166117ae5760405162461bcd60e51b8152602060048201526024808201527f45524332303a20617070726f76652066726f6d20746865207a65726f206164646044820152637265737360e01b60648201526084016105e4565b6001600160a01b03821661180f5760405162461bcd60e51b815260206004820152602260248201527f45524332303a20617070726f766520746f20746865207a65726f206164647265604482015261737360f01b60648201526084016105e4565b6001600160a01b0383811660008181526001602090815260408083209487168084529482529182902085905590518481527f8c5be1e5ebec7d5bd14f71427d1e84f3dd0314c0f7b2291e5b200ac8c7c3b925910160405180910390a3505050565b6000611881640100000000426140c6565b6008549091506000906118a190600160a01b900463ffffffff16836140da565b905060008163ffffffff161180156118b857508315155b80156118c357508215155b15611952578063ffffffff166118eb856118dc8661252f565b6001600160e01b031690612548565b6001600160e01b03166118fe9190614020565b6009600082825461190f9190614008565b909155505063ffffffff8116611928846118dc8761252f565b6001600160e01b031661193b9190614020565b600a600082825461194c9190614008565b90915550505b6008805463ffffffff60a01b1916600160a01b63ffffffff85160217905560408051858152602081018590527f8b49109cd5767f43f65aaaae99075135a684e87312ed89a5e0d69e96bed715cb910160405180910390a150505050565b6119b98482611f46565b6000828152600685016020526040902060038101546001600160a01b03858116911614611a285760405162461bcd60e51b815260206004820152601a60248201527f53656e646572204d757374204265204f72646572204f776e657200000000000060448201526064016105e4565b6004818101546001600160a01b031660009081529086016020526040812090611a51828661255d565b905060008111611a9d5760405162461bcd60e51b81526020600482015260176024820152764e6f2050726f636565647320546f20576974686472617760481b60448201526064016105e4565b600583015460405163a9059cbb60e01b81526001600160a01b038881166004830152602482018490529091169063a9059cbb90604401602060405180830381600087803b158015611aed57600080fd5b505af1158015611b01573d6000803e3d6000fd5b505050506040513d601f19601f82011682018060405250810190611b25919061408d565b5050506000928352505060089092016020525060409020805460ff19169055565b6001600160a01b038316611baa5760405162461bcd60e51b815260206004820152602560248201527f45524332303a207472616e736665722066726f6d20746865207a65726f206164604482015264647265737360d81b60648201526084016105e4565b6001600160a01b038216611c0c5760405162461bcd60e51b815260206004820152602360248201527f45524332303a207472616e7366657220746f20746865207a65726f206164647260448201526265737360e81b60648201526084016105e4565b6001600160a01b03831660009081526020819052604090205481811015611c845760405162461bcd60e51b815260206004820152602660248201527f45524332303a207472616e7366657220616d6f756e7420657863656564732062604482015265616c616e636560d01b60648201526084016105e4565b6001600160a01b03808516600090815260208190526040808220858503905591851681529081208054849290611cbb908490614008565b92505081905550826001600160a01b0316846001600160a01b03167fddf252ad1be2c89b69c2b068fc378daa952ba7f163c4a11628f55a4df523b3ef84604051611d0791815260200190565b60405180910390a350505050565b611d1f8482611f46565b6000828152600685016020526040902060038101546001600160a01b03858116911614611d8e5760405162461bcd60e51b815260206004820152601a60248201527f53656e646572204d757374204265204f72646572204f776e657200000000000060448201526064016105e4565b6004818101546001600160a01b03166000908152908601602052604081209080611db88387612672565b915091506000821180611dcb5750600081115b611e115760405162461bcd60e51b81526020600482015260176024820152764e6f2050726f636565647320546f20576974686472617760481b60448201526064016105e4565b600584015460405163a9059cbb60e01b81526001600160a01b038981166004830152602482018490529091169063a9059cbb90604401602060405180830381600087803b158015611e6157600080fd5b505af1158015611e75573d6000803e3d6000fd5b505050506040513d601f19601f82011682018060405250810190611e99919061408d565b5060048481015460405163a9059cbb60e01b81526001600160a01b038a8116938201939093526024810185905291169063a9059cbb90604401602060405180830381600087803b158015611eec57600080fd5b505af1158015611f00573d6000803e3d6000fd5b505050506040513d601f19601f82011682018060405250810190611f24919061408d565b505050600093845250505060089092016020525060409020805460ff19169055565b8154600183015460009190611f5c9082906140c6565b8460010154611f6b91906140af565b611f759190614008565b90505b43811015611f9e57611f8b838383612793565b8254611f979082614008565b9050611f78565b43836001015414611fb457611fb4838343612793565b505050565b6001600160a01b03821661200f5760405162461bcd60e51b815260206004820152601f60248201527f45524332303a206d696e7420746f20746865207a65726f20616464726573730060448201526064016105e4565b80600260008282546120219190614008565b90915550506001600160a01b0382166000908152602081905260408120805483929061204e908490614008565b90915550506040518181526001600160a01b038316906000907fddf252ad1be2c89b69c2b068fc378daa952ba7f163c4a11628f55a4df523b3ef9060200160405180910390a35b5050565b600385015460028601546000916120c29188916001600160a01b03908116911688888888612997565b9695505050505050565b60007812725dd1d243aba0e75fe645cc4873f9e65afe688c928e1f2182111561210b57604051633492ffd960e01b8152600481018390526024016105e4565b50670de0b6b3a76400000290565b60007812725dd1d243aba0e75fe645cc4873f9e65afe688c928e1f2182111561215857604051636155b67d60e01b8152600481018390526024016105e4565b6105bc670de0b6b3a76400008302612c6a565b60006107508383612de5565b60008082116121c85760405162461bcd60e51b815260206004820152601c60248201527f5377617020416d6f756e74204d75737420426520506f7369746976650000000060448201526064016105e4565b6121d4600c600b611f46565b6001600160a01b0384166000908152600b60205260408120546121f8908490614008565b6001600160a01b0385166000908152600b602052604090205461221c908590614020565b6122269190614055565b9050612710612236601e826140af565b6122409083614020565b61224a9190614055565b6001600160a01b0386166000908152600b6020526040812080549294508592909190612277908490614008565b90915550506001600160a01b0384166000908152600b6020526040812080548492906122a49084906140af565b90915550506040516323b872dd60e01b81526001600160a01b038616906323b872dd906122d990899030908890600401614069565b602060405180830381600087803b1580156122f357600080fd5b505af1158015612307573d6000803e3d6000fd5b505050506040513d601f19601f8201168201806040525081019061232b919061408d565b5060405163a9059cbb60e01b81526001600160a01b0387811660048301526024820184905285169063a9059cbb90604401602060405180830381600087803b15801561237657600080fd5b505af115801561238a573d6000803e3d6000fd5b505050506040513d601f19601f820116820180604052508101906123ae919061408d565b5050949350505050565b6001600160a01b0382166124185760405162461bcd60e51b815260206004820152602160248201527f45524332303a206275726e2066726f6d20746865207a65726f206164647265736044820152607360f81b60648201526084016105e4565b6001600160a01b0382166000908152602081905260409020548181101561248c5760405162461bcd60e51b815260206004820152602260248201527f45524332303a206275726e20616d6f756e7420657863656564732062616c616e604482015261636560f01b60648201526084016105e4565b6001600160a01b03831660009081526020819052604081208383039055600280548492906124bb9084906140af565b90915550506040518281526000906001600160a01b038516907fddf252ad1be2c89b69c2b068fc378daa952ba7f163c4a11628f55a4df523b3ef9060200160405180910390a3505050565b600285015460038601546000916120c29188916001600160a01b03908116911688888888612997565b60006105bc600160701b6001600160701b0384166140ff565b60006107506001600160701b0383168461412e565b6000818152600483016020526040812054806125c65760405162461bcd60e51b815260206004820152602260248201527f53616c6573205261746520416d6f756e74204d75737420426520506f73697469604482015261766560f01b60648201526084016105e4565b6000838152600385016020908152604080832054600588019092529091205443821015612631576000828152600687016020526040902054612617610f0c61260d866120cc565b610f0685856140af565b600087815260048901602052604081205594506126699050565b612650610f0c612640856120cc565b838960010154610f0691906140af565b6001870154600087815260058901602052604090205593505b50505092915050565b600081815260038301602052604081205481904381116126cd5760405162461bcd60e51b815260206004820152601660248201527513dc99195c88105b1c9958591e48119a5b9a5cda195960521b60448201526064016105e4565b6000848152600486016020526040812054906126e943846140af565b90506126f58282614020565b6000878152600589016020526040902054909550612728610f0c612718856120cc565b838b60010154610f0691906140af565b94508288600001600082825461273e91906140af565b90915550506000878152600489016020908152604080832083905560038b01825280832083905586835260028b01909152812080548592906127819084906140af565b92505081905550505050509250929050565b60008360010154826127a591906140af565b60028501546001600160a01b03166000908152600486016020526040812054919250906127d3908390614020565b60038601546001600160a01b0316600090815260048701602052604081205491925090612801908490614020565b60028701546001600160a01b039081166000908152602088905260408082205460038b0154909316825281205492935090919080808061284386868a8a612ea7565b9350935093509350818b60008e60020160009054906101000a90046001600160a01b03166001600160a01b03166001600160a01b0316815260200190815260200160002081905550808b60008e60030160009054906101000a90046001600160a01b03166001600160a01b03166001600160a01b031681526020019081526020016000208190555060008c60040160008e60020160009054906101000a90046001600160a01b03166001600160a01b03166001600160a01b03168152602001908152602001600020905060008d60040160008f60030160009054906101000a90046001600160a01b03166001600160a01b03166001600160a01b031681526020019081526020016000209050612962858361304390919063ffffffff16565b61296c8187613043565b612976828d613085565b612980818d613085565b505050506001909901969096555050505050505050565b60006129a38883611f46565b6040516323b872dd60e01b81526001600160a01b038816906323b872dd906129d390889030908990600401614069565b602060405180830381600087803b1580156129ed57600080fd5b505af1158015612a01573d6000803e3d6000fd5b505050506040513d601f19601f82011682018060405250810190612a25919061408d565b5087544390600090612a3790836140c6565b612a4190836140af565b9050600081612a51876001614008565b8c54612a5d9190614020565b612a679190614008565b90506000612a7584836140af565b612a7f9089614055565b6001600160a01b038c16600090815260048e016020526040902060058e015491925090612aaf90829084866130c9565b6040518060c001604052808e6005015481526020018481526020018381526020018b6001600160a01b031681526020018d6001600160a01b031681526020018c6001600160a01b03168152508d60060160008f60050154815260200190815260200160002060008201518160000155602082015181600101556040820151816002015560608201518160030160006101000a8154816001600160a01b0302191690836001600160a01b0316021790555060808201518160040160006101000a8154816001600160a01b0302191690836001600160a01b0316021790555060a08201518160050160006101000a8154816001600160a01b0302191690836001600160a01b031602179055509050508c60070160008b6001600160a01b03166001600160a01b031681526020019081526020016000208d60050154908060018154018082558091505060019003906000526020600020016000909190919091505560018d60080160008f60050154815260200190815260200160002060006101000a81548160ff0219169083151502179055508c6005016000815480929190612c5590614154565b909155509d9c50505050505050505050505050565b600081612c7957506000919050565b50600181600160801b8110612c935760409190911b9060801c5b680100000000000000008110612cae5760209190911b9060401c5b6401000000008110612cc55760109190911b9060201c5b620100008110612cda5760089190911b9060101c5b6101008110612cee5760049190911b9060081c5b60108110612d015760029190911b9060041c5b60088110612d1157600182901b91505b6001828481612d2257612d2261403f565b048301901c91506001828481612d3a57612d3a61403f565b048301901c91506001828481612d5257612d5261403f565b048301901c91506001828481612d6a57612d6a61403f565b048301901c91506001828481612d8257612d8261403f565b048301901c91506001828481612d9a57612d9a61403f565b048301901c91506001828481612db257612db261403f565b048301901c91506000828481612dca57612dca61403f565b04905080831015612ddb5782612ddd565b805b949350505050565b60008080600019848609848602925082811083820303915050670de0b6b3a76400008110612e295760405163698d9a0160e11b8152600481018290526024016105e4565b600080670de0b6b3a76400008688099150506706f05b59d3b1ffff811182612e635780670de0b6b3a76400008504019450505050506105bc565b620400008285030493909111909103600160ee1b02919091177faccb18165bd6fe31ae1cf318dc5b51eee0e1ba569b88cd74c1773b91fac106690201905092915050565b600080808085158015612eb8575084155b15612ece57506000925082915086905085613038565b85612f1457612edd8588614008565b612ee7868a614020565b612ef19190614055565b935060009250612f0184896140af565b9150612f0d8588614008565b9050613038565b84612f535760009350612f278689614008565b612f318789614020565b612f3b9190614055565b9250612f478689614008565b9150612f0d83886140af565b6000612f5e8761313d565b90506000612f6b8761313d565b90506000612f788b61313d565b90506000612f858b61313d565b90506000612f9383836131ba565b90506000612fa38484888861327f565b90506000612fb58787848689896132dc565b90506000612fcd85612fc78885613381565b906131ba565b9050600082612fdc8a8961416f565b612fe691906141b0565b9050600082612ff58a8961416f565b612fff91906141b0565b905061300a82613447565b61301382613447565b61301c86613447565b61302586613447565b9d509d509d509d50505050505050505050505b945094509450949050565b8154156120955761306961305a83600001546120cc565b613063836120cc565b9061345b565b82600101600082825461307c9190614008565b90915550505050565b60008181526002830160205260408120548354909182918591906130aa9084906140af565b9091555050506001820154600091825260069092016020526040902055565b818460000160008282546130dd9190614008565b9091555050600184015460008481526005860160209081526040808320939093556003870181528282208490556004870181528282208590558382526002870190529081208054849290613132908490614008565b909155505050505050565b60007809392ee8e921d5d073aff322e62439fcf32d7f344649470f8f1982121561317d5760405163e608e18b60e01b8152600481018390526024016105e4565b7809392ee8e921d5d073aff322e62439fcf32d7f344649470f9082131561210b576040516371f72a3160e01b8152600481018390526024016105e4565b6000600160ff1b8314806131d15750600160ff1b82145b156131ef57604051630d01a11b60e21b815260040160405180910390fd5b600080600085126132005784613205565b846000035b915060008412613215578361321a565b836000035b905060006132288383612de5565b90506001600160ff1b038111156132555760405163bf79e8d960e01b8152600481018290526024016105e4565b60001980871390861380821860011461326e5782613273565b826000035b98975050505050505050565b60008061329761328e84613470565b612fc788613470565b905060006132a761328e86613470565b905060006132b582846141b0565b905060006132c3838561416f565b90506132cf8282613381565b9998505050505050505050565b6000806132f96132f488612fc78b612fc7600461313d565b613470565b9050600061331161330c61328e86613470565b6134d3565b9050600061332761332284846131ba565b6134f3565b905060006133486133388a846141b0565b6133428b8561416f565b90613381565b905060006133656133588d613470565b612fc76132f48c8f613381565b905061337182826131ba565b9c9b505050505050505050505050565b6000600160ff1b8314806133985750600160ff1b82145b156133b65760405163b3c754a360e01b815260040160405180910390fd5b600080600085126133c757846133cc565b846000035b9150600084126133dc57836133e1565b836000035b905060006133f883670de0b6b3a764000084613563565b90506001600160ff1b0381111561342557604051637cb4bef560e01b8152600481018290526024016105e4565b60001980871390861380821860011461343e5782613273565b613273836141ef565b6000670de0b6b3a7640000825b0592915050565b600061075083670de0b6b3a764000084613563565b6000808212156134965760405163608c83ff60e11b8152600481018390526024016105e4565b7809392ee8e921d5d073aff322e62439fcf32d7f344649470f9082131561215857604051632c482c3960e01b8152600481018390526024016105e4565b6000816ec097ce7bc90715b34b9f1000000000816134545761345461403f565b600068023f2fa8f6da5b9d311982121561350f57506000919050565b680736ea4425c11ac631821261353b576040516399bb754160e01b8152600481018390526024016105e4565b6714057b7ef767814f8202610750670de0b6b3a76400006706f05b59d3b20000830105613631565b60008080600019858709858702925082811083820303915050806000141561359e578382816135945761359461403f565b0492505050610750565b8381106135c857604051631dcf306360e21b815260048101829052602481018590526044016105e4565b60008486880960026001871981018816978890046003810283188082028403028082028403028082028403028082028403028082028403029081029092039091026000889003889004909101858311909403939093029303949094049190911702949350505050565b60008082121561367e5768033dd1780914b971141982121561365557506000919050565b61366182600003613631565b6ec097ce7bc90715b34b9f1000000000816134545761345461403f565b680a688906bd8b00000082126136aa5760405163e69458f960e01b8152600481018390526024016105e4565b670de0b6b3a7640000604083901b04610750816136c7565b919050565b600160bf1b6780000000000000008216156136eb5768016a09e667f3bcc9090260401c5b67400000000000000082161561370a576801306fe0a31b7152df0260401c5b672000000000000000821615613729576801172b83c7d517adce0260401c5b6710000000000000008216156137485768010b5586cf9890f62a0260401c5b670800000000000000821615613767576801059b0d31585743ae0260401c5b67040000000000000082161561378657680102c9a3e778060ee70260401c5b6702000000000000008216156137a55768010163da9fb33356d80260401c5b6701000000000000008216156137c457680100b1afa5abcbed610260401c5b66800000000000008216156137e25768010058c86da1c09ea20260401c5b6640000000000000821615613800576801002c605e2e8cec500260401c5b662000000000000082161561381e57680100162f3904051fa10260401c5b661000000000000082161561383c576801000b175effdc76ba0260401c5b660800000000000082161561385a57680100058ba01fb9f96d0260401c5b66040000000000008216156138785768010002c5cc37da94920260401c5b6602000000000000821615613896576801000162e525ee05470260401c5b66010000000000008216156138b45768010000b17255775c040260401c5b658000000000008216156138d1576801000058b91b5bc9ae0260401c5b654000000000008216156138ee57680100002c5c89d5ec6d0260401c5b6520000000000082161561390b5768010000162e43f4f8310260401c5b6510000000000082161561392857680100000b1721bcfc9a0260401c5b650800000000008216156139455768010000058b90cf1e6e0260401c5b65040000000000821615613962576801000002c5c863b73f0260401c5b6502000000000082161561397f57680100000162e430e5a20260401c5b6501000000000082161561399c576801000000b1721835510260401c5b6480000000008216156139b857680100000058b90c0b490260401c5b6440000000008216156139d45768010000002c5c8601cc0260401c5b6420000000008216156139f0576801000000162e42fff00260401c5b641000000000821615613a0c5768010000000b17217fbb0260401c5b640800000000821615613a28576801000000058b90bfce0260401c5b640400000000821615613a4457680100000002c5c85fe30260401c5b640200000000821615613a605768010000000162e42ff10260401c5b640100000000821615613a7c57680100000000b17217f80260401c5b6380000000821615613a975768010000000058b90bfc0260401c5b6340000000821615613ab2576801000000002c5c85fe0260401c5b6320000000821615613acd57680100000000162e42ff0260401c5b6310000000821615613ae8576801000000000b17217f0260401c5b6308000000821615613b0357680100000000058b90c00260401c5b6304000000821615613b1e5768010000000002c5c8600260401c5b6302000000821615613b39576801000000000162e4300260401c5b6301000000821615613b545768010000000000b172180260401c5b62800000821615613b6e576801000000000058b90c0260401c5b62400000821615613b8857680100000000002c5c860260401c5b62200000821615613ba25768010000000000162e430260401c5b62100000821615613bbc57680100000000000b17210260401c5b62080000821615613bd65768010000000000058b910260401c5b62040000821615613bf0576801000000000002c5c80260401c5b62020000821615613c0a57680100000000000162e40260401c5b62010000821615613c24576801000000000000b1720260401c5b618000821615613c3d57680100000000000058b90260401c5b614000821615613c565768010000000000002c5d0260401c5b612000821615613c6f576801000000000000162e0260401c5b611000821615613c885768010000000000000b170260401c5b610800821615613ca1576801000000000000058c0260401c5b610400821615613cba57680100000000000002c60260401c5b610200821615613cd357680100000000000001630260401c5b610100821615613cec57680100000000000000b10260401c5b6080821615613d0457680100000000000000590260401c5b6040821615613d1c576801000000000000002c0260401c5b6020821615613d3457680100000000000000160260401c5b6010821615613d4c576801000000000000000b0260401c5b6008821615613d6457680100000000000000060260401c5b6004821615613d7c57680100000000000000030260401c5b6002821615613d9457680100000000000000010260401c5b6001821615613dac57680100000000000000010260401c5b670de0b6b3a76400000260409190911c60bf031c90565b600060208083528351808285015260005b81811015613df057858101830151858201604001528201613dd4565b81811115613e02576000604083870101525b50601f01601f1916929092016040019392505050565b80356001600160a01b03811681146136c257600080fd5b60008060408385031215613e4257600080fd5b613e4b83613e18565b946020939093013593505050565b600080600060608486031215613e6e57600080fd5b613e7784613e18565b9250613e8560208501613e18565b9150604084013590509250925092565b600060208284031215613ea757600080fd5b61075082613e18565b6020808252825182820181905260009190848201906040850190845b81811015613ee857835183529284019291840191600101613ecc565b50909695505050505050565b60008060408385031215613f0757600080fd5b613f1083613e18565b9150613f1e60208401613e18565b90509250929050565b600080600060608486031215613f3c57600080fd5b613f4584613e18565b95602085013595506040909401359392505050565b600060208284031215613f6c57600080fd5b5035919050565b600181811c90821680613f8757607f821691505b60208210811415613fa857634e487b7160e01b600052602260045260246000fd5b50919050565b602080825260069082015265131bd8dad95960d21b604082015260600190565b6020808252600a90820152695245454e5452414e435960b01b604082015260600190565b634e487b7160e01b600052601160045260246000fd5b6000821982111561401b5761401b613ff2565b500190565b600081600019048311821515161561403a5761403a613ff2565b500290565b634e487b7160e01b600052601260045260246000fd5b6000826140645761406461403f565b500490565b6001600160a01b039384168152919092166020820152604081019190915260600190565b60006020828403121561409f57600080fd5b8151801515811461075057600080fd5b6000828210156140c1576140c1613ff2565b500390565b6000826140d5576140d561403f565b500690565b600063ffffffff838116908316818110156140f7576140f7613ff2565b039392505050565b60006001600160e01b038281168482168115158284048211161561412557614125613ff2565b02949350505050565b60006001600160e01b03838116806141485761414861403f565b92169190910492915050565b600060001982141561416857614168613ff2565b5060010190565b600080821280156001600160ff1b038490038513161561419157614191613ff2565b600160ff1b83900384128116156141aa576141aa613ff2565b50500190565b60008083128015600160ff1b8501841216156141ce576141ce613ff2565b6001600160ff1b03840183138116156141e9576141e9613ff2565b50500390565b6000600160ff1b82141561420557614205613ff2565b506000039056fea264697066735822122052ba20529118f80ffa9713fb29504901603169961e04e8ec23ed4a2a0edf8c4364736f6c63430008090033a26469706673582212206dd31ec7de6265c35b4bb6819374c2771bb55a2c5648014000274420883c86fa64736f6c63430008090033",
  "linkReferences": {},
  "deployedLinkReferences": {}
}