{
  "_format": "hh-sol-artifact-1",
  "contractName": "Factory",
  "sourceName": "contracts/Factory.sol",
  "abi": [
    {
      "anonymous": false,
      "inputs": [
        {
          "indexed": true,
          "internalType": "address",
          "name": "tokenA",
          "type": "address"
        },
        {
          "indexed": true,
          "internalType": "address",
          "name": "tokenB",
          "type": "address"
        },
        {
          "indexed": false,
          "internalType": "address",
          "name": "pair",
          "type": "address"
        },
        {
          "indexed": false,
          "internalType": "uint256",
          "name": "",
          "type": "uint256"
        }
      ],
      "name": "PairCreated",
      "type": "event"
    },
    {
      "inputs": [
        {
          "internalType": "uint256",
          "name": "",
          "type": "uint256"
        }
      ],
      "name": "allPairs",
      "outputs": [
        {
          "internalType": "address",
          "name": "",
          "type": "address"
        }
      ],
      "stateMutability": "view",
      "type": "function"
    },
    {
      "inputs": [],
      "name": "allPairsLength",
      "outputs": [
        {
          "internalType": "uint256",
          "name": "",
          "type": "uint256"
        }
      ],
      "stateMutability": "view",
      "type": "function"
    },
    {
      "inputs": [
        {
          "internalType": "address",
          "name": "token0",
          "type": "address"
        },
        {
          "internalType": "address",
          "name": "token1",
          "type": "address"
        }
      ],
      "name": "createPair",
      "outputs": [
        {
          "internalType": "address",
          "name": "pair",
          "type": "address"
        }
      ],
      "stateMutability": "nonpayable",
      "type": "function"
    },
    {
      "inputs": [
        {
          "internalType": "address",
          "name": "",
          "type": "address"
        },
        {
          "internalType": "address",
          "name": "",
          "type": "address"
        }
      ],
      "name": "getPair",
      "outputs": [
        {
          "internalType": "address",
          "name": "",
          "type": "address"
        }
      ],
      "stateMutability": "view",
      "type": "function"
    }
  ],
  "bytecode": "0x608060405234801561001057600080fd5b50613fed806100206000396000f3fe608060405234801561001057600080fd5b506004361061004c5760003560e01c80631e3dd18b14610051578063574f2ba314610081578063c9c6539614610092578063e6a43905146100a5575b600080fd5b61006461005f366004610407565b6100d6565b6040516001600160a01b0390911681526020015b60405180910390f35b600154604051908152602001610078565b6100646100a036600461043c565b610100565b6100646100b336600461043c565b60006020818152928152604080822090935290815220546001600160a01b031681565b600181815481106100e657600080fd5b6000918252602090912001546001600160a01b0316905081565b6000816001600160a01b0316836001600160a01b031614156101695760405162461bcd60e51b815260206004820152601c60248201527f464143544f52593a204944454e544943414c5f4144445245535345530000000060448201526064015b60405180910390fd5b600080836001600160a01b0316856001600160a01b03161061018c57838561018f565b84845b90925090506001600160a01b0382166101e25760405162461bcd60e51b8152602060048201526015602482015274464143544f52593a205a45524f5f4144445245535360581b6044820152606401610160565b6001600160a01b038281166000908152602081815260408083208585168452909152902054161561024c5760405162461bcd60e51b8152602060048201526014602482015273464143544f52593a20504149525f45584953545360601b6044820152606401610160565b60006040518060200161025e906103fa565b601f1982820381018352601f9091011660408190526bffffffffffffffffffffffff19606086811b8216602084015285901b166034820152909150600090604801604051602081830303815290604052805190602001209050808251602084016000f560405163485cc95560e01b81526001600160a01b03868116600483015285811660248301529196509086169063485cc95590604401600060405180830381600087803b15801561031057600080fd5b505af1158015610324573d6000803e3d6000fd5b505050506001600160a01b0384811660008181526020818152604080832088861680855290835281842080546001600160a01b0319908116978d1697881790915584845282852086865284528285208054821688179055600180548082018255958190527fb10e2d527612073b26eecdfd717e6a320cf44b4afac2b0732d9fcbe2b7fa0cf6909501805490911687179055925481519586529185019190915290927f0d3648bd0f6ba80134a33ba9275ac585d9d315f0ad8355cddefde31afa28d0e9910160405180910390a35050505092915050565b613b488061047083390190565b60006020828403121561041957600080fd5b5035919050565b80356001600160a01b038116811461043757600080fd5b919050565b6000806040838503121561044f57600080fd5b61045883610420565b915061046660208401610420565b9050925092905056fe60806040523480156200001157600080fd5b506040805180820182526009815268050756c7361722d4c560bc1b602080830191825283518085019094526006845265050554c2d4c560d41b908401528151919291620000619160039162000104565b5080516200007790600490602084019062000104565b505060058054336001600160a01b031990911617905550600654600754620000be916009916001600160a01b03918216911643600a620000c4602090811b6200110417901c565b620001e7565b6002850180546001600160a01b039586166001600160a01b0319918216179091556003860180549490951693169290921790925560018301919091559055565b8280546200011290620001aa565b90600052602060002090601f01602090048101928262000136576000855562000181565b82601f106200015157805160ff191683800117855562000181565b8280016001018555821562000181579182015b828111156200018157825182559160200191906001019062000164565b506200018f92915062000193565b5090565b5b808211156200018f576000815560010162000194565b600181811c90821680620001bf57607f821691505b60208210811415620001e157634e487b7160e01b600052602260045260246000fd5b50919050565b61395180620001f76000396000f3fe608060405234801561001057600080fd5b50600436106101da5760003560e01c80635fea6120116101045780639a89f22d116100a2578063bde1077e11610071578063bde1077e14610401578063c45a015514610414578063ceb2894c14610427578063dd62ed3e1461044757600080fd5b80639a89f22d146103b5578063a201ccf6146103c8578063a457c2d7146103db578063a9059cbb146103ee57600080fd5b8063659509c5116100de578063659509c51461035e5780636f9d42d21461037157806370a082311461038457806395d89b41146103ad57600080fd5b80635fea61201461033b57806360a9d5051461034e578063637842451461035657600080fd5b8063313ce5671161017c57806342b98a141161014b57806342b98a14146102fa578063485cc9551461030d5780635e3f2727146103205780635f64b55b1461032857600080fd5b8063313ce5671461029857806339509351146102a75780633a8c885e146102ba5780633b4a6bc3146102da57600080fd5b806310d82173116101b857806310d821731461024b57806313bf4fd21461026057806318160ddd1461027357806323b872dd1461028557600080fd5b806306fdde03146101df578063095ea7b3146101fd5780630fc63d1014610220575b600080fd5b6101e7610480565b6040516101f491906135ed565b60405180910390f35b61021061020b366004613659565b610512565b60405190151581526020016101f4565b600654610233906001600160a01b031681565b6040516001600160a01b0390911681526020016101f4565b61025e610259366004613659565b610529565b005b61025e61026e366004613659565b610598565b6002545b6040519081526020016101f4565b610210610293366004613683565b6105ed565b604051601281526020016101f4565b6102106102b5366004613659565b61069e565b6102776102c83660046136bf565b60086020526000908152604090205481565b6006546001600160a01b0316600090815260086020526040902054610277565b61025e610308366004613659565b6106da565b61025e61031b3660046136da565b610723565b610277601e81565b600754610233906001600160a01b031681565b61025e610349366004613659565b61079d565b610277600a81565b61025e610a66565b61025e61036c36600461370d565b610a74565b61025e61037f36600461370d565b610ac9565b6102776103923660046136bf565b6001600160a01b031660009081526020819052604090205490565b6101e7610d0a565b61025e6103c3366004613659565b610d19565b61025e6103d6366004613659565b610d7f565b6102106103e9366004613659565b611009565b6102106103fc366004613659565b6110a2565b61025e61040f36600461370d565b6110af565b600554610233906001600160a01b031681565b6007546001600160a01b0316600090815260086020526040902054610277565b6102776104553660046136da565b6001600160a01b03918216600090815260016020908152604080832093909416825291909152205490565b60606003805461048f90613740565b80601f01602080910402602001604051908101604052809291908181526020018280546104bb90613740565b80156105085780601f106104dd57610100808354040283529160200191610508565b820191906000526020600020905b8154815290600101906020018083116104eb57829003601f168201915b5050505050905090565b600061051f338484611144565b5060015b92915050565b60065460075460009161054b9185916001600160a01b03908116911685611268565b60408051848152602081018390529192506001600160a01b038516917f1a442df1f5a0e29117f2a0d6ceb8d5db8b4e68203b0d5edac8e267920708522e91015b60405180910390a2505050565b6105a66009838360086114a8565b816001600160a01b03167fe91f05f05f7e013ffc245507e3fd86ec0ca1d2f5ab431eea8827cc80f303bf7a826040516105e191815260200190565b60405180910390a25050565b60006105fa848484611628565b6001600160a01b0384166000908152600160209081526040808320338452909152902054828110156106845760405162461bcd60e51b815260206004820152602860248201527f45524332303a207472616e7366657220616d6f756e74206578636565647320616044820152676c6c6f77616e636560c01b60648201526084015b60405180910390fd5b6106918533858403611144565b60019150505b9392505050565b3360008181526001602090815260408083206001600160a01b0387168452909152812054909161051f9185906106d5908690613791565b611144565b6106e86009838360086117f7565b816001600160a01b03167fec1efa7415f20eabaabbfdfc33d5c736e9d413afcc9dedd898c035c0d1889eaa826040516105e191815260200190565b6005546001600160a01b0316331461076f5760405162461bcd60e51b815260206004820152600f60248201526e2820a4a91d102327a92124a22222a760891b604482015260640161067b565b600680546001600160a01b039384166001600160a01b03199182161790915560078054929093169116179055565b6002546108235760405162461bcd60e51b815260206004820152604860248201527f6e6f206c697175696469747920686173206265656e2070726f7669646564207960448201527f65742c206e65656420746f2063616c6c2070726f76696465496e697469616c4c606482015267697175696469747960c01b608482015260a40161067b565b61082f60096008611a11565b600061083a60025490565b6006546001600160a01b031660009081526008602052604090205461085f90846137a9565b61086991906137de565b9050600061087660025490565b6007546001600160a01b031660009081526008602052604090205461089b90856137a9565b6108a591906137de565b6006546040516323b872dd60e01b81529192506001600160a01b0316906323b872dd906108da908790309087906004016137f2565b602060405180830381600087803b1580156108f457600080fd5b505af1158015610908573d6000803e3d6000fd5b505050506040513d601f19601f8201168201806040525081019061092c9190613816565b506007546040516323b872dd60e01b81526001600160a01b03909116906323b872dd90610961908790309086906004016137f2565b602060405180830381600087803b15801561097b57600080fd5b505af115801561098f573d6000803e3d6000fd5b505050506040513d601f19601f820116820180604052508101906109b39190613816565b506006546001600160a01b0316600090815260086020526040812080548492906109de908490613791565b90915550506007546001600160a01b031660009081526008602052604081208054839290610a0d908490613791565b90915550610a1d90508484611a84565b836001600160a01b03167fccb2ae3a2936bf4c94fa4e12cdf0cdad6ed0e4888a044cef89afa60f2e4b92d384604051610a5891815260200190565b60405180910390a250505050565b610a7260096008611a11565b565b6000610a8560098585856008611b64565b60408051858152602081018390529192506001600160a01b038616917f3f9021da39409c8415526f6f5150f90f549aff31c146178262479dd8778944009101610a58565b60025415610b4a5760405162461bcd60e51b815260206004820152604260248201527f6c69717569646974792068617320616c7265616479206265656e2070726f766960448201527f6465642c206e65656420746f2063616c6c2070726f766964654c697175696469606482015261747960f01b608482015260a40161067b565b6006546040516323b872dd60e01b81526001600160a01b03909116906323b872dd90610b7e908690309087906004016137f2565b602060405180830381600087803b158015610b9857600080fd5b505af1158015610bac573d6000803e3d6000fd5b505050506040513d601f19601f82011682018060405250810190610bd09190613816565b506007546040516323b872dd60e01b81526001600160a01b03909116906323b872dd90610c05908690309086906004016137f2565b602060405180830381600087803b158015610c1f57600080fd5b505af1158015610c33573d6000803e3d6000fd5b505050506040513d601f19601f82011682018060405250810190610c579190613816565b506006546001600160a01b039081166000908152600860205260408082208590556007549092168152908120829055610cbd610caf610c9d610c9885611b97565b611be4565b610ca9610c9887611b97565b90611c36565b670de0b6b3a7640000900490565b9050610cc98482611a84565b60408051848152602081018490526001600160a01b038616917f6f6e8d9cc87c64a4776e719d1ad22f4b0b45089829effa9a2a8cddbdbc43b62b9101610a58565b60606004805461048f90613740565b600754600654600091610d3b9185916001600160a01b03908116911685611268565b60408051848152602081018390529192506001600160a01b038516917f1201e4c6b2a8cfdbb8440a213b3b16f2e11b23315ddb1751c9522fa3f3e6b355910161058b565b600254811115610dd15760405162461bcd60e51b815260206004820152601e60248201527f6e6f7420656e6f756768206c7020746f6b656e7320617661696c61626c650000604482015260640161067b565b610ddd60096008611a11565b6000610de860025490565b6006546001600160a01b0316600090815260086020526040902054610e0e9084906137a9565b610e1891906137de565b90506000610e2560025490565b6007546001600160a01b0316600090815260086020526040902054610e4b9085906137a9565b610e5591906137de565b60065460405163a9059cbb60e01b81526001600160a01b0387811660048301526024820186905292935091169063a9059cbb90604401602060405180830381600087803b158015610ea557600080fd5b505af1158015610eb9573d6000803e3d6000fd5b505050506040513d601f19601f82011682018060405250810190610edd9190613816565b5060075460405163a9059cbb60e01b81526001600160a01b038681166004830152602482018490529091169063a9059cbb90604401602060405180830381600087803b158015610f2c57600080fd5b505af1158015610f40573d6000803e3d6000fd5b505050506040513d601f19601f82011682018060405250810190610f649190613816565b506006546001600160a01b031660009081526008602052604081208054849290610f8f908490613838565b90915550506007546001600160a01b031660009081526008602052604081208054839290610fbe908490613838565b90915550610fce90508484611c42565b836001600160a01b03167fc2c3f06e49b9f15e7b4af9055e183b0d73362e033ad82a07dec9bf984017171984604051610a5891815260200190565b3360009081526001602090815260408083206001600160a01b03861684529091528120548281101561108b5760405162461bcd60e51b815260206004820152602560248201527f45524332303a2064656372656173656420616c6c6f77616e63652062656c6f77604482015264207a65726f60d81b606482015260840161067b565b6110983385858403611144565b5060019392505050565b600061051f338484611628565b60006110c060098585856008611d90565b60408051858152602081018390529192506001600160a01b038616917f3118cfac1ed5d8e668c193690497d56fff82f1aabbdf08f598025b0dfe3087279101610a58565b6002850180546001600160a01b039586166001600160a01b0319918216179091556003860180549490951693169290921790925560018301919091559055565b6001600160a01b0383166111a65760405162461bcd60e51b8152602060048201526024808201527f45524332303a20617070726f76652066726f6d20746865207a65726f206164646044820152637265737360e01b606482015260840161067b565b6001600160a01b0382166112075760405162461bcd60e51b815260206004820152602260248201527f45524332303a20617070726f766520746f20746865207a65726f206164647265604482015261737360f01b606482015260840161067b565b6001600160a01b0383811660008181526001602090815260408083209487168084529482529182902085905590518481527f8c5be1e5ebec7d5bd14f71427d1e84f3dd0314c0f7b2291e5b200ac8c7c3b925910160405180910390a3505050565b60008082116112b95760405162461bcd60e51b815260206004820152601c60248201527f7377617020616d6f756e74206d75737420626520706f73697469766500000000604482015260640161067b565b6112c560096008611a11565b6001600160a01b0384166000908152600860205260408120546112e9908490613791565b6001600160a01b03851660009081526008602052604090205461130d9085906137a9565b61131791906137de565b9050612710611327601e82613838565b61133190836137a9565b61133b91906137de565b6040516323b872dd60e01b81529092506001600160a01b038616906323b872dd9061136e908990309088906004016137f2565b602060405180830381600087803b15801561138857600080fd5b505af115801561139c573d6000803e3d6000fd5b505050506040513d601f19601f820116820180604052508101906113c09190613816565b5060405163a9059cbb60e01b81526001600160a01b0387811660048301526024820184905285169063a9059cbb90604401602060405180830381600087803b15801561140b57600080fd5b505af115801561141f573d6000803e3d6000fd5b505050506040513d601f19601f820116820180604052508101906114439190613816565b506001600160a01b0385166000908152600860205260408120805485929061146c908490613791565b90915550506001600160a01b03841660009081526008602052604081208054849290611499908490613838565b90915550919695505050505050565b6114b28482611a11565b6000828152600685016020526040902060038101546001600160a01b038581169116146115215760405162461bcd60e51b815260206004820152601a60248201527f73656e646572206d757374206265206f72646572206f776e6572000000000000604482015260640161067b565b6004818101546001600160a01b03166000908152908601602052604081209061154a8286611db9565b9050600081116115965760405162461bcd60e51b81526020600482015260176024820152766e6f2070726f636565647320746f20776974686472617760481b604482015260640161067b565b600583015460405163a9059cbb60e01b81526001600160a01b038881166004830152602482018490529091169063a9059cbb90604401602060405180830381600087803b1580156115e657600080fd5b505af11580156115fa573d6000803e3d6000fd5b505050506040513d601f19601f8201168201806040525081019061161e9190613816565b5050505050505050565b6001600160a01b03831661168c5760405162461bcd60e51b815260206004820152602560248201527f45524332303a207472616e736665722066726f6d20746865207a65726f206164604482015264647265737360d81b606482015260840161067b565b6001600160a01b0382166116ee5760405162461bcd60e51b815260206004820152602360248201527f45524332303a207472616e7366657220746f20746865207a65726f206164647260448201526265737360e81b606482015260840161067b565b6001600160a01b038316600090815260208190526040902054818110156117665760405162461bcd60e51b815260206004820152602660248201527f45524332303a207472616e7366657220616d6f756e7420657863656564732062604482015265616c616e636560d01b606482015260840161067b565b6001600160a01b0380851660009081526020819052604080822085850390559185168152908120805484929061179d908490613791565b92505081905550826001600160a01b0316846001600160a01b03167fddf252ad1be2c89b69c2b068fc378daa952ba7f163c4a11628f55a4df523b3ef846040516117e991815260200190565b60405180910390a350505050565b6118018482611a11565b6000828152600685016020526040902060038101546001600160a01b038581169116146118705760405162461bcd60e51b815260206004820152601a60248201527f73656e646572206d757374206265206f72646572206f776e6572000000000000604482015260640161067b565b6004818101546001600160a01b0316600090815290860160205260408120908061189a8387611ece565b9150915060008211806118ad5750600081115b6118f35760405162461bcd60e51b81526020600482015260176024820152766e6f2070726f636565647320746f20776974686472617760481b604482015260640161067b565b600584015460405163a9059cbb60e01b81526001600160a01b038981166004830152602482018490529091169063a9059cbb90604401602060405180830381600087803b15801561194357600080fd5b505af1158015611957573d6000803e3d6000fd5b505050506040513d601f19601f8201168201806040525081019061197b9190613816565b5060048481015460405163a9059cbb60e01b81526001600160a01b038a8116938201939093526024810185905291169063a9059cbb90604401602060405180830381600087803b1580156119ce57600080fd5b505af11580156119e2573d6000803e3d6000fd5b505050506040513d601f19601f82011682018060405250810190611a069190613816565b505050505050505050565b8154600183015460009190611a2790829061384f565b8460010154611a369190613838565b611a409190613791565b90505b43811015611a6957611a56838383611fef565b8254611a629082613791565b9050611a43565b43836001015414611a7f57611a7f838343611fef565b505050565b6001600160a01b038216611ada5760405162461bcd60e51b815260206004820152601f60248201527f45524332303a206d696e7420746f20746865207a65726f206164647265737300604482015260640161067b565b8060026000828254611aec9190613791565b90915550506001600160a01b03821660009081526020819052604081208054839290611b19908490613791565b90915550506040518181526001600160a01b038316906000907fddf252ad1be2c89b69c2b068fc378daa952ba7f163c4a11628f55a4df523b3ef9060200160405180910390a35b5050565b60038501546002860154600091611b8d9188916001600160a01b039081169116888888886121f3565b9695505050505050565b60007812725dd1d243aba0e75fe645cc4873f9e65afe688c928e1f21821115611bd657604051633492ffd960e01b81526004810183905260240161067b565b50670de0b6b3a76400000290565b60007812725dd1d243aba0e75fe645cc4873f9e65afe688c928e1f21821115611c2357604051636155b67d60e01b81526004810183905260240161067b565b610523670de0b6b3a76400008302612494565b6000610697838361260f565b6001600160a01b038216611ca25760405162461bcd60e51b815260206004820152602160248201527f45524332303a206275726e2066726f6d20746865207a65726f206164647265736044820152607360f81b606482015260840161067b565b6001600160a01b03821660009081526020819052604090205481811015611d165760405162461bcd60e51b815260206004820152602260248201527f45524332303a206275726e20616d6f756e7420657863656564732062616c616e604482015261636560f01b606482015260840161067b565b6001600160a01b0383166000908152602081905260408120838303905560028054849290611d45908490613838565b90915550506040518281526000906001600160a01b038516907fddf252ad1be2c89b69c2b068fc378daa952ba7f163c4a11628f55a4df523b3ef9060200160405180910390a3505050565b60028501546003860154600091611b8d9188916001600160a01b039081169116888888886121f3565b600081815260048301602052604081205480611e225760405162461bcd60e51b815260206004820152602260248201527f73616c6573207261746520616d6f756e74206d75737420626520706f73697469604482015261766560f01b606482015260840161067b565b6000838152600385016020908152604080832054600588019092529091205443821015611e8d576000828152600687016020526040902054611e73610caf611e6986611b97565b610ca98585613838565b60008781526004890160205260408120559450611ec59050565b611eac610caf611e9c85611b97565b838960010154610ca99190613838565b6001870154600087815260058901602052604090205593505b50505092915050565b60008181526003830160205260408120548190438111611f295760405162461bcd60e51b81526020600482015260166024820152751bdc99195c88185b1c9958591e48199a5b9a5cda195960521b604482015260640161067b565b600084815260048601602052604081205490611f454384613838565b9050611f5182826137a9565b6000878152600589016020526040902054909550611f84610caf611f7485611b97565b838b60010154610ca99190613838565b945082886000016000828254611f9a9190613838565b90915550506000878152600489016020908152604080832083905560038b01825280832083905586835260028b0190915281208054859290611fdd908490613838565b92505081905550505050509250929050565b60008360010154826120019190613838565b60028501546001600160a01b031660009081526004860160205260408120549192509061202f9083906137a9565b60038601546001600160a01b031660009081526004870160205260408120549192509061205d9084906137a9565b60028701546001600160a01b039081166000908152602088905260408082205460038b0154909316825281205492935090919080808061209f86868a8a6126d1565b9350935093509350818b60008e60020160009054906101000a90046001600160a01b03166001600160a01b03166001600160a01b0316815260200190815260200160002081905550808b60008e60030160009054906101000a90046001600160a01b03166001600160a01b03166001600160a01b031681526020019081526020016000208190555060008c60040160008e60020160009054906101000a90046001600160a01b03166001600160a01b03166001600160a01b03168152602001908152602001600020905060008d60040160008f60030160009054906101000a90046001600160a01b03166001600160a01b03166001600160a01b0316815260200190815260200160002090506121be858361286d90919063ffffffff16565b6121c8818761286d565b6121d2828d6128af565b6121dc818d6128af565b505050506001909901969096555050505050505050565b60006121ff8883611a11565b6040516323b872dd60e01b81526001600160a01b038816906323b872dd9061222f908890309089906004016137f2565b602060405180830381600087803b15801561224957600080fd5b505af115801561225d573d6000803e3d6000fd5b505050506040513d601f19601f820116820180604052508101906122819190613816565b5087544390600090612293908361384f565b61229d9083613838565b90506000816122ad876001613791565b8c546122b991906137a9565b6122c39190613791565b905060006122d18483613838565b6122db90896137de565b6001600160a01b038c16600090815260048e016020526040902060058e01549192509061230b90829084866128f3565b6040518060c001604052808e6005015481526020018481526020018381526020018b6001600160a01b031681526020018d6001600160a01b031681526020018c6001600160a01b03168152508d60060160008f60050154815260200190815260200160002060008201518160000155602082015181600101556040820151816002015560608201518160030160006101000a8154816001600160a01b0302191690836001600160a01b0316021790555060808201518160040160006101000a8154816001600160a01b0302191690836001600160a01b0316021790555060a08201518160050160006101000a8154816001600160a01b0302191690836001600160a01b031602179055509050508c60070160008b6001600160a01b03166001600160a01b031681526020019081526020016000208d6005015490806001815401808255809150506001900390600052602060002001600090919091909150558c600501600081548092919061247f90613863565b909155509d9c50505050505050505050505050565b6000816124a357506000919050565b50600181600160801b81106124bd5760409190911b9060801c5b6801000000000000000081106124d85760209190911b9060401c5b64010000000081106124ef5760109190911b9060201c5b6201000081106125045760089190911b9060101c5b61010081106125185760049190911b9060081c5b6010811061252b5760029190911b9060041c5b6008811061253b57600182901b91505b600182848161254c5761254c6137c8565b048301901c91506001828481612564576125646137c8565b048301901c9150600182848161257c5761257c6137c8565b048301901c91506001828481612594576125946137c8565b048301901c915060018284816125ac576125ac6137c8565b048301901c915060018284816125c4576125c46137c8565b048301901c915060018284816125dc576125dc6137c8565b048301901c915060008284816125f4576125f46137c8565b049050808310156126055782612607565b805b949350505050565b60008080600019848609848602925082811083820303915050670de0b6b3a764000081106126535760405163698d9a0160e11b81526004810182905260240161067b565b600080670de0b6b3a76400008688099150506706f05b59d3b1ffff81118261268d5780670de0b6b3a7640000850401945050505050610523565b620400008285030493909111909103600160ee1b02919091177faccb18165bd6fe31ae1cf318dc5b51eee0e1ba569b88cd74c1773b91fac106690201905092915050565b6000808080851580156126e2575084155b156126f857506000925082915086905085612862565b8561273e576127078588613791565b612711868a6137a9565b61271b91906137de565b93506000925061272b8489613838565b91506127378588613791565b9050612862565b8461277d57600093506127518689613791565b61275b87896137a9565b61276591906137de565b92506127718689613791565b91506127378388613838565b600061278887612967565b9050600061279587612967565b905060006127a28b612967565b905060006127af8b612967565b905060006127bd83836129e4565b905060006127cd84848888612aa9565b905060006127df878784868989612b06565b905060006127f7856127f18885612bab565b906129e4565b90506000826128068a8961387e565b61281091906138bf565b905060008261281f8a8961387e565b61282991906138bf565b905061283482612c71565b61283d82612c71565b61284686612c71565b61284f86612c71565b9d509d509d509d50505050505050505050505b945094509450949050565b815415611b60576128936128848360000154611b97565b61288d83611b97565b90612c85565b8260010160008282546128a69190613791565b90915550505050565b60008181526002830160205260408120548354909182918591906128d4908490613838565b9091555050506001820154600091825260069092016020526040902055565b818460000160008282546129079190613791565b909155505060018401546000848152600586016020908152604080832093909355600387018152828220849055600487018152828220859055838252600287019052908120805484929061295c908490613791565b909155505050505050565b60007809392ee8e921d5d073aff322e62439fcf32d7f344649470f8f198212156129a75760405163e608e18b60e01b81526004810183905260240161067b565b7809392ee8e921d5d073aff322e62439fcf32d7f344649470f90821315611bd6576040516371f72a3160e01b81526004810183905260240161067b565b6000600160ff1b8314806129fb5750600160ff1b82145b15612a1957604051630d01a11b60e21b815260040160405180910390fd5b60008060008512612a2a5784612a2f565b846000035b915060008412612a3f5783612a44565b836000035b90506000612a52838361260f565b90506001600160ff1b03811115612a7f5760405163bf79e8d960e01b81526004810182905260240161067b565b600019808713908613808218600114612a985782612a9d565b826000035b98975050505050505050565b600080612ac1612ab884612c9a565b6127f188612c9a565b90506000612ad1612ab886612c9a565b90506000612adf82846138bf565b90506000612aed838561387e565b9050612af98282612bab565b9998505050505050505050565b600080612b23612b1e886127f18b6127f16004612967565b612c9a565b90506000612b3b612b36612ab886612c9a565b612cfd565b90506000612b51612b4c84846129e4565b612d1d565b90506000612b72612b628a846138bf565b612b6c8b8561387e565b90612bab565b90506000612b8f612b828d612c9a565b6127f1612b1e8c8f612bab565b9050612b9b82826129e4565b9c9b505050505050505050505050565b6000600160ff1b831480612bc25750600160ff1b82145b15612be05760405163b3c754a360e01b815260040160405180910390fd5b60008060008512612bf15784612bf6565b846000035b915060008412612c065783612c0b565b836000035b90506000612c2283670de0b6b3a764000084612d8d565b90506001600160ff1b03811115612c4f57604051637cb4bef560e01b81526004810182905260240161067b565b600019808713908613808218600114612c685782612a9d565b612a9d836138fe565b6000670de0b6b3a7640000825b0592915050565b600061069783670de0b6b3a764000084612d8d565b600080821215612cc05760405163608c83ff60e11b81526004810183905260240161067b565b7809392ee8e921d5d073aff322e62439fcf32d7f344649470f90821315611c2357604051632c482c3960e01b81526004810183905260240161067b565b6000816ec097ce7bc90715b34b9f100000000081612c7e57612c7e6137c8565b600068023f2fa8f6da5b9d3119821215612d3957506000919050565b680736ea4425c11ac6318212612d65576040516399bb754160e01b81526004810183905260240161067b565b6714057b7ef767814f8202610697670de0b6b3a76400006706f05b59d3b20000830105612e5b565b600080806000198587098587029250828110838203039150508060001415612dc857838281612dbe57612dbe6137c8565b0492505050610697565b838110612df257604051631dcf306360e21b8152600481018290526024810185905260440161067b565b60008486880960026001871981018816978890046003810283188082028403028082028403028082028403028082028403028082028403029081029092039091026000889003889004909101858311909403939093029303949094049190911702949350505050565b600080821215612ea85768033dd1780914b9711419821215612e7f57506000919050565b612e8b82600003612e5b565b6ec097ce7bc90715b34b9f100000000081612c7e57612c7e6137c8565b680a688906bd8b0000008212612ed45760405163e69458f960e01b81526004810183905260240161067b565b670de0b6b3a7640000604083901b0461069781612ef1565b919050565b600160bf1b678000000000000000821615612f155768016a09e667f3bcc9090260401c5b674000000000000000821615612f34576801306fe0a31b7152df0260401c5b672000000000000000821615612f53576801172b83c7d517adce0260401c5b671000000000000000821615612f725768010b5586cf9890f62a0260401c5b670800000000000000821615612f91576801059b0d31585743ae0260401c5b670400000000000000821615612fb057680102c9a3e778060ee70260401c5b670200000000000000821615612fcf5768010163da9fb33356d80260401c5b670100000000000000821615612fee57680100b1afa5abcbed610260401c5b668000000000000082161561300c5768010058c86da1c09ea20260401c5b664000000000000082161561302a576801002c605e2e8cec500260401c5b662000000000000082161561304857680100162f3904051fa10260401c5b6610000000000000821615613066576801000b175effdc76ba0260401c5b660800000000000082161561308457680100058ba01fb9f96d0260401c5b66040000000000008216156130a25768010002c5cc37da94920260401c5b66020000000000008216156130c0576801000162e525ee05470260401c5b66010000000000008216156130de5768010000b17255775c040260401c5b658000000000008216156130fb576801000058b91b5bc9ae0260401c5b6540000000000082161561311857680100002c5c89d5ec6d0260401c5b652000000000008216156131355768010000162e43f4f8310260401c5b6510000000000082161561315257680100000b1721bcfc9a0260401c5b6508000000000082161561316f5768010000058b90cf1e6e0260401c5b6504000000000082161561318c576801000002c5c863b73f0260401c5b650200000000008216156131a957680100000162e430e5a20260401c5b650100000000008216156131c6576801000000b1721835510260401c5b6480000000008216156131e257680100000058b90c0b490260401c5b6440000000008216156131fe5768010000002c5c8601cc0260401c5b64200000000082161561321a576801000000162e42fff00260401c5b6410000000008216156132365768010000000b17217fbb0260401c5b640800000000821615613252576801000000058b90bfce0260401c5b64040000000082161561326e57680100000002c5c85fe30260401c5b64020000000082161561328a5768010000000162e42ff10260401c5b6401000000008216156132a657680100000000b17217f80260401c5b63800000008216156132c15768010000000058b90bfc0260401c5b63400000008216156132dc576801000000002c5c85fe0260401c5b63200000008216156132f757680100000000162e42ff0260401c5b6310000000821615613312576801000000000b17217f0260401c5b630800000082161561332d57680100000000058b90c00260401c5b63040000008216156133485768010000000002c5c8600260401c5b6302000000821615613363576801000000000162e4300260401c5b630100000082161561337e5768010000000000b172180260401c5b62800000821615613398576801000000000058b90c0260401c5b624000008216156133b257680100000000002c5c860260401c5b622000008216156133cc5768010000000000162e430260401c5b621000008216156133e657680100000000000b17210260401c5b620800008216156134005768010000000000058b910260401c5b6204000082161561341a576801000000000002c5c80260401c5b6202000082161561343457680100000000000162e40260401c5b6201000082161561344e576801000000000000b1720260401c5b61800082161561346757680100000000000058b90260401c5b6140008216156134805768010000000000002c5d0260401c5b612000821615613499576801000000000000162e0260401c5b6110008216156134b25768010000000000000b170260401c5b6108008216156134cb576801000000000000058c0260401c5b6104008216156134e457680100000000000002c60260401c5b6102008216156134fd57680100000000000001630260401c5b61010082161561351657680100000000000000b10260401c5b608082161561352e57680100000000000000590260401c5b6040821615613546576801000000000000002c0260401c5b602082161561355e57680100000000000000160260401c5b6010821615613576576801000000000000000b0260401c5b600882161561358e57680100000000000000060260401c5b60048216156135a657680100000000000000030260401c5b60028216156135be57680100000000000000010260401c5b60018216156135d657680100000000000000010260401c5b670de0b6b3a76400000260409190911c60bf031c90565b600060208083528351808285015260005b8181101561361a578581018301518582016040015282016135fe565b8181111561362c576000604083870101525b50601f01601f1916929092016040019392505050565b80356001600160a01b0381168114612eec57600080fd5b6000806040838503121561366c57600080fd5b61367583613642565b946020939093013593505050565b60008060006060848603121561369857600080fd5b6136a184613642565b92506136af60208501613642565b9150604084013590509250925092565b6000602082840312156136d157600080fd5b61069782613642565b600080604083850312156136ed57600080fd5b6136f683613642565b915061370460208401613642565b90509250929050565b60008060006060848603121561372257600080fd5b61372b84613642565b95602085013595506040909401359392505050565b600181811c9082168061375457607f821691505b6020821081141561377557634e487b7160e01b600052602260045260246000fd5b50919050565b634e487b7160e01b600052601160045260246000fd5b600082198211156137a4576137a461377b565b500190565b60008160001904831182151516156137c3576137c361377b565b500290565b634e487b7160e01b600052601260045260246000fd5b6000826137ed576137ed6137c8565b500490565b6001600160a01b039384168152919092166020820152604081019190915260600190565b60006020828403121561382857600080fd5b8151801515811461069757600080fd5b60008282101561384a5761384a61377b565b500390565b60008261385e5761385e6137c8565b500690565b60006000198214156138775761387761377b565b5060010190565b600080821280156001600160ff1b03849003851316156138a0576138a061377b565b600160ff1b83900384128116156138b9576138b961377b565b50500190565b60008083128015600160ff1b8501841216156138dd576138dd61377b565b6001600160ff1b03840183138116156138f8576138f861377b565b50500390565b6000600160ff1b8214156139145761391461377b565b506000039056fea2646970667358221220b635e54f76f43cfa83e4eea18109fabea8f5e43f8fe12b8c57a043044158027664736f6c63430008090033a2646970667358221220daa8d0b1b4f137e172a732b18cbb9715a4910af16d33e96a972e4cf94db2e58464736f6c63430008090033",
  "linkReferences": {},
  "deployedLinkReferences": {}
}