{
  "_format": "hh-sol-artifact-1",
  "contractName": "Pair",
  "sourceName": "contracts/Pair.sol",
  "abi": [
    {
      "inputs": [],
      "stateMutability": "nonpayable",
      "type": "constructor"
    },
    {
      "inputs": [],
      "name": "PRBMathSD59x18__DivInputTooSmall",
      "type": "error"
    },
    {
      "inputs": [
        {
          "internalType": "uint256",
          "name": "rAbs",
          "type": "uint256"
        }
      ],
      "name": "PRBMathSD59x18__DivOverflow",
      "type": "error"
    },
    {
      "inputs": [
        {
          "internalType": "int256",
          "name": "x",
          "type": "int256"
        }
      ],
      "name": "PRBMathSD59x18__Exp2InputTooBig",
      "type": "error"
    },
    {
      "inputs": [
        {
          "internalType": "int256",
          "name": "x",
          "type": "int256"
        }
      ],
      "name": "PRBMathSD59x18__ExpInputTooBig",
      "type": "error"
    },
    {
      "inputs": [
        {
          "internalType": "int256",
          "name": "x",
          "type": "int256"
        }
      ],
      "name": "PRBMathSD59x18__FromIntOverflow",
      "type": "error"
    },
    {
      "inputs": [
        {
          "internalType": "int256",
          "name": "x",
          "type": "int256"
        }
      ],
      "name": "PRBMathSD59x18__FromIntUnderflow",
      "type": "error"
    },
    {
      "inputs": [],
      "name": "PRBMathSD59x18__MulInputTooSmall",
      "type": "error"
    },
    {
      "inputs": [
        {
          "internalType": "uint256",
          "name": "rAbs",
          "type": "uint256"
        }
      ],
      "name": "PRBMathSD59x18__MulOverflow",
      "type": "error"
    },
    {
      "inputs": [
        {
          "internalType": "int256",
          "name": "x",
          "type": "int256"
        }
      ],
      "name": "PRBMathSD59x18__SqrtNegativeInput",
      "type": "error"
    },
    {
      "inputs": [
        {
          "internalType": "int256",
          "name": "x",
          "type": "int256"
        }
      ],
      "name": "PRBMathSD59x18__SqrtOverflow",
      "type": "error"
    },
    {
      "inputs": [
        {
          "internalType": "uint256",
          "name": "x",
          "type": "uint256"
        }
      ],
      "name": "PRBMathUD60x18__FromUintOverflow",
      "type": "error"
    },
    {
      "inputs": [
        {
          "internalType": "uint256",
          "name": "x",
          "type": "uint256"
        }
      ],
      "name": "PRBMathUD60x18__SqrtOverflow",
      "type": "error"
    },
    {
      "inputs": [
        {
          "internalType": "uint256",
          "name": "prod1",
          "type": "uint256"
        }
      ],
      "name": "PRBMath__MulDivFixedPointOverflow",
      "type": "error"
    },
    {
      "inputs": [
        {
          "internalType": "uint256",
          "name": "prod1",
          "type": "uint256"
        },
        {
          "internalType": "uint256",
          "name": "denominator",
          "type": "uint256"
        }
      ],
      "name": "PRBMath__MulDivOverflow",
      "type": "error"
    },
    {
      "anonymous": false,
      "inputs": [
        {
          "indexed": true,
          "internalType": "address",
          "name": "owner",
          "type": "address"
        },
        {
          "indexed": true,
          "internalType": "address",
          "name": "spender",
          "type": "address"
        },
        {
          "indexed": false,
          "internalType": "uint256",
          "name": "value",
          "type": "uint256"
        }
      ],
      "name": "Approval",
      "type": "event"
    },
    {
      "anonymous": false,
      "inputs": [
        {
          "indexed": true,
          "internalType": "address",
          "name": "addr",
          "type": "address"
        },
        {
          "indexed": false,
          "internalType": "uint256",
          "name": "orderId",
          "type": "uint256"
        }
      ],
      "name": "CancelLongTermOrder",
      "type": "event"
    },
    {
      "anonymous": false,
      "inputs": [
        {
          "indexed": true,
          "internalType": "address",
          "name": "addr",
          "type": "address"
        },
        {
          "indexed": false,
          "internalType": "uint256",
          "name": "amountA",
          "type": "uint256"
        },
        {
          "indexed": false,
          "internalType": "uint256",
          "name": "amountB",
          "type": "uint256"
        }
      ],
      "name": "InitialLiquidityProvided",
      "type": "event"
    },
    {
      "anonymous": false,
      "inputs": [
        {
          "indexed": true,
          "internalType": "address",
          "name": "addr",
          "type": "address"
        },
        {
          "indexed": false,
          "internalType": "uint256",
          "name": "lpTokens",
          "type": "uint256"
        }
      ],
      "name": "LiquidityProvided",
      "type": "event"
    },
    {
      "anonymous": false,
      "inputs": [
        {
          "indexed": true,
          "internalType": "address",
          "name": "addr",
          "type": "address"
        },
        {
          "indexed": false,
          "internalType": "uint256",
          "name": "lpTokens",
          "type": "uint256"
        }
      ],
      "name": "LiquidityRemoved",
      "type": "event"
    },
    {
      "anonymous": false,
      "inputs": [
        {
          "indexed": true,
          "internalType": "address",
          "name": "addr",
          "type": "address"
        },
        {
          "indexed": false,
          "internalType": "uint256",
          "name": "amountAIn",
          "type": "uint256"
        },
        {
          "indexed": false,
          "internalType": "uint256",
          "name": "orderId",
          "type": "uint256"
        }
      ],
      "name": "LongTermSwapAToB",
      "type": "event"
    },
    {
      "anonymous": false,
      "inputs": [
        {
          "indexed": true,
          "internalType": "address",
          "name": "addr",
          "type": "address"
        },
        {
          "indexed": false,
          "internalType": "uint256",
          "name": "amountBIn",
          "type": "uint256"
        },
        {
          "indexed": false,
          "internalType": "uint256",
          "name": "orderId",
          "type": "uint256"
        }
      ],
      "name": "LongTermSwapBToA",
      "type": "event"
    },
    {
      "anonymous": false,
      "inputs": [
        {
          "indexed": true,
          "internalType": "address",
          "name": "addr",
          "type": "address"
        },
        {
          "indexed": false,
          "internalType": "uint256",
          "name": "amountAIn",
          "type": "uint256"
        },
        {
          "indexed": false,
          "internalType": "uint256",
          "name": "amountBOut",
          "type": "uint256"
        }
      ],
      "name": "SwapAToB",
      "type": "event"
    },
    {
      "anonymous": false,
      "inputs": [
        {
          "indexed": true,
          "internalType": "address",
          "name": "addr",
          "type": "address"
        },
        {
          "indexed": false,
          "internalType": "uint256",
          "name": "amountBIn",
          "type": "uint256"
        },
        {
          "indexed": false,
          "internalType": "uint256",
          "name": "amountAOut",
          "type": "uint256"
        }
      ],
      "name": "SwapBToA",
      "type": "event"
    },
    {
      "anonymous": false,
      "inputs": [
        {
          "indexed": false,
          "internalType": "uint256",
          "name": "balanceA",
          "type": "uint256"
        },
        {
          "indexed": false,
          "internalType": "uint256",
          "name": "balanceB",
          "type": "uint256"
        }
      ],
      "name": "Sync",
      "type": "event"
    },
    {
      "anonymous": false,
      "inputs": [
        {
          "indexed": true,
          "internalType": "address",
          "name": "from",
          "type": "address"
        },
        {
          "indexed": true,
          "internalType": "address",
          "name": "to",
          "type": "address"
        },
        {
          "indexed": false,
          "internalType": "uint256",
          "name": "value",
          "type": "uint256"
        }
      ],
      "name": "Transfer",
      "type": "event"
    },
    {
      "anonymous": false,
      "inputs": [
        {
          "indexed": true,
          "internalType": "address",
          "name": "addr",
          "type": "address"
        },
        {
          "indexed": false,
          "internalType": "uint256",
          "name": "orderId",
          "type": "uint256"
        }
      ],
      "name": "WithdrawProceedsFromLongTermOrder",
      "type": "event"
    },
    {
      "inputs": [],
      "name": "LP_FEE",
      "outputs": [
        {
          "internalType": "uint256",
          "name": "",
          "type": "uint256"
        }
      ],
      "stateMutability": "view",
      "type": "function"
    },
    {
      "inputs": [],
      "name": "MINIMUM_LIQUIDITY",
      "outputs": [
        {
          "internalType": "uint256",
          "name": "",
          "type": "uint256"
        }
      ],
      "stateMutability": "view",
      "type": "function"
    },
    {
      "inputs": [
        {
          "internalType": "address",
          "name": "owner",
          "type": "address"
        },
        {
          "internalType": "address",
          "name": "spender",
          "type": "address"
        }
      ],
      "name": "allowance",
      "outputs": [
        {
          "internalType": "uint256",
          "name": "",
          "type": "uint256"
        }
      ],
      "stateMutability": "view",
      "type": "function"
    },
    {
      "inputs": [
        {
          "internalType": "address",
          "name": "spender",
          "type": "address"
        },
        {
          "internalType": "uint256",
          "name": "amount",
          "type": "uint256"
        }
      ],
      "name": "approve",
      "outputs": [
        {
          "internalType": "bool",
          "name": "",
          "type": "bool"
        }
      ],
      "stateMutability": "nonpayable",
      "type": "function"
    },
    {
      "inputs": [
        {
          "internalType": "address",
          "name": "account",
          "type": "address"
        }
      ],
      "name": "balanceOf",
      "outputs": [
        {
          "internalType": "uint256",
          "name": "",
          "type": "uint256"
        }
      ],
      "stateMutability": "view",
      "type": "function"
    },
    {
      "inputs": [
        {
          "internalType": "address",
          "name": "sender",
          "type": "address"
        },
        {
          "internalType": "uint256",
          "name": "orderId",
          "type": "uint256"
        }
      ],
      "name": "cancelLongTermSwap",
      "outputs": [],
      "stateMutability": "nonpayable",
      "type": "function"
    },
    {
      "inputs": [],
      "name": "decimals",
      "outputs": [
        {
          "internalType": "uint8",
          "name": "",
          "type": "uint8"
        }
      ],
      "stateMutability": "view",
      "type": "function"
    },
    {
      "inputs": [
        {
          "internalType": "address",
          "name": "spender",
          "type": "address"
        },
        {
          "internalType": "uint256",
          "name": "subtractedValue",
          "type": "uint256"
        }
      ],
      "name": "decreaseAllowance",
      "outputs": [
        {
          "internalType": "bool",
          "name": "",
          "type": "bool"
        }
      ],
      "stateMutability": "nonpayable",
      "type": "function"
    },
    {
      "inputs": [],
      "name": "executeVirtualOrders",
      "outputs": [],
      "stateMutability": "nonpayable",
      "type": "function"
    },
    {
      "inputs": [],
      "name": "factory",
      "outputs": [
        {
          "internalType": "address",
          "name": "",
          "type": "address"
        }
      ],
      "stateMutability": "view",
      "type": "function"
    },
    {
      "inputs": [
        {
          "internalType": "address",
          "name": "spender",
          "type": "address"
        },
        {
          "internalType": "uint256",
          "name": "addedValue",
          "type": "uint256"
        }
      ],
      "name": "increaseAllowance",
      "outputs": [
        {
          "internalType": "bool",
          "name": "",
          "type": "bool"
        }
      ],
      "stateMutability": "nonpayable",
      "type": "function"
    },
    {
      "inputs": [
        {
          "internalType": "address",
          "name": "_tokenA",
          "type": "address"
        },
        {
          "internalType": "address",
          "name": "_tokenB",
          "type": "address"
        }
      ],
      "name": "initialize",
      "outputs": [],
      "stateMutability": "nonpayable",
      "type": "function"
    },
    {
      "inputs": [
        {
          "internalType": "address",
          "name": "sender",
          "type": "address"
        },
        {
          "internalType": "uint256",
          "name": "amountAIn",
          "type": "uint256"
        },
        {
          "internalType": "uint256",
          "name": "numberOfBlockIntervals",
          "type": "uint256"
        }
      ],
      "name": "longTermSwapFromAToB",
      "outputs": [],
      "stateMutability": "nonpayable",
      "type": "function"
    },
    {
      "inputs": [
        {
          "internalType": "address",
          "name": "sender",
          "type": "address"
        },
        {
          "internalType": "uint256",
          "name": "amountBIn",
          "type": "uint256"
        },
        {
          "internalType": "uint256",
          "name": "numberOfBlockIntervals",
          "type": "uint256"
        }
      ],
      "name": "longTermSwapFromBToA",
      "outputs": [],
      "stateMutability": "nonpayable",
      "type": "function"
    },
    {
      "inputs": [],
      "name": "name",
      "outputs": [
        {
          "internalType": "string",
          "name": "",
          "type": "string"
        }
      ],
      "stateMutability": "view",
      "type": "function"
    },
    {
      "inputs": [],
      "name": "orderBlockInterval",
      "outputs": [
        {
          "internalType": "uint256",
          "name": "",
          "type": "uint256"
        }
      ],
      "stateMutability": "view",
      "type": "function"
    },
    {
      "inputs": [
        {
          "internalType": "uint256",
          "name": "orderId",
          "type": "uint256"
        }
      ],
      "name": "orderIdStatusCheck",
      "outputs": [
        {
          "internalType": "bool",
          "name": "",
          "type": "bool"
        }
      ],
      "stateMutability": "view",
      "type": "function"
    },
    {
      "inputs": [],
      "name": "priceACumulativeLast",
      "outputs": [
        {
          "internalType": "uint256",
          "name": "",
          "type": "uint256"
        }
      ],
      "stateMutability": "view",
      "type": "function"
    },
    {
      "inputs": [],
      "name": "priceBCumulativeLast",
      "outputs": [
        {
          "internalType": "uint256",
          "name": "",
          "type": "uint256"
        }
      ],
      "stateMutability": "view",
      "type": "function"
    },
    {
      "inputs": [
        {
          "internalType": "address",
          "name": "to",
          "type": "address"
        },
        {
          "internalType": "uint256",
          "name": "amountA",
          "type": "uint256"
        },
        {
          "internalType": "uint256",
          "name": "amountB",
          "type": "uint256"
        }
      ],
      "name": "provideInitialLiquidity",
      "outputs": [],
      "stateMutability": "nonpayable",
      "type": "function"
    },
    {
      "inputs": [
        {
          "internalType": "address",
          "name": "to",
          "type": "address"
        },
        {
          "internalType": "uint256",
          "name": "lpTokenAmount",
          "type": "uint256"
        }
      ],
      "name": "provideLiquidity",
      "outputs": [],
      "stateMutability": "nonpayable",
      "type": "function"
    },
    {
      "inputs": [
        {
          "internalType": "address",
          "name": "to",
          "type": "address"
        },
        {
          "internalType": "uint256",
          "name": "lpTokenAmount",
          "type": "uint256"
        }
      ],
      "name": "removeLiquidity",
      "outputs": [],
      "stateMutability": "nonpayable",
      "type": "function"
    },
    {
      "inputs": [
        {
          "internalType": "address",
          "name": "",
          "type": "address"
        }
      ],
      "name": "reserveMap",
      "outputs": [
        {
          "internalType": "uint256",
          "name": "",
          "type": "uint256"
        }
      ],
      "stateMutability": "view",
      "type": "function"
    },
    {
      "inputs": [
        {
          "internalType": "address",
          "name": "to",
          "type": "address"
        }
      ],
      "name": "skim",
      "outputs": [],
      "stateMutability": "nonpayable",
      "type": "function"
    },
    {
      "inputs": [
        {
          "internalType": "address",
          "name": "sender",
          "type": "address"
        },
        {
          "internalType": "uint256",
          "name": "amountAIn",
          "type": "uint256"
        }
      ],
      "name": "swapFromAToB",
      "outputs": [],
      "stateMutability": "nonpayable",
      "type": "function"
    },
    {
      "inputs": [
        {
          "internalType": "address",
          "name": "sender",
          "type": "address"
        },
        {
          "internalType": "uint256",
          "name": "amountBIn",
          "type": "uint256"
        }
      ],
      "name": "swapFromBToA",
      "outputs": [],
      "stateMutability": "nonpayable",
      "type": "function"
    },
    {
      "inputs": [],
      "name": "symbol",
      "outputs": [
        {
          "internalType": "string",
          "name": "",
          "type": "string"
        }
      ],
      "stateMutability": "view",
      "type": "function"
    },
    {
      "inputs": [],
      "name": "sync",
      "outputs": [],
      "stateMutability": "nonpayable",
      "type": "function"
    },
    {
      "inputs": [],
      "name": "tokenA",
      "outputs": [
        {
          "internalType": "address",
          "name": "",
          "type": "address"
        }
      ],
      "stateMutability": "view",
      "type": "function"
    },
    {
      "inputs": [],
      "name": "tokenAReserves",
      "outputs": [
        {
          "internalType": "uint256",
          "name": "",
          "type": "uint256"
        }
      ],
      "stateMutability": "view",
      "type": "function"
    },
    {
      "inputs": [],
      "name": "tokenB",
      "outputs": [
        {
          "internalType": "address",
          "name": "",
          "type": "address"
        }
      ],
      "stateMutability": "view",
      "type": "function"
    },
    {
      "inputs": [],
      "name": "tokenBReserves",
      "outputs": [
        {
          "internalType": "uint256",
          "name": "",
          "type": "uint256"
        }
      ],
      "stateMutability": "view",
      "type": "function"
    },
    {
      "inputs": [],
      "name": "totalSupply",
      "outputs": [
        {
          "internalType": "uint256",
          "name": "",
          "type": "uint256"
        }
      ],
      "stateMutability": "view",
      "type": "function"
    },
    {
      "inputs": [
        {
          "internalType": "address",
          "name": "recipient",
          "type": "address"
        },
        {
          "internalType": "uint256",
          "name": "amount",
          "type": "uint256"
        }
      ],
      "name": "transfer",
      "outputs": [
        {
          "internalType": "bool",
          "name": "",
          "type": "bool"
        }
      ],
      "stateMutability": "nonpayable",
      "type": "function"
    },
    {
      "inputs": [
        {
          "internalType": "address",
          "name": "sender",
          "type": "address"
        },
        {
          "internalType": "address",
          "name": "recipient",
          "type": "address"
        },
        {
          "internalType": "uint256",
          "name": "amount",
          "type": "uint256"
        }
      ],
      "name": "transferFrom",
      "outputs": [
        {
          "internalType": "bool",
          "name": "",
          "type": "bool"
        }
      ],
      "stateMutability": "nonpayable",
      "type": "function"
    },
    {
      "inputs": [
        {
          "internalType": "address",
          "name": "userAddress",
          "type": "address"
        }
      ],
      "name": "userIdsCheck",
      "outputs": [
        {
          "internalType": "uint256[]",
          "name": "",
          "type": "uint256[]"
        }
      ],
      "stateMutability": "view",
      "type": "function"
    },
    {
      "inputs": [
        {
          "internalType": "address",
          "name": "sender",
          "type": "address"
        },
        {
          "internalType": "uint256",
          "name": "orderId",
          "type": "uint256"
        }
      ],
      "name": "withdrawProceedsFromLongTermSwap",
      "outputs": [],
      "stateMutability": "nonpayable",
      "type": "function"
    }
  ],
  "bytecode": "0x6080604052600160055560016015553480156200001b57600080fd5b506040805180820182526009815268050756c7361722d4c560bc1b602080830191825283518085019094526006845265050554c2d4c560d41b9084015281519192916200006b916003916200010e565b508051620000819060049060208401906200010e565b505060068054336001600160a01b031990911617905550600754600854620000c891600c916001600160a01b03918216911643600a620000ce602090811b62001dd217901c565b620001f1565b6002850180546001600160a01b039586166001600160a01b0319918216179091556003860180549490951693169290921790925560018301919091559055565b8280546200011c90620001b4565b90600052602060002090601f0160209004810192826200014057600085556200018b565b82601f106200015b57805160ff19168380011785556200018b565b828001600101855582156200018b579182015b828111156200018b5782518255916020019190600101906200016e565b50620001999291506200019d565b5090565b5b808211156200019957600081556001016200019e565b600181811c90821680620001c957607f821691505b60208210811415620001eb57634e487b7160e01b600052602260045260246000fd5b50919050565b61495180620002016000396000f3fe608060405234801561001057600080fd5b50600436106102275760003560e01c806360a9d50511610130578063a201ccf6116100b8578063bde1077e1161007c578063bde1077e146104ab578063c45a0155146104be578063ceb2894c146104d1578063dd62ed3e146104d9578063fff6cae91461051257600080fd5b8063a201ccf614610456578063a457c2d714610469578063a9059cbb1461047c578063ba9a7a561461048f578063bc25cf771461049857600080fd5b80636f9d42d2116100ff5780636f9d42d2146103f657806370a082311461040957806395d89b41146104325780639a89f22d1461043a5780639b63c15a1461044d57600080fd5b806360a9d505146103b057806363784245146103b8578063659509c5146103c057806366f55ece146103d357600080fd5b806337bc5e4a116101b357806342b98a141161018257806342b98a141461035c578063485cc9551461036f5780635e3f2727146103825780635f64b55b1461038a5780635fea61201461039d57600080fd5b806337bc5e4a1461030157806339509351146103215780633a8c885e146103345780633b4a6bc31461035457600080fd5b806310d82173116101fa57806310d82173146102af57806313bf4fd2146102c457806318160ddd146102d757806323b872dd146102df578063313ce567146102f257600080fd5b806306fdde031461022c578063095ea7b31461024a5780630dc6b6171461026d5780630fc63d1014610284575b600080fd5b61023461051a565b60405161024191906144b9565b60405180910390f35b61025d610258366004614525565b6105ac565b6040519015158152602001610241565b610276600a5481565b604051908152602001610241565b600754610297906001600160a01b031681565b6040516001600160a01b039091168152602001610241565b6102c26102bd366004614525565b6105c3565b005b6102c26102d2366004614525565b6107b0565b600254610276565b61025d6102ed36600461454f565b610977565b60405160128152602001610241565b61031461030f36600461458b565b610a23565b60405161024191906145a6565b61025d61032f366004614525565b610a8f565b61027661034236600461458b565b600b6020526000908152604090205481565b610276610acb565b6102c261036a366004614525565b610ae9565b6102c261037d3660046145ea565b610bca565b610276601e81565b600854610297906001600160a01b031681565b6102c26103ab366004614525565b610c9c565b610276600a81565b6102c26110e1565b6102c26103ce36600461461d565b6110ef565b61025d6103e1366004614650565b60009081526014602052604090205460ff1690565b6102c261040436600461461d565b6111de565b61027661041736600461458b565b6001600160a01b031660009081526020819052604090205490565b6102346114bf565b6102c2610448366004614525565b6114ce565b61027660095481565b6102c2610464366004614525565b6115cf565b61025d610477366004614525565b6118fa565b61025d61048a366004614525565b611993565b6102766103e881565b6102c26104a636600461458b565b6119a0565b6102c26104b936600461461d565b611c1c565b600654610297906001600160a01b031681565b610276611d0b565b6102766104e73660046145ea565b6001600160a01b03918216600090815260016020908152604080832093909416825291909152205490565b6102c2611d29565b60606003805461052990614669565b80601f016020809104026020016040519081016040528092919081815260200182805461055590614669565b80156105a25780601f10610577576101008083540402835291602001916105a2565b820191906000526020600020905b81548152906001019060200180831161058557829003601f168201915b5050505050905090565b60006105b9338484611e12565b5060015b92915050565b6015546001146105ee5760405162461bcd60e51b81526004016105e5906146a4565b60405180910390fd5b60006015556005546001146106155760405162461bcd60e51b81526004016105e5906146c4565b60026005556000610624610acb565b90506000610630611d0b565b6007546008549192506000916106559187916001600160a01b03918216911687611f36565b6007546040516370a0823160e01b815230600482015291925061075a916001600160a01b03909116906370a08231906024015b60206040518083038186803b1580156106a057600080fd5b505afa1580156106b4573d6000803e3d6000fd5b505050506040513d601f19601f820116820180604052508101906106d891906146e8565b6008546040516370a0823160e01b81523060048201526001600160a01b03909116906370a082319060240160206040518083038186803b15801561071b57600080fd5b505afa15801561072f573d6000803e3d6000fd5b505050506040513d601f19601f8201168201806040525081019061075391906146e8565b8585612177565b60408051858152602081018390526001600160a01b038716917f1a442df1f5a0e29117f2a0d6ceb8d5db8b4e68203b0d5edac8e267920708522e91015b60405180910390a2505060016005819055601555505050565b6015546001146107d25760405162461bcd60e51b81526004016105e5906146a4565b60006015556005546001146107f95760405162461bcd60e51b81526004016105e5906146c4565b60026005556000610808610acb565b90506000610814611d0b565b9050610824600c8585600b6122e6565b6007546040516370a0823160e01b8152306004820152610924916001600160a01b0316906370a08231906024015b60206040518083038186803b15801561086a57600080fd5b505afa15801561087e573d6000803e3d6000fd5b505050506040513d601f19601f820116820180604052508101906108a291906146e8565b6008546040516370a0823160e01b81523060048201526001600160a01b03909116906370a082319060240160206040518083038186803b1580156108e557600080fd5b505afa1580156108f9573d6000803e3d6000fd5b505050506040513d601f19601f8201168201806040525081019061091d91906146e8565b8484612177565b836001600160a01b03167fe91f05f05f7e013ffc245507e3fd86ec0ca1d2f5ab431eea8827cc80f303bf7a8460405161095f91815260200190565b60405180910390a25050600160058190556015555050565b600061098484848461247d565b6001600160a01b038416600090815260016020908152604080832033845290915290205482811015610a095760405162461bcd60e51b815260206004820152602860248201527f45524332303a207472616e7366657220616d6f756e74206578636565647320616044820152676c6c6f77616e636560c01b60648201526084016105e5565b610a168533858403611e12565b60019150505b9392505050565b6001600160a01b038116600090815260136020908152604091829020805483518184028101840190945280845260609392830182828015610a8357602002820191906000526020600020905b815481526020019060010190808311610a6f575b50505050509050919050565b3360008181526001602090815260408083206001600160a01b038716845290915281205490916105b9918590610ac6908690614717565b611e12565b6007546001600160a01b03166000908152600b602052604090205490565b601554600114610b0b5760405162461bcd60e51b81526004016105e5906146a4565b6000601555600554600114610b325760405162461bcd60e51b81526004016105e5906146c4565b60026005556000610b41610acb565b90506000610b4d611d0b565b9050610b5d600c8585600b61264c565b6007546040516370a0823160e01b8152306004820152610b8f916001600160a01b0316906370a0823190602401610852565b836001600160a01b03167fec1efa7415f20eabaabbfdfc33d5c736e9d413afcc9dedd898c035c0d1889eaa8460405161095f91815260200190565b601554600114610bec5760405162461bcd60e51b81526004016105e5906146a4565b6000601555600554600114610c135760405162461bcd60e51b81526004016105e5906146c4565b60026005556006546001600160a01b03163314610c645760405162461bcd60e51b815260206004820152600f60248201526e2820a4a91d102327a92124a22222a760891b60448201526064016105e5565b600780546001600160a01b039384166001600160a01b0319918216179091556008805492909316911617905560016005819055601555565b601554600114610cbe5760405162461bcd60e51b81526004016105e5906146a4565b6000601555600554600114610ce55760405162461bcd60e51b81526004016105e5906146c4565b6002600555610cf360025490565b610d765760405162461bcd60e51b815260206004820152604860248201527f6e6f206c697175696469747920686173206265656e2070726f7669646564207960448201527f65742c206e65656420746f2063616c6c2070726f76696465496e697469616c4c606482015267697175696469747960c01b608482015260a4016105e5565b6000610d80610acb565b90506000610d8c611d0b565b9050610d9a600c600b61287d565b6000610da560025490565b6007546001600160a01b03166000908152600b6020526040902054610dca908661472f565b610dd49190614764565b90506000610de160025490565b6008546001600160a01b03166000908152600b6020526040902054610e06908761472f565b610e109190614764565b6007546001600160a01b03166000908152600b6020526040812080549293508492909190610e3f908490614717565b90915550506008546001600160a01b03166000908152600b602052604081208054839290610e6e908490614717565b90915550610e7e905086866128f0565b6007546040516323b872dd60e01b81526001600160a01b03909116906323b872dd90610eb290899030908790600401614778565b602060405180830381600087803b158015610ecc57600080fd5b505af1158015610ee0573d6000803e3d6000fd5b505050506040513d601f19601f82011682018060405250810190610f04919061479c565b506008546040516323b872dd60e01b81526001600160a01b03909116906323b872dd90610f3990899030908690600401614778565b602060405180830381600087803b158015610f5357600080fd5b505af1158015610f67573d6000803e3d6000fd5b505050506040513d601f19601f82011682018060405250810190610f8b919061479c565b506007546040516370a0823160e01b815230600482015261108c916001600160a01b0316906370a08231906024015b60206040518083038186803b158015610fd257600080fd5b505afa158015610fe6573d6000803e3d6000fd5b505050506040513d601f19601f8201168201806040525081019061100a91906146e8565b6008546040516370a0823160e01b81523060048201526001600160a01b03909116906370a082319060240160206040518083038186803b15801561104d57600080fd5b505afa158015611061573d6000803e3d6000fd5b505050506040513d601f19601f8201168201806040525081019061108591906146e8565b8686612177565b856001600160a01b03167fccb2ae3a2936bf4c94fa4e12cdf0cdad6ed0e4888a044cef89afa60f2e4b92d3866040516110c791815260200190565b60405180910390a250506001600581905560155550505050565b6110ed600c600b61287d565b565b6015546001146111115760405162461bcd60e51b81526004016105e5906146a4565b60006015556005546001146111385760405162461bcd60e51b81526004016105e5906146c4565b60026005556000611147610acb565b90506000611153611d0b565b90506000611166600c878787600b6129d0565b6007546040516370a0823160e01b815230600482015291925061119d916001600160a01b03909116906370a0823190602401610688565b60408051868152602081018390526001600160a01b038816917f3f9021da39409c8415526f6f5150f90f549aff31c146178262479dd87789440091016110c7565b6015546001146112005760405162461bcd60e51b81526004016105e5906146a4565b60006015556005546001146112275760405162461bcd60e51b81526004016105e5906146c4565b600260055561123560025490565b156112b35760405162461bcd60e51b815260206004820152604260248201527f6c69717569646974792068617320616c7265616479206265656e2070726f766960448201527f6465642c206e65656420746f2063616c6c2070726f766964654c697175696469606482015261747960f01b608482015260a4016105e5565b6007546001600160a01b039081166000908152600b602052604080822085905560085490921681529081208290556103e861131b61130d6112fb6112f686612a03565b612a50565b6113076112f688612a03565b90612aa2565b670de0b6b3a7640000900490565b61132591906147be565b905061133460006103e86128f0565b61133e84826128f0565b6007546040516323b872dd60e01b81526001600160a01b03909116906323b872dd9061137290879030908890600401614778565b602060405180830381600087803b15801561138c57600080fd5b505af11580156113a0573d6000803e3d6000fd5b505050506040513d601f19601f820116820180604052508101906113c4919061479c565b506008546040516323b872dd60e01b81526001600160a01b03909116906323b872dd906113f990879030908790600401614778565b602060405180830381600087803b15801561141357600080fd5b505af1158015611427573d6000803e3d6000fd5b505050506040513d601f19601f8201168201806040525081019061144b919061479c565b506007546040516370a0823160e01b815230600482015261147e916001600160a01b0316906370a0823190602401610688565b60408051848152602081018490526001600160a01b038616917f6f6e8d9cc87c64a4776e719d1ad22f4b0b45089829effa9a2a8cddbdbc43b62b910161095f565b60606004805461052990614669565b6015546001146114f05760405162461bcd60e51b81526004016105e5906146a4565b60006015556005546001146115175760405162461bcd60e51b81526004016105e5906146c4565b60026005556000611526610acb565b90506000611532611d0b565b6008546007549192506000916115579187916001600160a01b03918216911687611f36565b6007546040516370a0823160e01b815230600482015291925061158e916001600160a01b03909116906370a0823190602401610688565b60408051858152602081018390526001600160a01b038716917f1201e4c6b2a8cfdbb8440a213b3b16f2e11b23315ddb1751c9522fa3f3e6b3559101610797565b6015546001146115f15760405162461bcd60e51b81526004016105e5906146a4565b60006015556005546001146116185760405162461bcd60e51b81526004016105e5906146c4565b600260055561162660025490565b8111156116755760405162461bcd60e51b815260206004820152601e60248201527f6e6f7420656e6f756768206c7020746f6b656e7320617661696c61626c65000060448201526064016105e5565b600061167f610acb565b9050600061168b611d0b565b9050611699600c600b61287d565b60006116a460025490565b6007546001600160a01b03166000908152600b60205260409020546116ca90869061472f565b6116d49190614764565b905060006116e160025490565b6008546001600160a01b03166000908152600b602052604090205461170790879061472f565b6117119190614764565b6007546001600160a01b03166000908152600b60205260408120805492935084929091906117409084906147be565b90915550506008546001600160a01b03166000908152600b60205260408120805483929061176f9084906147be565b9091555061177f90508686612aae565b60075460405163a9059cbb60e01b81526001600160a01b038881166004830152602482018590529091169063a9059cbb90604401602060405180830381600087803b1580156117cd57600080fd5b505af11580156117e1573d6000803e3d6000fd5b505050506040513d601f19601f82011682018060405250810190611805919061479c565b5060085460405163a9059cbb60e01b81526001600160a01b038881166004830152602482018490529091169063a9059cbb90604401602060405180830381600087803b15801561185457600080fd5b505af1158015611868573d6000803e3d6000fd5b505050506040513d601f19601f8201168201806040525081019061188c919061479c565b506007546040516370a0823160e01b81523060048201526118bf916001600160a01b0316906370a0823190602401610fba565b856001600160a01b03167fc2c3f06e49b9f15e7b4af9055e183b0d73362e033ad82a07dec9bf9840171719866040516110c791815260200190565b3360009081526001602090815260408083206001600160a01b03861684529091528120548281101561197c5760405162461bcd60e51b815260206004820152602560248201527f45524332303a2064656372656173656420616c6c6f77616e63652062656c6f77604482015264207a65726f60d81b60648201526084016105e5565b6119893385858403611e12565b5060019392505050565b60006105b933848461247d565b6015546001146119c25760405162461bcd60e51b81526004016105e5906146a4565b60006015556005546001146119e95760405162461bcd60e51b81526004016105e5906146c4565b600260055560006119f8610acb565b90506000611a04611d0b565b6007546040516370a0823160e01b81523060048201529192506001600160a01b0316906323b872dd9082908690869083906370a082319060240160206040518083038186803b158015611a5657600080fd5b505afa158015611a6a573d6000803e3d6000fd5b505050506040513d601f19601f82011682018060405250810190611a8e91906146e8565b611a9891906147be565b6040518463ffffffff1660e01b8152600401611ab693929190614778565b602060405180830381600087803b158015611ad057600080fd5b505af1158015611ae4573d6000803e3d6000fd5b505050506040513d601f19601f82011682018060405250810190611b08919061479c565b506008546040516370a0823160e01b81523060048201526001600160a01b03909116906323b872dd9082908690859083906370a082319060240160206040518083038186803b158015611b5a57600080fd5b505afa158015611b6e573d6000803e3d6000fd5b505050506040513d601f19601f82011682018060405250810190611b9291906146e8565b611b9c91906147be565b6040518463ffffffff1660e01b8152600401611bba93929190614778565b602060405180830381600087803b158015611bd457600080fd5b505af1158015611be8573d6000803e3d6000fd5b505050506040513d601f19601f82011682018060405250810190611c0c919061479c565b5050600160058190556015555050565b601554600114611c3e5760405162461bcd60e51b81526004016105e5906146a4565b6000601555600554600114611c655760405162461bcd60e51b81526004016105e5906146c4565b60026005556000611c74610acb565b90506000611c80611d0b565b90506000611c93600c878787600b612bfc565b6007546040516370a0823160e01b8152306004820152919250611cca916001600160a01b03909116906370a0823190602401610688565b60408051868152602081018390526001600160a01b038816917f3118cfac1ed5d8e668c193690497d56fff82f1aabbdf08f598025b0dfe30872791016110c7565b6008546001600160a01b03166000908152600b602052604090205490565b601554600114611d4b5760405162461bcd60e51b81526004016105e5906146a4565b6000601555600554600114611d725760405162461bcd60e51b81526004016105e5906146c4565b60026005556000611d81610acb565b90506000611d8d611d0b565b6007546040516370a0823160e01b8152306004820152919250611dc4916001600160a01b03909116906370a0823190602401610852565b505060016005819055601555565b6002850180546001600160a01b039586166001600160a01b0319918216179091556003860180549490951693169290921790925560018301919091559055565b6001600160a01b038316611e745760405162461bcd60e51b8152602060048201526024808201527f45524332303a20617070726f76652066726f6d20746865207a65726f206164646044820152637265737360e01b60648201526084016105e5565b6001600160a01b038216611ed55760405162461bcd60e51b815260206004820152602260248201527f45524332303a20617070726f766520746f20746865207a65726f206164647265604482015261737360f01b60648201526084016105e5565b6001600160a01b0383811660008181526001602090815260408083209487168084529482529182902085905590518481527f8c5be1e5ebec7d5bd14f71427d1e84f3dd0314c0f7b2291e5b200ac8c7c3b925910160405180910390a3505050565b6000808211611f875760405162461bcd60e51b815260206004820152601c60248201527f7377617020616d6f756e74206d75737420626520706f7369746976650000000060448201526064016105e5565b611f93600c600b61287d565b6001600160a01b0384166000908152600b6020526040812054611fb7908490614717565b6001600160a01b0385166000908152600b6020526040902054611fdb90859061472f565b611fe59190614764565b9050612710611ff5601e826147be565b611fff908361472f565b6120099190614764565b6001600160a01b0386166000908152600b6020526040812080549294508592909190612036908490614717565b90915550506001600160a01b0384166000908152600b6020526040812080548492906120639084906147be565b90915550506040516323b872dd60e01b81526001600160a01b038616906323b872dd9061209890899030908890600401614778565b602060405180830381600087803b1580156120b257600080fd5b505af11580156120c6573d6000803e3d6000fd5b505050506040513d601f19601f820116820180604052508101906120ea919061479c565b5060405163a9059cbb60e01b81526001600160a01b0387811660048301526024820184905285169063a9059cbb90604401602060405180830381600087803b15801561213557600080fd5b505af1158015612149573d6000803e3d6000fd5b505050506040513d601f19601f8201168201806040525081019061216d919061479c565b5050949350505050565b6000612188640100000000426147d5565b6008549091506000906121a890600160a01b900463ffffffff16836147e9565b905060008163ffffffff161180156121bf57508315155b80156121ca57508215155b15612259578063ffffffff166121f2856121e386612c25565b6001600160e01b031690612c3e565b6001600160e01b0316612205919061472f565b600960008282546122169190614717565b909155505063ffffffff811661222f846121e387612c25565b6001600160e01b0316612242919061472f565b600a60008282546122539190614717565b90915550505b6007546001600160a01b039081166000908152600b602090815260408083208a905560088054909416835291829020889055825463ffffffff60a01b1916600160a01b63ffffffff8716021790925580518881529182018790527fcf2aa50876cdfbb541206f89af0ee78d44a2abf8d328e37fa4917f982149848a910160405180910390a1505050505050565b6122f0848261287d565b6000828152600685016020526040902060038101546001600160a01b0385811691161461235f5760405162461bcd60e51b815260206004820152601a60248201527f73656e646572206d757374206265206f72646572206f776e657200000000000060448201526064016105e5565b6004818101546001600160a01b0316600090815290860160205260408120906123888286612c53565b9050600081116123d45760405162461bcd60e51b81526020600482015260176024820152766e6f2070726f636565647320746f20776974686472617760481b60448201526064016105e5565b600583015460405163a9059cbb60e01b81526001600160a01b038881166004830152602482018490529091169063a9059cbb90604401602060405180830381600087803b15801561242457600080fd5b505af1158015612438573d6000803e3d6000fd5b505050506040513d601f19601f8201168201806040525081019061245c919061479c565b5050506000928352505060089092016020525060409020805460ff19169055565b6001600160a01b0383166124e15760405162461bcd60e51b815260206004820152602560248201527f45524332303a207472616e736665722066726f6d20746865207a65726f206164604482015264647265737360d81b60648201526084016105e5565b6001600160a01b0382166125435760405162461bcd60e51b815260206004820152602360248201527f45524332303a207472616e7366657220746f20746865207a65726f206164647260448201526265737360e81b60648201526084016105e5565b6001600160a01b038316600090815260208190526040902054818110156125bb5760405162461bcd60e51b815260206004820152602660248201527f45524332303a207472616e7366657220616d6f756e7420657863656564732062604482015265616c616e636560d01b60648201526084016105e5565b6001600160a01b038085166000908152602081905260408082208585039055918516815290812080548492906125f2908490614717565b92505081905550826001600160a01b0316846001600160a01b03167fddf252ad1be2c89b69c2b068fc378daa952ba7f163c4a11628f55a4df523b3ef8460405161263e91815260200190565b60405180910390a350505050565b612656848261287d565b6000828152600685016020526040902060038101546001600160a01b038581169116146126c55760405162461bcd60e51b815260206004820152601a60248201527f73656e646572206d757374206265206f72646572206f776e657200000000000060448201526064016105e5565b6004818101546001600160a01b031660009081529086016020526040812090806126ef8387612d68565b9150915060008211806127025750600081115b6127485760405162461bcd60e51b81526020600482015260176024820152766e6f2070726f636565647320746f20776974686472617760481b60448201526064016105e5565b600584015460405163a9059cbb60e01b81526001600160a01b038981166004830152602482018490529091169063a9059cbb90604401602060405180830381600087803b15801561279857600080fd5b505af11580156127ac573d6000803e3d6000fd5b505050506040513d601f19601f820116820180604052508101906127d0919061479c565b5060048481015460405163a9059cbb60e01b81526001600160a01b038a8116938201939093526024810185905291169063a9059cbb90604401602060405180830381600087803b15801561282357600080fd5b505af1158015612837573d6000803e3d6000fd5b505050506040513d601f19601f8201168201806040525081019061285b919061479c565b505050600093845250505060089092016020525060409020805460ff19169055565b81546001830154600091906128939082906147d5565b84600101546128a291906147be565b6128ac9190614717565b90505b438110156128d5576128c2838383612e89565b82546128ce9082614717565b90506128af565b438360010154146128eb576128eb838343612e89565b505050565b6001600160a01b0382166129465760405162461bcd60e51b815260206004820152601f60248201527f45524332303a206d696e7420746f20746865207a65726f20616464726573730060448201526064016105e5565b80600260008282546129589190614717565b90915550506001600160a01b03821660009081526020819052604081208054839290612985908490614717565b90915550506040518181526001600160a01b038316906000907fddf252ad1be2c89b69c2b068fc378daa952ba7f163c4a11628f55a4df523b3ef9060200160405180910390a35b5050565b600385015460028601546000916129f99188916001600160a01b0390811691168888888861308d565b9695505050505050565b60007812725dd1d243aba0e75fe645cc4873f9e65afe688c928e1f21821115612a4257604051633492ffd960e01b8152600481018390526024016105e5565b50670de0b6b3a76400000290565b60007812725dd1d243aba0e75fe645cc4873f9e65afe688c928e1f21821115612a8f57604051636155b67d60e01b8152600481018390526024016105e5565b6105bd670de0b6b3a76400008302613360565b6000610a1c83836134db565b6001600160a01b038216612b0e5760405162461bcd60e51b815260206004820152602160248201527f45524332303a206275726e2066726f6d20746865207a65726f206164647265736044820152607360f81b60648201526084016105e5565b6001600160a01b03821660009081526020819052604090205481811015612b825760405162461bcd60e51b815260206004820152602260248201527f45524332303a206275726e20616d6f756e7420657863656564732062616c616e604482015261636560f01b60648201526084016105e5565b6001600160a01b0383166000908152602081905260408120838303905560028054849290612bb19084906147be565b90915550506040518281526000906001600160a01b038516907fddf252ad1be2c89b69c2b068fc378daa952ba7f163c4a11628f55a4df523b3ef9060200160405180910390a3505050565b600285015460038601546000916129f99188916001600160a01b0390811691168888888861308d565b60006105bd600160701b6001600160701b03841661480e565b6000610a1c6001600160701b0383168461483d565b600081815260048301602052604081205480612cbc5760405162461bcd60e51b815260206004820152602260248201527f73616c6573207261746520616d6f756e74206d75737420626520706f73697469604482015261766560f01b60648201526084016105e5565b6000838152600385016020908152604080832054600588019092529091205443821015612d27576000828152600687016020526040902054612d0d61130d612d0386612a03565b61130785856147be565b60008781526004890160205260408120559450612d5f9050565b612d4661130d612d3685612a03565b83896001015461130791906147be565b6001870154600087815260058901602052604090205593505b50505092915050565b60008181526003830160205260408120548190438111612dc35760405162461bcd60e51b81526020600482015260166024820152751bdc99195c88185b1c9958591e48199a5b9a5cda195960521b60448201526064016105e5565b600084815260048601602052604081205490612ddf43846147be565b9050612deb828261472f565b6000878152600589016020526040902054909550612e1e61130d612e0e85612a03565b838b6001015461130791906147be565b945082886000016000828254612e3491906147be565b90915550506000878152600489016020908152604080832083905560038b01825280832083905586835260028b0190915281208054859290612e779084906147be565b92505081905550505050509250929050565b6000836001015482612e9b91906147be565b60028501546001600160a01b0316600090815260048601602052604081205491925090612ec990839061472f565b60038601546001600160a01b0316600090815260048701602052604081205491925090612ef790849061472f565b60028701546001600160a01b039081166000908152602088905260408082205460038b01549093168252812054929350909190808080612f3986868a8a61359d565b9350935093509350818b60008e60020160009054906101000a90046001600160a01b03166001600160a01b03166001600160a01b0316815260200190815260200160002081905550808b60008e60030160009054906101000a90046001600160a01b03166001600160a01b03166001600160a01b031681526020019081526020016000208190555060008c60040160008e60020160009054906101000a90046001600160a01b03166001600160a01b03166001600160a01b03168152602001908152602001600020905060008d60040160008f60030160009054906101000a90046001600160a01b03166001600160a01b03166001600160a01b031681526020019081526020016000209050613058858361373990919063ffffffff16565b6130628187613739565b61306c828d61377b565b613076818d61377b565b505050506001909901969096555050505050505050565b6000613099888361287d565b6040516323b872dd60e01b81526001600160a01b038816906323b872dd906130c990889030908990600401614778565b602060405180830381600087803b1580156130e357600080fd5b505af11580156130f7573d6000803e3d6000fd5b505050506040513d601f19601f8201168201806040525081019061311b919061479c565b508754439060009061312d90836147d5565b61313790836147be565b9050600081613147876001614717565b8c54613153919061472f565b61315d9190614717565b9050600061316b84836147be565b6131759089614764565b6001600160a01b038c16600090815260048e016020526040902060058e0154919250906131a590829084866137bf565b6040518060c001604052808e6005015481526020018481526020018381526020018b6001600160a01b031681526020018d6001600160a01b031681526020018c6001600160a01b03168152508d60060160008f60050154815260200190815260200160002060008201518160000155602082015181600101556040820151816002015560608201518160030160006101000a8154816001600160a01b0302191690836001600160a01b0316021790555060808201518160040160006101000a8154816001600160a01b0302191690836001600160a01b0316021790555060a08201518160050160006101000a8154816001600160a01b0302191690836001600160a01b031602179055509050508c60070160008b6001600160a01b03166001600160a01b031681526020019081526020016000208d60050154908060018154018082558091505060019003906000526020600020016000909190919091505560018d60080160008f60050154815260200190815260200160002060006101000a81548160ff0219169083151502179055508c600501600081548092919061334b90614863565b909155509d9c50505050505050505050505050565b60008161336f57506000919050565b50600181600160801b81106133895760409190911b9060801c5b6801000000000000000081106133a45760209190911b9060401c5b64010000000081106133bb5760109190911b9060201c5b6201000081106133d05760089190911b9060101c5b61010081106133e45760049190911b9060081c5b601081106133f75760029190911b9060041c5b6008811061340757600182901b91505b60018284816134185761341861474e565b048301901c915060018284816134305761343061474e565b048301901c915060018284816134485761344861474e565b048301901c915060018284816134605761346061474e565b048301901c915060018284816134785761347861474e565b048301901c915060018284816134905761349061474e565b048301901c915060018284816134a8576134a861474e565b048301901c915060008284816134c0576134c061474e565b049050808310156134d157826134d3565b805b949350505050565b60008080600019848609848602925082811083820303915050670de0b6b3a7640000811061351f5760405163698d9a0160e11b8152600481018290526024016105e5565b600080670de0b6b3a76400008688099150506706f05b59d3b1ffff8111826135595780670de0b6b3a76400008504019450505050506105bd565b620400008285030493909111909103600160ee1b02919091177faccb18165bd6fe31ae1cf318dc5b51eee0e1ba569b88cd74c1773b91fac106690201905092915050565b6000808080851580156135ae575084155b156135c45750600092508291508690508561372e565b8561360a576135d38588614717565b6135dd868a61472f565b6135e79190614764565b9350600092506135f784896147be565b91506136038588614717565b905061372e565b84613649576000935061361d8689614717565b613627878961472f565b6136319190614764565b925061363d8689614717565b915061360383886147be565b600061365487613833565b9050600061366187613833565b9050600061366e8b613833565b9050600061367b8b613833565b9050600061368983836138b0565b9050600061369984848888613975565b905060006136ab8787848689896139d2565b905060006136c3856136bd8885613a77565b906138b0565b90506000826136d28a8961487e565b6136dc91906148bf565b90506000826136eb8a8961487e565b6136f591906148bf565b905061370082613b3d565b61370982613b3d565b61371286613b3d565b61371b86613b3d565b9d509d509d509d50505050505050505050505b945094509450949050565b8154156129cc5761375f6137508360000154612a03565b61375983612a03565b90613b51565b8260010160008282546137729190614717565b90915550505050565b60008181526002830160205260408120548354909182918591906137a09084906147be565b9091555050506001820154600091825260069092016020526040902055565b818460000160008282546137d39190614717565b9091555050600184015460008481526005860160209081526040808320939093556003870181528282208490556004870181528282208590558382526002870190529081208054849290613828908490614717565b909155505050505050565b60007809392ee8e921d5d073aff322e62439fcf32d7f344649470f8f198212156138735760405163e608e18b60e01b8152600481018390526024016105e5565b7809392ee8e921d5d073aff322e62439fcf32d7f344649470f90821315612a42576040516371f72a3160e01b8152600481018390526024016105e5565b6000600160ff1b8314806138c75750600160ff1b82145b156138e557604051630d01a11b60e21b815260040160405180910390fd5b600080600085126138f657846138fb565b846000035b91506000841261390b5783613910565b836000035b9050600061391e83836134db565b90506001600160ff1b0381111561394b5760405163bf79e8d960e01b8152600481018290526024016105e5565b6000198087139086138082186001146139645782613969565b826000035b98975050505050505050565b60008061398d61398484613b66565b6136bd88613b66565b9050600061399d61398486613b66565b905060006139ab82846148bf565b905060006139b9838561487e565b90506139c58282613a77565b9998505050505050505050565b6000806139ef6139ea886136bd8b6136bd6004613833565b613b66565b90506000613a07613a0261398486613b66565b613bc9565b90506000613a1d613a1884846138b0565b613be9565b90506000613a3e613a2e8a846148bf565b613a388b8561487e565b90613a77565b90506000613a5b613a4e8d613b66565b6136bd6139ea8c8f613a77565b9050613a6782826138b0565b9c9b505050505050505050505050565b6000600160ff1b831480613a8e5750600160ff1b82145b15613aac5760405163b3c754a360e01b815260040160405180910390fd5b60008060008512613abd5784613ac2565b846000035b915060008412613ad25783613ad7565b836000035b90506000613aee83670de0b6b3a764000084613c59565b90506001600160ff1b03811115613b1b57604051637cb4bef560e01b8152600481018290526024016105e5565b600019808713908613808218600114613b345782613969565b613969836148fe565b6000670de0b6b3a7640000825b0592915050565b6000610a1c83670de0b6b3a764000084613c59565b600080821215613b8c5760405163608c83ff60e11b8152600481018390526024016105e5565b7809392ee8e921d5d073aff322e62439fcf32d7f344649470f90821315612a8f57604051632c482c3960e01b8152600481018390526024016105e5565b6000816ec097ce7bc90715b34b9f100000000081613b4a57613b4a61474e565b600068023f2fa8f6da5b9d3119821215613c0557506000919050565b680736ea4425c11ac6318212613c31576040516399bb754160e01b8152600481018390526024016105e5565b6714057b7ef767814f8202610a1c670de0b6b3a76400006706f05b59d3b20000830105613d27565b600080806000198587098587029250828110838203039150508060001415613c9457838281613c8a57613c8a61474e565b0492505050610a1c565b838110613cbe57604051631dcf306360e21b815260048101829052602481018590526044016105e5565b60008486880960026001871981018816978890046003810283188082028403028082028403028082028403028082028403028082028403029081029092039091026000889003889004909101858311909403939093029303949094049190911702949350505050565b600080821215613d745768033dd1780914b9711419821215613d4b57506000919050565b613d5782600003613d27565b6ec097ce7bc90715b34b9f100000000081613b4a57613b4a61474e565b680a688906bd8b0000008212613da05760405163e69458f960e01b8152600481018390526024016105e5565b670de0b6b3a7640000604083901b04610a1c81613dbd565b919050565b600160bf1b678000000000000000821615613de15768016a09e667f3bcc9090260401c5b674000000000000000821615613e00576801306fe0a31b7152df0260401c5b672000000000000000821615613e1f576801172b83c7d517adce0260401c5b671000000000000000821615613e3e5768010b5586cf9890f62a0260401c5b670800000000000000821615613e5d576801059b0d31585743ae0260401c5b670400000000000000821615613e7c57680102c9a3e778060ee70260401c5b670200000000000000821615613e9b5768010163da9fb33356d80260401c5b670100000000000000821615613eba57680100b1afa5abcbed610260401c5b6680000000000000821615613ed85768010058c86da1c09ea20260401c5b6640000000000000821615613ef6576801002c605e2e8cec500260401c5b6620000000000000821615613f1457680100162f3904051fa10260401c5b6610000000000000821615613f32576801000b175effdc76ba0260401c5b6608000000000000821615613f5057680100058ba01fb9f96d0260401c5b6604000000000000821615613f6e5768010002c5cc37da94920260401c5b6602000000000000821615613f8c576801000162e525ee05470260401c5b6601000000000000821615613faa5768010000b17255775c040260401c5b65800000000000821615613fc7576801000058b91b5bc9ae0260401c5b65400000000000821615613fe457680100002c5c89d5ec6d0260401c5b652000000000008216156140015768010000162e43f4f8310260401c5b6510000000000082161561401e57680100000b1721bcfc9a0260401c5b6508000000000082161561403b5768010000058b90cf1e6e0260401c5b65040000000000821615614058576801000002c5c863b73f0260401c5b6502000000000082161561407557680100000162e430e5a20260401c5b65010000000000821615614092576801000000b1721835510260401c5b6480000000008216156140ae57680100000058b90c0b490260401c5b6440000000008216156140ca5768010000002c5c8601cc0260401c5b6420000000008216156140e6576801000000162e42fff00260401c5b6410000000008216156141025768010000000b17217fbb0260401c5b64080000000082161561411e576801000000058b90bfce0260401c5b64040000000082161561413a57680100000002c5c85fe30260401c5b6402000000008216156141565768010000000162e42ff10260401c5b64010000000082161561417257680100000000b17217f80260401c5b638000000082161561418d5768010000000058b90bfc0260401c5b63400000008216156141a8576801000000002c5c85fe0260401c5b63200000008216156141c357680100000000162e42ff0260401c5b63100000008216156141de576801000000000b17217f0260401c5b63080000008216156141f957680100000000058b90c00260401c5b63040000008216156142145768010000000002c5c8600260401c5b630200000082161561422f576801000000000162e4300260401c5b630100000082161561424a5768010000000000b172180260401c5b62800000821615614264576801000000000058b90c0260401c5b6240000082161561427e57680100000000002c5c860260401c5b622000008216156142985768010000000000162e430260401c5b621000008216156142b257680100000000000b17210260401c5b620800008216156142cc5768010000000000058b910260401c5b620400008216156142e6576801000000000002c5c80260401c5b6202000082161561430057680100000000000162e40260401c5b6201000082161561431a576801000000000000b1720260401c5b61800082161561433357680100000000000058b90260401c5b61400082161561434c5768010000000000002c5d0260401c5b612000821615614365576801000000000000162e0260401c5b61100082161561437e5768010000000000000b170260401c5b610800821615614397576801000000000000058c0260401c5b6104008216156143b057680100000000000002c60260401c5b6102008216156143c957680100000000000001630260401c5b6101008216156143e257680100000000000000b10260401c5b60808216156143fa57680100000000000000590260401c5b6040821615614412576801000000000000002c0260401c5b602082161561442a57680100000000000000160260401c5b6010821615614442576801000000000000000b0260401c5b600882161561445a57680100000000000000060260401c5b600482161561447257680100000000000000030260401c5b600282161561448a57680100000000000000010260401c5b60018216156144a257680100000000000000010260401c5b670de0b6b3a76400000260409190911c60bf031c90565b600060208083528351808285015260005b818110156144e6578581018301518582016040015282016144ca565b818111156144f8576000604083870101525b50601f01601f1916929092016040019392505050565b80356001600160a01b0381168114613db857600080fd5b6000806040838503121561453857600080fd5b6145418361450e565b946020939093013593505050565b60008060006060848603121561456457600080fd5b61456d8461450e565b925061457b6020850161450e565b9150604084013590509250925092565b60006020828403121561459d57600080fd5b610a1c8261450e565b6020808252825182820181905260009190848201906040850190845b818110156145de578351835292840192918401916001016145c2565b50909695505050505050565b600080604083850312156145fd57600080fd5b6146068361450e565b91506146146020840161450e565b90509250929050565b60008060006060848603121561463257600080fd5b61463b8461450e565b95602085013595506040909401359392505050565b60006020828403121561466257600080fd5b5035919050565b600181811c9082168061467d57607f821691505b6020821081141561469e57634e487b7160e01b600052602260045260246000fd5b50919050565b6020808252600690820152651b1bd8dad95960d21b604082015260600190565b6020808252600a90820152695245454e5452414e435960b01b604082015260600190565b6000602082840312156146fa57600080fd5b5051919050565b634e487b7160e01b600052601160045260246000fd5b6000821982111561472a5761472a614701565b500190565b600081600019048311821515161561474957614749614701565b500290565b634e487b7160e01b600052601260045260246000fd5b6000826147735761477361474e565b500490565b6001600160a01b039384168152919092166020820152604081019190915260600190565b6000602082840312156147ae57600080fd5b81518015158114610a1c57600080fd5b6000828210156147d0576147d0614701565b500390565b6000826147e4576147e461474e565b500690565b600063ffffffff8381169083168181101561480657614806614701565b039392505050565b60006001600160e01b038281168482168115158284048211161561483457614834614701565b02949350505050565b60006001600160e01b03838116806148575761485761474e565b92169190910492915050565b600060001982141561487757614877614701565b5060010190565b600080821280156001600160ff1b03849003851316156148a0576148a0614701565b600160ff1b83900384128116156148b9576148b9614701565b50500190565b60008083128015600160ff1b8501841216156148dd576148dd614701565b6001600160ff1b03840183138116156148f8576148f8614701565b50500390565b6000600160ff1b82141561491457614914614701565b506000039056fea2646970667358221220bf8f646e7de475c15b3d2fb818c68ebb39580429d424e61ee63f90c91c057ef664736f6c63430008090033",
  "linkReferences": {},
  "deployedLinkReferences": {}
}