{
  "_format": "hh-sol-artifact-1",
  "contractName": "Pair",
  "sourceName": "contracts/Pair.sol",
  "abi": [
    {
      "inputs": [],
      "stateMutability": "nonpayable",
      "type": "constructor"
    },
    {
      "inputs": [],
      "name": "PRBMathSD59x18__DivInputTooSmall",
      "type": "error"
    },
    {
      "inputs": [
        {
          "internalType": "uint256",
          "name": "rAbs",
          "type": "uint256"
        }
      ],
      "name": "PRBMathSD59x18__DivOverflow",
      "type": "error"
    },
    {
      "inputs": [
        {
          "internalType": "int256",
          "name": "x",
          "type": "int256"
        }
      ],
      "name": "PRBMathSD59x18__Exp2InputTooBig",
      "type": "error"
    },
    {
      "inputs": [
        {
          "internalType": "int256",
          "name": "x",
          "type": "int256"
        }
      ],
      "name": "PRBMathSD59x18__ExpInputTooBig",
      "type": "error"
    },
    {
      "inputs": [
        {
          "internalType": "int256",
          "name": "x",
          "type": "int256"
        }
      ],
      "name": "PRBMathSD59x18__FromIntOverflow",
      "type": "error"
    },
    {
      "inputs": [
        {
          "internalType": "int256",
          "name": "x",
          "type": "int256"
        }
      ],
      "name": "PRBMathSD59x18__FromIntUnderflow",
      "type": "error"
    },
    {
      "inputs": [],
      "name": "PRBMathSD59x18__MulInputTooSmall",
      "type": "error"
    },
    {
      "inputs": [
        {
          "internalType": "uint256",
          "name": "rAbs",
          "type": "uint256"
        }
      ],
      "name": "PRBMathSD59x18__MulOverflow",
      "type": "error"
    },
    {
      "inputs": [
        {
          "internalType": "int256",
          "name": "x",
          "type": "int256"
        }
      ],
      "name": "PRBMathSD59x18__SqrtNegativeInput",
      "type": "error"
    },
    {
      "inputs": [
        {
          "internalType": "int256",
          "name": "x",
          "type": "int256"
        }
      ],
      "name": "PRBMathSD59x18__SqrtOverflow",
      "type": "error"
    },
    {
      "inputs": [
        {
          "internalType": "uint256",
          "name": "x",
          "type": "uint256"
        }
      ],
      "name": "PRBMathUD60x18__FromUintOverflow",
      "type": "error"
    },
    {
      "inputs": [
        {
          "internalType": "uint256",
          "name": "x",
          "type": "uint256"
        }
      ],
      "name": "PRBMathUD60x18__SqrtOverflow",
      "type": "error"
    },
    {
      "inputs": [
        {
          "internalType": "uint256",
          "name": "prod1",
          "type": "uint256"
        }
      ],
      "name": "PRBMath__MulDivFixedPointOverflow",
      "type": "error"
    },
    {
      "inputs": [
        {
          "internalType": "uint256",
          "name": "prod1",
          "type": "uint256"
        },
        {
          "internalType": "uint256",
          "name": "denominator",
          "type": "uint256"
        }
      ],
      "name": "PRBMath__MulDivOverflow",
      "type": "error"
    },
    {
      "anonymous": false,
      "inputs": [
        {
          "indexed": true,
          "internalType": "address",
          "name": "owner",
          "type": "address"
        },
        {
          "indexed": true,
          "internalType": "address",
          "name": "spender",
          "type": "address"
        },
        {
          "indexed": false,
          "internalType": "uint256",
          "name": "value",
          "type": "uint256"
        }
      ],
      "name": "Approval",
      "type": "event"
    },
    {
      "anonymous": false,
      "inputs": [
        {
          "indexed": true,
          "internalType": "address",
          "name": "addr",
          "type": "address"
        },
        {
          "indexed": false,
          "internalType": "uint256",
          "name": "orderId",
          "type": "uint256"
        }
      ],
      "name": "CancelLongTermOrder",
      "type": "event"
    },
    {
      "anonymous": false,
      "inputs": [
        {
          "indexed": true,
          "internalType": "address",
          "name": "addr",
          "type": "address"
        },
        {
          "indexed": false,
          "internalType": "uint256",
          "name": "amountA",
          "type": "uint256"
        },
        {
          "indexed": false,
          "internalType": "uint256",
          "name": "amountB",
          "type": "uint256"
        }
      ],
      "name": "InitialLiquidityProvided",
      "type": "event"
    },
    {
      "anonymous": false,
      "inputs": [
        {
          "indexed": true,
          "internalType": "address",
          "name": "addr",
          "type": "address"
        },
        {
          "indexed": false,
          "internalType": "uint256",
          "name": "lpTokens",
          "type": "uint256"
        }
      ],
      "name": "LiquidityProvided",
      "type": "event"
    },
    {
      "anonymous": false,
      "inputs": [
        {
          "indexed": true,
          "internalType": "address",
          "name": "addr",
          "type": "address"
        },
        {
          "indexed": false,
          "internalType": "uint256",
          "name": "lpTokens",
          "type": "uint256"
        }
      ],
      "name": "LiquidityRemoved",
      "type": "event"
    },
    {
      "anonymous": false,
      "inputs": [
        {
          "indexed": true,
          "internalType": "address",
          "name": "addr",
          "type": "address"
        },
        {
          "indexed": false,
          "internalType": "uint256",
          "name": "amountAIn",
          "type": "uint256"
        },
        {
          "indexed": false,
          "internalType": "uint256",
          "name": "orderId",
          "type": "uint256"
        }
      ],
      "name": "LongTermSwapAToB",
      "type": "event"
    },
    {
      "anonymous": false,
      "inputs": [
        {
          "indexed": true,
          "internalType": "address",
          "name": "addr",
          "type": "address"
        },
        {
          "indexed": false,
          "internalType": "uint256",
          "name": "amountBIn",
          "type": "uint256"
        },
        {
          "indexed": false,
          "internalType": "uint256",
          "name": "orderId",
          "type": "uint256"
        }
      ],
      "name": "LongTermSwapBToA",
      "type": "event"
    },
    {
      "anonymous": false,
      "inputs": [
        {
          "indexed": true,
          "internalType": "address",
          "name": "addr",
          "type": "address"
        },
        {
          "indexed": false,
          "internalType": "uint256",
          "name": "amountAIn",
          "type": "uint256"
        },
        {
          "indexed": false,
          "internalType": "uint256",
          "name": "amountBOut",
          "type": "uint256"
        }
      ],
      "name": "SwapAToB",
      "type": "event"
    },
    {
      "anonymous": false,
      "inputs": [
        {
          "indexed": true,
          "internalType": "address",
          "name": "addr",
          "type": "address"
        },
        {
          "indexed": false,
          "internalType": "uint256",
          "name": "amountBIn",
          "type": "uint256"
        },
        {
          "indexed": false,
          "internalType": "uint256",
          "name": "amountAOut",
          "type": "uint256"
        }
      ],
      "name": "SwapBToA",
      "type": "event"
    },
    {
      "anonymous": false,
      "inputs": [
        {
          "indexed": true,
          "internalType": "address",
          "name": "from",
          "type": "address"
        },
        {
          "indexed": true,
          "internalType": "address",
          "name": "to",
          "type": "address"
        },
        {
          "indexed": false,
          "internalType": "uint256",
          "name": "value",
          "type": "uint256"
        }
      ],
      "name": "Transfer",
      "type": "event"
    },
    {
      "anonymous": false,
      "inputs": [
        {
          "indexed": true,
          "internalType": "address",
          "name": "addr",
          "type": "address"
        },
        {
          "indexed": false,
          "internalType": "uint256",
          "name": "orderId",
          "type": "uint256"
        }
      ],
      "name": "WithdrawProceedsFromLongTermOrder",
      "type": "event"
    },
    {
      "inputs": [],
      "name": "LP_FEE",
      "outputs": [
        {
          "internalType": "uint256",
          "name": "",
          "type": "uint256"
        }
      ],
      "stateMutability": "view",
      "type": "function"
    },
    {
      "inputs": [
        {
          "internalType": "address",
          "name": "owner",
          "type": "address"
        },
        {
          "internalType": "address",
          "name": "spender",
          "type": "address"
        }
      ],
      "name": "allowance",
      "outputs": [
        {
          "internalType": "uint256",
          "name": "",
          "type": "uint256"
        }
      ],
      "stateMutability": "view",
      "type": "function"
    },
    {
      "inputs": [
        {
          "internalType": "address",
          "name": "spender",
          "type": "address"
        },
        {
          "internalType": "uint256",
          "name": "amount",
          "type": "uint256"
        }
      ],
      "name": "approve",
      "outputs": [
        {
          "internalType": "bool",
          "name": "",
          "type": "bool"
        }
      ],
      "stateMutability": "nonpayable",
      "type": "function"
    },
    {
      "inputs": [
        {
          "internalType": "address",
          "name": "account",
          "type": "address"
        }
      ],
      "name": "balanceOf",
      "outputs": [
        {
          "internalType": "uint256",
          "name": "",
          "type": "uint256"
        }
      ],
      "stateMutability": "view",
      "type": "function"
    },
    {
      "inputs": [
        {
          "internalType": "address",
          "name": "sender",
          "type": "address"
        },
        {
          "internalType": "uint256",
          "name": "orderId",
          "type": "uint256"
        }
      ],
      "name": "cancelLongTermSwap",
      "outputs": [],
      "stateMutability": "nonpayable",
      "type": "function"
    },
    {
      "inputs": [],
      "name": "decimals",
      "outputs": [
        {
          "internalType": "uint8",
          "name": "",
          "type": "uint8"
        }
      ],
      "stateMutability": "view",
      "type": "function"
    },
    {
      "inputs": [
        {
          "internalType": "address",
          "name": "spender",
          "type": "address"
        },
        {
          "internalType": "uint256",
          "name": "subtractedValue",
          "type": "uint256"
        }
      ],
      "name": "decreaseAllowance",
      "outputs": [
        {
          "internalType": "bool",
          "name": "",
          "type": "bool"
        }
      ],
      "stateMutability": "nonpayable",
      "type": "function"
    },
    {
      "inputs": [],
      "name": "executeVirtualOrders",
      "outputs": [],
      "stateMutability": "nonpayable",
      "type": "function"
    },
    {
      "inputs": [],
      "name": "factory",
      "outputs": [
        {
          "internalType": "address",
          "name": "",
          "type": "address"
        }
      ],
      "stateMutability": "view",
      "type": "function"
    },
    {
      "inputs": [
        {
          "internalType": "address",
          "name": "spender",
          "type": "address"
        },
        {
          "internalType": "uint256",
          "name": "addedValue",
          "type": "uint256"
        }
      ],
      "name": "increaseAllowance",
      "outputs": [
        {
          "internalType": "bool",
          "name": "",
          "type": "bool"
        }
      ],
      "stateMutability": "nonpayable",
      "type": "function"
    },
    {
      "inputs": [
        {
          "internalType": "address",
          "name": "_tokenA",
          "type": "address"
        },
        {
          "internalType": "address",
          "name": "_tokenB",
          "type": "address"
        }
      ],
      "name": "initialize",
      "outputs": [],
      "stateMutability": "nonpayable",
      "type": "function"
    },
    {
      "inputs": [
        {
          "internalType": "address",
          "name": "sender",
          "type": "address"
        },
        {
          "internalType": "uint256",
          "name": "amountAIn",
          "type": "uint256"
        },
        {
          "internalType": "uint256",
          "name": "numberOfBlockIntervals",
          "type": "uint256"
        }
      ],
      "name": "longTermSwapFromAToB",
      "outputs": [],
      "stateMutability": "nonpayable",
      "type": "function"
    },
    {
      "inputs": [
        {
          "internalType": "address",
          "name": "sender",
          "type": "address"
        },
        {
          "internalType": "uint256",
          "name": "amountBIn",
          "type": "uint256"
        },
        {
          "internalType": "uint256",
          "name": "numberOfBlockIntervals",
          "type": "uint256"
        }
      ],
      "name": "longTermSwapFromBToA",
      "outputs": [],
      "stateMutability": "nonpayable",
      "type": "function"
    },
    {
      "inputs": [],
      "name": "name",
      "outputs": [
        {
          "internalType": "string",
          "name": "",
          "type": "string"
        }
      ],
      "stateMutability": "view",
      "type": "function"
    },
    {
      "inputs": [],
      "name": "orderBlockInterval",
      "outputs": [
        {
          "internalType": "uint256",
          "name": "",
          "type": "uint256"
        }
      ],
      "stateMutability": "view",
      "type": "function"
    },
    {
      "inputs": [
        {
          "internalType": "uint256",
          "name": "orderId",
          "type": "uint256"
        }
      ],
      "name": "orderIdStatusCheck",
      "outputs": [
        {
          "internalType": "bool",
          "name": "",
          "type": "bool"
        }
      ],
      "stateMutability": "view",
      "type": "function"
    },
    {
      "inputs": [
        {
          "internalType": "address",
          "name": "to",
          "type": "address"
        },
        {
          "internalType": "uint256",
          "name": "amountA",
          "type": "uint256"
        },
        {
          "internalType": "uint256",
          "name": "amountB",
          "type": "uint256"
        }
      ],
      "name": "provideInitialLiquidity",
      "outputs": [],
      "stateMutability": "nonpayable",
      "type": "function"
    },
    {
      "inputs": [
        {
          "internalType": "address",
          "name": "to",
          "type": "address"
        },
        {
          "internalType": "uint256",
          "name": "lpTokenAmount",
          "type": "uint256"
        }
      ],
      "name": "provideLiquidity",
      "outputs": [],
      "stateMutability": "nonpayable",
      "type": "function"
    },
    {
      "inputs": [
        {
          "internalType": "address",
          "name": "to",
          "type": "address"
        },
        {
          "internalType": "uint256",
          "name": "lpTokenAmount",
          "type": "uint256"
        }
      ],
      "name": "removeLiquidity",
      "outputs": [],
      "stateMutability": "nonpayable",
      "type": "function"
    },
    {
      "inputs": [
        {
          "internalType": "address",
          "name": "",
          "type": "address"
        }
      ],
      "name": "reserveMap",
      "outputs": [
        {
          "internalType": "uint256",
          "name": "",
          "type": "uint256"
        }
      ],
      "stateMutability": "view",
      "type": "function"
    },
    {
      "inputs": [
        {
          "internalType": "address",
          "name": "sender",
          "type": "address"
        },
        {
          "internalType": "uint256",
          "name": "amountAIn",
          "type": "uint256"
        }
      ],
      "name": "swapFromAToB",
      "outputs": [],
      "stateMutability": "nonpayable",
      "type": "function"
    },
    {
      "inputs": [
        {
          "internalType": "address",
          "name": "sender",
          "type": "address"
        },
        {
          "internalType": "uint256",
          "name": "amountBIn",
          "type": "uint256"
        }
      ],
      "name": "swapFromBToA",
      "outputs": [],
      "stateMutability": "nonpayable",
      "type": "function"
    },
    {
      "inputs": [],
      "name": "symbol",
      "outputs": [
        {
          "internalType": "string",
          "name": "",
          "type": "string"
        }
      ],
      "stateMutability": "view",
      "type": "function"
    },
    {
      "inputs": [],
      "name": "tokenA",
      "outputs": [
        {
          "internalType": "address",
          "name": "",
          "type": "address"
        }
      ],
      "stateMutability": "view",
      "type": "function"
    },
    {
      "inputs": [],
      "name": "tokenAReserves",
      "outputs": [
        {
          "internalType": "uint256",
          "name": "",
          "type": "uint256"
        }
      ],
      "stateMutability": "view",
      "type": "function"
    },
    {
      "inputs": [],
      "name": "tokenB",
      "outputs": [
        {
          "internalType": "address",
          "name": "",
          "type": "address"
        }
      ],
      "stateMutability": "view",
      "type": "function"
    },
    {
      "inputs": [],
      "name": "tokenBReserves",
      "outputs": [
        {
          "internalType": "uint256",
          "name": "",
          "type": "uint256"
        }
      ],
      "stateMutability": "view",
      "type": "function"
    },
    {
      "inputs": [],
      "name": "totalSupply",
      "outputs": [
        {
          "internalType": "uint256",
          "name": "",
          "type": "uint256"
        }
      ],
      "stateMutability": "view",
      "type": "function"
    },
    {
      "inputs": [
        {
          "internalType": "address",
          "name": "recipient",
          "type": "address"
        },
        {
          "internalType": "uint256",
          "name": "amount",
          "type": "uint256"
        }
      ],
      "name": "transfer",
      "outputs": [
        {
          "internalType": "bool",
          "name": "",
          "type": "bool"
        }
      ],
      "stateMutability": "nonpayable",
      "type": "function"
    },
    {
      "inputs": [
        {
          "internalType": "address",
          "name": "sender",
          "type": "address"
        },
        {
          "internalType": "address",
          "name": "recipient",
          "type": "address"
        },
        {
          "internalType": "uint256",
          "name": "amount",
          "type": "uint256"
        }
      ],
      "name": "transferFrom",
      "outputs": [
        {
          "internalType": "bool",
          "name": "",
          "type": "bool"
        }
      ],
      "stateMutability": "nonpayable",
      "type": "function"
    },
    {
      "inputs": [
        {
          "internalType": "address",
          "name": "userAddress",
          "type": "address"
        }
      ],
      "name": "userIdsCheck",
      "outputs": [
        {
          "internalType": "uint256[]",
          "name": "",
          "type": "uint256[]"
        }
      ],
      "stateMutability": "view",
      "type": "function"
    },
    {
      "inputs": [
        {
          "internalType": "address",
          "name": "sender",
          "type": "address"
        },
        {
          "internalType": "uint256",
          "name": "orderId",
          "type": "uint256"
        }
      ],
      "name": "withdrawProceedsFromLongTermSwap",
      "outputs": [],
      "stateMutability": "nonpayable",
      "type": "function"
    }
  ],
  "bytecode": "0x60806040523480156200001157600080fd5b506040805180820182526009815268050756c7361722d4c560bc1b602080830191825283518085019094526006845265050554c2d4c560d41b908401528151919291620000619160039162000104565b5080516200007790600490602084019062000104565b505060058054336001600160a01b031990911617905550600654600754620000be916009916001600160a01b03918216911643600a620000c4602090811b620011c917901c565b620001e7565b6002850180546001600160a01b039586166001600160a01b0319918216179091556003860180549490951693169290921790925560018301919091559055565b8280546200011290620001aa565b90600052602060002090601f01602090048101928262000136576000855562000181565b82601f106200015157805160ff191683800117855562000181565b8280016001018555821562000181579182015b828111156200018157825182559160200191906001019062000164565b506200018f92915062000193565b5090565b5b808211156200018f576000815560010162000194565b600181811c90821680620001bf57607f821691505b60208210811415620001e157634e487b7160e01b600052602260045260246000fd5b50919050565b613ad380620001f76000396000f3fe608060405234801561001057600080fd5b50600436106101f05760003560e01c80635fea61201161010f5780639a89f22d116100a2578063bde1077e11610071578063bde1077e1461045a578063c45a01551461046d578063ceb2894c14610480578063dd62ed3e146104a057600080fd5b80639a89f22d1461040e578063a201ccf614610421578063a457c2d714610434578063a9059cbb1461044757600080fd5b806366f55ece116100de57806366f55ece146103a75780636f9d42d2146103ca57806370a08231146103dd57806395d89b411461040657600080fd5b80635fea61201461037157806360a9d50514610384578063637842451461038c578063659509c51461039457600080fd5b806337bc5e4a1161018757806342b98a141161015657806342b98a1414610330578063485cc955146103435780635e3f2727146103565780635f64b55b1461035e57600080fd5b806337bc5e4a146102bd57806339509351146102dd5780633a8c885e146102f05780633b4a6bc31461031057600080fd5b806313bf4fd2116101c357806313bf4fd21461027657806318160ddd1461028957806323b872dd1461029b578063313ce567146102ae57600080fd5b806306fdde03146101f5578063095ea7b3146102135780630fc63d101461023657806310d8217314610261575b600080fd5b6101fd6104d9565b60405161020a9190613712565b60405180910390f35b61022661022136600461377e565b61056b565b604051901515815260200161020a565b600654610249906001600160a01b031681565b6040516001600160a01b03909116815260200161020a565b61027461026f36600461377e565b610582565b005b61027461028436600461377e565b6105f1565b6002545b60405190815260200161020a565b6102266102a93660046137a8565b610646565b6040516012815260200161020a565b6102d06102cb3660046137e4565b6106f7565b60405161020a91906137ff565b6102266102eb36600461377e565b610763565b61028d6102fe3660046137e4565b60086020526000908152604090205481565b6006546001600160a01b031660009081526008602052604090205461028d565b61027461033e36600461377e565b61079f565b610274610351366004613843565b6107e8565b61028d601e81565b600754610249906001600160a01b031681565b61027461037f36600461377e565b610862565b61028d600a81565b610274610b2b565b6102746103a2366004613876565b610b39565b6102266103b53660046138a9565b60009081526011602052604090205460ff1690565b6102746103d8366004613876565b610b8e565b61028d6103eb3660046137e4565b6001600160a01b031660009081526020819052604090205490565b6101fd610dcf565b61027461041c36600461377e565b610dde565b61027461042f36600461377e565b610e44565b61022661044236600461377e565b6110ce565b61022661045536600461377e565b611167565b610274610468366004613876565b611174565b600554610249906001600160a01b031681565b6007546001600160a01b031660009081526008602052604090205461028d565b61028d6104ae366004613843565b6001600160a01b03918216600090815260016020908152604080832093909416825291909152205490565b6060600380546104e8906138c2565b80601f0160208091040260200160405190810160405280929190818152602001828054610514906138c2565b80156105615780601f1061053657610100808354040283529160200191610561565b820191906000526020600020905b81548152906001019060200180831161054457829003601f168201915b5050505050905090565b6000610578338484611209565b5060015b92915050565b6006546007546000916105a49185916001600160a01b0390811691168561132d565b60408051848152602081018390529192506001600160a01b038516917f1a442df1f5a0e29117f2a0d6ceb8d5db8b4e68203b0d5edac8e267920708522e91015b60405180910390a2505050565b6105ff60098383600861156d565b816001600160a01b03167fe91f05f05f7e013ffc245507e3fd86ec0ca1d2f5ab431eea8827cc80f303bf7a8260405161063a91815260200190565b60405180910390a25050565b6000610653848484611704565b6001600160a01b0384166000908152600160209081526040808320338452909152902054828110156106dd5760405162461bcd60e51b815260206004820152602860248201527f45524332303a207472616e7366657220616d6f756e74206578636565647320616044820152676c6c6f77616e636560c01b60648201526084015b60405180910390fd5b6106ea8533858403611209565b60019150505b9392505050565b6001600160a01b03811660009081526010602090815260409182902080548351818402810184019094528084526060939283018282801561075757602002820191906000526020600020905b815481526020019060010190808311610743575b50505050509050919050565b3360008181526001602090815260408083206001600160a01b0387168452909152812054909161057891859061079a908690613913565b611209565b6107ad6009838360086118d3565b816001600160a01b03167fec1efa7415f20eabaabbfdfc33d5c736e9d413afcc9dedd898c035c0d1889eaa8260405161063a91815260200190565b6005546001600160a01b031633146108345760405162461bcd60e51b815260206004820152600f60248201526e2820a4a91d102327a92124a22222a760891b60448201526064016106d4565b600680546001600160a01b039384166001600160a01b03199182161790915560078054929093169116179055565b6002546108e85760405162461bcd60e51b815260206004820152604860248201527f6e6f206c697175696469747920686173206265656e2070726f7669646564207960448201527f65742c206e65656420746f2063616c6c2070726f76696465496e697469616c4c606482015267697175696469747960c01b608482015260a4016106d4565b6108f460096008611b04565b60006108ff60025490565b6006546001600160a01b0316600090815260086020526040902054610924908461392b565b61092e9190613960565b9050600061093b60025490565b6007546001600160a01b0316600090815260086020526040902054610960908561392b565b61096a9190613960565b6006546040516323b872dd60e01b81529192506001600160a01b0316906323b872dd9061099f90879030908790600401613974565b602060405180830381600087803b1580156109b957600080fd5b505af11580156109cd573d6000803e3d6000fd5b505050506040513d601f19601f820116820180604052508101906109f19190613998565b506007546040516323b872dd60e01b81526001600160a01b03909116906323b872dd90610a2690879030908690600401613974565b602060405180830381600087803b158015610a4057600080fd5b505af1158015610a54573d6000803e3d6000fd5b505050506040513d601f19601f82011682018060405250810190610a789190613998565b506006546001600160a01b031660009081526008602052604081208054849290610aa3908490613913565b90915550506007546001600160a01b031660009081526008602052604081208054839290610ad2908490613913565b90915550610ae290508484611b77565b836001600160a01b03167fccb2ae3a2936bf4c94fa4e12cdf0cdad6ed0e4888a044cef89afa60f2e4b92d384604051610b1d91815260200190565b60405180910390a250505050565b610b3760096008611b04565b565b6000610b4a60098585856008611c57565b60408051858152602081018390529192506001600160a01b038616917f3f9021da39409c8415526f6f5150f90f549aff31c146178262479dd8778944009101610b1d565b60025415610c0f5760405162461bcd60e51b815260206004820152604260248201527f6c69717569646974792068617320616c7265616479206265656e2070726f766960448201527f6465642c206e65656420746f2063616c6c2070726f766964654c697175696469606482015261747960f01b608482015260a4016106d4565b6006546040516323b872dd60e01b81526001600160a01b03909116906323b872dd90610c4390869030908790600401613974565b602060405180830381600087803b158015610c5d57600080fd5b505af1158015610c71573d6000803e3d6000fd5b505050506040513d601f19601f82011682018060405250810190610c959190613998565b506007546040516323b872dd60e01b81526001600160a01b03909116906323b872dd90610cca90869030908690600401613974565b602060405180830381600087803b158015610ce457600080fd5b505af1158015610cf8573d6000803e3d6000fd5b505050506040513d601f19601f82011682018060405250810190610d1c9190613998565b506006546001600160a01b039081166000908152600860205260408082208590556007549092168152908120829055610d82610d74610d62610d5d85611c8a565b611cd7565b610d6e610d5d87611c8a565b90611d29565b670de0b6b3a7640000900490565b9050610d8e8482611b77565b60408051848152602081018490526001600160a01b038616917f6f6e8d9cc87c64a4776e719d1ad22f4b0b45089829effa9a2a8cddbdbc43b62b9101610b1d565b6060600480546104e8906138c2565b600754600654600091610e009185916001600160a01b0390811691168561132d565b60408051848152602081018390529192506001600160a01b038516917f1201e4c6b2a8cfdbb8440a213b3b16f2e11b23315ddb1751c9522fa3f3e6b35591016105e4565b600254811115610e965760405162461bcd60e51b815260206004820152601e60248201527f6e6f7420656e6f756768206c7020746f6b656e7320617661696c61626c65000060448201526064016106d4565b610ea260096008611b04565b6000610ead60025490565b6006546001600160a01b0316600090815260086020526040902054610ed390849061392b565b610edd9190613960565b90506000610eea60025490565b6007546001600160a01b0316600090815260086020526040902054610f1090859061392b565b610f1a9190613960565b60065460405163a9059cbb60e01b81526001600160a01b0387811660048301526024820186905292935091169063a9059cbb90604401602060405180830381600087803b158015610f6a57600080fd5b505af1158015610f7e573d6000803e3d6000fd5b505050506040513d601f19601f82011682018060405250810190610fa29190613998565b5060075460405163a9059cbb60e01b81526001600160a01b038681166004830152602482018490529091169063a9059cbb90604401602060405180830381600087803b158015610ff157600080fd5b505af1158015611005573d6000803e3d6000fd5b505050506040513d601f19601f820116820180604052508101906110299190613998565b506006546001600160a01b0316600090815260086020526040812080548492906110549084906139ba565b90915550506007546001600160a01b0316600090815260086020526040812080548392906110839084906139ba565b9091555061109390508484611d35565b836001600160a01b03167fc2c3f06e49b9f15e7b4af9055e183b0d73362e033ad82a07dec9bf984017171984604051610b1d91815260200190565b3360009081526001602090815260408083206001600160a01b0386168452909152812054828110156111505760405162461bcd60e51b815260206004820152602560248201527f45524332303a2064656372656173656420616c6c6f77616e63652062656c6f77604482015264207a65726f60d81b60648201526084016106d4565b61115d3385858403611209565b5060019392505050565b6000610578338484611704565b600061118560098585856008611e83565b60408051858152602081018390529192506001600160a01b038616917f3118cfac1ed5d8e668c193690497d56fff82f1aabbdf08f598025b0dfe3087279101610b1d565b6002850180546001600160a01b039586166001600160a01b0319918216179091556003860180549490951693169290921790925560018301919091559055565b6001600160a01b03831661126b5760405162461bcd60e51b8152602060048201526024808201527f45524332303a20617070726f76652066726f6d20746865207a65726f206164646044820152637265737360e01b60648201526084016106d4565b6001600160a01b0382166112cc5760405162461bcd60e51b815260206004820152602260248201527f45524332303a20617070726f766520746f20746865207a65726f206164647265604482015261737360f01b60648201526084016106d4565b6001600160a01b0383811660008181526001602090815260408083209487168084529482529182902085905590518481527f8c5be1e5ebec7d5bd14f71427d1e84f3dd0314c0f7b2291e5b200ac8c7c3b925910160405180910390a3505050565b600080821161137e5760405162461bcd60e51b815260206004820152601c60248201527f7377617020616d6f756e74206d75737420626520706f7369746976650000000060448201526064016106d4565b61138a60096008611b04565b6001600160a01b0384166000908152600860205260408120546113ae908490613913565b6001600160a01b0385166000908152600860205260409020546113d290859061392b565b6113dc9190613960565b90506127106113ec601e826139ba565b6113f6908361392b565b6114009190613960565b6040516323b872dd60e01b81529092506001600160a01b038616906323b872dd9061143390899030908890600401613974565b602060405180830381600087803b15801561144d57600080fd5b505af1158015611461573d6000803e3d6000fd5b505050506040513d601f19601f820116820180604052508101906114859190613998565b5060405163a9059cbb60e01b81526001600160a01b0387811660048301526024820184905285169063a9059cbb90604401602060405180830381600087803b1580156114d057600080fd5b505af11580156114e4573d6000803e3d6000fd5b505050506040513d601f19601f820116820180604052508101906115089190613998565b506001600160a01b03851660009081526008602052604081208054859290611531908490613913565b90915550506001600160a01b0384166000908152600860205260408120805484929061155e9084906139ba565b90915550919695505050505050565b6115778482611b04565b6000828152600685016020526040902060038101546001600160a01b038581169116146115e65760405162461bcd60e51b815260206004820152601a60248201527f73656e646572206d757374206265206f72646572206f776e657200000000000060448201526064016106d4565b6004818101546001600160a01b03166000908152908601602052604081209061160f8286611eac565b90506000811161165b5760405162461bcd60e51b81526020600482015260176024820152766e6f2070726f636565647320746f20776974686472617760481b60448201526064016106d4565b600583015460405163a9059cbb60e01b81526001600160a01b038881166004830152602482018490529091169063a9059cbb90604401602060405180830381600087803b1580156116ab57600080fd5b505af11580156116bf573d6000803e3d6000fd5b505050506040513d601f19601f820116820180604052508101906116e39190613998565b5050506000928352505060089092016020525060409020805460ff19169055565b6001600160a01b0383166117685760405162461bcd60e51b815260206004820152602560248201527f45524332303a207472616e736665722066726f6d20746865207a65726f206164604482015264647265737360d81b60648201526084016106d4565b6001600160a01b0382166117ca5760405162461bcd60e51b815260206004820152602360248201527f45524332303a207472616e7366657220746f20746865207a65726f206164647260448201526265737360e81b60648201526084016106d4565b6001600160a01b038316600090815260208190526040902054818110156118425760405162461bcd60e51b815260206004820152602660248201527f45524332303a207472616e7366657220616d6f756e7420657863656564732062604482015265616c616e636560d01b60648201526084016106d4565b6001600160a01b03808516600090815260208190526040808220858503905591851681529081208054849290611879908490613913565b92505081905550826001600160a01b0316846001600160a01b03167fddf252ad1be2c89b69c2b068fc378daa952ba7f163c4a11628f55a4df523b3ef846040516118c591815260200190565b60405180910390a350505050565b6118dd8482611b04565b6000828152600685016020526040902060038101546001600160a01b0385811691161461194c5760405162461bcd60e51b815260206004820152601a60248201527f73656e646572206d757374206265206f72646572206f776e657200000000000060448201526064016106d4565b6004818101546001600160a01b031660009081529086016020526040812090806119768387611fc1565b9150915060008211806119895750600081115b6119cf5760405162461bcd60e51b81526020600482015260176024820152766e6f2070726f636565647320746f20776974686472617760481b60448201526064016106d4565b600584015460405163a9059cbb60e01b81526001600160a01b038981166004830152602482018490529091169063a9059cbb90604401602060405180830381600087803b158015611a1f57600080fd5b505af1158015611a33573d6000803e3d6000fd5b505050506040513d601f19601f82011682018060405250810190611a579190613998565b5060048481015460405163a9059cbb60e01b81526001600160a01b038a8116938201939093526024810185905291169063a9059cbb90604401602060405180830381600087803b158015611aaa57600080fd5b505af1158015611abe573d6000803e3d6000fd5b505050506040513d601f19601f82011682018060405250810190611ae29190613998565b505050600093845250505060089092016020525060409020805460ff19169055565b8154600183015460009190611b1a9082906139d1565b8460010154611b2991906139ba565b611b339190613913565b90505b43811015611b5c57611b498383836120e2565b8254611b559082613913565b9050611b36565b43836001015414611b7257611b728383436120e2565b505050565b6001600160a01b038216611bcd5760405162461bcd60e51b815260206004820152601f60248201527f45524332303a206d696e7420746f20746865207a65726f20616464726573730060448201526064016106d4565b8060026000828254611bdf9190613913565b90915550506001600160a01b03821660009081526020819052604081208054839290611c0c908490613913565b90915550506040518181526001600160a01b038316906000907fddf252ad1be2c89b69c2b068fc378daa952ba7f163c4a11628f55a4df523b3ef9060200160405180910390a35b5050565b60038501546002860154600091611c809188916001600160a01b039081169116888888886122e6565b9695505050505050565b60007812725dd1d243aba0e75fe645cc4873f9e65afe688c928e1f21821115611cc957604051633492ffd960e01b8152600481018390526024016106d4565b50670de0b6b3a76400000290565b60007812725dd1d243aba0e75fe645cc4873f9e65afe688c928e1f21821115611d1657604051636155b67d60e01b8152600481018390526024016106d4565b61057c670de0b6b3a764000083026125b9565b60006106f08383612734565b6001600160a01b038216611d955760405162461bcd60e51b815260206004820152602160248201527f45524332303a206275726e2066726f6d20746865207a65726f206164647265736044820152607360f81b60648201526084016106d4565b6001600160a01b03821660009081526020819052604090205481811015611e095760405162461bcd60e51b815260206004820152602260248201527f45524332303a206275726e20616d6f756e7420657863656564732062616c616e604482015261636560f01b60648201526084016106d4565b6001600160a01b0383166000908152602081905260408120838303905560028054849290611e389084906139ba565b90915550506040518281526000906001600160a01b038516907fddf252ad1be2c89b69c2b068fc378daa952ba7f163c4a11628f55a4df523b3ef9060200160405180910390a3505050565b60028501546003860154600091611c809188916001600160a01b039081169116888888886122e6565b600081815260048301602052604081205480611f155760405162461bcd60e51b815260206004820152602260248201527f73616c6573207261746520616d6f756e74206d75737420626520706f73697469604482015261766560f01b60648201526084016106d4565b6000838152600385016020908152604080832054600588019092529091205443821015611f80576000828152600687016020526040902054611f66610d74611f5c86611c8a565b610d6e85856139ba565b60008781526004890160205260408120559450611fb89050565b611f9f610d74611f8f85611c8a565b838960010154610d6e91906139ba565b6001870154600087815260058901602052604090205593505b50505092915050565b6000818152600383016020526040812054819043811161201c5760405162461bcd60e51b81526020600482015260166024820152751bdc99195c88185b1c9958591e48199a5b9a5cda195960521b60448201526064016106d4565b60008481526004860160205260408120549061203843846139ba565b9050612044828261392b565b6000878152600589016020526040902054909550612077610d7461206785611c8a565b838b60010154610d6e91906139ba565b94508288600001600082825461208d91906139ba565b90915550506000878152600489016020908152604080832083905560038b01825280832083905586835260028b01909152812080548592906120d09084906139ba565b92505081905550505050509250929050565b60008360010154826120f491906139ba565b60028501546001600160a01b031660009081526004860160205260408120549192509061212290839061392b565b60038601546001600160a01b031660009081526004870160205260408120549192509061215090849061392b565b60028701546001600160a01b039081166000908152602088905260408082205460038b0154909316825281205492935090919080808061219286868a8a6127f6565b9350935093509350818b60008e60020160009054906101000a90046001600160a01b03166001600160a01b03166001600160a01b0316815260200190815260200160002081905550808b60008e60030160009054906101000a90046001600160a01b03166001600160a01b03166001600160a01b031681526020019081526020016000208190555060008c60040160008e60020160009054906101000a90046001600160a01b03166001600160a01b03166001600160a01b03168152602001908152602001600020905060008d60040160008f60030160009054906101000a90046001600160a01b03166001600160a01b03166001600160a01b0316815260200190815260200160002090506122b1858361299290919063ffffffff16565b6122bb8187612992565b6122c5828d6129d4565b6122cf818d6129d4565b505050506001909901969096555050505050505050565b60006122f28883611b04565b6040516323b872dd60e01b81526001600160a01b038816906323b872dd9061232290889030908990600401613974565b602060405180830381600087803b15801561233c57600080fd5b505af1158015612350573d6000803e3d6000fd5b505050506040513d601f19601f820116820180604052508101906123749190613998565b508754439060009061238690836139d1565b61239090836139ba565b90506000816123a0876001613913565b8c546123ac919061392b565b6123b69190613913565b905060006123c484836139ba565b6123ce9089613960565b6001600160a01b038c16600090815260048e016020526040902060058e0154919250906123fe9082908486612a18565b6040518060c001604052808e6005015481526020018481526020018381526020018b6001600160a01b031681526020018d6001600160a01b031681526020018c6001600160a01b03168152508d60060160008f60050154815260200190815260200160002060008201518160000155602082015181600101556040820151816002015560608201518160030160006101000a8154816001600160a01b0302191690836001600160a01b0316021790555060808201518160040160006101000a8154816001600160a01b0302191690836001600160a01b0316021790555060a08201518160050160006101000a8154816001600160a01b0302191690836001600160a01b031602179055509050508c60070160008b6001600160a01b03166001600160a01b031681526020019081526020016000208d60050154908060018154018082558091505060019003906000526020600020016000909190919091505560018d60080160008f60050154815260200190815260200160002060006101000a81548160ff0219169083151502179055508c60050160008154809291906125a4906139e5565b909155509d9c50505050505050505050505050565b6000816125c857506000919050565b50600181600160801b81106125e25760409190911b9060801c5b6801000000000000000081106125fd5760209190911b9060401c5b64010000000081106126145760109190911b9060201c5b6201000081106126295760089190911b9060101c5b610100811061263d5760049190911b9060081c5b601081106126505760029190911b9060041c5b6008811061266057600182901b91505b60018284816126715761267161394a565b048301901c915060018284816126895761268961394a565b048301901c915060018284816126a1576126a161394a565b048301901c915060018284816126b9576126b961394a565b048301901c915060018284816126d1576126d161394a565b048301901c915060018284816126e9576126e961394a565b048301901c915060018284816127015761270161394a565b048301901c915060008284816127195761271961394a565b0490508083101561272a578261272c565b805b949350505050565b60008080600019848609848602925082811083820303915050670de0b6b3a764000081106127785760405163698d9a0160e11b8152600481018290526024016106d4565b600080670de0b6b3a76400008688099150506706f05b59d3b1ffff8111826127b25780670de0b6b3a764000085040194505050505061057c565b620400008285030493909111909103600160ee1b02919091177faccb18165bd6fe31ae1cf318dc5b51eee0e1ba569b88cd74c1773b91fac106690201905092915050565b600080808085158015612807575084155b1561281d57506000925082915086905085612987565b856128635761282c8588613913565b612836868a61392b565b6128409190613960565b93506000925061285084896139ba565b915061285c8588613913565b9050612987565b846128a257600093506128768689613913565b612880878961392b565b61288a9190613960565b92506128968689613913565b915061285c83886139ba565b60006128ad87612a8c565b905060006128ba87612a8c565b905060006128c78b612a8c565b905060006128d48b612a8c565b905060006128e28383612b09565b905060006128f284848888612bce565b90506000612904878784868989612c2b565b9050600061291c856129168885612cd0565b90612b09565b905060008261292b8a89613a00565b6129359190613a41565b90506000826129448a89613a00565b61294e9190613a41565b905061295982612d96565b61296282612d96565b61296b86612d96565b61297486612d96565b9d509d509d509d50505050505050505050505b945094509450949050565b815415611c53576129b86129a98360000154611c8a565b6129b283611c8a565b90612daa565b8260010160008282546129cb9190613913565b90915550505050565b60008181526002830160205260408120548354909182918591906129f99084906139ba565b9091555050506001820154600091825260069092016020526040902055565b81846000016000828254612a2c9190613913565b9091555050600184015460008481526005860160209081526040808320939093556003870181528282208490556004870181528282208590558382526002870190529081208054849290612a81908490613913565b909155505050505050565b60007809392ee8e921d5d073aff322e62439fcf32d7f344649470f8f19821215612acc5760405163e608e18b60e01b8152600481018390526024016106d4565b7809392ee8e921d5d073aff322e62439fcf32d7f344649470f90821315611cc9576040516371f72a3160e01b8152600481018390526024016106d4565b6000600160ff1b831480612b205750600160ff1b82145b15612b3e57604051630d01a11b60e21b815260040160405180910390fd5b60008060008512612b4f5784612b54565b846000035b915060008412612b645783612b69565b836000035b90506000612b778383612734565b90506001600160ff1b03811115612ba45760405163bf79e8d960e01b8152600481018290526024016106d4565b600019808713908613808218600114612bbd5782612bc2565b826000035b98975050505050505050565b600080612be6612bdd84612dbf565b61291688612dbf565b90506000612bf6612bdd86612dbf565b90506000612c048284613a41565b90506000612c128385613a00565b9050612c1e8282612cd0565b9998505050505050505050565b600080612c48612c43886129168b6129166004612a8c565b612dbf565b90506000612c60612c5b612bdd86612dbf565b612e22565b90506000612c76612c718484612b09565b612e42565b90506000612c97612c878a84613a41565b612c918b85613a00565b90612cd0565b90506000612cb4612ca78d612dbf565b612916612c438c8f612cd0565b9050612cc08282612b09565b9c9b505050505050505050505050565b6000600160ff1b831480612ce75750600160ff1b82145b15612d055760405163b3c754a360e01b815260040160405180910390fd5b60008060008512612d165784612d1b565b846000035b915060008412612d2b5783612d30565b836000035b90506000612d4783670de0b6b3a764000084612eb2565b90506001600160ff1b03811115612d7457604051637cb4bef560e01b8152600481018290526024016106d4565b600019808713908613808218600114612d8d5782612bc2565b612bc283613a80565b6000670de0b6b3a7640000825b0592915050565b60006106f083670de0b6b3a764000084612eb2565b600080821215612de55760405163608c83ff60e11b8152600481018390526024016106d4565b7809392ee8e921d5d073aff322e62439fcf32d7f344649470f90821315611d1657604051632c482c3960e01b8152600481018390526024016106d4565b6000816ec097ce7bc90715b34b9f100000000081612da357612da361394a565b600068023f2fa8f6da5b9d3119821215612e5e57506000919050565b680736ea4425c11ac6318212612e8a576040516399bb754160e01b8152600481018390526024016106d4565b6714057b7ef767814f82026106f0670de0b6b3a76400006706f05b59d3b20000830105612f80565b600080806000198587098587029250828110838203039150508060001415612eed57838281612ee357612ee361394a565b04925050506106f0565b838110612f1757604051631dcf306360e21b815260048101829052602481018590526044016106d4565b60008486880960026001871981018816978890046003810283188082028403028082028403028082028403028082028403028082028403029081029092039091026000889003889004909101858311909403939093029303949094049190911702949350505050565b600080821215612fcd5768033dd1780914b9711419821215612fa457506000919050565b612fb082600003612f80565b6ec097ce7bc90715b34b9f100000000081612da357612da361394a565b680a688906bd8b0000008212612ff95760405163e69458f960e01b8152600481018390526024016106d4565b670de0b6b3a7640000604083901b046106f081613016565b919050565b600160bf1b67800000000000000082161561303a5768016a09e667f3bcc9090260401c5b674000000000000000821615613059576801306fe0a31b7152df0260401c5b672000000000000000821615613078576801172b83c7d517adce0260401c5b6710000000000000008216156130975768010b5586cf9890f62a0260401c5b6708000000000000008216156130b6576801059b0d31585743ae0260401c5b6704000000000000008216156130d557680102c9a3e778060ee70260401c5b6702000000000000008216156130f45768010163da9fb33356d80260401c5b67010000000000000082161561311357680100b1afa5abcbed610260401c5b66800000000000008216156131315768010058c86da1c09ea20260401c5b664000000000000082161561314f576801002c605e2e8cec500260401c5b662000000000000082161561316d57680100162f3904051fa10260401c5b661000000000000082161561318b576801000b175effdc76ba0260401c5b66080000000000008216156131a957680100058ba01fb9f96d0260401c5b66040000000000008216156131c75768010002c5cc37da94920260401c5b66020000000000008216156131e5576801000162e525ee05470260401c5b66010000000000008216156132035768010000b17255775c040260401c5b65800000000000821615613220576801000058b91b5bc9ae0260401c5b6540000000000082161561323d57680100002c5c89d5ec6d0260401c5b6520000000000082161561325a5768010000162e43f4f8310260401c5b6510000000000082161561327757680100000b1721bcfc9a0260401c5b650800000000008216156132945768010000058b90cf1e6e0260401c5b650400000000008216156132b1576801000002c5c863b73f0260401c5b650200000000008216156132ce57680100000162e430e5a20260401c5b650100000000008216156132eb576801000000b1721835510260401c5b64800000000082161561330757680100000058b90c0b490260401c5b6440000000008216156133235768010000002c5c8601cc0260401c5b64200000000082161561333f576801000000162e42fff00260401c5b64100000000082161561335b5768010000000b17217fbb0260401c5b640800000000821615613377576801000000058b90bfce0260401c5b64040000000082161561339357680100000002c5c85fe30260401c5b6402000000008216156133af5768010000000162e42ff10260401c5b6401000000008216156133cb57680100000000b17217f80260401c5b63800000008216156133e65768010000000058b90bfc0260401c5b6340000000821615613401576801000000002c5c85fe0260401c5b632000000082161561341c57680100000000162e42ff0260401c5b6310000000821615613437576801000000000b17217f0260401c5b630800000082161561345257680100000000058b90c00260401c5b630400000082161561346d5768010000000002c5c8600260401c5b6302000000821615613488576801000000000162e4300260401c5b63010000008216156134a35768010000000000b172180260401c5b628000008216156134bd576801000000000058b90c0260401c5b624000008216156134d757680100000000002c5c860260401c5b622000008216156134f15768010000000000162e430260401c5b6210000082161561350b57680100000000000b17210260401c5b620800008216156135255768010000000000058b910260401c5b6204000082161561353f576801000000000002c5c80260401c5b6202000082161561355957680100000000000162e40260401c5b62010000821615613573576801000000000000b1720260401c5b61800082161561358c57680100000000000058b90260401c5b6140008216156135a55768010000000000002c5d0260401c5b6120008216156135be576801000000000000162e0260401c5b6110008216156135d75768010000000000000b170260401c5b6108008216156135f0576801000000000000058c0260401c5b61040082161561360957680100000000000002c60260401c5b61020082161561362257680100000000000001630260401c5b61010082161561363b57680100000000000000b10260401c5b608082161561365357680100000000000000590260401c5b604082161561366b576801000000000000002c0260401c5b602082161561368357680100000000000000160260401c5b601082161561369b576801000000000000000b0260401c5b60088216156136b357680100000000000000060260401c5b60048216156136cb57680100000000000000030260401c5b60028216156136e357680100000000000000010260401c5b60018216156136fb57680100000000000000010260401c5b670de0b6b3a76400000260409190911c60bf031c90565b600060208083528351808285015260005b8181101561373f57858101830151858201604001528201613723565b81811115613751576000604083870101525b50601f01601f1916929092016040019392505050565b80356001600160a01b038116811461301157600080fd5b6000806040838503121561379157600080fd5b61379a83613767565b946020939093013593505050565b6000806000606084860312156137bd57600080fd5b6137c684613767565b92506137d460208501613767565b9150604084013590509250925092565b6000602082840312156137f657600080fd5b6106f082613767565b6020808252825182820181905260009190848201906040850190845b818110156138375783518352928401929184019160010161381b565b50909695505050505050565b6000806040838503121561385657600080fd5b61385f83613767565b915061386d60208401613767565b90509250929050565b60008060006060848603121561388b57600080fd5b61389484613767565b95602085013595506040909401359392505050565b6000602082840312156138bb57600080fd5b5035919050565b600181811c908216806138d657607f821691505b602082108114156138f757634e487b7160e01b600052602260045260246000fd5b50919050565b634e487b7160e01b600052601160045260246000fd5b60008219821115613926576139266138fd565b500190565b6000816000190483118215151615613945576139456138fd565b500290565b634e487b7160e01b600052601260045260246000fd5b60008261396f5761396f61394a565b500490565b6001600160a01b039384168152919092166020820152604081019190915260600190565b6000602082840312156139aa57600080fd5b815180151581146106f057600080fd5b6000828210156139cc576139cc6138fd565b500390565b6000826139e0576139e061394a565b500690565b60006000198214156139f9576139f96138fd565b5060010190565b600080821280156001600160ff1b0384900385131615613a2257613a226138fd565b600160ff1b8390038412811615613a3b57613a3b6138fd565b50500190565b60008083128015600160ff1b850184121615613a5f57613a5f6138fd565b6001600160ff1b0384018313811615613a7a57613a7a6138fd565b50500390565b6000600160ff1b821415613a9657613a966138fd565b506000039056fea2646970667358221220be6e07c0ca40866e9aaed5188fda4911f1ff740537f9dc8e58269dd76c4ff00f64736f6c63430008090033",
  "linkReferences": {},
  "deployedLinkReferences": {}
}