{
  "_format": "hh-sol-artifact-1",
  "contractName": "TWAMM",
  "sourceName": "contracts/TWAMM.sol",
  "abi": [
    {
      "inputs": [
        {
          "internalType": "string",
          "name": "_name",
          "type": "string"
        },
        {
          "internalType": "string",
          "name": "_symbol",
          "type": "string"
        },
        {
          "internalType": "address",
          "name": "_tokenA",
          "type": "address"
        },
        {
          "internalType": "address",
          "name": "_tokenB",
          "type": "address"
        },
        {
          "internalType": "uint256",
          "name": "_orderBlockInterval",
          "type": "uint256"
        }
      ],
      "stateMutability": "nonpayable",
      "type": "constructor"
    },
    {
      "inputs": [],
      "name": "PRBMathSD59x18__DivInputTooSmall",
      "type": "error"
    },
    {
      "inputs": [
        {
          "internalType": "uint256",
          "name": "rAbs",
          "type": "uint256"
        }
      ],
      "name": "PRBMathSD59x18__DivOverflow",
      "type": "error"
    },
    {
      "inputs": [
        {
          "internalType": "int256",
          "name": "x",
          "type": "int256"
        }
      ],
      "name": "PRBMathSD59x18__Exp2InputTooBig",
      "type": "error"
    },
    {
      "inputs": [
        {
          "internalType": "int256",
          "name": "x",
          "type": "int256"
        }
      ],
      "name": "PRBMathSD59x18__ExpInputTooBig",
      "type": "error"
    },
    {
      "inputs": [
        {
          "internalType": "int256",
          "name": "x",
          "type": "int256"
        }
      ],
      "name": "PRBMathSD59x18__FromIntOverflow",
      "type": "error"
    },
    {
      "inputs": [
        {
          "internalType": "int256",
          "name": "x",
          "type": "int256"
        }
      ],
      "name": "PRBMathSD59x18__FromIntUnderflow",
      "type": "error"
    },
    {
      "inputs": [],
      "name": "PRBMathSD59x18__MulInputTooSmall",
      "type": "error"
    },
    {
      "inputs": [
        {
          "internalType": "uint256",
          "name": "rAbs",
          "type": "uint256"
        }
      ],
      "name": "PRBMathSD59x18__MulOverflow",
      "type": "error"
    },
    {
      "inputs": [
        {
          "internalType": "int256",
          "name": "x",
          "type": "int256"
        }
      ],
      "name": "PRBMathSD59x18__SqrtNegativeInput",
      "type": "error"
    },
    {
      "inputs": [
        {
          "internalType": "int256",
          "name": "x",
          "type": "int256"
        }
      ],
      "name": "PRBMathSD59x18__SqrtOverflow",
      "type": "error"
    },
    {
      "inputs": [
        {
          "internalType": "uint256",
          "name": "x",
          "type": "uint256"
        }
      ],
      "name": "PRBMathUD60x18__FromUintOverflow",
      "type": "error"
    },
    {
      "inputs": [
        {
          "internalType": "uint256",
          "name": "x",
          "type": "uint256"
        }
      ],
      "name": "PRBMathUD60x18__SqrtOverflow",
      "type": "error"
    },
    {
      "inputs": [
        {
          "internalType": "uint256",
          "name": "prod1",
          "type": "uint256"
        }
      ],
      "name": "PRBMath__MulDivFixedPointOverflow",
      "type": "error"
    },
    {
      "inputs": [
        {
          "internalType": "uint256",
          "name": "prod1",
          "type": "uint256"
        },
        {
          "internalType": "uint256",
          "name": "denominator",
          "type": "uint256"
        }
      ],
      "name": "PRBMath__MulDivOverflow",
      "type": "error"
    },
    {
      "anonymous": false,
      "inputs": [
        {
          "indexed": true,
          "internalType": "address",
          "name": "owner",
          "type": "address"
        },
        {
          "indexed": true,
          "internalType": "address",
          "name": "spender",
          "type": "address"
        },
        {
          "indexed": false,
          "internalType": "uint256",
          "name": "value",
          "type": "uint256"
        }
      ],
      "name": "Approval",
      "type": "event"
    },
    {
      "anonymous": false,
      "inputs": [
        {
          "indexed": true,
          "internalType": "address",
          "name": "addr",
          "type": "address"
        },
        {
          "indexed": false,
          "internalType": "uint256",
          "name": "orderId",
          "type": "uint256"
        }
      ],
      "name": "CancelLongTermOrder",
      "type": "event"
    },
    {
      "anonymous": false,
      "inputs": [
        {
          "indexed": true,
          "internalType": "address",
          "name": "addr",
          "type": "address"
        },
        {
          "indexed": false,
          "internalType": "uint256",
          "name": "amountA",
          "type": "uint256"
        },
        {
          "indexed": false,
          "internalType": "uint256",
          "name": "amountB",
          "type": "uint256"
        }
      ],
      "name": "InitialLiquidityProvided",
      "type": "event"
    },
    {
      "anonymous": false,
      "inputs": [
        {
          "indexed": true,
          "internalType": "address",
          "name": "addr",
          "type": "address"
        },
        {
          "indexed": false,
          "internalType": "uint256",
          "name": "lpTokens",
          "type": "uint256"
        }
      ],
      "name": "LiquidityProvided",
      "type": "event"
    },
    {
      "anonymous": false,
      "inputs": [
        {
          "indexed": true,
          "internalType": "address",
          "name": "addr",
          "type": "address"
        },
        {
          "indexed": false,
          "internalType": "uint256",
          "name": "lpTokens",
          "type": "uint256"
        }
      ],
      "name": "LiquidityRemoved",
      "type": "event"
    },
    {
      "anonymous": false,
      "inputs": [
        {
          "indexed": true,
          "internalType": "address",
          "name": "addr",
          "type": "address"
        },
        {
          "indexed": false,
          "internalType": "uint256",
          "name": "amountAIn",
          "type": "uint256"
        },
        {
          "indexed": false,
          "internalType": "uint256",
          "name": "orderId",
          "type": "uint256"
        }
      ],
      "name": "LongTermSwapAToB",
      "type": "event"
    },
    {
      "anonymous": false,
      "inputs": [
        {
          "indexed": true,
          "internalType": "address",
          "name": "addr",
          "type": "address"
        },
        {
          "indexed": false,
          "internalType": "uint256",
          "name": "amountBIn",
          "type": "uint256"
        },
        {
          "indexed": false,
          "internalType": "uint256",
          "name": "orderId",
          "type": "uint256"
        }
      ],
      "name": "LongTermSwapBToA",
      "type": "event"
    },
    {
      "anonymous": false,
      "inputs": [
        {
          "indexed": true,
          "internalType": "address",
          "name": "addr",
          "type": "address"
        },
        {
          "indexed": false,
          "internalType": "uint256",
          "name": "amountAIn",
          "type": "uint256"
        },
        {
          "indexed": false,
          "internalType": "uint256",
          "name": "amountBOut",
          "type": "uint256"
        }
      ],
      "name": "SwapAToB",
      "type": "event"
    },
    {
      "anonymous": false,
      "inputs": [
        {
          "indexed": true,
          "internalType": "address",
          "name": "addr",
          "type": "address"
        },
        {
          "indexed": false,
          "internalType": "uint256",
          "name": "amountBIn",
          "type": "uint256"
        },
        {
          "indexed": false,
          "internalType": "uint256",
          "name": "amountAOut",
          "type": "uint256"
        }
      ],
      "name": "SwapBToA",
      "type": "event"
    },
    {
      "anonymous": false,
      "inputs": [
        {
          "indexed": true,
          "internalType": "address",
          "name": "from",
          "type": "address"
        },
        {
          "indexed": true,
          "internalType": "address",
          "name": "to",
          "type": "address"
        },
        {
          "indexed": false,
          "internalType": "uint256",
          "name": "value",
          "type": "uint256"
        }
      ],
      "name": "Transfer",
      "type": "event"
    },
    {
      "anonymous": false,
      "inputs": [
        {
          "indexed": true,
          "internalType": "address",
          "name": "addr",
          "type": "address"
        },
        {
          "indexed": false,
          "internalType": "uint256",
          "name": "orderId",
          "type": "uint256"
        }
      ],
      "name": "WithdrawProceedsFromLongTermOrder",
      "type": "event"
    },
    {
      "inputs": [],
      "name": "LP_FEE",
      "outputs": [
        {
          "internalType": "uint256",
          "name": "",
          "type": "uint256"
        }
      ],
      "stateMutability": "view",
      "type": "function"
    },
    {
      "inputs": [
        {
          "internalType": "address",
          "name": "owner",
          "type": "address"
        },
        {
          "internalType": "address",
          "name": "spender",
          "type": "address"
        }
      ],
      "name": "allowance",
      "outputs": [
        {
          "internalType": "uint256",
          "name": "",
          "type": "uint256"
        }
      ],
      "stateMutability": "view",
      "type": "function"
    },
    {
      "inputs": [
        {
          "internalType": "address",
          "name": "spender",
          "type": "address"
        },
        {
          "internalType": "uint256",
          "name": "amount",
          "type": "uint256"
        }
      ],
      "name": "approve",
      "outputs": [
        {
          "internalType": "bool",
          "name": "",
          "type": "bool"
        }
      ],
      "stateMutability": "nonpayable",
      "type": "function"
    },
    {
      "inputs": [
        {
          "internalType": "address",
          "name": "account",
          "type": "address"
        }
      ],
      "name": "balanceOf",
      "outputs": [
        {
          "internalType": "uint256",
          "name": "",
          "type": "uint256"
        }
      ],
      "stateMutability": "view",
      "type": "function"
    },
    {
      "inputs": [
        {
          "internalType": "uint256",
          "name": "orderId",
          "type": "uint256"
        }
      ],
      "name": "cancelLongTermSwap",
      "outputs": [],
      "stateMutability": "nonpayable",
      "type": "function"
    },
    {
      "inputs": [],
      "name": "decimals",
      "outputs": [
        {
          "internalType": "uint8",
          "name": "",
          "type": "uint8"
        }
      ],
      "stateMutability": "view",
      "type": "function"
    },
    {
      "inputs": [
        {
          "internalType": "address",
          "name": "spender",
          "type": "address"
        },
        {
          "internalType": "uint256",
          "name": "subtractedValue",
          "type": "uint256"
        }
      ],
      "name": "decreaseAllowance",
      "outputs": [
        {
          "internalType": "bool",
          "name": "",
          "type": "bool"
        }
      ],
      "stateMutability": "nonpayable",
      "type": "function"
    },
    {
      "inputs": [],
      "name": "executeVirtualOrders",
      "outputs": [],
      "stateMutability": "nonpayable",
      "type": "function"
    },
    {
      "inputs": [
        {
          "internalType": "uint256",
          "name": "orderId",
          "type": "uint256"
        }
      ],
      "name": "getOrderDetails",
      "outputs": [
        {
          "components": [
            {
              "internalType": "uint256",
              "name": "id",
              "type": "uint256"
            },
            {
              "internalType": "uint256",
              "name": "expirationBlock",
              "type": "uint256"
            },
            {
              "internalType": "uint256",
              "name": "saleRate",
              "type": "uint256"
            },
            {
              "internalType": "address",
              "name": "owner",
              "type": "address"
            },
            {
              "internalType": "address",
              "name": "sellTokenId",
              "type": "address"
            },
            {
              "internalType": "address",
              "name": "buyTokenId",
              "type": "address"
            }
          ],
          "internalType": "struct LongTermOrdersLib.Order",
          "name": "",
          "type": "tuple"
        }
      ],
      "stateMutability": "view",
      "type": "function"
    },
    {
      "inputs": [
        {
          "internalType": "address",
          "name": "spender",
          "type": "address"
        },
        {
          "internalType": "uint256",
          "name": "addedValue",
          "type": "uint256"
        }
      ],
      "name": "increaseAllowance",
      "outputs": [
        {
          "internalType": "bool",
          "name": "",
          "type": "bool"
        }
      ],
      "stateMutability": "nonpayable",
      "type": "function"
    },
    {
      "inputs": [
        {
          "internalType": "uint256",
          "name": "amountAIn",
          "type": "uint256"
        },
        {
          "internalType": "uint256",
          "name": "numberOfBlockIntervals",
          "type": "uint256"
        }
      ],
      "name": "longTermSwapFromAToB",
      "outputs": [],
      "stateMutability": "nonpayable",
      "type": "function"
    },
    {
      "inputs": [
        {
          "internalType": "uint256",
          "name": "amountBIn",
          "type": "uint256"
        },
        {
          "internalType": "uint256",
          "name": "numberOfBlockIntervals",
          "type": "uint256"
        }
      ],
      "name": "longTermSwapFromBToA",
      "outputs": [],
      "stateMutability": "nonpayable",
      "type": "function"
    },
    {
      "inputs": [],
      "name": "name",
      "outputs": [
        {
          "internalType": "string",
          "name": "",
          "type": "string"
        }
      ],
      "stateMutability": "view",
      "type": "function"
    },
    {
      "inputs": [],
      "name": "orderBlockInterval",
      "outputs": [
        {
          "internalType": "uint256",
          "name": "",
          "type": "uint256"
        }
      ],
      "stateMutability": "view",
      "type": "function"
    },
    {
      "inputs": [
        {
          "internalType": "uint256",
          "name": "orderId",
          "type": "uint256"
        }
      ],
      "name": "orderIdStatusCheck",
      "outputs": [
        {
          "internalType": "bool",
          "name": "",
          "type": "bool"
        }
      ],
      "stateMutability": "view",
      "type": "function"
    },
    {
      "inputs": [
        {
          "internalType": "uint256",
          "name": "amountA",
          "type": "uint256"
        },
        {
          "internalType": "uint256",
          "name": "amountB",
          "type": "uint256"
        }
      ],
      "name": "provideInitialLiquidity",
      "outputs": [],
      "stateMutability": "nonpayable",
      "type": "function"
    },
    {
      "inputs": [
        {
          "internalType": "uint256",
          "name": "lpTokenAmount",
          "type": "uint256"
        }
      ],
      "name": "provideLiquidity",
      "outputs": [],
      "stateMutability": "nonpayable",
      "type": "function"
    },
    {
      "inputs": [
        {
          "internalType": "uint256",
          "name": "lpTokenAmount",
          "type": "uint256"
        }
      ],
      "name": "removeLiquidity",
      "outputs": [],
      "stateMutability": "nonpayable",
      "type": "function"
    },
    {
      "inputs": [
        {
          "internalType": "uint256",
          "name": "amountAIn",
          "type": "uint256"
        }
      ],
      "name": "swapFromAToB",
      "outputs": [],
      "stateMutability": "nonpayable",
      "type": "function"
    },
    {
      "inputs": [
        {
          "internalType": "uint256",
          "name": "amountBIn",
          "type": "uint256"
        }
      ],
      "name": "swapFromBToA",
      "outputs": [],
      "stateMutability": "nonpayable",
      "type": "function"
    },
    {
      "inputs": [],
      "name": "symbol",
      "outputs": [
        {
          "internalType": "string",
          "name": "",
          "type": "string"
        }
      ],
      "stateMutability": "view",
      "type": "function"
    },
    {
      "inputs": [],
      "name": "tokenA",
      "outputs": [
        {
          "internalType": "address",
          "name": "",
          "type": "address"
        }
      ],
      "stateMutability": "view",
      "type": "function"
    },
    {
      "inputs": [],
      "name": "tokenAReserves",
      "outputs": [
        {
          "internalType": "uint256",
          "name": "",
          "type": "uint256"
        }
      ],
      "stateMutability": "view",
      "type": "function"
    },
    {
      "inputs": [],
      "name": "tokenB",
      "outputs": [
        {
          "internalType": "address",
          "name": "",
          "type": "address"
        }
      ],
      "stateMutability": "view",
      "type": "function"
    },
    {
      "inputs": [],
      "name": "tokenBReserves",
      "outputs": [
        {
          "internalType": "uint256",
          "name": "",
          "type": "uint256"
        }
      ],
      "stateMutability": "view",
      "type": "function"
    },
    {
      "inputs": [],
      "name": "totalSupply",
      "outputs": [
        {
          "internalType": "uint256",
          "name": "",
          "type": "uint256"
        }
      ],
      "stateMutability": "view",
      "type": "function"
    },
    {
      "inputs": [
        {
          "internalType": "address",
          "name": "recipient",
          "type": "address"
        },
        {
          "internalType": "uint256",
          "name": "amount",
          "type": "uint256"
        }
      ],
      "name": "transfer",
      "outputs": [
        {
          "internalType": "bool",
          "name": "",
          "type": "bool"
        }
      ],
      "stateMutability": "nonpayable",
      "type": "function"
    },
    {
      "inputs": [
        {
          "internalType": "address",
          "name": "sender",
          "type": "address"
        },
        {
          "internalType": "address",
          "name": "recipient",
          "type": "address"
        },
        {
          "internalType": "uint256",
          "name": "amount",
          "type": "uint256"
        }
      ],
      "name": "transferFrom",
      "outputs": [
        {
          "internalType": "bool",
          "name": "",
          "type": "bool"
        }
      ],
      "stateMutability": "nonpayable",
      "type": "function"
    },
    {
      "inputs": [
        {
          "internalType": "address",
          "name": "userAddress",
          "type": "address"
        }
      ],
      "name": "userIdsCheck",
      "outputs": [
        {
          "internalType": "uint256[]",
          "name": "",
          "type": "uint256[]"
        }
      ],
      "stateMutability": "view",
      "type": "function"
    },
    {
      "inputs": [
        {
          "internalType": "uint256",
          "name": "orderId",
          "type": "uint256"
        }
      ],
      "name": "withdrawProceedsFromLongTermSwap",
      "outputs": [],
      "stateMutability": "nonpayable",
      "type": "function"
    }
  ],
  "bytecode": "0x60806040523480156200001157600080fd5b506040516200418438038062004184833981016040819052620000349162000294565b8451859085906200004d90600390602085019062000104565b5080516200006390600490602084019062000104565b5050600580546001600160a01b03199081166001600160a01b038781169190911790925560068054909116918516919091179055506008819055620000b9600984844385620000c4602090811b620011fe17901c565b50505050506200036a565b6002850180546001600160a01b039586166001600160a01b0319918216179091556003860180549490951693169290921790925560018301919091559055565b82805462000112906200032d565b90600052602060002090601f01602090048101928262000136576000855562000181565b82601f106200015157805160ff191683800117855562000181565b8280016001018555821562000181579182015b828111156200018157825182559160200191906001019062000164565b506200018f92915062000193565b5090565b5b808211156200018f576000815560010162000194565b634e487b7160e01b600052604160045260246000fd5b600082601f830112620001d257600080fd5b81516001600160401b0380821115620001ef57620001ef620001aa565b604051601f8301601f19908116603f011681019082821181831017156200021a576200021a620001aa565b816040528381526020925086838588010111156200023757600080fd5b600091505b838210156200025b57858201830151818301840152908201906200023c565b838211156200026d5760008385830101525b9695505050505050565b80516001600160a01b03811681146200028f57600080fd5b919050565b600080600080600060a08688031215620002ad57600080fd5b85516001600160401b0380821115620002c557600080fd5b620002d389838a01620001c0565b96506020880151915080821115620002ea57600080fd5b50620002f988828901620001c0565b9450506200030a6040870162000277565b92506200031a6060870162000277565b9150608086015190509295509295909350565b600181811c908216806200034257607f821691505b602082108114156200036457634e487b7160e01b600052602260045260246000fd5b50919050565b613e0a806200037a6000396000f3fe608060405234801561001057600080fd5b50600436106101da5760003560e01c806366f55ece11610104578063a457c2d7116100a2578063dd62ed3e11610071578063dd62ed3e1461041f578063eb521a4c14610458578063ec7dd7bb1461046b578063f8534e401461057157600080fd5b8063a457c2d7146103c6578063a9059cbb146103d9578063a9dd5738146103ec578063ceb2894c146103ff57600080fd5b8063855b65d0116100de578063855b65d0146103855780638e91701c1461039857806395d89b41146103ab5780639c8f9f23146103b357600080fd5b806366f55ece1461032657806370a082311461034957806381fd0a461461037257600080fd5b806337bc5e4a1161017c5780635e3f27271161014b5780635e3f2727146102fa5780635f64b55b1461030257806360a9d50514610315578063637842451461031e57600080fd5b806337bc5e4a1461029457806339509351146102b45780633b4a6bc3146102c75780635a9fae6e146102e757600080fd5b806318160ddd116101b857806318160ddd1461024b5780631f4f5b421461025d57806323b872dd14610272578063313ce5671461028557600080fd5b806306fdde03146101df578063095ea7b3146101fd5780630fc63d1014610220575b600080fd5b6101e7610584565b6040516101f49190613a30565b60405180910390f35b61021061020b366004613aba565b610616565b60405190151581526020016101f4565b600554610233906001600160a01b031681565b6040516001600160a01b0390911681526020016101f4565b6002545b6040519081526020016101f4565b61027061026b366004613ae4565b61062d565b005b610210610280366004613afd565b610673565b604051601281526020016101f4565b6102a76102a2366004613b39565b610739565b6040516101f49190613b54565b6102106102c2366004613aba565b6107a5565b6005546001600160a01b031660009081526007602052604090205461024f565b6102706102f5366004613ae4565b6107e1565b61024f601e81565b600654610233906001600160a01b031681565b61024f60085481565b610270610844565b610210610334366004613ae4565b60009081526011602052604090205460ff1690565b61024f610357366004613b39565b6001600160a01b031660009081526020819052604090205490565b610270610380366004613ae4565b610852565b610270610393366004613b98565b610891565b6102706103a6366004613b98565b6108e5565b6101e7610930565b6102706103c1366004613ae4565b61093f565b6102106103d4366004613aba565b610bbb565b6102106103e7366004613aba565b610c6c565b6102706103fa366004613ae4565b610c79565b6006546001600160a01b031660009081526007602052604090205461024f565b61024f61042d366004613bba565b6001600160a01b03918216600090815260016020908152604080832093909416825291909152205490565b610270610466366004613ae4565b610cd4565b610514610479366004613ae4565b6040805160c081018252600080825260208201819052918101829052606081018290526080810182905260a0810191909152506000908152600f6020908152604091829020825160c0810184528154815260018201549281019290925260028101549282019290925260038201546001600160a01b03908116606083015260048301548116608083015260059092015490911660a082015290565b6040516101f49190600060c08201905082518252602083015160208301526040830151604083015260608301516001600160a01b0380821660608501528060808601511660808501528060a08601511660a0850152505092915050565b61027061057f366004613b98565b610fa3565b60606003805461059390613bed565b80601f01602080910402602001604051908101604052809291908181526020018280546105bf90613bed565b801561060c5780601f106105e15761010080835404028352916020019161060c565b820191906000526020600020905b8154815290600101906020018083116105ef57829003601f168201915b5050505050905090565b6000610623338484611256565b5060015b92915050565b61063a60098260076113ae565b60405181815233907fec1efa7415f20eabaabbfdfc33d5c736e9d413afcc9dedd898c035c0d1889eaa906020015b60405180910390a250565b60006106808484846115dc565b6001600160a01b03841660009081526001602090815260408083203384529091529020548281101561071f5760405162461bcd60e51b815260206004820152602860248201527f45524332303a207472616e7366657220616d6f756e742065786365656473206160448201527f6c6c6f77616e636500000000000000000000000000000000000000000000000060648201526084015b60405180910390fd5b61072c8533858403611256565b60019150505b9392505050565b6001600160a01b03811660009081526010602090815260409182902080548351818402810184019094528084526060939283018282801561079957602002820191906000526020600020905b815481526020019060010190808311610785575b50505050509050919050565b3360008181526001602090815260408083206001600160a01b038716845290915281205490916106239185906107dc908690613c3e565b611256565b600554600654600091610801916001600160a01b039182169116846117f4565b604080518481526020810183905291925033917f1a442df1f5a0e29117f2a0d6ceb8d5db8b4e68203b0d5edac8e267920708522e91015b60405180910390a25050565b61085060096007611a35565b565b61085f6009826007611aa8565b60405181815233907fe91f05f05f7e013ffc245507e3fd86ec0ca1d2f5ab431eea8827cc80f303bf7a90602001610668565b60006108a1600984846007611c3f565b604080518581526020810183905291925033917f3f9021da39409c8415526f6f5150f90f549aff31c146178262479dd87789440091015b60405180910390a2505050565b60006108f5600984846007611c70565b604080518581526020810183905291925033917f3118cfac1ed5d8e668c193690497d56fff82f1aabbdf08f598025b0dfe30872791016108d8565b60606004805461059390613bed565b6002548111156109915760405162461bcd60e51b815260206004820152601e60248201527f6e6f7420656e6f756768206c7020746f6b656e7320617661696c61626c6500006044820152606401610716565b61099d60096007611a35565b60006109a860025490565b6005546001600160a01b03166000908152600760205260409020546109ce908490613c56565b6109d89190613c8b565b905060006109e560025490565b6006546001600160a01b0316600090815260076020526040902054610a0b908590613c56565b610a159190613c8b565b60055460405163a9059cbb60e01b8152336004820152602481018590529192506001600160a01b03169063a9059cbb90604401602060405180830381600087803b158015610a6257600080fd5b505af1158015610a76573d6000803e3d6000fd5b505050506040513d601f19601f82011682018060405250810190610a9a9190613c9f565b5060065460405163a9059cbb60e01b8152336004820152602481018390526001600160a01b039091169063a9059cbb90604401602060405180830381600087803b158015610ae757600080fd5b505af1158015610afb573d6000803e3d6000fd5b505050506040513d601f19601f82011682018060405250810190610b1f9190613c9f565b506005546001600160a01b031660009081526007602052604081208054849290610b4a908490613cc1565b90915550506006546001600160a01b031660009081526007602052604081208054839290610b79908490613cc1565b90915550610b8990503384611c98565b60405183815233907fc2c3f06e49b9f15e7b4af9055e183b0d73362e033ad82a07dec9bf9840171719906020016108d8565b3360009081526001602090815260408083206001600160a01b038616845290915281205482811015610c555760405162461bcd60e51b815260206004820152602560248201527f45524332303a2064656372656173656420616c6c6f77616e63652062656c6f7760448201527f207a65726f0000000000000000000000000000000000000000000000000000006064820152608401610716565b610c623385858403611256565b5060019392505050565b60006106233384846115dc565b600654600554600091610c99916001600160a01b039182169116846117f4565b604080518481526020810183905291925033917f1201e4c6b2a8cfdbb8440a213b3b16f2e11b23315ddb1751c9522fa3f3e6b3559101610838565b600254610d6f5760405162461bcd60e51b815260206004820152604860248201527f6e6f206c697175696469747920686173206265656e2070726f7669646564207960448201527f65742c206e65656420746f2063616c6c2070726f76696465496e697469616c4c60648201527f6971756964697479000000000000000000000000000000000000000000000000608482015260a401610716565b610d7b60096007611a35565b6000610d8660025490565b6005546001600160a01b0316600090815260076020526040902054610dab9084613c56565b610db59190613c8b565b90506000610dc260025490565b6006546001600160a01b0316600090815260076020526040902054610de79085613c56565b610df19190613c8b565b6005546040516323b872dd60e01b8152336004820152306024820152604481018590529192506001600160a01b0316906323b872dd90606401602060405180830381600087803b158015610e4457600080fd5b505af1158015610e58573d6000803e3d6000fd5b505050506040513d601f19601f82011682018060405250810190610e7c9190613c9f565b506006546040516323b872dd60e01b8152336004820152306024820152604481018390526001600160a01b03909116906323b872dd90606401602060405180830381600087803b158015610ecf57600080fd5b505af1158015610ee3573d6000803e3d6000fd5b505050506040513d601f19601f82011682018060405250810190610f079190613c9f565b506005546001600160a01b031660009081526007602052604081208054849290610f32908490613c3e565b90915550506006546001600160a01b031660009081526007602052604081208054839290610f61908490613c3e565b90915550610f7190503384611e1d565b60405183815233907fccb2ae3a2936bf4c94fa4e12cdf0cdad6ed0e4888a044cef89afa60f2e4b92d3906020016108d8565b6002541561103f5760405162461bcd60e51b815260206004820152604260248201527f6c69717569646974792068617320616c7265616479206265656e2070726f766960448201527f6465642c206e65656420746f2063616c6c2070726f766964654c69717569646960648201527f7479000000000000000000000000000000000000000000000000000000000000608482015260a401610716565b6005546040516323b872dd60e01b8152336004820152306024820152604481018490526001600160a01b03909116906323b872dd90606401602060405180830381600087803b15801561109157600080fd5b505af11580156110a5573d6000803e3d6000fd5b505050506040513d601f19601f820116820180604052508101906110c99190613c9f565b506006546040516323b872dd60e01b8152336004820152306024820152604481018390526001600160a01b03909116906323b872dd90606401602060405180830381600087803b15801561111c57600080fd5b505af1158015611130573d6000803e3d6000fd5b505050506040513d601f19601f820116820180604052508101906111549190613c9f565b506005546001600160a01b0390811660009081526007602052604080822085905560065490921681529081208290556111ba6111ac61119a61119585611efd565b611f63565b6111a661119587611efd565b90611fce565b670de0b6b3a7640000900490565b90506111c63382611e1d565b604080518481526020810184905233917f6f6e8d9cc87c64a4776e719d1ad22f4b0b45089829effa9a2a8cddbdbc43b62b91016108d8565b6002850180546001600160a01b039586167fffffffffffffffffffffffff0000000000000000000000000000000000000000918216179091556003860180549490951693169290921790925560018301919091559055565b6001600160a01b0383166112d15760405162461bcd60e51b8152602060048201526024808201527f45524332303a20617070726f76652066726f6d20746865207a65726f2061646460448201527f72657373000000000000000000000000000000000000000000000000000000006064820152608401610716565b6001600160a01b03821661134d5760405162461bcd60e51b815260206004820152602260248201527f45524332303a20617070726f766520746f20746865207a65726f20616464726560448201527f73730000000000000000000000000000000000000000000000000000000000006064820152608401610716565b6001600160a01b0383811660008181526001602090815260408083209487168084529482529182902085905590518481527f8c5be1e5ebec7d5bd14f71427d1e84f3dd0314c0f7b2291e5b200ac8c7c3b925910160405180910390a3505050565b6113b88382611a35565b6000828152600684016020526040902060038101546001600160a01b031633146114245760405162461bcd60e51b815260206004820152601a60248201527f73656e646572206d757374206265206f72646572206f776e65720000000000006044820152606401610716565b6004818101546001600160a01b0316600090815290850160205260408120908061144e8387611fda565b9150915060008211806114615750600081115b6114ad5760405162461bcd60e51b815260206004820152601760248201527f6e6f2070726f636565647320746f2077697468647261770000000000000000006044820152606401610716565b600584015460405163a9059cbb60e01b8152336004820152602481018390526001600160a01b039091169063a9059cbb90604401602060405180830381600087803b1580156114fb57600080fd5b505af115801561150f573d6000803e3d6000fd5b505050506040513d601f19601f820116820180604052508101906115339190613c9f565b5060048481015460405163a9059cbb60e01b81523392810192909252602482018490526001600160a01b03169063a9059cbb90604401602060405180830381600087803b15801561158357600080fd5b505af1158015611597573d6000803e3d6000fd5b505050506040513d601f19601f820116820180604052508101906115bb9190613c9f565b5050506000938452505050600890910160205260409020805460ff19169055565b6001600160a01b0383166116585760405162461bcd60e51b815260206004820152602560248201527f45524332303a207472616e736665722066726f6d20746865207a65726f20616460448201527f64726573730000000000000000000000000000000000000000000000000000006064820152608401610716565b6001600160a01b0382166116d45760405162461bcd60e51b815260206004820152602360248201527f45524332303a207472616e7366657220746f20746865207a65726f206164647260448201527f65737300000000000000000000000000000000000000000000000000000000006064820152608401610716565b6001600160a01b038316600090815260208190526040902054818110156117635760405162461bcd60e51b815260206004820152602660248201527f45524332303a207472616e7366657220616d6f756e742065786365656473206260448201527f616c616e636500000000000000000000000000000000000000000000000000006064820152608401610716565b6001600160a01b0380851660009081526020819052604080822085850390559185168152908120805484929061179a908490613c3e565b92505081905550826001600160a01b0316846001600160a01b03167fddf252ad1be2c89b69c2b068fc378daa952ba7f163c4a11628f55a4df523b3ef846040516117e691815260200190565b60405180910390a350505050565b60008082116118455760405162461bcd60e51b815260206004820152601c60248201527f7377617020616d6f756e74206d75737420626520706f736974697665000000006044820152606401610716565b61185160096007611a35565b6001600160a01b038416600090815260076020526040812054611875908490613c3e565b6001600160a01b038516600090815260076020526040902054611899908590613c56565b6118a39190613c8b565b90506127106118b3601e82613cc1565b6118bd9083613c56565b6118c79190613c8b565b6040516323b872dd60e01b8152336004820152306024820152604481018590529092506001600160a01b038616906323b872dd90606401602060405180830381600087803b15801561191857600080fd5b505af115801561192c573d6000803e3d6000fd5b505050506040513d601f19601f820116820180604052508101906119509190613c9f565b5060405163a9059cbb60e01b8152336004820152602481018390526001600160a01b0385169063a9059cbb90604401602060405180830381600087803b15801561199957600080fd5b505af11580156119ad573d6000803e3d6000fd5b505050506040513d601f19601f820116820180604052508101906119d19190613c9f565b506001600160a01b038516600090815260076020526040812080548592906119fa908490613c3e565b90915550506001600160a01b03841660009081526007602052604081208054849290611a27908490613cc1565b909155509195945050505050565b8154600183015460009190611a4b908290613cd8565b8460010154611a5a9190613cc1565b611a649190613c3e565b90505b43811015611a8d57611a7a838383612102565b8254611a869082613c3e565b9050611a67565b43836001015414611aa357611aa3838343612102565b505050565b611ab28382611a35565b6000828152600684016020526040902060038101546001600160a01b03163314611b1e5760405162461bcd60e51b815260206004820152601a60248201527f73656e646572206d757374206265206f72646572206f776e65720000000000006044820152606401610716565b6004818101546001600160a01b031660009081529085016020526040812090611b478286612306565b905060008111611b995760405162461bcd60e51b815260206004820152601760248201527f6e6f2070726f636565647320746f2077697468647261770000000000000000006044820152606401610716565b600583015460405163a9059cbb60e01b8152336004820152602481018390526001600160a01b039091169063a9059cbb90604401602060405180830381600087803b158015611be757600080fd5b505af1158015611bfb573d6000803e3d6000fd5b505050506040513d601f19601f82011682018060405250810190611c1f9190613c9f565b50505060009283525050600890910160205260409020805460ff19169055565b60038401546002850154600091611c679187916001600160a01b039081169116878787612436565b95945050505050565b60028401546003850154600091611c679187916001600160a01b039081169116878787612436565b6001600160a01b038216611d145760405162461bcd60e51b815260206004820152602160248201527f45524332303a206275726e2066726f6d20746865207a65726f2061646472657360448201527f73000000000000000000000000000000000000000000000000000000000000006064820152608401610716565b6001600160a01b03821660009081526020819052604090205481811015611da35760405162461bcd60e51b815260206004820152602260248201527f45524332303a206275726e20616d6f756e7420657863656564732062616c616e60448201527f63650000000000000000000000000000000000000000000000000000000000006064820152608401610716565b6001600160a01b0383166000908152602081905260408120838303905560028054849290611dd2908490613cc1565b90915550506040518281526000906001600160a01b038516907fddf252ad1be2c89b69c2b068fc378daa952ba7f163c4a11628f55a4df523b3ef9060200160405180910390a3505050565b6001600160a01b038216611e735760405162461bcd60e51b815260206004820152601f60248201527f45524332303a206d696e7420746f20746865207a65726f2061646472657373006044820152606401610716565b8060026000828254611e859190613c3e565b90915550506001600160a01b03821660009081526020819052604081208054839290611eb2908490613c3e565b90915550506040518181526001600160a01b038316906000907fddf252ad1be2c89b69c2b068fc378daa952ba7f163c4a11628f55a4df523b3ef9060200160405180910390a35b5050565b60007812725dd1d243aba0e75fe645cc4873f9e65afe688c928e1f21821115611f55576040517f3492ffd900000000000000000000000000000000000000000000000000000000815260048101839052602401610716565b50670de0b6b3a76400000290565b60007812725dd1d243aba0e75fe645cc4873f9e65afe688c928e1f21821115611fbb576040517f6155b67d00000000000000000000000000000000000000000000000000000000815260048101839052602401610716565b610627670de0b6b3a7640000830261270c565b60006107328383612894565b6000818152600383016020526040812054819043811161203c5760405162461bcd60e51b815260206004820152601660248201527f6f7264657220616c72656164792066696e6973686564000000000000000000006044820152606401610716565b6000848152600486016020526040812054906120584384613cc1565b90506120648282613c56565b60008781526005890160205260409020549095506120976111ac61208785611efd565b838b600101546111a69190613cc1565b9450828860000160008282546120ad9190613cc1565b90915550506000878152600489016020908152604080832083905560038b01825280832083905586835260028b01909152812080548592906120f0908490613cc1565b92505081905550505050509250929050565b60008360010154826121149190613cc1565b60028501546001600160a01b0316600090815260048601602052604081205491925090612142908390613c56565b60038601546001600160a01b0316600090815260048701602052604081205491925090612170908490613c56565b60028701546001600160a01b039081166000908152602088905260408082205460038b015490931682528120549293509091908080806121b286868a8a612989565b9350935093509350818b60008e60020160009054906101000a90046001600160a01b03166001600160a01b03166001600160a01b0316815260200190815260200160002081905550808b60008e60030160009054906101000a90046001600160a01b03166001600160a01b03166001600160a01b031681526020019081526020016000208190555060008c60040160008e60020160009054906101000a90046001600160a01b03166001600160a01b03166001600160a01b03168152602001908152602001600020905060008d60040160008f60030160009054906101000a90046001600160a01b03166001600160a01b03166001600160a01b0316815260200190815260200160002090506122d18583612b2590919063ffffffff16565b6122db8187612b25565b6122e5828d612b67565b6122ef818d612b67565b505050506001909901969096555050505050505050565b60008181526004830160205260408120548061238a5760405162461bcd60e51b815260206004820152602260248201527f73616c6573207261746520616d6f756e74206d75737420626520706f7369746960448201527f76650000000000000000000000000000000000000000000000000000000000006064820152608401610716565b60008381526003850160209081526040808320546005880190925290912054438210156123f55760008281526006870160205260409020546123db6111ac6123d186611efd565b6111a68585613cc1565b6000878152600489016020526040812055945061242d9050565b6124146111ac61240485611efd565b8389600101546111a69190613cc1565b6001870154600087815260058901602052604090205593505b50505092915050565b60006124428783611a35565b6040516323b872dd60e01b8152336004820152306024820152604481018590526001600160a01b038716906323b872dd90606401602060405180830381600087803b15801561249057600080fd5b505af11580156124a4573d6000803e3d6000fd5b505050506040513d601f19601f820116820180604052508101906124c89190613c9f565b50865443906000906124da9083613cd8565b6124e49083613cc1565b90506000816124f4876001613c3e565b8b546125009190613c56565b61250a9190613c3e565b905060006125188483613cc1565b6125229089613c8b565b6001600160a01b038b16600090815260048d016020526040902060058d0154919250906125529082908486612bab565b6040518060c001604052808d600501548152602001848152602001838152602001336001600160a01b031681526020018c6001600160a01b031681526020018b6001600160a01b03168152508c60060160008e60050154815260200190815260200160002060008201518160000155602082015181600101556040820151816002015560608201518160030160006101000a8154816001600160a01b0302191690836001600160a01b0316021790555060808201518160040160006101000a8154816001600160a01b0302191690836001600160a01b0316021790555060a08201518160050160006101000a8154816001600160a01b0302191690836001600160a01b031602179055509050508b6007016000336001600160a01b03166001600160a01b031681526020019081526020016000208c60050154908060018154018082558091505060019003906000526020600020016000909190919091505560018c60080160008e60050154815260200190815260200160002060006101000a81548160ff0219169083151502179055508b60050160008154809291906126f890613cec565b909155509c9b505050505050505050505050565b60008161271b57506000919050565b5060018170010000000000000000000000000000000081106127425760409190911b9060801c5b68010000000000000000811061275d5760209190911b9060401c5b64010000000081106127745760109190911b9060201c5b6201000081106127895760089190911b9060101c5b610100811061279d5760049190911b9060081c5b601081106127b05760029190911b9060041c5b600881106127c057600182901b91505b60018284816127d1576127d1613c75565b048301901c915060018284816127e9576127e9613c75565b048301901c9150600182848161280157612801613c75565b048301901c9150600182848161281957612819613c75565b048301901c9150600182848161283157612831613c75565b048301901c9150600182848161284957612849613c75565b048301901c9150600182848161286157612861613c75565b048301901c9150600082848161287957612879613c75565b0490508083101561288a578261288c565b805b949350505050565b60008080600019848609848602925082811083820303915050670de0b6b3a764000081106128f1576040517fd31b340200000000000000000000000000000000000000000000000000000000815260048101829052602401610716565b600080670de0b6b3a76400008688099150506706f05b59d3b1ffff81118261292b5780670de0b6b3a7640000850401945050505050610627565b6204000082850304939091119091037d40000000000000000000000000000000000000000000000000000000000002919091177faccb18165bd6fe31ae1cf318dc5b51eee0e1ba569b88cd74c1773b91fac106690201905092915050565b60008080808515801561299a575084155b156129b057506000925082915086905085612b1a565b856129f6576129bf8588613c3e565b6129c9868a613c56565b6129d39190613c8b565b9350600092506129e38489613cc1565b91506129ef8588613c3e565b9050612b1a565b84612a355760009350612a098689613c3e565b612a138789613c56565b612a1d9190613c8b565b9250612a298689613c3e565b91506129ef8388613cc1565b6000612a4087612c1f565b90506000612a4d87612c1f565b90506000612a5a8b612c1f565b90506000612a678b612c1f565b90506000612a758383612cd4565b90506000612a8584848888612de4565b90506000612a97878784868989612e41565b90506000612aaf85612aa98885612ee6565b90612cd4565b9050600082612abe8a89613d07565b612ac89190613d5f565b9050600082612ad78a89613d07565b612ae19190613d5f565b9050612aec82612ff7565b612af582612ff7565b612afe86612ff7565b612b0786612ff7565b9d509d509d509d50505050505050505050505b945094509450949050565b815415611ef957612b4b612b3c8360000154611efd565b612b4583611efd565b9061300b565b826001016000828254612b5e9190613c3e565b90915550505050565b6000818152600283016020526040812054835490918291859190612b8c908490613cc1565b9091555050506001820154600091825260069092016020526040902055565b81846000016000828254612bbf9190613c3e565b9091555050600184015460008481526005860160209081526040808320939093556003870181528282208490556004870181528282208590558382526002870190529081208054849290612c14908490613c3e565b909155505050505050565b60007ffffffffffffffff6c6d11716de2a2f8c500cdd19dbc6030cd280cbb9b6b8f070821215612c7e576040517fe608e18b00000000000000000000000000000000000000000000000000000000815260048101839052602401610716565b7809392ee8e921d5d073aff322e62439fcf32d7f344649470f90821315611f55576040517f71f72a3100000000000000000000000000000000000000000000000000000000815260048101839052602401610716565b6000600160ff1b831480612ceb5750600160ff1b82145b15612d22576040517f3406846c00000000000000000000000000000000000000000000000000000000815260040160405180910390fd5b60008060008512612d335784612d38565b846000035b915060008412612d485783612d4d565b836000035b90506000612d5b8383612894565b90507f7fffffffffffffffffffffffffffffffffffffffffffffffffffffffffffffff811115612dba576040517fbf79e8d900000000000000000000000000000000000000000000000000000000815260048101829052602401610716565b600019808713908613808218600114612dd35782612dd8565b826000035b98975050505050505050565b600080612dfc612df384613020565b612aa988613020565b90506000612e0c612df386613020565b90506000612e1a8284613d5f565b90506000612e288385613d07565b9050612e348282612ee6565b9998505050505050505050565b600080612e5e612e5988612aa98b612aa96004612c1f565b613020565b90506000612e76612e71612df386613020565b6130b5565b90506000612e8c612e878484612cd4565b6130d5565b90506000612ead612e9d8a84613d5f565b612ea78b85613d07565b90612ee6565b90506000612eca612ebd8d613020565b612aa9612e598c8f612ee6565b9050612ed68282612cd4565b9c9b505050505050505050505050565b6000600160ff1b831480612efd5750600160ff1b82145b15612f34576040517fb3c754a300000000000000000000000000000000000000000000000000000000815260040160405180910390fd5b60008060008512612f455784612f4a565b846000035b915060008412612f5a5783612f5f565b836000035b90506000612f7683670de0b6b3a764000084613174565b90507f7fffffffffffffffffffffffffffffffffffffffffffffffffffffffffffffff811115612fd5576040517f7cb4bef500000000000000000000000000000000000000000000000000000000815260048101829052602401610716565b600019808713908613808218600114612fee5782612dd8565b612dd883613db7565b6000670de0b6b3a7640000825b0592915050565b600061073283670de0b6b3a764000084613174565b60008082121561305f576040517fc11907fe00000000000000000000000000000000000000000000000000000000815260048101839052602401610716565b7809392ee8e921d5d073aff322e62439fcf32d7f344649470f90821315611fbb576040517f2c482c3900000000000000000000000000000000000000000000000000000000815260048101839052602401610716565b6000816ec097ce7bc90715b34b9f10000000008161300457613004613c75565b60007ffffffffffffffffffffffffffffffffffffffffffffffffdc0d0570925a462ce82121561310757506000919050565b680736ea4425c11ac631821261314c576040517f99bb754100000000000000000000000000000000000000000000000000000000815260048101839052602401610716565b6714057b7ef767814f8202610732670de0b6b3a76400006706f05b59d3b2000083010561325b565b6000808060001985870985870292508281108382030391505080600014156131af578382816131a5576131a5613c75565b0492505050610732565b8381106131f2576040517f773cc18c0000000000000000000000000000000000000000000000000000000081526004810182905260248101859052604401610716565b60008486880960026001871981018816978890046003810283188082028403028082028403028082028403028082028403028082028403029081029092039091026000889003889004909101858311909403939093029303949094049190911702949350505050565b6000808212156132be577ffffffffffffffffffffffffffffffffffffffffffffffffcc22e87f6eb468eeb82121561329557506000919050565b6132a18260000361325b565b6ec097ce7bc90715b34b9f10000000008161300457613004613c75565b680a688906bd8b0000008212613303576040517fe69458f900000000000000000000000000000000000000000000000000000000815260048101839052602401610716565b670de0b6b3a7640000604083901b0461073281613320565b919050565b778000000000000000000000000000000000000000000000006780000000000000008216156133585768016a09e667f3bcc9090260401c5b674000000000000000821615613377576801306fe0a31b7152df0260401c5b672000000000000000821615613396576801172b83c7d517adce0260401c5b6710000000000000008216156133b55768010b5586cf9890f62a0260401c5b6708000000000000008216156133d4576801059b0d31585743ae0260401c5b6704000000000000008216156133f357680102c9a3e778060ee70260401c5b6702000000000000008216156134125768010163da9fb33356d80260401c5b67010000000000000082161561343157680100b1afa5abcbed610260401c5b668000000000000082161561344f5768010058c86da1c09ea20260401c5b664000000000000082161561346d576801002c605e2e8cec500260401c5b662000000000000082161561348b57680100162f3904051fa10260401c5b66100000000000008216156134a9576801000b175effdc76ba0260401c5b66080000000000008216156134c757680100058ba01fb9f96d0260401c5b66040000000000008216156134e55768010002c5cc37da94920260401c5b6602000000000000821615613503576801000162e525ee05470260401c5b66010000000000008216156135215768010000b17255775c040260401c5b6580000000000082161561353e576801000058b91b5bc9ae0260401c5b6540000000000082161561355b57680100002c5c89d5ec6d0260401c5b652000000000008216156135785768010000162e43f4f8310260401c5b6510000000000082161561359557680100000b1721bcfc9a0260401c5b650800000000008216156135b25768010000058b90cf1e6e0260401c5b650400000000008216156135cf576801000002c5c863b73f0260401c5b650200000000008216156135ec57680100000162e430e5a20260401c5b65010000000000821615613609576801000000b1721835510260401c5b64800000000082161561362557680100000058b90c0b490260401c5b6440000000008216156136415768010000002c5c8601cc0260401c5b64200000000082161561365d576801000000162e42fff00260401c5b6410000000008216156136795768010000000b17217fbb0260401c5b640800000000821615613695576801000000058b90bfce0260401c5b6404000000008216156136b157680100000002c5c85fe30260401c5b6402000000008216156136cd5768010000000162e42ff10260401c5b6401000000008216156136e957680100000000b17217f80260401c5b63800000008216156137045768010000000058b90bfc0260401c5b634000000082161561371f576801000000002c5c85fe0260401c5b632000000082161561373a57680100000000162e42ff0260401c5b6310000000821615613755576801000000000b17217f0260401c5b630800000082161561377057680100000000058b90c00260401c5b630400000082161561378b5768010000000002c5c8600260401c5b63020000008216156137a6576801000000000162e4300260401c5b63010000008216156137c15768010000000000b172180260401c5b628000008216156137db576801000000000058b90c0260401c5b624000008216156137f557680100000000002c5c860260401c5b6220000082161561380f5768010000000000162e430260401c5b6210000082161561382957680100000000000b17210260401c5b620800008216156138435768010000000000058b910260401c5b6204000082161561385d576801000000000002c5c80260401c5b6202000082161561387757680100000000000162e40260401c5b62010000821615613891576801000000000000b1720260401c5b6180008216156138aa57680100000000000058b90260401c5b6140008216156138c35768010000000000002c5d0260401c5b6120008216156138dc576801000000000000162e0260401c5b6110008216156138f55768010000000000000b170260401c5b61080082161561390e576801000000000000058c0260401c5b61040082161561392757680100000000000002c60260401c5b61020082161561394057680100000000000001630260401c5b61010082161561395957680100000000000000b10260401c5b608082161561397157680100000000000000590260401c5b6040821615613989576801000000000000002c0260401c5b60208216156139a157680100000000000000160260401c5b60108216156139b9576801000000000000000b0260401c5b60088216156139d157680100000000000000060260401c5b60048216156139e957680100000000000000030260401c5b6002821615613a0157680100000000000000010260401c5b6001821615613a1957680100000000000000010260401c5b670de0b6b3a76400000260409190911c60bf031c90565b600060208083528351808285015260005b81811015613a5d57858101830151858201604001528201613a41565b81811115613a6f576000604083870101525b50601f017fffffffffffffffffffffffffffffffffffffffffffffffffffffffffffffffe016929092016040019392505050565b80356001600160a01b038116811461331b57600080fd5b60008060408385031215613acd57600080fd5b613ad683613aa3565b946020939093013593505050565b600060208284031215613af657600080fd5b5035919050565b600080600060608486031215613b1257600080fd5b613b1b84613aa3565b9250613b2960208501613aa3565b9150604084013590509250925092565b600060208284031215613b4b57600080fd5b61073282613aa3565b6020808252825182820181905260009190848201906040850190845b81811015613b8c57835183529284019291840191600101613b70565b50909695505050505050565b60008060408385031215613bab57600080fd5b50508035926020909101359150565b60008060408385031215613bcd57600080fd5b613bd683613aa3565b9150613be460208401613aa3565b90509250929050565b600181811c90821680613c0157607f821691505b60208210811415613c2257634e487b7160e01b600052602260045260246000fd5b50919050565b634e487b7160e01b600052601160045260246000fd5b60008219821115613c5157613c51613c28565b500190565b6000816000190483118215151615613c7057613c70613c28565b500290565b634e487b7160e01b600052601260045260246000fd5b600082613c9a57613c9a613c75565b500490565b600060208284031215613cb157600080fd5b8151801515811461073257600080fd5b600082821015613cd357613cd3613c28565b500390565b600082613ce757613ce7613c75565b500690565b6000600019821415613d0057613d00613c28565b5060010190565b6000808212827f7fffffffffffffffffffffffffffffffffffffffffffffffffffffffffffffff03841381151615613d4157613d41613c28565b82600160ff1b038412811615613d5957613d59613c28565b50500190565b600080831283600160ff1b01831281151615613d7d57613d7d613c28565b837f7fffffffffffffffffffffffffffffffffffffffffffffffffffffffffffffff018313811615613db157613db1613c28565b50500390565b6000600160ff1b821415613dcd57613dcd613c28565b506000039056fea2646970667358221220566e6478fea72e9b4211ae00e6320ece59bc169598c5dd8f0d7c8c4af684b51f64736f6c63430008090033",
  "linkReferences": {},
  "deployedLinkReferences": {}
}