{
  "_format": "hh-sol-artifact-1",
  "contractName": "TWAMM",
  "sourceName": "contracts/TWAMM.sol",
  "abi": [
    {
      "inputs": [
        {
          "internalType": "string",
          "name": "_name",
          "type": "string"
        },
        {
          "internalType": "string",
          "name": "_symbol",
          "type": "string"
        },
        {
          "internalType": "address",
          "name": "_tokenA",
          "type": "address"
        },
        {
          "internalType": "address",
          "name": "_tokenB",
          "type": "address"
        },
        {
          "internalType": "uint256",
          "name": "_orderBlockInterval",
          "type": "uint256"
        }
      ],
      "stateMutability": "nonpayable",
      "type": "constructor"
    },
    {
      "inputs": [],
      "name": "PRBMathSD59x18__DivInputTooSmall",
      "type": "error"
    },
    {
      "inputs": [
        {
          "internalType": "uint256",
          "name": "rAbs",
          "type": "uint256"
        }
      ],
      "name": "PRBMathSD59x18__DivOverflow",
      "type": "error"
    },
    {
      "inputs": [
        {
          "internalType": "int256",
          "name": "x",
          "type": "int256"
        }
      ],
      "name": "PRBMathSD59x18__Exp2InputTooBig",
      "type": "error"
    },
    {
      "inputs": [
        {
          "internalType": "int256",
          "name": "x",
          "type": "int256"
        }
      ],
      "name": "PRBMathSD59x18__ExpInputTooBig",
      "type": "error"
    },
    {
      "inputs": [
        {
          "internalType": "int256",
          "name": "x",
          "type": "int256"
        }
      ],
      "name": "PRBMathSD59x18__FromIntOverflow",
      "type": "error"
    },
    {
      "inputs": [
        {
          "internalType": "int256",
          "name": "x",
          "type": "int256"
        }
      ],
      "name": "PRBMathSD59x18__FromIntUnderflow",
      "type": "error"
    },
    {
      "inputs": [],
      "name": "PRBMathSD59x18__MulInputTooSmall",
      "type": "error"
    },
    {
      "inputs": [
        {
          "internalType": "uint256",
          "name": "rAbs",
          "type": "uint256"
        }
      ],
      "name": "PRBMathSD59x18__MulOverflow",
      "type": "error"
    },
    {
      "inputs": [
        {
          "internalType": "int256",
          "name": "x",
          "type": "int256"
        }
      ],
      "name": "PRBMathSD59x18__SqrtNegativeInput",
      "type": "error"
    },
    {
      "inputs": [
        {
          "internalType": "int256",
          "name": "x",
          "type": "int256"
        }
      ],
      "name": "PRBMathSD59x18__SqrtOverflow",
      "type": "error"
    },
    {
      "inputs": [
        {
          "internalType": "uint256",
          "name": "x",
          "type": "uint256"
        }
      ],
      "name": "PRBMathUD60x18__FromUintOverflow",
      "type": "error"
    },
    {
      "inputs": [
        {
          "internalType": "uint256",
          "name": "x",
          "type": "uint256"
        }
      ],
      "name": "PRBMathUD60x18__SqrtOverflow",
      "type": "error"
    },
    {
      "inputs": [
        {
          "internalType": "uint256",
          "name": "prod1",
          "type": "uint256"
        }
      ],
      "name": "PRBMath__MulDivFixedPointOverflow",
      "type": "error"
    },
    {
      "inputs": [
        {
          "internalType": "uint256",
          "name": "prod1",
          "type": "uint256"
        },
        {
          "internalType": "uint256",
          "name": "denominator",
          "type": "uint256"
        }
      ],
      "name": "PRBMath__MulDivOverflow",
      "type": "error"
    },
    {
      "anonymous": false,
      "inputs": [
        {
          "indexed": true,
          "internalType": "address",
          "name": "owner",
          "type": "address"
        },
        {
          "indexed": true,
          "internalType": "address",
          "name": "spender",
          "type": "address"
        },
        {
          "indexed": false,
          "internalType": "uint256",
          "name": "value",
          "type": "uint256"
        }
      ],
      "name": "Approval",
      "type": "event"
    },
    {
      "anonymous": false,
      "inputs": [
        {
          "indexed": true,
          "internalType": "address",
          "name": "addr",
          "type": "address"
        },
        {
          "indexed": false,
          "internalType": "uint256",
          "name": "orderId",
          "type": "uint256"
        }
      ],
      "name": "CancelLongTermOrder",
      "type": "event"
    },
    {
      "anonymous": false,
      "inputs": [
        {
          "indexed": true,
          "internalType": "address",
          "name": "addr",
          "type": "address"
        },
        {
          "indexed": false,
          "internalType": "uint256",
          "name": "amountA",
          "type": "uint256"
        },
        {
          "indexed": false,
          "internalType": "uint256",
          "name": "amountB",
          "type": "uint256"
        }
      ],
      "name": "InitialLiquidityProvided",
      "type": "event"
    },
    {
      "anonymous": false,
      "inputs": [
        {
          "indexed": true,
          "internalType": "address",
          "name": "addr",
          "type": "address"
        },
        {
          "indexed": false,
          "internalType": "uint256",
          "name": "lpTokens",
          "type": "uint256"
        }
      ],
      "name": "LiquidityProvided",
      "type": "event"
    },
    {
      "anonymous": false,
      "inputs": [
        {
          "indexed": true,
          "internalType": "address",
          "name": "addr",
          "type": "address"
        },
        {
          "indexed": false,
          "internalType": "uint256",
          "name": "lpTokens",
          "type": "uint256"
        }
      ],
      "name": "LiquidityRemoved",
      "type": "event"
    },
    {
      "anonymous": false,
      "inputs": [
        {
          "indexed": true,
          "internalType": "address",
          "name": "addr",
          "type": "address"
        },
        {
          "indexed": false,
          "internalType": "uint256",
          "name": "amountAIn",
          "type": "uint256"
        },
        {
          "indexed": false,
          "internalType": "uint256",
          "name": "orderId",
          "type": "uint256"
        }
      ],
      "name": "LongTermSwapAToB",
      "type": "event"
    },
    {
      "anonymous": false,
      "inputs": [
        {
          "indexed": true,
          "internalType": "address",
          "name": "addr",
          "type": "address"
        },
        {
          "indexed": false,
          "internalType": "uint256",
          "name": "amountBIn",
          "type": "uint256"
        },
        {
          "indexed": false,
          "internalType": "uint256",
          "name": "orderId",
          "type": "uint256"
        }
      ],
      "name": "LongTermSwapBToA",
      "type": "event"
    },
    {
      "anonymous": false,
      "inputs": [
        {
          "indexed": true,
          "internalType": "address",
          "name": "addr",
          "type": "address"
        },
        {
          "indexed": false,
          "internalType": "uint256",
          "name": "amountAIn",
          "type": "uint256"
        },
        {
          "indexed": false,
          "internalType": "uint256",
          "name": "amountBOut",
          "type": "uint256"
        }
      ],
      "name": "SwapAToB",
      "type": "event"
    },
    {
      "anonymous": false,
      "inputs": [
        {
          "indexed": true,
          "internalType": "address",
          "name": "addr",
          "type": "address"
        },
        {
          "indexed": false,
          "internalType": "uint256",
          "name": "amountBIn",
          "type": "uint256"
        },
        {
          "indexed": false,
          "internalType": "uint256",
          "name": "amountAOut",
          "type": "uint256"
        }
      ],
      "name": "SwapBToA",
      "type": "event"
    },
    {
      "anonymous": false,
      "inputs": [
        {
          "indexed": true,
          "internalType": "address",
          "name": "from",
          "type": "address"
        },
        {
          "indexed": true,
          "internalType": "address",
          "name": "to",
          "type": "address"
        },
        {
          "indexed": false,
          "internalType": "uint256",
          "name": "value",
          "type": "uint256"
        }
      ],
      "name": "Transfer",
      "type": "event"
    },
    {
      "anonymous": false,
      "inputs": [
        {
          "indexed": true,
          "internalType": "address",
          "name": "addr",
          "type": "address"
        },
        {
          "indexed": false,
          "internalType": "uint256",
          "name": "orderId",
          "type": "uint256"
        }
      ],
      "name": "WithdrawProceedsFromLongTermOrder",
      "type": "event"
    },
    {
      "inputs": [],
      "name": "LP_FEE",
      "outputs": [
        {
          "internalType": "uint256",
          "name": "",
          "type": "uint256"
        }
      ],
      "stateMutability": "view",
      "type": "function"
    },
    {
      "inputs": [
        {
          "internalType": "address",
          "name": "owner",
          "type": "address"
        },
        {
          "internalType": "address",
          "name": "spender",
          "type": "address"
        }
      ],
      "name": "allowance",
      "outputs": [
        {
          "internalType": "uint256",
          "name": "",
          "type": "uint256"
        }
      ],
      "stateMutability": "view",
      "type": "function"
    },
    {
      "inputs": [
        {
          "internalType": "address",
          "name": "spender",
          "type": "address"
        },
        {
          "internalType": "uint256",
          "name": "amount",
          "type": "uint256"
        }
      ],
      "name": "approve",
      "outputs": [
        {
          "internalType": "bool",
          "name": "",
          "type": "bool"
        }
      ],
      "stateMutability": "nonpayable",
      "type": "function"
    },
    {
      "inputs": [
        {
          "internalType": "address",
          "name": "account",
          "type": "address"
        }
      ],
      "name": "balanceOf",
      "outputs": [
        {
          "internalType": "uint256",
          "name": "",
          "type": "uint256"
        }
      ],
      "stateMutability": "view",
      "type": "function"
    },
    {
      "inputs": [
        {
          "internalType": "uint256",
          "name": "orderId",
          "type": "uint256"
        }
      ],
      "name": "cancelLongTermSwap",
      "outputs": [],
      "stateMutability": "nonpayable",
      "type": "function"
    },
    {
      "inputs": [],
      "name": "decimals",
      "outputs": [
        {
          "internalType": "uint8",
          "name": "",
          "type": "uint8"
        }
      ],
      "stateMutability": "view",
      "type": "function"
    },
    {
      "inputs": [
        {
          "internalType": "address",
          "name": "spender",
          "type": "address"
        },
        {
          "internalType": "uint256",
          "name": "subtractedValue",
          "type": "uint256"
        }
      ],
      "name": "decreaseAllowance",
      "outputs": [
        {
          "internalType": "bool",
          "name": "",
          "type": "bool"
        }
      ],
      "stateMutability": "nonpayable",
      "type": "function"
    },
    {
      "inputs": [],
      "name": "executeVirtualOrders",
      "outputs": [],
      "stateMutability": "nonpayable",
      "type": "function"
    },
    {
      "inputs": [
        {
          "internalType": "address",
          "name": "spender",
          "type": "address"
        },
        {
          "internalType": "uint256",
          "name": "addedValue",
          "type": "uint256"
        }
      ],
      "name": "increaseAllowance",
      "outputs": [
        {
          "internalType": "bool",
          "name": "",
          "type": "bool"
        }
      ],
      "stateMutability": "nonpayable",
      "type": "function"
    },
    {
      "inputs": [
        {
          "internalType": "uint256",
          "name": "amountAIn",
          "type": "uint256"
        },
        {
          "internalType": "uint256",
          "name": "numberOfBlockIntervals",
          "type": "uint256"
        }
      ],
      "name": "longTermSwapFromAToB",
      "outputs": [],
      "stateMutability": "nonpayable",
      "type": "function"
    },
    {
      "inputs": [
        {
          "internalType": "uint256",
          "name": "amountBIn",
          "type": "uint256"
        },
        {
          "internalType": "uint256",
          "name": "numberOfBlockIntervals",
          "type": "uint256"
        }
      ],
      "name": "longTermSwapFromBToA",
      "outputs": [],
      "stateMutability": "nonpayable",
      "type": "function"
    },
    {
      "inputs": [],
      "name": "name",
      "outputs": [
        {
          "internalType": "string",
          "name": "",
          "type": "string"
        }
      ],
      "stateMutability": "view",
      "type": "function"
    },
    {
      "inputs": [],
      "name": "orderBlockInterval",
      "outputs": [
        {
          "internalType": "uint256",
          "name": "",
          "type": "uint256"
        }
      ],
      "stateMutability": "view",
      "type": "function"
    },
    {
      "inputs": [
        {
          "internalType": "uint256",
          "name": "orderId",
          "type": "uint256"
        }
      ],
      "name": "orderIdStatusCheck",
      "outputs": [
        {
          "internalType": "bool",
          "name": "",
          "type": "bool"
        }
      ],
      "stateMutability": "view",
      "type": "function"
    },
    {
      "inputs": [
        {
          "internalType": "uint256",
          "name": "amountA",
          "type": "uint256"
        },
        {
          "internalType": "uint256",
          "name": "amountB",
          "type": "uint256"
        }
      ],
      "name": "provideInitialLiquidity",
      "outputs": [],
      "stateMutability": "nonpayable",
      "type": "function"
    },
    {
      "inputs": [
        {
          "internalType": "uint256",
          "name": "lpTokenAmount",
          "type": "uint256"
        }
      ],
      "name": "provideLiquidity",
      "outputs": [],
      "stateMutability": "nonpayable",
      "type": "function"
    },
    {
      "inputs": [
        {
          "internalType": "uint256",
          "name": "lpTokenAmount",
          "type": "uint256"
        }
      ],
      "name": "removeLiquidity",
      "outputs": [],
      "stateMutability": "nonpayable",
      "type": "function"
    },
    {
      "inputs": [
        {
          "internalType": "uint256",
          "name": "amountAIn",
          "type": "uint256"
        }
      ],
      "name": "swapFromAToB",
      "outputs": [],
      "stateMutability": "nonpayable",
      "type": "function"
    },
    {
      "inputs": [
        {
          "internalType": "uint256",
          "name": "amountBIn",
          "type": "uint256"
        }
      ],
      "name": "swapFromBToA",
      "outputs": [],
      "stateMutability": "nonpayable",
      "type": "function"
    },
    {
      "inputs": [],
      "name": "symbol",
      "outputs": [
        {
          "internalType": "string",
          "name": "",
          "type": "string"
        }
      ],
      "stateMutability": "view",
      "type": "function"
    },
    {
      "inputs": [],
      "name": "tokenA",
      "outputs": [
        {
          "internalType": "address",
          "name": "",
          "type": "address"
        }
      ],
      "stateMutability": "view",
      "type": "function"
    },
    {
      "inputs": [],
      "name": "tokenAReserves",
      "outputs": [
        {
          "internalType": "uint256",
          "name": "",
          "type": "uint256"
        }
      ],
      "stateMutability": "view",
      "type": "function"
    },
    {
      "inputs": [],
      "name": "tokenB",
      "outputs": [
        {
          "internalType": "address",
          "name": "",
          "type": "address"
        }
      ],
      "stateMutability": "view",
      "type": "function"
    },
    {
      "inputs": [],
      "name": "tokenBReserves",
      "outputs": [
        {
          "internalType": "uint256",
          "name": "",
          "type": "uint256"
        }
      ],
      "stateMutability": "view",
      "type": "function"
    },
    {
      "inputs": [],
      "name": "totalSupply",
      "outputs": [
        {
          "internalType": "uint256",
          "name": "",
          "type": "uint256"
        }
      ],
      "stateMutability": "view",
      "type": "function"
    },
    {
      "inputs": [
        {
          "internalType": "address",
          "name": "recipient",
          "type": "address"
        },
        {
          "internalType": "uint256",
          "name": "amount",
          "type": "uint256"
        }
      ],
      "name": "transfer",
      "outputs": [
        {
          "internalType": "bool",
          "name": "",
          "type": "bool"
        }
      ],
      "stateMutability": "nonpayable",
      "type": "function"
    },
    {
      "inputs": [
        {
          "internalType": "address",
          "name": "sender",
          "type": "address"
        },
        {
          "internalType": "address",
          "name": "recipient",
          "type": "address"
        },
        {
          "internalType": "uint256",
          "name": "amount",
          "type": "uint256"
        }
      ],
      "name": "transferFrom",
      "outputs": [
        {
          "internalType": "bool",
          "name": "",
          "type": "bool"
        }
      ],
      "stateMutability": "nonpayable",
      "type": "function"
    },
    {
      "inputs": [
        {
          "internalType": "address",
          "name": "userAddress",
          "type": "address"
        }
      ],
      "name": "userIdsCheck",
      "outputs": [
        {
          "internalType": "uint256[]",
          "name": "",
          "type": "uint256[]"
        }
      ],
      "stateMutability": "view",
      "type": "function"
    },
    {
      "inputs": [
        {
          "internalType": "uint256",
          "name": "orderId",
          "type": "uint256"
        }
      ],
      "name": "withdrawProceedsFromLongTermSwap",
      "outputs": [],
      "stateMutability": "nonpayable",
      "type": "function"
    }
  ],
  "bytecode": "0x60806040523480156200001157600080fd5b506040516200407338038062004073833981016040819052620000349162000294565b8451859085906200004d90600390602085019062000104565b5080516200006390600490602084019062000104565b5050600580546001600160a01b03199081166001600160a01b038781169190911790925560068054909116918516919091179055506008819055620000b9600984844385620000c4602090811b620010ed17901c565b50505050506200036a565b6002850180546001600160a01b039586166001600160a01b0319918216179091556003860180549490951693169290921790925560018301919091559055565b82805462000112906200032d565b90600052602060002090601f01602090048101928262000136576000855562000181565b82601f106200015157805160ff191683800117855562000181565b8280016001018555821562000181579182015b828111156200018157825182559160200191906001019062000164565b506200018f92915062000193565b5090565b5b808211156200018f576000815560010162000194565b634e487b7160e01b600052604160045260246000fd5b600082601f830112620001d257600080fd5b81516001600160401b0380821115620001ef57620001ef620001aa565b604051601f8301601f19908116603f011681019082821181831017156200021a576200021a620001aa565b816040528381526020925086838588010111156200023757600080fd5b600091505b838210156200025b57858201830151818301840152908201906200023c565b838211156200026d5760008385830101525b9695505050505050565b80516001600160a01b03811681146200028f57600080fd5b919050565b600080600080600060a08688031215620002ad57600080fd5b85516001600160401b0380821115620002c557600080fd5b620002d389838a01620001c0565b96506020880151915080821115620002ea57600080fd5b50620002f988828901620001c0565b9450506200030a6040870162000277565b92506200031a6060870162000277565b9150608086015190509295509295909350565b600181811c908216806200034257607f821691505b602082108114156200036457634e487b7160e01b600052602260045260246000fd5b50919050565b613cf9806200037a6000396000f3fe608060405234801561001057600080fd5b50600436106101cf5760003560e01c806363784245116101045780639c8f9f23116100a2578063ceb2894c11610071578063ceb2894c146103f4578063dd62ed3e14610414578063eb521a4c1461044d578063f8534e401461046057600080fd5b80639c8f9f23146103a8578063a457c2d7146103bb578063a9059cbb146103ce578063a9dd5738146103e157600080fd5b806381fd0a46116100de57806381fd0a4614610367578063855b65d01461037a5780638e91701c1461038d57806395d89b41146103a057600080fd5b8063637842451461031357806366f55ece1461031b57806370a082311461033e57600080fd5b806337bc5e4a116101715780635a9fae6e1161014b5780635a9fae6e146102dc5780635e3f2727146102ef5780635f64b55b146102f757806360a9d5051461030a57600080fd5b806337bc5e4a1461028957806339509351146102a95780633b4a6bc3146102bc57600080fd5b806318160ddd116101ad57806318160ddd146102405780631f4f5b421461025257806323b872dd14610267578063313ce5671461027a57600080fd5b806306fdde03146101d4578063095ea7b3146101f25780630fc63d1014610215575b600080fd5b6101dc610473565b6040516101e9919061391f565b60405180910390f35b6102056102003660046139a9565b610505565b60405190151581526020016101e9565b600554610228906001600160a01b031681565b6040516001600160a01b0390911681526020016101e9565b6002545b6040519081526020016101e9565b6102656102603660046139d3565b61051c565b005b6102056102753660046139ec565b610562565b604051601281526020016101e9565b61029c610297366004613a28565b610628565b6040516101e99190613a43565b6102056102b73660046139a9565b610694565b6005546001600160a01b0316600090815260076020526040902054610244565b6102656102ea3660046139d3565b6106d0565b610244601e81565b600654610228906001600160a01b031681565b61024460085481565b610265610733565b6102056103293660046139d3565b60009081526011602052604090205460ff1690565b61024461034c366004613a28565b6001600160a01b031660009081526020819052604090205490565b6102656103753660046139d3565b610741565b610265610388366004613a87565b610780565b61026561039b366004613a87565b6107d4565b6101dc61081f565b6102656103b63660046139d3565b61082e565b6102056103c93660046139a9565b610aaa565b6102056103dc3660046139a9565b610b5b565b6102656103ef3660046139d3565b610b68565b6006546001600160a01b0316600090815260076020526040902054610244565b610244610422366004613aa9565b6001600160a01b03918216600090815260016020908152604080832093909416825291909152205490565b61026561045b3660046139d3565b610bc3565b61026561046e366004613a87565b610e92565b60606003805461048290613adc565b80601f01602080910402602001604051908101604052809291908181526020018280546104ae90613adc565b80156104fb5780601f106104d0576101008083540402835291602001916104fb565b820191906000526020600020905b8154815290600101906020018083116104de57829003601f168201915b5050505050905090565b6000610512338484611145565b5060015b92915050565b610529600982600761129d565b60405181815233907fec1efa7415f20eabaabbfdfc33d5c736e9d413afcc9dedd898c035c0d1889eaa906020015b60405180910390a250565b600061056f8484846114cb565b6001600160a01b03841660009081526001602090815260408083203384529091529020548281101561060e5760405162461bcd60e51b815260206004820152602860248201527f45524332303a207472616e7366657220616d6f756e742065786365656473206160448201527f6c6c6f77616e636500000000000000000000000000000000000000000000000060648201526084015b60405180910390fd5b61061b8533858403611145565b60019150505b9392505050565b6001600160a01b03811660009081526010602090815260409182902080548351818402810184019094528084526060939283018282801561068857602002820191906000526020600020905b815481526020019060010190808311610674575b50505050509050919050565b3360008181526001602090815260408083206001600160a01b038716845290915281205490916105129185906106cb908690613b2d565b611145565b6005546006546000916106f0916001600160a01b039182169116846116e3565b604080518481526020810183905291925033917f1a442df1f5a0e29117f2a0d6ceb8d5db8b4e68203b0d5edac8e267920708522e91015b60405180910390a25050565b61073f60096007611924565b565b61074e6009826007611997565b60405181815233907fe91f05f05f7e013ffc245507e3fd86ec0ca1d2f5ab431eea8827cc80f303bf7a90602001610557565b6000610790600984846007611b2e565b604080518581526020810183905291925033917f3f9021da39409c8415526f6f5150f90f549aff31c146178262479dd87789440091015b60405180910390a2505050565b60006107e4600984846007611b5f565b604080518581526020810183905291925033917f3118cfac1ed5d8e668c193690497d56fff82f1aabbdf08f598025b0dfe30872791016107c7565b60606004805461048290613adc565b6002548111156108805760405162461bcd60e51b815260206004820152601e60248201527f6e6f7420656e6f756768206c7020746f6b656e7320617661696c61626c6500006044820152606401610605565b61088c60096007611924565b600061089760025490565b6005546001600160a01b03166000908152600760205260409020546108bd908490613b45565b6108c79190613b7a565b905060006108d460025490565b6006546001600160a01b03166000908152600760205260409020546108fa908590613b45565b6109049190613b7a565b60055460405163a9059cbb60e01b8152336004820152602481018590529192506001600160a01b03169063a9059cbb90604401602060405180830381600087803b15801561095157600080fd5b505af1158015610965573d6000803e3d6000fd5b505050506040513d601f19601f820116820180604052508101906109899190613b8e565b5060065460405163a9059cbb60e01b8152336004820152602481018390526001600160a01b039091169063a9059cbb90604401602060405180830381600087803b1580156109d657600080fd5b505af11580156109ea573d6000803e3d6000fd5b505050506040513d601f19601f82011682018060405250810190610a0e9190613b8e565b506005546001600160a01b031660009081526007602052604081208054849290610a39908490613bb0565b90915550506006546001600160a01b031660009081526007602052604081208054839290610a68908490613bb0565b90915550610a7890503384611b87565b60405183815233907fc2c3f06e49b9f15e7b4af9055e183b0d73362e033ad82a07dec9bf9840171719906020016107c7565b3360009081526001602090815260408083206001600160a01b038616845290915281205482811015610b445760405162461bcd60e51b815260206004820152602560248201527f45524332303a2064656372656173656420616c6c6f77616e63652062656c6f7760448201527f207a65726f0000000000000000000000000000000000000000000000000000006064820152608401610605565b610b513385858403611145565b5060019392505050565b60006105123384846114cb565b600654600554600091610b88916001600160a01b039182169116846116e3565b604080518481526020810183905291925033917f1201e4c6b2a8cfdbb8440a213b3b16f2e11b23315ddb1751c9522fa3f3e6b3559101610727565b600254610c5e5760405162461bcd60e51b815260206004820152604860248201527f6e6f206c697175696469747920686173206265656e2070726f7669646564207960448201527f65742c206e65656420746f2063616c6c2070726f76696465496e697469616c4c60648201527f6971756964697479000000000000000000000000000000000000000000000000608482015260a401610605565b610c6a60096007611924565b6000610c7560025490565b6005546001600160a01b0316600090815260076020526040902054610c9a9084613b45565b610ca49190613b7a565b90506000610cb160025490565b6006546001600160a01b0316600090815260076020526040902054610cd69085613b45565b610ce09190613b7a565b6005546040516323b872dd60e01b8152336004820152306024820152604481018590529192506001600160a01b0316906323b872dd90606401602060405180830381600087803b158015610d3357600080fd5b505af1158015610d47573d6000803e3d6000fd5b505050506040513d601f19601f82011682018060405250810190610d6b9190613b8e565b506006546040516323b872dd60e01b8152336004820152306024820152604481018390526001600160a01b03909116906323b872dd90606401602060405180830381600087803b158015610dbe57600080fd5b505af1158015610dd2573d6000803e3d6000fd5b505050506040513d601f19601f82011682018060405250810190610df69190613b8e565b506005546001600160a01b031660009081526007602052604081208054849290610e21908490613b2d565b90915550506006546001600160a01b031660009081526007602052604081208054839290610e50908490613b2d565b90915550610e6090503384611d0c565b60405183815233907fccb2ae3a2936bf4c94fa4e12cdf0cdad6ed0e4888a044cef89afa60f2e4b92d3906020016107c7565b60025415610f2e5760405162461bcd60e51b815260206004820152604260248201527f6c69717569646974792068617320616c7265616479206265656e2070726f766960448201527f6465642c206e65656420746f2063616c6c2070726f766964654c69717569646960648201527f7479000000000000000000000000000000000000000000000000000000000000608482015260a401610605565b6005546040516323b872dd60e01b8152336004820152306024820152604481018490526001600160a01b03909116906323b872dd90606401602060405180830381600087803b158015610f8057600080fd5b505af1158015610f94573d6000803e3d6000fd5b505050506040513d601f19601f82011682018060405250810190610fb89190613b8e565b506006546040516323b872dd60e01b8152336004820152306024820152604481018390526001600160a01b03909116906323b872dd90606401602060405180830381600087803b15801561100b57600080fd5b505af115801561101f573d6000803e3d6000fd5b505050506040513d601f19601f820116820180604052508101906110439190613b8e565b506005546001600160a01b0390811660009081526007602052604080822085905560065490921681529081208290556110a961109b61108961108485611dec565b611e52565b61109561108487611dec565b90611ebd565b670de0b6b3a7640000900490565b90506110b53382611d0c565b604080518481526020810184905233917f6f6e8d9cc87c64a4776e719d1ad22f4b0b45089829effa9a2a8cddbdbc43b62b91016107c7565b6002850180546001600160a01b039586167fffffffffffffffffffffffff0000000000000000000000000000000000000000918216179091556003860180549490951693169290921790925560018301919091559055565b6001600160a01b0383166111c05760405162461bcd60e51b8152602060048201526024808201527f45524332303a20617070726f76652066726f6d20746865207a65726f2061646460448201527f72657373000000000000000000000000000000000000000000000000000000006064820152608401610605565b6001600160a01b03821661123c5760405162461bcd60e51b815260206004820152602260248201527f45524332303a20617070726f766520746f20746865207a65726f20616464726560448201527f73730000000000000000000000000000000000000000000000000000000000006064820152608401610605565b6001600160a01b0383811660008181526001602090815260408083209487168084529482529182902085905590518481527f8c5be1e5ebec7d5bd14f71427d1e84f3dd0314c0f7b2291e5b200ac8c7c3b925910160405180910390a3505050565b6112a78382611924565b6000828152600684016020526040902060038101546001600160a01b031633146113135760405162461bcd60e51b815260206004820152601a60248201527f73656e646572206d757374206265206f72646572206f776e65720000000000006044820152606401610605565b6004818101546001600160a01b0316600090815290850160205260408120908061133d8387611ec9565b9150915060008211806113505750600081115b61139c5760405162461bcd60e51b815260206004820152601760248201527f6e6f2070726f636565647320746f2077697468647261770000000000000000006044820152606401610605565b600584015460405163a9059cbb60e01b8152336004820152602481018390526001600160a01b039091169063a9059cbb90604401602060405180830381600087803b1580156113ea57600080fd5b505af11580156113fe573d6000803e3d6000fd5b505050506040513d601f19601f820116820180604052508101906114229190613b8e565b5060048481015460405163a9059cbb60e01b81523392810192909252602482018490526001600160a01b03169063a9059cbb90604401602060405180830381600087803b15801561147257600080fd5b505af1158015611486573d6000803e3d6000fd5b505050506040513d601f19601f820116820180604052508101906114aa9190613b8e565b5050506000938452505050600890910160205260409020805460ff19169055565b6001600160a01b0383166115475760405162461bcd60e51b815260206004820152602560248201527f45524332303a207472616e736665722066726f6d20746865207a65726f20616460448201527f64726573730000000000000000000000000000000000000000000000000000006064820152608401610605565b6001600160a01b0382166115c35760405162461bcd60e51b815260206004820152602360248201527f45524332303a207472616e7366657220746f20746865207a65726f206164647260448201527f65737300000000000000000000000000000000000000000000000000000000006064820152608401610605565b6001600160a01b038316600090815260208190526040902054818110156116525760405162461bcd60e51b815260206004820152602660248201527f45524332303a207472616e7366657220616d6f756e742065786365656473206260448201527f616c616e636500000000000000000000000000000000000000000000000000006064820152608401610605565b6001600160a01b03808516600090815260208190526040808220858503905591851681529081208054849290611689908490613b2d565b92505081905550826001600160a01b0316846001600160a01b03167fddf252ad1be2c89b69c2b068fc378daa952ba7f163c4a11628f55a4df523b3ef846040516116d591815260200190565b60405180910390a350505050565b60008082116117345760405162461bcd60e51b815260206004820152601c60248201527f7377617020616d6f756e74206d75737420626520706f736974697665000000006044820152606401610605565b61174060096007611924565b6001600160a01b038416600090815260076020526040812054611764908490613b2d565b6001600160a01b038516600090815260076020526040902054611788908590613b45565b6117929190613b7a565b90506127106117a2601e82613bb0565b6117ac9083613b45565b6117b69190613b7a565b6040516323b872dd60e01b8152336004820152306024820152604481018590529092506001600160a01b038616906323b872dd90606401602060405180830381600087803b15801561180757600080fd5b505af115801561181b573d6000803e3d6000fd5b505050506040513d601f19601f8201168201806040525081019061183f9190613b8e565b5060405163a9059cbb60e01b8152336004820152602481018390526001600160a01b0385169063a9059cbb90604401602060405180830381600087803b15801561188857600080fd5b505af115801561189c573d6000803e3d6000fd5b505050506040513d601f19601f820116820180604052508101906118c09190613b8e565b506001600160a01b038516600090815260076020526040812080548592906118e9908490613b2d565b90915550506001600160a01b03841660009081526007602052604081208054849290611916908490613bb0565b909155509195945050505050565b815460018301546000919061193a908290613bc7565b84600101546119499190613bb0565b6119539190613b2d565b90505b4381101561197c57611969838383611ff1565b82546119759082613b2d565b9050611956565b4383600101541461199257611992838343611ff1565b505050565b6119a18382611924565b6000828152600684016020526040902060038101546001600160a01b03163314611a0d5760405162461bcd60e51b815260206004820152601a60248201527f73656e646572206d757374206265206f72646572206f776e65720000000000006044820152606401610605565b6004818101546001600160a01b031660009081529085016020526040812090611a3682866121f5565b905060008111611a885760405162461bcd60e51b815260206004820152601760248201527f6e6f2070726f636565647320746f2077697468647261770000000000000000006044820152606401610605565b600583015460405163a9059cbb60e01b8152336004820152602481018390526001600160a01b039091169063a9059cbb90604401602060405180830381600087803b158015611ad657600080fd5b505af1158015611aea573d6000803e3d6000fd5b505050506040513d601f19601f82011682018060405250810190611b0e9190613b8e565b50505060009283525050600890910160205260409020805460ff19169055565b60038401546002850154600091611b569187916001600160a01b039081169116878787612325565b95945050505050565b60028401546003850154600091611b569187916001600160a01b039081169116878787612325565b6001600160a01b038216611c035760405162461bcd60e51b815260206004820152602160248201527f45524332303a206275726e2066726f6d20746865207a65726f2061646472657360448201527f73000000000000000000000000000000000000000000000000000000000000006064820152608401610605565b6001600160a01b03821660009081526020819052604090205481811015611c925760405162461bcd60e51b815260206004820152602260248201527f45524332303a206275726e20616d6f756e7420657863656564732062616c616e60448201527f63650000000000000000000000000000000000000000000000000000000000006064820152608401610605565b6001600160a01b0383166000908152602081905260408120838303905560028054849290611cc1908490613bb0565b90915550506040518281526000906001600160a01b038516907fddf252ad1be2c89b69c2b068fc378daa952ba7f163c4a11628f55a4df523b3ef9060200160405180910390a3505050565b6001600160a01b038216611d625760405162461bcd60e51b815260206004820152601f60248201527f45524332303a206d696e7420746f20746865207a65726f2061646472657373006044820152606401610605565b8060026000828254611d749190613b2d565b90915550506001600160a01b03821660009081526020819052604081208054839290611da1908490613b2d565b90915550506040518181526001600160a01b038316906000907fddf252ad1be2c89b69c2b068fc378daa952ba7f163c4a11628f55a4df523b3ef9060200160405180910390a35b5050565b60007812725dd1d243aba0e75fe645cc4873f9e65afe688c928e1f21821115611e44576040517f3492ffd900000000000000000000000000000000000000000000000000000000815260048101839052602401610605565b50670de0b6b3a76400000290565b60007812725dd1d243aba0e75fe645cc4873f9e65afe688c928e1f21821115611eaa576040517f6155b67d00000000000000000000000000000000000000000000000000000000815260048101839052602401610605565b610516670de0b6b3a764000083026125fb565b60006106218383612783565b60008181526003830160205260408120548190438111611f2b5760405162461bcd60e51b815260206004820152601660248201527f6f7264657220616c72656164792066696e6973686564000000000000000000006044820152606401610605565b600084815260048601602052604081205490611f474384613bb0565b9050611f538282613b45565b6000878152600589016020526040902054909550611f8661109b611f7685611dec565b838b600101546110959190613bb0565b945082886000016000828254611f9c9190613bb0565b90915550506000878152600489016020908152604080832083905560038b01825280832083905586835260028b0190915281208054859290611fdf908490613bb0565b92505081905550505050509250929050565b60008360010154826120039190613bb0565b60028501546001600160a01b0316600090815260048601602052604081205491925090612031908390613b45565b60038601546001600160a01b031660009081526004870160205260408120549192509061205f908490613b45565b60028701546001600160a01b039081166000908152602088905260408082205460038b015490931682528120549293509091908080806120a186868a8a612878565b9350935093509350818b60008e60020160009054906101000a90046001600160a01b03166001600160a01b03166001600160a01b0316815260200190815260200160002081905550808b60008e60030160009054906101000a90046001600160a01b03166001600160a01b03166001600160a01b031681526020019081526020016000208190555060008c60040160008e60020160009054906101000a90046001600160a01b03166001600160a01b03166001600160a01b03168152602001908152602001600020905060008d60040160008f60030160009054906101000a90046001600160a01b03166001600160a01b03166001600160a01b0316815260200190815260200160002090506121c08583612a1490919063ffffffff16565b6121ca8187612a14565b6121d4828d612a56565b6121de818d612a56565b505050506001909901969096555050505050505050565b6000818152600483016020526040812054806122795760405162461bcd60e51b815260206004820152602260248201527f73616c6573207261746520616d6f756e74206d75737420626520706f7369746960448201527f76650000000000000000000000000000000000000000000000000000000000006064820152608401610605565b60008381526003850160209081526040808320546005880190925290912054438210156122e45760008281526006870160205260409020546122ca61109b6122c086611dec565b6110958585613bb0565b6000878152600489016020526040812055945061231c9050565b61230361109b6122f385611dec565b8389600101546110959190613bb0565b6001870154600087815260058901602052604090205593505b50505092915050565b60006123318783611924565b6040516323b872dd60e01b8152336004820152306024820152604481018590526001600160a01b038716906323b872dd90606401602060405180830381600087803b15801561237f57600080fd5b505af1158015612393573d6000803e3d6000fd5b505050506040513d601f19601f820116820180604052508101906123b79190613b8e565b50865443906000906123c99083613bc7565b6123d39083613bb0565b90506000816123e3876001613b2d565b8b546123ef9190613b45565b6123f99190613b2d565b905060006124078483613bb0565b6124119089613b7a565b6001600160a01b038b16600090815260048d016020526040902060058d0154919250906124419082908486612a9a565b6040518060c001604052808d600501548152602001848152602001838152602001336001600160a01b031681526020018c6001600160a01b031681526020018b6001600160a01b03168152508c60060160008e60050154815260200190815260200160002060008201518160000155602082015181600101556040820151816002015560608201518160030160006101000a8154816001600160a01b0302191690836001600160a01b0316021790555060808201518160040160006101000a8154816001600160a01b0302191690836001600160a01b0316021790555060a08201518160050160006101000a8154816001600160a01b0302191690836001600160a01b031602179055509050508b6007016000336001600160a01b03166001600160a01b031681526020019081526020016000208c60050154908060018154018082558091505060019003906000526020600020016000909190919091505560018c60080160008e60050154815260200190815260200160002060006101000a81548160ff0219169083151502179055508b60050160008154809291906125e790613bdb565b909155509c9b505050505050505050505050565b60008161260a57506000919050565b5060018170010000000000000000000000000000000081106126315760409190911b9060801c5b68010000000000000000811061264c5760209190911b9060401c5b64010000000081106126635760109190911b9060201c5b6201000081106126785760089190911b9060101c5b610100811061268c5760049190911b9060081c5b6010811061269f5760029190911b9060041c5b600881106126af57600182901b91505b60018284816126c0576126c0613b64565b048301901c915060018284816126d8576126d8613b64565b048301901c915060018284816126f0576126f0613b64565b048301901c9150600182848161270857612708613b64565b048301901c9150600182848161272057612720613b64565b048301901c9150600182848161273857612738613b64565b048301901c9150600182848161275057612750613b64565b048301901c9150600082848161276857612768613b64565b04905080831015612779578261277b565b805b949350505050565b60008080600019848609848602925082811083820303915050670de0b6b3a764000081106127e0576040517fd31b340200000000000000000000000000000000000000000000000000000000815260048101829052602401610605565b600080670de0b6b3a76400008688099150506706f05b59d3b1ffff81118261281a5780670de0b6b3a7640000850401945050505050610516565b6204000082850304939091119091037d40000000000000000000000000000000000000000000000000000000000002919091177faccb18165bd6fe31ae1cf318dc5b51eee0e1ba569b88cd74c1773b91fac106690201905092915050565b600080808085158015612889575084155b1561289f57506000925082915086905085612a09565b856128e5576128ae8588613b2d565b6128b8868a613b45565b6128c29190613b7a565b9350600092506128d28489613bb0565b91506128de8588613b2d565b9050612a09565b8461292457600093506128f88689613b2d565b6129028789613b45565b61290c9190613b7a565b92506129188689613b2d565b91506128de8388613bb0565b600061292f87612b0e565b9050600061293c87612b0e565b905060006129498b612b0e565b905060006129568b612b0e565b905060006129648383612bc3565b9050600061297484848888612cd3565b90506000612986878784868989612d30565b9050600061299e856129988885612dd5565b90612bc3565b90506000826129ad8a89613bf6565b6129b79190613c4e565b90506000826129c68a89613bf6565b6129d09190613c4e565b90506129db82612ee6565b6129e482612ee6565b6129ed86612ee6565b6129f686612ee6565b9d509d509d509d50505050505050505050505b945094509450949050565b815415611de857612a3a612a2b8360000154611dec565b612a3483611dec565b90612efa565b826001016000828254612a4d9190613b2d565b90915550505050565b6000818152600283016020526040812054835490918291859190612a7b908490613bb0565b9091555050506001820154600091825260069092016020526040902055565b81846000016000828254612aae9190613b2d565b9091555050600184015460008481526005860160209081526040808320939093556003870181528282208490556004870181528282208590558382526002870190529081208054849290612b03908490613b2d565b909155505050505050565b60007ffffffffffffffff6c6d11716de2a2f8c500cdd19dbc6030cd280cbb9b6b8f070821215612b6d576040517fe608e18b00000000000000000000000000000000000000000000000000000000815260048101839052602401610605565b7809392ee8e921d5d073aff322e62439fcf32d7f344649470f90821315611e44576040517f71f72a3100000000000000000000000000000000000000000000000000000000815260048101839052602401610605565b6000600160ff1b831480612bda5750600160ff1b82145b15612c11576040517f3406846c00000000000000000000000000000000000000000000000000000000815260040160405180910390fd5b60008060008512612c225784612c27565b846000035b915060008412612c375783612c3c565b836000035b90506000612c4a8383612783565b90507f7fffffffffffffffffffffffffffffffffffffffffffffffffffffffffffffff811115612ca9576040517fbf79e8d900000000000000000000000000000000000000000000000000000000815260048101829052602401610605565b600019808713908613808218600114612cc25782612cc7565b826000035b98975050505050505050565b600080612ceb612ce284612f0f565b61299888612f0f565b90506000612cfb612ce286612f0f565b90506000612d098284613c4e565b90506000612d178385613bf6565b9050612d238282612dd5565b9998505050505050505050565b600080612d4d612d48886129988b6129986004612b0e565b612f0f565b90506000612d65612d60612ce286612f0f565b612fa4565b90506000612d7b612d768484612bc3565b612fc4565b90506000612d9c612d8c8a84613c4e565b612d968b85613bf6565b90612dd5565b90506000612db9612dac8d612f0f565b612998612d488c8f612dd5565b9050612dc58282612bc3565b9c9b505050505050505050505050565b6000600160ff1b831480612dec5750600160ff1b82145b15612e23576040517fb3c754a300000000000000000000000000000000000000000000000000000000815260040160405180910390fd5b60008060008512612e345784612e39565b846000035b915060008412612e495783612e4e565b836000035b90506000612e6583670de0b6b3a764000084613063565b90507f7fffffffffffffffffffffffffffffffffffffffffffffffffffffffffffffff811115612ec4576040517f7cb4bef500000000000000000000000000000000000000000000000000000000815260048101829052602401610605565b600019808713908613808218600114612edd5782612cc7565b612cc783613ca6565b6000670de0b6b3a7640000825b0592915050565b600061062183670de0b6b3a764000084613063565b600080821215612f4e576040517fc11907fe00000000000000000000000000000000000000000000000000000000815260048101839052602401610605565b7809392ee8e921d5d073aff322e62439fcf32d7f344649470f90821315611eaa576040517f2c482c3900000000000000000000000000000000000000000000000000000000815260048101839052602401610605565b6000816ec097ce7bc90715b34b9f100000000081612ef357612ef3613b64565b60007ffffffffffffffffffffffffffffffffffffffffffffffffdc0d0570925a462ce821215612ff657506000919050565b680736ea4425c11ac631821261303b576040517f99bb754100000000000000000000000000000000000000000000000000000000815260048101839052602401610605565b6714057b7ef767814f8202610621670de0b6b3a76400006706f05b59d3b2000083010561314a565b60008080600019858709858702925082811083820303915050806000141561309e5783828161309457613094613b64565b0492505050610621565b8381106130e1576040517f773cc18c0000000000000000000000000000000000000000000000000000000081526004810182905260248101859052604401610605565b60008486880960026001871981018816978890046003810283188082028403028082028403028082028403028082028403028082028403029081029092039091026000889003889004909101858311909403939093029303949094049190911702949350505050565b6000808212156131ad577ffffffffffffffffffffffffffffffffffffffffffffffffcc22e87f6eb468eeb82121561318457506000919050565b6131908260000361314a565b6ec097ce7bc90715b34b9f100000000081612ef357612ef3613b64565b680a688906bd8b00000082126131f2576040517fe69458f900000000000000000000000000000000000000000000000000000000815260048101839052602401610605565b670de0b6b3a7640000604083901b046106218161320f565b919050565b778000000000000000000000000000000000000000000000006780000000000000008216156132475768016a09e667f3bcc9090260401c5b674000000000000000821615613266576801306fe0a31b7152df0260401c5b672000000000000000821615613285576801172b83c7d517adce0260401c5b6710000000000000008216156132a45768010b5586cf9890f62a0260401c5b6708000000000000008216156132c3576801059b0d31585743ae0260401c5b6704000000000000008216156132e257680102c9a3e778060ee70260401c5b6702000000000000008216156133015768010163da9fb33356d80260401c5b67010000000000000082161561332057680100b1afa5abcbed610260401c5b668000000000000082161561333e5768010058c86da1c09ea20260401c5b664000000000000082161561335c576801002c605e2e8cec500260401c5b662000000000000082161561337a57680100162f3904051fa10260401c5b6610000000000000821615613398576801000b175effdc76ba0260401c5b66080000000000008216156133b657680100058ba01fb9f96d0260401c5b66040000000000008216156133d45768010002c5cc37da94920260401c5b66020000000000008216156133f2576801000162e525ee05470260401c5b66010000000000008216156134105768010000b17255775c040260401c5b6580000000000082161561342d576801000058b91b5bc9ae0260401c5b6540000000000082161561344a57680100002c5c89d5ec6d0260401c5b652000000000008216156134675768010000162e43f4f8310260401c5b6510000000000082161561348457680100000b1721bcfc9a0260401c5b650800000000008216156134a15768010000058b90cf1e6e0260401c5b650400000000008216156134be576801000002c5c863b73f0260401c5b650200000000008216156134db57680100000162e430e5a20260401c5b650100000000008216156134f8576801000000b1721835510260401c5b64800000000082161561351457680100000058b90c0b490260401c5b6440000000008216156135305768010000002c5c8601cc0260401c5b64200000000082161561354c576801000000162e42fff00260401c5b6410000000008216156135685768010000000b17217fbb0260401c5b640800000000821615613584576801000000058b90bfce0260401c5b6404000000008216156135a057680100000002c5c85fe30260401c5b6402000000008216156135bc5768010000000162e42ff10260401c5b6401000000008216156135d857680100000000b17217f80260401c5b63800000008216156135f35768010000000058b90bfc0260401c5b634000000082161561360e576801000000002c5c85fe0260401c5b632000000082161561362957680100000000162e42ff0260401c5b6310000000821615613644576801000000000b17217f0260401c5b630800000082161561365f57680100000000058b90c00260401c5b630400000082161561367a5768010000000002c5c8600260401c5b6302000000821615613695576801000000000162e4300260401c5b63010000008216156136b05768010000000000b172180260401c5b628000008216156136ca576801000000000058b90c0260401c5b624000008216156136e457680100000000002c5c860260401c5b622000008216156136fe5768010000000000162e430260401c5b6210000082161561371857680100000000000b17210260401c5b620800008216156137325768010000000000058b910260401c5b6204000082161561374c576801000000000002c5c80260401c5b6202000082161561376657680100000000000162e40260401c5b62010000821615613780576801000000000000b1720260401c5b61800082161561379957680100000000000058b90260401c5b6140008216156137b25768010000000000002c5d0260401c5b6120008216156137cb576801000000000000162e0260401c5b6110008216156137e45768010000000000000b170260401c5b6108008216156137fd576801000000000000058c0260401c5b61040082161561381657680100000000000002c60260401c5b61020082161561382f57680100000000000001630260401c5b61010082161561384857680100000000000000b10260401c5b608082161561386057680100000000000000590260401c5b6040821615613878576801000000000000002c0260401c5b602082161561389057680100000000000000160260401c5b60108216156138a8576801000000000000000b0260401c5b60088216156138c057680100000000000000060260401c5b60048216156138d857680100000000000000030260401c5b60028216156138f057680100000000000000010260401c5b600182161561390857680100000000000000010260401c5b670de0b6b3a76400000260409190911c60bf031c90565b600060208083528351808285015260005b8181101561394c57858101830151858201604001528201613930565b8181111561395e576000604083870101525b50601f017fffffffffffffffffffffffffffffffffffffffffffffffffffffffffffffffe016929092016040019392505050565b80356001600160a01b038116811461320a57600080fd5b600080604083850312156139bc57600080fd5b6139c583613992565b946020939093013593505050565b6000602082840312156139e557600080fd5b5035919050565b600080600060608486031215613a0157600080fd5b613a0a84613992565b9250613a1860208501613992565b9150604084013590509250925092565b600060208284031215613a3a57600080fd5b61062182613992565b6020808252825182820181905260009190848201906040850190845b81811015613a7b57835183529284019291840191600101613a5f565b50909695505050505050565b60008060408385031215613a9a57600080fd5b50508035926020909101359150565b60008060408385031215613abc57600080fd5b613ac583613992565b9150613ad360208401613992565b90509250929050565b600181811c90821680613af057607f821691505b60208210811415613b1157634e487b7160e01b600052602260045260246000fd5b50919050565b634e487b7160e01b600052601160045260246000fd5b60008219821115613b4057613b40613b17565b500190565b6000816000190483118215151615613b5f57613b5f613b17565b500290565b634e487b7160e01b600052601260045260246000fd5b600082613b8957613b89613b64565b500490565b600060208284031215613ba057600080fd5b8151801515811461062157600080fd5b600082821015613bc257613bc2613b17565b500390565b600082613bd657613bd6613b64565b500690565b6000600019821415613bef57613bef613b17565b5060010190565b6000808212827f7fffffffffffffffffffffffffffffffffffffffffffffffffffffffffffffff03841381151615613c3057613c30613b17565b82600160ff1b038412811615613c4857613c48613b17565b50500190565b600080831283600160ff1b01831281151615613c6c57613c6c613b17565b837f7fffffffffffffffffffffffffffffffffffffffffffffffffffffffffffffff018313811615613ca057613ca0613b17565b50500390565b6000600160ff1b821415613cbc57613cbc613b17565b506000039056fea26469706673582212200b34bed3c685a9259b2796070072f27bccc545dbcca8d16f34260d7b45a1a07664736f6c63430008090033",
  "linkReferences": {},
  "deployedLinkReferences": {}
}