{
  "_format": "hh-sol-artifact-1",
  "contractName": "TWAMM",
  "sourceName": "contracts/TWAMM.sol",
  "abi": [
    {
      "inputs": [
        {
          "internalType": "address",
          "name": "_factory",
          "type": "address"
        },
        {
          "internalType": "address",
          "name": "_WETH",
          "type": "address"
        }
      ],
      "stateMutability": "nonpayable",
      "type": "constructor"
    },
    {
      "inputs": [],
      "name": "WETH",
      "outputs": [
        {
          "internalType": "address",
          "name": "",
          "type": "address"
        }
      ],
      "stateMutability": "view",
      "type": "function"
    },
    {
      "inputs": [
        {
          "internalType": "address",
          "name": "token0",
          "type": "address"
        },
        {
          "internalType": "address",
          "name": "token1",
          "type": "address"
        },
        {
          "internalType": "uint256",
          "name": "amount0",
          "type": "uint256"
        },
        {
          "internalType": "uint256",
          "name": "amount1",
          "type": "uint256"
        },
        {
          "internalType": "uint256",
          "name": "deadline",
          "type": "uint256"
        }
      ],
      "name": "addInitialLiquidity",
      "outputs": [],
      "stateMutability": "nonpayable",
      "type": "function"
    },
    {
      "inputs": [
        {
          "internalType": "address",
          "name": "token",
          "type": "address"
        },
        {
          "internalType": "uint256",
          "name": "amountToken",
          "type": "uint256"
        },
        {
          "internalType": "uint256",
          "name": "amountETH",
          "type": "uint256"
        },
        {
          "internalType": "uint256",
          "name": "deadline",
          "type": "uint256"
        }
      ],
      "name": "addInitialLiquidityETH",
      "outputs": [],
      "stateMutability": "payable",
      "type": "function"
    },
    {
      "inputs": [
        {
          "internalType": "address",
          "name": "token0",
          "type": "address"
        },
        {
          "internalType": "address",
          "name": "token1",
          "type": "address"
        },
        {
          "internalType": "uint256",
          "name": "lpTokenAmount",
          "type": "uint256"
        },
        {
          "internalType": "uint256",
          "name": "deadline",
          "type": "uint256"
        }
      ],
      "name": "addLiquidity",
      "outputs": [],
      "stateMutability": "nonpayable",
      "type": "function"
    },
    {
      "inputs": [
        {
          "internalType": "address",
          "name": "token",
          "type": "address"
        },
        {
          "internalType": "uint256",
          "name": "lpTokenAmount",
          "type": "uint256"
        },
        {
          "internalType": "uint256",
          "name": "deadline",
          "type": "uint256"
        }
      ],
      "name": "addLiquidityETH",
      "outputs": [],
      "stateMutability": "payable",
      "type": "function"
    },
    {
      "inputs": [
        {
          "internalType": "address",
          "name": "token0",
          "type": "address"
        },
        {
          "internalType": "address",
          "name": "token1",
          "type": "address"
        },
        {
          "internalType": "uint256",
          "name": "orderId",
          "type": "uint256"
        },
        {
          "internalType": "uint256",
          "name": "deadline",
          "type": "uint256"
        }
      ],
      "name": "cancelTermSwap",
      "outputs": [],
      "stateMutability": "nonpayable",
      "type": "function"
    },
    {
      "inputs": [],
      "name": "factory",
      "outputs": [
        {
          "internalType": "address",
          "name": "",
          "type": "address"
        }
      ],
      "stateMutability": "view",
      "type": "function"
    },
    {
      "inputs": [
        {
          "internalType": "address",
          "name": "token",
          "type": "address"
        },
        {
          "internalType": "uint256",
          "name": "amountETHIn",
          "type": "uint256"
        },
        {
          "internalType": "uint256",
          "name": "deadline",
          "type": "uint256"
        }
      ],
      "name": "instantSwapETHToToken",
      "outputs": [],
      "stateMutability": "payable",
      "type": "function"
    },
    {
      "inputs": [
        {
          "internalType": "address",
          "name": "token",
          "type": "address"
        },
        {
          "internalType": "uint256",
          "name": "amountTokenIn",
          "type": "uint256"
        },
        {
          "internalType": "uint256",
          "name": "deadline",
          "type": "uint256"
        }
      ],
      "name": "instantSwapTokenToETH",
      "outputs": [],
      "stateMutability": "nonpayable",
      "type": "function"
    },
    {
      "inputs": [
        {
          "internalType": "address",
          "name": "token0",
          "type": "address"
        },
        {
          "internalType": "address",
          "name": "token1",
          "type": "address"
        },
        {
          "internalType": "uint256",
          "name": "amountIn",
          "type": "uint256"
        },
        {
          "internalType": "uint256",
          "name": "deadline",
          "type": "uint256"
        }
      ],
      "name": "instantSwapTokenToToken",
      "outputs": [],
      "stateMutability": "nonpayable",
      "type": "function"
    },
    {
      "inputs": [
        {
          "internalType": "address",
          "name": "token",
          "type": "address"
        },
        {
          "internalType": "uint256",
          "name": "amountETHIn",
          "type": "uint256"
        },
        {
          "internalType": "uint256",
          "name": "numberOfBlockIntervals",
          "type": "uint256"
        },
        {
          "internalType": "uint256",
          "name": "deadline",
          "type": "uint256"
        }
      ],
      "name": "termSwapETHToToken",
      "outputs": [],
      "stateMutability": "payable",
      "type": "function"
    },
    {
      "inputs": [
        {
          "internalType": "address",
          "name": "token",
          "type": "address"
        },
        {
          "internalType": "uint256",
          "name": "amountTokenIn",
          "type": "uint256"
        },
        {
          "internalType": "uint256",
          "name": "numberOfBlockIntervals",
          "type": "uint256"
        },
        {
          "internalType": "uint256",
          "name": "deadline",
          "type": "uint256"
        }
      ],
      "name": "termSwapTokenToETH",
      "outputs": [],
      "stateMutability": "nonpayable",
      "type": "function"
    },
    {
      "inputs": [
        {
          "internalType": "address",
          "name": "token0",
          "type": "address"
        },
        {
          "internalType": "address",
          "name": "token1",
          "type": "address"
        },
        {
          "internalType": "uint256",
          "name": "amountIn",
          "type": "uint256"
        },
        {
          "internalType": "uint256",
          "name": "numberOfBlockIntervals",
          "type": "uint256"
        },
        {
          "internalType": "uint256",
          "name": "deadline",
          "type": "uint256"
        }
      ],
      "name": "termSwapTokenToToken",
      "outputs": [],
      "stateMutability": "nonpayable",
      "type": "function"
    },
    {
      "inputs": [
        {
          "internalType": "address",
          "name": "token0",
          "type": "address"
        },
        {
          "internalType": "address",
          "name": "token1",
          "type": "address"
        },
        {
          "internalType": "uint256",
          "name": "lpTokenAmount",
          "type": "uint256"
        },
        {
          "internalType": "uint256",
          "name": "deadline",
          "type": "uint256"
        }
      ],
      "name": "withdrawLiquidity",
      "outputs": [],
      "stateMutability": "nonpayable",
      "type": "function"
    },
    {
      "inputs": [
        {
          "internalType": "address",
          "name": "token",
          "type": "address"
        },
        {
          "internalType": "uint256",
          "name": "lpTokenAmount",
          "type": "uint256"
        },
        {
          "internalType": "uint256",
          "name": "deadline",
          "type": "uint256"
        }
      ],
      "name": "withdrawLiquidityETH",
      "outputs": [],
      "stateMutability": "nonpayable",
      "type": "function"
    },
    {
      "inputs": [
        {
          "internalType": "address",
          "name": "token0",
          "type": "address"
        },
        {
          "internalType": "address",
          "name": "token1",
          "type": "address"
        },
        {
          "internalType": "uint256",
          "name": "orderId",
          "type": "uint256"
        },
        {
          "internalType": "uint256",
          "name": "deadline",
          "type": "uint256"
        }
      ],
      "name": "withdrawProceedsFromTermSwap",
      "outputs": [],
      "stateMutability": "nonpayable",
      "type": "function"
    },
    {
      "stateMutability": "payable",
      "type": "receive"
    }
  ],
  "bytecode": "0x60c06040523480156200001157600080fd5b506040516200229b3803806200229b833981016040819052620000349162000069565b6001600160a01b039182166080521660a052620000a1565b80516001600160a01b03811681146200006457600080fd5b919050565b600080604083850312156200007d57600080fd5b62000088836200004c565b915062000098602084016200004c565b90509250929050565b60805160a05161208b6200021060003960008181610107015281816102860152818161039e015281816103ed015281816104a4015281816105db015281816106b00152818161077f015281816107ad01528181610800015281816109f801528181610a2601528181610f2101528181610f4f01528181610f7901528181610fed0152818161115301528181611203015281816112cf015281816113500152818161137e015281816114af0152818161152e01528181611781015281816117af015281816117d9015261184d0152600081816102d60152818161037c015281816103cb01528181610606015281816106d80152818161075d0152818161091d015281816109d601528181610b8501528181610c3701528181610cbc01528181610db401528181610f0001528181611131015281816111e10152818161132e0152818161148d0152818161158d0152818161160c015281816116e101528181611760015261198d015261208b6000f3fe6080604052600436106100f75760003560e01c80636e3419011161008a578063c45a015511610059578063c45a0155146102c4578063cf6c62ea146102f8578063da89825514610318578063e961ab001461032b57600080fd5b80636e341901146102145780637e5844a014610234578063a13a315114610254578063ad5c46481461027457600080fd5b806345786c2f116100c657806345786c2f146101a1578063574c3c1a146101c157806357c08c3a146101e15780635a2b46d7146101f457600080fd5b80630145ff681461013b5780630ea9fab21461014e57806323417feb146101615780632a1d627f1461018157600080fd5b3661013657336001600160a01b037f0000000000000000000000000000000000000000000000000000000000000000161461013457610134611dc0565b005b600080fd5b610134610149366004611dee565b61034b565b61013461015c366004611e23565b61059b565b34801561016d57600080fd5b5061013461017c366004611e5e565b6108f5565b34801561018d57600080fd5b5061013461019c366004611e23565b6109ae565b3480156101ad57600080fd5b506101346101bc366004611ea4565b610b3a565b3480156101cd57600080fd5b506101346101dc366004611ea4565b610d8c565b6101346101ef366004611dee565b610ed8565b34801561020057600080fd5b5061013461020f366004611dee565b611109565b34801561022057600080fd5b5061013461022f366004611dee565b611306565b34801561024057600080fd5b5061013461024f366004611e5e565b611565565b34801561026057600080fd5b5061013461026f366004611e5e565b6115e4565b34801561028057600080fd5b506102a87f000000000000000000000000000000000000000000000000000000000000000081565b6040516001600160a01b03909116815260200160405180910390f35b3480156102d057600080fd5b506102a87f000000000000000000000000000000000000000000000000000000000000000081565b34801561030457600080fd5b50610134610313366004611e5e565b6116b9565b610134610326366004611e23565b611738565b34801561033757600080fd5b50610134610346366004611e5e565b611965565b80428110156103755760405162461bcd60e51b815260040161036c90611ef5565b60405180910390fd5b60006103c27f0000000000000000000000000000000000000000000000000000000000000000867f00000000000000000000000000000000000000000000000000000000000000006119e4565b905060006104117f0000000000000000000000000000000000000000000000000000000000000000877f0000000000000000000000000000000000000000000000000000000000000000611abd565b9150506000826001600160a01b03166318160ddd6040518163ffffffff1660e01b815260040160206040518083038186803b15801561044f57600080fd5b505afa158015610463573d6000803e3d6000fd5b505050506040513d601f19601f820116820180604052508101906104879190611f1d565b90506000816104968489611f4c565b6104a09190611f6b565b90507f00000000000000000000000000000000000000000000000000000000000000006001600160a01b031663d0e30db0826040518263ffffffff1660e01b81526004016000604051808303818588803b1580156104fd57600080fd5b505af1158015610511573d6000803e3d6000fd5b50506040516302ff530960e51b81526001600160a01b0388169350635fea61209250610544915033908b90600401611f8d565b600060405180830381600087803b15801561055e57600080fd5b505af1158015610572573d6000803e3d6000fd5b5050505080341115610591576105913361058c8334611fa6565b611bff565b5050505050505050565b80428110156105bc5760405162461bcd60e51b815260040161036c90611ef5565b60405163e6a4390560e01b81526001600160a01b0386811660048301527f0000000000000000000000000000000000000000000000000000000000000000811660248301526000917f00000000000000000000000000000000000000000000000000000000000000009091169063e6a439059060440160206040518083038186803b15801561064a57600080fd5b505afa15801561065e573d6000803e3d6000fd5b505050506040513d601f19601f820116820180604052508101906106829190611fbd565b6001600160a01b03161415610756576040516364e329cb60e11b81526001600160a01b0386811660048301527f0000000000000000000000000000000000000000000000000000000000000000811660248301527f0000000000000000000000000000000000000000000000000000000000000000169063c9c6539690604401602060405180830381600087803b15801561071c57600080fd5b505af1158015610730573d6000803e3d6000fd5b505050506040513d601f19601f820116820180604052508101906107549190611fbd565b505b60006107a37f0000000000000000000000000000000000000000000000000000000000000000877f00000000000000000000000000000000000000000000000000000000000000006119e4565b905060006107d1877f0000000000000000000000000000000000000000000000000000000000000000611cde565b509050600080886001600160a01b0316836001600160a01b0316146107f75786886107fa565b87875b915091507f00000000000000000000000000000000000000000000000000000000000000006001600160a01b031663d0e30db0886040518263ffffffff1660e01b81526004016000604051808303818588803b15801561085957600080fd5b505af115801561086d573d6000803e3d6000fd5b50506040516337cea16960e11b81526001600160a01b0388169350636f9d42d292506108a29150339086908690600401611fe1565b600060405180830381600087803b1580156108bc57600080fd5b505af11580156108d0573d6000803e3d6000fd5b50505050863411156108ea576108ea3361058c8934611fa6565b505050505050505050565b80428110156109165760405162461bcd60e51b815260040161036c90611ef5565b60006109437f000000000000000000000000000000000000000000000000000000000000000087876119e4565b6040516310ae628560e21b81529091506001600160a01b038216906342b98a14906109749033908890600401611f8d565b600060405180830381600087803b15801561098e57600080fd5b505af11580156109a2573d6000803e3d6000fd5b50505050505050505050565b80428110156109cf5760405162461bcd60e51b815260040161036c90611ef5565b6000610a1c7f0000000000000000000000000000000000000000000000000000000000000000877f00000000000000000000000000000000000000000000000000000000000000006119e4565b90506000610a4a877f0000000000000000000000000000000000000000000000000000000000000000611cde565b509050866001600160a01b0316816001600160a01b03161415610ace57604051635ef083bf60e11b81526001600160a01b0383169063bde1077e90610a979033908a908a90600401611fe1565b600060405180830381600087803b158015610ab157600080fd5b505af1158015610ac5573d6000803e3d6000fd5b50505050610b31565b60405163659509c560e01b81526001600160a01b0383169063659509c590610afe9033908a908a90600401611fe1565b600060405180830381600087803b158015610b1857600080fd5b505af1158015610b2c573d6000803e3d6000fd5b505050505b50505050505050565b8042811015610b5b5760405162461bcd60e51b815260040161036c90611ef5565b60405163e6a4390560e01b81526001600160a01b03878116600483015286811660248301526000917f00000000000000000000000000000000000000000000000000000000000000009091169063e6a439059060440160206040518083038186803b158015610bc957600080fd5b505afa158015610bdd573d6000803e3d6000fd5b505050506040513d601f19601f82011682018060405250810190610c019190611fbd565b6001600160a01b03161415610cb5576040516364e329cb60e11b81526001600160a01b03878116600483015286811660248301527f0000000000000000000000000000000000000000000000000000000000000000169063c9c6539690604401602060405180830381600087803b158015610c7b57600080fd5b505af1158015610c8f573d6000803e3d6000fd5b505050506040513d601f19601f82011682018060405250810190610cb39190611fbd565b505b6000610ce27f000000000000000000000000000000000000000000000000000000000000000088886119e4565b90506000610cf08888611cde565b509050600080896001600160a01b0316836001600160a01b031614610d16578688610d19565b87875b6040516337cea16960e11b815291935091506001600160a01b03851690636f9d42d290610d4e90339086908690600401611fe1565b600060405180830381600087803b158015610d6857600080fd5b505af1158015610d7c573d6000803e3d6000fd5b5050505050505050505050505050565b8042811015610dad5760405162461bcd60e51b815260040161036c90611ef5565b6000610dda7f000000000000000000000000000000000000000000000000000000000000000088886119e4565b90506000610de88888611cde565b509050876001600160a01b0316816001600160a01b03161415610e6c57604051635ef083bf60e11b81526001600160a01b0383169063bde1077e90610e359033908a908a90600401611fe1565b600060405180830381600087803b158015610e4f57600080fd5b505af1158015610e63573d6000803e3d6000fd5b50505050610591565b60405163659509c560e01b81526001600160a01b0383169063659509c590610e9c9033908a908a90600401611fe1565b600060405180830381600087803b158015610eb657600080fd5b505af1158015610eca573d6000803e3d6000fd5b505050505050505050505050565b8042811015610ef95760405162461bcd60e51b815260040161036c90611ef5565b6000610f467f00000000000000000000000000000000000000000000000000000000000000007f0000000000000000000000000000000000000000000000000000000000000000876119e4565b90506000610f747f000000000000000000000000000000000000000000000000000000000000000087611cde565b5090507f00000000000000000000000000000000000000000000000000000000000000006001600160a01b031663d0e30db0866040518263ffffffff1660e01b81526004016000604051808303818588803b158015610fd257600080fd5b505af1158015610fe6573d6000803e3d6000fd5b50505050507f00000000000000000000000000000000000000000000000000000000000000006001600160a01b0316816001600160a01b0316141561108a576040516310d8217360e01b81526001600160a01b038316906310d82173906110539033908990600401611f8d565b600060405180830381600087803b15801561106d57600080fd5b505af1158015611081573d6000803e3d6000fd5b505050506110eb565b604051639a89f22d60e01b81526001600160a01b03831690639a89f22d906110b89033908990600401611f8d565b600060405180830381600087803b1580156110d257600080fd5b505af11580156110e6573d6000803e3d6000fd5b505050505b84341115611101576111013361058c8734611fa6565b505050505050565b804281101561112a5760405162461bcd60e51b815260040161036c90611ef5565b60006111777f0000000000000000000000000000000000000000000000000000000000000000867f00000000000000000000000000000000000000000000000000000000000000006119e4565b604051635100e67b60e11b81529091506001600160a01b0382169063a201ccf6906111a89033908890600401611f8d565b600060405180830381600087803b1580156111c257600080fd5b505af11580156111d6573d6000803e3d6000fd5b5050505060006112277f0000000000000000000000000000000000000000000000000000000000000000877f0000000000000000000000000000000000000000000000000000000000000000611abd565b9150506000826001600160a01b03166318160ddd6040518163ffffffff1660e01b815260040160206040518083038186803b15801561126557600080fd5b505afa158015611279573d6000803e3d6000fd5b505050506040513d601f19601f8201168201806040525081019061129d9190611f1d565b90506000816112ac8885611f4c565b6112b69190611f6b565b604051632e1a7d4d60e01b8152600481018290529091507f00000000000000000000000000000000000000000000000000000000000000006001600160a01b031690632e1a7d4d90602401610e9c565b80428110156113275760405162461bcd60e51b815260040161036c90611ef5565b60006113747f0000000000000000000000000000000000000000000000000000000000000000867f00000000000000000000000000000000000000000000000000000000000000006119e4565b905060006113a2867f0000000000000000000000000000000000000000000000000000000000000000611cde565b509050856001600160a01b0316816001600160a01b03161415611424576040516310d8217360e01b81526001600160a01b038316906310d82173906113ed9033908990600401611f8d565b600060405180830381600087803b15801561140757600080fd5b505af115801561141b573d6000803e3d6000fd5b50505050611485565b604051639a89f22d60e01b81526001600160a01b03831690639a89f22d906114529033908990600401611f8d565b600060405180830381600087803b15801561146c57600080fd5b505af1158015611480573d6000803e3d6000fd5b505050505b6000806114d37f0000000000000000000000000000000000000000000000000000000000000000897f0000000000000000000000000000000000000000000000000000000000000000611abd565b909250905060006114e48884612002565b6114ee8984611f4c565b6114f89190611f6b565b905060006103e861150b836103e5611f4c565b6115159190611f6b565b604051632e1a7d4d60e01b8152600481018290529091507f00000000000000000000000000000000000000000000000000000000000000006001600160a01b031690632e1a7d4d90602401610d4e565b80428110156115865760405162461bcd60e51b815260040161036c90611ef5565b60006115b37f000000000000000000000000000000000000000000000000000000000000000087876119e4565b6040516309dfa7e960e11b81529091506001600160a01b038216906313bf4fd2906109749033908890600401611f8d565b80428110156116055760405162461bcd60e51b815260040161036c90611ef5565b60006116327f000000000000000000000000000000000000000000000000000000000000000087876119e4565b905060006116408787611cde565b509050866001600160a01b0316816001600160a01b0316141561168b576040516310d8217360e01b81526001600160a01b038316906310d8217390610a979033908990600401611f8d565b604051639a89f22d60e01b81526001600160a01b03831690639a89f22d90610afe9033908990600401611f8d565b80428110156116da5760405162461bcd60e51b815260040161036c90611ef5565b60006117077f000000000000000000000000000000000000000000000000000000000000000087876119e4565b6040516302ff530960e51b81529091506001600160a01b03821690635fea6120906109749033908890600401611f8d565b80428110156117595760405162461bcd60e51b815260040161036c90611ef5565b60006117a67f00000000000000000000000000000000000000000000000000000000000000007f0000000000000000000000000000000000000000000000000000000000000000886119e4565b905060006117d47f000000000000000000000000000000000000000000000000000000000000000088611cde565b5090507f00000000000000000000000000000000000000000000000000000000000000006001600160a01b031663d0e30db0876040518263ffffffff1660e01b81526004016000604051808303818588803b15801561183257600080fd5b505af1158015611846573d6000803e3d6000fd5b50505050507f00000000000000000000000000000000000000000000000000000000000000006001600160a01b0316816001600160a01b031614156118ec57604051635ef083bf60e11b81526001600160a01b0383169063bde1077e906118b59033908a908a90600401611fe1565b600060405180830381600087803b1580156118cf57600080fd5b505af11580156118e3573d6000803e3d6000fd5b5050505061194f565b60405163659509c560e01b81526001600160a01b0383169063659509c59061191c9033908a908a90600401611fe1565b600060405180830381600087803b15801561193657600080fd5b505af115801561194a573d6000803e3d6000fd5b505050505b85341115610b3157610b313361058c8834611fa6565b80428110156119865760405162461bcd60e51b815260040161036c90611ef5565b60006119b37f000000000000000000000000000000000000000000000000000000000000000087876119e4565b604051635100e67b60e11b81529091506001600160a01b0382169063a201ccf6906109749033908890600401611f8d565b60008060006119f38585611cde565b6040516bffffffffffffffffffffffff19606084811b8216602084015283901b1660348201529193509150869060480160405160208183030381529060405280519060200120604051602001611a9b9291906001600160f81b0319815260609290921b6bffffffffffffffffffffffff1916600183015260158201527f57f900fec4f9ef5dbff745cf1cbc43e5812bb34ebb13d0e8c948c689ba0ba59b603582015260550190565b60408051601f1981840301815291905280516020909101209695505050505050565b6000806000611acc8585611cde565b5090506000611adc8787876119e4565b6001600160a01b0316633b4a6bc36040518163ffffffff1660e01b815260040160206040518083038186803b158015611b1457600080fd5b505afa158015611b28573d6000803e3d6000fd5b505050506040513d601f19601f82011682018060405250810190611b4c9190611f1d565b90506000611b5b8888886119e4565b6001600160a01b031663ceb2894c6040518163ffffffff1660e01b815260040160206040518083038186803b158015611b9357600080fd5b505afa158015611ba7573d6000803e3d6000fd5b505050506040513d601f19601f82011682018060405250810190611bcb9190611f1d565b9050826001600160a01b0316876001600160a01b031614611bed578082611bf0565b81815b90999098509650505050505050565b604080516000808252602082019092526001600160a01b038416908390604051611c29919061201a565b60006040518083038185875af1925050503d8060008114611c66576040519150601f19603f3d011682016040523d82523d6000602084013e611c6b565b606091505b5050905080611cd95760405162461bcd60e51b815260206004820152603460248201527f5472616e7366657248656c7065723a3a736166655472616e736665724554483a60448201527308115512081d1c985b9cd9995c8819985a5b195960621b606482015260840161036c565b505050565b600080826001600160a01b0316846001600160a01b03161415611d435760405162461bcd60e51b815260206004820152601c60248201527f4c4942524152593a204944454e544943414c5f41444452455353455300000000604482015260640161036c565b826001600160a01b0316846001600160a01b031610611d63578284611d66565b83835b90925090506001600160a01b038216611db95760405162461bcd60e51b81526020600482015260156024820152744c4942524152593a205a45524f5f4144445245535360581b604482015260640161036c565b9250929050565b634e487b7160e01b600052600160045260246000fd5b6001600160a01b0381168114611deb57600080fd5b50565b600080600060608486031215611e0357600080fd5b8335611e0e81611dd6565b95602085013595506040909401359392505050565b60008060008060808587031215611e3957600080fd5b8435611e4481611dd6565b966020860135965060408601359560600135945092505050565b60008060008060808587031215611e7457600080fd5b8435611e7f81611dd6565b93506020850135611e8f81611dd6565b93969395505050506040820135916060013590565b600080600080600060a08688031215611ebc57600080fd5b8535611ec781611dd6565b94506020860135611ed781611dd6565b94979496505050506040830135926060810135926080909101359150565b6020808252600e908201526d1515d053534e881156141254915160921b604082015260600190565b600060208284031215611f2f57600080fd5b5051919050565b634e487b7160e01b600052601160045260246000fd5b6000816000190483118215151615611f6657611f66611f36565b500290565b600082611f8857634e487b7160e01b600052601260045260246000fd5b500490565b6001600160a01b03929092168252602082015260400190565b600082821015611fb857611fb8611f36565b500390565b600060208284031215611fcf57600080fd5b8151611fda81611dd6565b9392505050565b6001600160a01b039390931683526020830191909152604082015260600190565b6000821982111561201557612015611f36565b500190565b6000825160005b8181101561203b5760208186018101518583015201612021565b8181111561204a576000828501525b50919091019291505056fea2646970667358221220378865961d2755275cd463ef8fa9333f146cca6dcd3cb988d28f3d792d7d998164736f6c63430008090033",
  "linkReferences": {},
  "deployedLinkReferences": {}
}