{
  "_format": "hh-sol-artifact-1",
  "contractName": "TWAMM",
  "sourceName": "contracts/TWAMM.sol",
  "abi": [
    {
      "inputs": [
        {
          "internalType": "string",
          "name": "_name",
          "type": "string"
        },
        {
          "internalType": "string",
          "name": "_symbol",
          "type": "string"
        },
        {
          "internalType": "address",
          "name": "_tokenA",
          "type": "address"
        },
        {
          "internalType": "address",
          "name": "_tokenB",
          "type": "address"
        },
        {
          "internalType": "uint256",
          "name": "_orderBlockInterval",
          "type": "uint256"
        }
      ],
      "stateMutability": "nonpayable",
      "type": "constructor"
    },
    {
      "inputs": [],
      "name": "PRBMathSD59x18__DivInputTooSmall",
      "type": "error"
    },
    {
      "inputs": [
        {
          "internalType": "uint256",
          "name": "rAbs",
          "type": "uint256"
        }
      ],
      "name": "PRBMathSD59x18__DivOverflow",
      "type": "error"
    },
    {
      "inputs": [
        {
          "internalType": "int256",
          "name": "x",
          "type": "int256"
        }
      ],
      "name": "PRBMathSD59x18__Exp2InputTooBig",
      "type": "error"
    },
    {
      "inputs": [
        {
          "internalType": "int256",
          "name": "x",
          "type": "int256"
        }
      ],
      "name": "PRBMathSD59x18__ExpInputTooBig",
      "type": "error"
    },
    {
      "inputs": [
        {
          "internalType": "int256",
          "name": "x",
          "type": "int256"
        }
      ],
      "name": "PRBMathSD59x18__FromIntOverflow",
      "type": "error"
    },
    {
      "inputs": [
        {
          "internalType": "int256",
          "name": "x",
          "type": "int256"
        }
      ],
      "name": "PRBMathSD59x18__FromIntUnderflow",
      "type": "error"
    },
    {
      "inputs": [],
      "name": "PRBMathSD59x18__MulInputTooSmall",
      "type": "error"
    },
    {
      "inputs": [
        {
          "internalType": "uint256",
          "name": "rAbs",
          "type": "uint256"
        }
      ],
      "name": "PRBMathSD59x18__MulOverflow",
      "type": "error"
    },
    {
      "inputs": [
        {
          "internalType": "int256",
          "name": "x",
          "type": "int256"
        }
      ],
      "name": "PRBMathSD59x18__SqrtNegativeInput",
      "type": "error"
    },
    {
      "inputs": [
        {
          "internalType": "int256",
          "name": "x",
          "type": "int256"
        }
      ],
      "name": "PRBMathSD59x18__SqrtOverflow",
      "type": "error"
    },
    {
      "inputs": [
        {
          "internalType": "uint256",
          "name": "x",
          "type": "uint256"
        }
      ],
      "name": "PRBMathUD60x18__FromUintOverflow",
      "type": "error"
    },
    {
      "inputs": [
        {
          "internalType": "uint256",
          "name": "x",
          "type": "uint256"
        }
      ],
      "name": "PRBMathUD60x18__SqrtOverflow",
      "type": "error"
    },
    {
      "inputs": [
        {
          "internalType": "uint256",
          "name": "prod1",
          "type": "uint256"
        }
      ],
      "name": "PRBMath__MulDivFixedPointOverflow",
      "type": "error"
    },
    {
      "inputs": [
        {
          "internalType": "uint256",
          "name": "prod1",
          "type": "uint256"
        },
        {
          "internalType": "uint256",
          "name": "denominator",
          "type": "uint256"
        }
      ],
      "name": "PRBMath__MulDivOverflow",
      "type": "error"
    },
    {
      "anonymous": false,
      "inputs": [
        {
          "indexed": true,
          "internalType": "address",
          "name": "owner",
          "type": "address"
        },
        {
          "indexed": true,
          "internalType": "address",
          "name": "spender",
          "type": "address"
        },
        {
          "indexed": false,
          "internalType": "uint256",
          "name": "value",
          "type": "uint256"
        }
      ],
      "name": "Approval",
      "type": "event"
    },
    {
      "anonymous": false,
      "inputs": [
        {
          "indexed": true,
          "internalType": "address",
          "name": "addr",
          "type": "address"
        },
        {
          "indexed": false,
          "internalType": "uint256",
          "name": "orderId",
          "type": "uint256"
        }
      ],
      "name": "CancelLongTermOrder",
      "type": "event"
    },
    {
      "anonymous": false,
      "inputs": [
        {
          "indexed": true,
          "internalType": "address",
          "name": "addr",
          "type": "address"
        },
        {
          "indexed": false,
          "internalType": "uint256",
          "name": "amountA",
          "type": "uint256"
        },
        {
          "indexed": false,
          "internalType": "uint256",
          "name": "amountB",
          "type": "uint256"
        }
      ],
      "name": "InitialLiquidityProvided",
      "type": "event"
    },
    {
      "anonymous": false,
      "inputs": [
        {
          "indexed": true,
          "internalType": "address",
          "name": "addr",
          "type": "address"
        },
        {
          "indexed": false,
          "internalType": "uint256",
          "name": "lpTokens",
          "type": "uint256"
        }
      ],
      "name": "LiquidityProvided",
      "type": "event"
    },
    {
      "anonymous": false,
      "inputs": [
        {
          "indexed": true,
          "internalType": "address",
          "name": "addr",
          "type": "address"
        },
        {
          "indexed": false,
          "internalType": "uint256",
          "name": "lpTokens",
          "type": "uint256"
        }
      ],
      "name": "LiquidityRemoved",
      "type": "event"
    },
    {
      "anonymous": false,
      "inputs": [
        {
          "indexed": true,
          "internalType": "address",
          "name": "addr",
          "type": "address"
        },
        {
          "indexed": false,
          "internalType": "uint256",
          "name": "amountAIn",
          "type": "uint256"
        },
        {
          "indexed": false,
          "internalType": "uint256",
          "name": "orderId",
          "type": "uint256"
        }
      ],
      "name": "LongTermSwapAToB",
      "type": "event"
    },
    {
      "anonymous": false,
      "inputs": [
        {
          "indexed": true,
          "internalType": "address",
          "name": "addr",
          "type": "address"
        },
        {
          "indexed": false,
          "internalType": "uint256",
          "name": "amountBIn",
          "type": "uint256"
        },
        {
          "indexed": false,
          "internalType": "uint256",
          "name": "orderId",
          "type": "uint256"
        }
      ],
      "name": "LongTermSwapBToA",
      "type": "event"
    },
    {
      "anonymous": false,
      "inputs": [
        {
          "indexed": true,
          "internalType": "address",
          "name": "addr",
          "type": "address"
        },
        {
          "indexed": false,
          "internalType": "uint256",
          "name": "amountAIn",
          "type": "uint256"
        },
        {
          "indexed": false,
          "internalType": "uint256",
          "name": "amountBOut",
          "type": "uint256"
        }
      ],
      "name": "SwapAToB",
      "type": "event"
    },
    {
      "anonymous": false,
      "inputs": [
        {
          "indexed": true,
          "internalType": "address",
          "name": "addr",
          "type": "address"
        },
        {
          "indexed": false,
          "internalType": "uint256",
          "name": "amountBIn",
          "type": "uint256"
        },
        {
          "indexed": false,
          "internalType": "uint256",
          "name": "amountAOut",
          "type": "uint256"
        }
      ],
      "name": "SwapBToA",
      "type": "event"
    },
    {
      "anonymous": false,
      "inputs": [
        {
          "indexed": true,
          "internalType": "address",
          "name": "from",
          "type": "address"
        },
        {
          "indexed": true,
          "internalType": "address",
          "name": "to",
          "type": "address"
        },
        {
          "indexed": false,
          "internalType": "uint256",
          "name": "value",
          "type": "uint256"
        }
      ],
      "name": "Transfer",
      "type": "event"
    },
    {
      "anonymous": false,
      "inputs": [
        {
          "indexed": true,
          "internalType": "address",
          "name": "addr",
          "type": "address"
        },
        {
          "indexed": false,
          "internalType": "uint256",
          "name": "orderId",
          "type": "uint256"
        }
      ],
      "name": "WithdrawProceedsFromLongTermOrder",
      "type": "event"
    },
    {
      "inputs": [],
      "name": "LP_FEE",
      "outputs": [
        {
          "internalType": "uint256",
          "name": "",
          "type": "uint256"
        }
      ],
      "stateMutability": "view",
      "type": "function"
    },
    {
      "inputs": [
        {
          "internalType": "address",
          "name": "owner",
          "type": "address"
        },
        {
          "internalType": "address",
          "name": "spender",
          "type": "address"
        }
      ],
      "name": "allowance",
      "outputs": [
        {
          "internalType": "uint256",
          "name": "",
          "type": "uint256"
        }
      ],
      "stateMutability": "view",
      "type": "function"
    },
    {
      "inputs": [
        {
          "internalType": "address",
          "name": "spender",
          "type": "address"
        },
        {
          "internalType": "uint256",
          "name": "amount",
          "type": "uint256"
        }
      ],
      "name": "approve",
      "outputs": [
        {
          "internalType": "bool",
          "name": "",
          "type": "bool"
        }
      ],
      "stateMutability": "nonpayable",
      "type": "function"
    },
    {
      "inputs": [
        {
          "internalType": "address",
          "name": "account",
          "type": "address"
        }
      ],
      "name": "balanceOf",
      "outputs": [
        {
          "internalType": "uint256",
          "name": "",
          "type": "uint256"
        }
      ],
      "stateMutability": "view",
      "type": "function"
    },
    {
      "inputs": [
        {
          "internalType": "uint256",
          "name": "orderId",
          "type": "uint256"
        }
      ],
      "name": "cancelLongTermSwap",
      "outputs": [],
      "stateMutability": "nonpayable",
      "type": "function"
    },
    {
      "inputs": [],
      "name": "decimals",
      "outputs": [
        {
          "internalType": "uint8",
          "name": "",
          "type": "uint8"
        }
      ],
      "stateMutability": "view",
      "type": "function"
    },
    {
      "inputs": [
        {
          "internalType": "address",
          "name": "spender",
          "type": "address"
        },
        {
          "internalType": "uint256",
          "name": "subtractedValue",
          "type": "uint256"
        }
      ],
      "name": "decreaseAllowance",
      "outputs": [
        {
          "internalType": "bool",
          "name": "",
          "type": "bool"
        }
      ],
      "stateMutability": "nonpayable",
      "type": "function"
    },
    {
      "inputs": [],
      "name": "executeVirtualOrders",
      "outputs": [],
      "stateMutability": "nonpayable",
      "type": "function"
    },
    {
      "inputs": [
        {
          "internalType": "address",
          "name": "spender",
          "type": "address"
        },
        {
          "internalType": "uint256",
          "name": "addedValue",
          "type": "uint256"
        }
      ],
      "name": "increaseAllowance",
      "outputs": [
        {
          "internalType": "bool",
          "name": "",
          "type": "bool"
        }
      ],
      "stateMutability": "nonpayable",
      "type": "function"
    },
    {
      "inputs": [
        {
          "internalType": "uint256",
          "name": "amountAIn",
          "type": "uint256"
        },
        {
          "internalType": "uint256",
          "name": "numberOfBlockIntervals",
          "type": "uint256"
        }
      ],
      "name": "longTermSwapFromAToB",
      "outputs": [],
      "stateMutability": "nonpayable",
      "type": "function"
    },
    {
      "inputs": [
        {
          "internalType": "uint256",
          "name": "amountBIn",
          "type": "uint256"
        },
        {
          "internalType": "uint256",
          "name": "numberOfBlockIntervals",
          "type": "uint256"
        }
      ],
      "name": "longTermSwapFromBToA",
      "outputs": [],
      "stateMutability": "nonpayable",
      "type": "function"
    },
    {
      "inputs": [],
      "name": "name",
      "outputs": [
        {
          "internalType": "string",
          "name": "",
          "type": "string"
        }
      ],
      "stateMutability": "view",
      "type": "function"
    },
    {
      "inputs": [],
      "name": "orderBlockInterval",
      "outputs": [
        {
          "internalType": "uint256",
          "name": "",
          "type": "uint256"
        }
      ],
      "stateMutability": "view",
      "type": "function"
    },
    {
      "inputs": [
        {
          "internalType": "uint256",
          "name": "amountA",
          "type": "uint256"
        },
        {
          "internalType": "uint256",
          "name": "amountB",
          "type": "uint256"
        }
      ],
      "name": "provideInitialLiquidity",
      "outputs": [],
      "stateMutability": "nonpayable",
      "type": "function"
    },
    {
      "inputs": [
        {
          "internalType": "uint256",
          "name": "lpTokenAmount",
          "type": "uint256"
        }
      ],
      "name": "provideLiquidity",
      "outputs": [],
      "stateMutability": "nonpayable",
      "type": "function"
    },
    {
      "inputs": [
        {
          "internalType": "uint256",
          "name": "lpTokenAmount",
          "type": "uint256"
        }
      ],
      "name": "removeLiquidity",
      "outputs": [],
      "stateMutability": "nonpayable",
      "type": "function"
    },
    {
      "inputs": [
        {
          "internalType": "uint256",
          "name": "amountAIn",
          "type": "uint256"
        }
      ],
      "name": "swapFromAToB",
      "outputs": [],
      "stateMutability": "nonpayable",
      "type": "function"
    },
    {
      "inputs": [
        {
          "internalType": "uint256",
          "name": "amountBIn",
          "type": "uint256"
        }
      ],
      "name": "swapFromBToA",
      "outputs": [],
      "stateMutability": "nonpayable",
      "type": "function"
    },
    {
      "inputs": [],
      "name": "symbol",
      "outputs": [
        {
          "internalType": "string",
          "name": "",
          "type": "string"
        }
      ],
      "stateMutability": "view",
      "type": "function"
    },
    {
      "inputs": [],
      "name": "tokenA",
      "outputs": [
        {
          "internalType": "address",
          "name": "",
          "type": "address"
        }
      ],
      "stateMutability": "view",
      "type": "function"
    },
    {
      "inputs": [],
      "name": "tokenAReserves",
      "outputs": [
        {
          "internalType": "uint256",
          "name": "",
          "type": "uint256"
        }
      ],
      "stateMutability": "view",
      "type": "function"
    },
    {
      "inputs": [],
      "name": "tokenB",
      "outputs": [
        {
          "internalType": "address",
          "name": "",
          "type": "address"
        }
      ],
      "stateMutability": "view",
      "type": "function"
    },
    {
      "inputs": [],
      "name": "tokenBReserves",
      "outputs": [
        {
          "internalType": "uint256",
          "name": "",
          "type": "uint256"
        }
      ],
      "stateMutability": "view",
      "type": "function"
    },
    {
      "inputs": [],
      "name": "totalSupply",
      "outputs": [
        {
          "internalType": "uint256",
          "name": "",
          "type": "uint256"
        }
      ],
      "stateMutability": "view",
      "type": "function"
    },
    {
      "inputs": [
        {
          "internalType": "address",
          "name": "recipient",
          "type": "address"
        },
        {
          "internalType": "uint256",
          "name": "amount",
          "type": "uint256"
        }
      ],
      "name": "transfer",
      "outputs": [
        {
          "internalType": "bool",
          "name": "",
          "type": "bool"
        }
      ],
      "stateMutability": "nonpayable",
      "type": "function"
    },
    {
      "inputs": [
        {
          "internalType": "address",
          "name": "sender",
          "type": "address"
        },
        {
          "internalType": "address",
          "name": "recipient",
          "type": "address"
        },
        {
          "internalType": "uint256",
          "name": "amount",
          "type": "uint256"
        }
      ],
      "name": "transferFrom",
      "outputs": [
        {
          "internalType": "bool",
          "name": "",
          "type": "bool"
        }
      ],
      "stateMutability": "nonpayable",
      "type": "function"
    },
    {
      "inputs": [
        {
          "internalType": "address",
          "name": "userAddress",
          "type": "address"
        }
      ],
      "name": "userIdsCheck",
      "outputs": [
        {
          "internalType": "uint256[]",
          "name": "",
          "type": "uint256[]"
        }
      ],
      "stateMutability": "view",
      "type": "function"
    },
    {
      "inputs": [
        {
          "internalType": "uint256",
          "name": "orderId",
          "type": "uint256"
        }
      ],
      "name": "withdrawProceedsFromLongTermSwap",
      "outputs": [],
      "stateMutability": "nonpayable",
      "type": "function"
    }
  ],
  "bytecode": "0x60806040523480156200001157600080fd5b5060405162003fe538038062003fe5833981016040819052620000349162000294565b8451859085906200004d90600390602085019062000104565b5080516200006390600490602084019062000104565b5050600580546001600160a01b03199081166001600160a01b038781169190911790925560068054909116918516919091179055506008819055620000b9600984844385620000c4602090811b620010bf17901c565b50505050506200036a565b6002850180546001600160a01b039586166001600160a01b0319918216179091556003860180549490951693169290921790925560018301919091559055565b82805462000112906200032d565b90600052602060002090601f01602090048101928262000136576000855562000181565b82601f106200015157805160ff191683800117855562000181565b8280016001018555821562000181579182015b828111156200018157825182559160200191906001019062000164565b506200018f92915062000193565b5090565b5b808211156200018f576000815560010162000194565b634e487b7160e01b600052604160045260246000fd5b600082601f830112620001d257600080fd5b81516001600160401b0380821115620001ef57620001ef620001aa565b604051601f8301601f19908116603f011681019082821181831017156200021a576200021a620001aa565b816040528381526020925086838588010111156200023757600080fd5b600091505b838210156200025b57858201830151818301840152908201906200023c565b838211156200026d5760008385830101525b9695505050505050565b80516001600160a01b03811681146200028f57600080fd5b919050565b600080600080600060a08688031215620002ad57600080fd5b85516001600160401b0380821115620002c557600080fd5b620002d389838a01620001c0565b96506020880151915080821115620002ea57600080fd5b50620002f988828901620001c0565b9450506200030a6040870162000277565b92506200031a6060870162000277565b9150608086015190509295509295909350565b600181811c908216806200034257607f821691505b602082108114156200036457634e487b7160e01b600052602260045260246000fd5b50919050565b613c6b806200037a6000396000f3fe608060405234801561001057600080fd5b50600436106101c45760003560e01c806363784245116100f9578063a457c2d711610097578063ceb2894c11610071578063ceb2894c146103c6578063dd62ed3e146103e6578063eb521a4c1461041f578063f8534e401461043257600080fd5b8063a457c2d71461038d578063a9059cbb146103a0578063a9dd5738146103b357600080fd5b8063855b65d0116100d3578063855b65d01461034c5780638e91701c1461035f57806395d89b41146103725780639c8f9f231461037a57600080fd5b8063637842451461030857806370a082311461031057806381fd0a461461033957600080fd5b806337bc5e4a116101665780635a9fae6e116101405780635a9fae6e146102d15780635e3f2727146102e45780635f64b55b146102ec57806360a9d505146102ff57600080fd5b806337bc5e4a1461027e578063395093511461029e5780633b4a6bc3146102b157600080fd5b806318160ddd116101a257806318160ddd146102355780631f4f5b421461024757806323b872dd1461025c578063313ce5671461026f57600080fd5b806306fdde03146101c9578063095ea7b3146101e75780630fc63d101461020a575b600080fd5b6101d1610445565b6040516101de9190613891565b60405180910390f35b6101fa6101f536600461391b565b6104d7565b60405190151581526020016101de565b60055461021d906001600160a01b031681565b6040516001600160a01b0390911681526020016101de565b6002545b6040519081526020016101de565b61025a610255366004613945565b6104ee565b005b6101fa61026a36600461395e565b610534565b604051601281526020016101de565b61029161028c36600461399a565b6105fa565b6040516101de91906139b5565b6101fa6102ac36600461391b565b610666565b6005546001600160a01b0316600090815260076020526040902054610239565b61025a6102df366004613945565b6106a2565b610239601e81565b60065461021d906001600160a01b031681565b61023960085481565b61025a610705565b61023961031e36600461399a565b6001600160a01b031660009081526020819052604090205490565b61025a610347366004613945565b610713565b61025a61035a3660046139f9565b610752565b61025a61036d3660046139f9565b6107a6565b6101d16107f1565b61025a610388366004613945565b610800565b6101fa61039b36600461391b565b610a7c565b6101fa6103ae36600461391b565b610b2d565b61025a6103c1366004613945565b610b3a565b6006546001600160a01b0316600090815260076020526040902054610239565b6102396103f4366004613a1b565b6001600160a01b03918216600090815260016020908152604080832093909416825291909152205490565b61025a61042d366004613945565b610b95565b61025a6104403660046139f9565b610e64565b60606003805461045490613a4e565b80601f016020809104026020016040519081016040528092919081815260200182805461048090613a4e565b80156104cd5780601f106104a2576101008083540402835291602001916104cd565b820191906000526020600020905b8154815290600101906020018083116104b057829003601f168201915b5050505050905090565b60006104e4338484611117565b5060015b92915050565b6104fb600982600761126f565b60405181815233907fec1efa7415f20eabaabbfdfc33d5c736e9d413afcc9dedd898c035c0d1889eaa906020015b60405180910390a250565b6000610541848484611486565b6001600160a01b0384166000908152600160209081526040808320338452909152902054828110156105e05760405162461bcd60e51b815260206004820152602860248201527f45524332303a207472616e7366657220616d6f756e742065786365656473206160448201527f6c6c6f77616e636500000000000000000000000000000000000000000000000060648201526084015b60405180910390fd5b6105ed8533858403611117565b60019150505b9392505050565b6001600160a01b03811660009081526010602090815260409182902080548351818402810184019094528084526060939283018282801561065a57602002820191906000526020600020905b815481526020019060010190808311610646575b50505050509050919050565b3360008181526001602090815260408083206001600160a01b038716845290915281205490916104e491859061069d908690613a9f565b611117565b6005546006546000916106c2916001600160a01b0391821691168461169e565b604080518481526020810183905291925033917f1a442df1f5a0e29117f2a0d6ceb8d5db8b4e68203b0d5edac8e267920708522e91015b60405180910390a25050565b610711600960076118df565b565b6107206009826007611952565b60405181815233907fe91f05f05f7e013ffc245507e3fd86ec0ca1d2f5ab431eea8827cc80f303bf7a90602001610529565b6000610762600984846007611ad2565b604080518581526020810183905291925033917f3f9021da39409c8415526f6f5150f90f549aff31c146178262479dd87789440091015b60405180910390a2505050565b60006107b6600984846007611b03565b604080518581526020810183905291925033917f3118cfac1ed5d8e668c193690497d56fff82f1aabbdf08f598025b0dfe3087279101610799565b60606004805461045490613a4e565b6002548111156108525760405162461bcd60e51b815260206004820152601e60248201527f6e6f7420656e6f756768206c7020746f6b656e7320617661696c61626c65000060448201526064016105d7565b61085e600960076118df565b600061086960025490565b6005546001600160a01b031660009081526007602052604090205461088f908490613ab7565b6108999190613aec565b905060006108a660025490565b6006546001600160a01b03166000908152600760205260409020546108cc908590613ab7565b6108d69190613aec565b60055460405163a9059cbb60e01b8152336004820152602481018590529192506001600160a01b03169063a9059cbb90604401602060405180830381600087803b15801561092357600080fd5b505af1158015610937573d6000803e3d6000fd5b505050506040513d601f19601f8201168201806040525081019061095b9190613b00565b5060065460405163a9059cbb60e01b8152336004820152602481018390526001600160a01b039091169063a9059cbb90604401602060405180830381600087803b1580156109a857600080fd5b505af11580156109bc573d6000803e3d6000fd5b505050506040513d601f19601f820116820180604052508101906109e09190613b00565b506005546001600160a01b031660009081526007602052604081208054849290610a0b908490613b22565b90915550506006546001600160a01b031660009081526007602052604081208054839290610a3a908490613b22565b90915550610a4a90503384611b2b565b60405183815233907fc2c3f06e49b9f15e7b4af9055e183b0d73362e033ad82a07dec9bf984017171990602001610799565b3360009081526001602090815260408083206001600160a01b038616845290915281205482811015610b165760405162461bcd60e51b815260206004820152602560248201527f45524332303a2064656372656173656420616c6c6f77616e63652062656c6f7760448201527f207a65726f00000000000000000000000000000000000000000000000000000060648201526084016105d7565b610b233385858403611117565b5060019392505050565b60006104e4338484611486565b600654600554600091610b5a916001600160a01b0391821691168461169e565b604080518481526020810183905291925033917f1201e4c6b2a8cfdbb8440a213b3b16f2e11b23315ddb1751c9522fa3f3e6b35591016106f9565b600254610c305760405162461bcd60e51b815260206004820152604860248201527f6e6f206c697175696469747920686173206265656e2070726f7669646564207960448201527f65742c206e65656420746f2063616c6c2070726f76696465496e697469616c4c60648201527f6971756964697479000000000000000000000000000000000000000000000000608482015260a4016105d7565b610c3c600960076118df565b6000610c4760025490565b6005546001600160a01b0316600090815260076020526040902054610c6c9084613ab7565b610c769190613aec565b90506000610c8360025490565b6006546001600160a01b0316600090815260076020526040902054610ca89085613ab7565b610cb29190613aec565b6005546040516323b872dd60e01b8152336004820152306024820152604481018590529192506001600160a01b0316906323b872dd90606401602060405180830381600087803b158015610d0557600080fd5b505af1158015610d19573d6000803e3d6000fd5b505050506040513d601f19601f82011682018060405250810190610d3d9190613b00565b506006546040516323b872dd60e01b8152336004820152306024820152604481018390526001600160a01b03909116906323b872dd90606401602060405180830381600087803b158015610d9057600080fd5b505af1158015610da4573d6000803e3d6000fd5b505050506040513d601f19601f82011682018060405250810190610dc89190613b00565b506005546001600160a01b031660009081526007602052604081208054849290610df3908490613a9f565b90915550506006546001600160a01b031660009081526007602052604081208054839290610e22908490613a9f565b90915550610e3290503384611cb0565b60405183815233907fccb2ae3a2936bf4c94fa4e12cdf0cdad6ed0e4888a044cef89afa60f2e4b92d390602001610799565b60025415610f005760405162461bcd60e51b815260206004820152604260248201527f6c69717569646974792068617320616c7265616479206265656e2070726f766960448201527f6465642c206e65656420746f2063616c6c2070726f766964654c69717569646960648201527f7479000000000000000000000000000000000000000000000000000000000000608482015260a4016105d7565b6005546040516323b872dd60e01b8152336004820152306024820152604481018490526001600160a01b03909116906323b872dd90606401602060405180830381600087803b158015610f5257600080fd5b505af1158015610f66573d6000803e3d6000fd5b505050506040513d601f19601f82011682018060405250810190610f8a9190613b00565b506006546040516323b872dd60e01b8152336004820152306024820152604481018390526001600160a01b03909116906323b872dd90606401602060405180830381600087803b158015610fdd57600080fd5b505af1158015610ff1573d6000803e3d6000fd5b505050506040513d601f19601f820116820180604052508101906110159190613b00565b506005546001600160a01b03908116600090815260076020526040808220859055600654909216815290812082905561107b61106d61105b61105685611d90565b611df6565b61106761105687611d90565b90611e61565b670de0b6b3a7640000900490565b90506110873382611cb0565b604080518481526020810184905233917f6f6e8d9cc87c64a4776e719d1ad22f4b0b45089829effa9a2a8cddbdbc43b62b9101610799565b6002850180546001600160a01b039586167fffffffffffffffffffffffff0000000000000000000000000000000000000000918216179091556003860180549490951693169290921790925560018301919091559055565b6001600160a01b0383166111925760405162461bcd60e51b8152602060048201526024808201527f45524332303a20617070726f76652066726f6d20746865207a65726f2061646460448201527f726573730000000000000000000000000000000000000000000000000000000060648201526084016105d7565b6001600160a01b03821661120e5760405162461bcd60e51b815260206004820152602260248201527f45524332303a20617070726f766520746f20746865207a65726f20616464726560448201527f737300000000000000000000000000000000000000000000000000000000000060648201526084016105d7565b6001600160a01b0383811660008181526001602090815260408083209487168084529482529182902085905590518481527f8c5be1e5ebec7d5bd14f71427d1e84f3dd0314c0f7b2291e5b200ac8c7c3b925910160405180910390a3505050565b61127983826118df565b6000828152600684016020526040902060038101546001600160a01b031633146112e55760405162461bcd60e51b815260206004820152601a60248201527f73656e646572206d757374206265206f72646572206f776e657200000000000060448201526064016105d7565b6004818101546001600160a01b0316600090815290850160205260408120908061130f8387611e6d565b9150915060008211806113225750600081115b61136e5760405162461bcd60e51b815260206004820152601760248201527f6e6f2070726f636565647320746f20776974686472617700000000000000000060448201526064016105d7565b600584015460405163a9059cbb60e01b8152336004820152602481018390526001600160a01b039091169063a9059cbb90604401602060405180830381600087803b1580156113bc57600080fd5b505af11580156113d0573d6000803e3d6000fd5b505050506040513d601f19601f820116820180604052508101906113f49190613b00565b5060048481015460405163a9059cbb60e01b81523392810192909252602482018490526001600160a01b03169063a9059cbb90604401602060405180830381600087803b15801561144457600080fd5b505af1158015611458573d6000803e3d6000fd5b505050506040513d601f19601f8201168201806040525081019061147c9190613b00565b5050505050505050565b6001600160a01b0383166115025760405162461bcd60e51b815260206004820152602560248201527f45524332303a207472616e736665722066726f6d20746865207a65726f20616460448201527f647265737300000000000000000000000000000000000000000000000000000060648201526084016105d7565b6001600160a01b03821661157e5760405162461bcd60e51b815260206004820152602360248201527f45524332303a207472616e7366657220746f20746865207a65726f206164647260448201527f657373000000000000000000000000000000000000000000000000000000000060648201526084016105d7565b6001600160a01b0383166000908152602081905260409020548181101561160d5760405162461bcd60e51b815260206004820152602660248201527f45524332303a207472616e7366657220616d6f756e742065786365656473206260448201527f616c616e6365000000000000000000000000000000000000000000000000000060648201526084016105d7565b6001600160a01b03808516600090815260208190526040808220858503905591851681529081208054849290611644908490613a9f565b92505081905550826001600160a01b0316846001600160a01b03167fddf252ad1be2c89b69c2b068fc378daa952ba7f163c4a11628f55a4df523b3ef8460405161169091815260200190565b60405180910390a350505050565b60008082116116ef5760405162461bcd60e51b815260206004820152601c60248201527f7377617020616d6f756e74206d75737420626520706f7369746976650000000060448201526064016105d7565b6116fb600960076118df565b6001600160a01b03841660009081526007602052604081205461171f908490613a9f565b6001600160a01b038516600090815260076020526040902054611743908590613ab7565b61174d9190613aec565b905061271061175d601e82613b22565b6117679083613ab7565b6117719190613aec565b6040516323b872dd60e01b8152336004820152306024820152604481018590529092506001600160a01b038616906323b872dd90606401602060405180830381600087803b1580156117c257600080fd5b505af11580156117d6573d6000803e3d6000fd5b505050506040513d601f19601f820116820180604052508101906117fa9190613b00565b5060405163a9059cbb60e01b8152336004820152602481018390526001600160a01b0385169063a9059cbb90604401602060405180830381600087803b15801561184357600080fd5b505af1158015611857573d6000803e3d6000fd5b505050506040513d601f19601f8201168201806040525081019061187b9190613b00565b506001600160a01b038516600090815260076020526040812080548592906118a4908490613a9f565b90915550506001600160a01b038416600090815260076020526040812080548492906118d1908490613b22565b909155509195945050505050565b81546001830154600091906118f5908290613b39565b84600101546119049190613b22565b61190e9190613a9f565b90505b4381101561193757611924838383611f95565b82546119309082613a9f565b9050611911565b4383600101541461194d5761194d838343611f95565b505050565b61195c83826118df565b6000828152600684016020526040902060038101546001600160a01b031633146119c85760405162461bcd60e51b815260206004820152601a60248201527f73656e646572206d757374206265206f72646572206f776e657200000000000060448201526064016105d7565b6004818101546001600160a01b0316600090815290850160205260408120906119f18286612199565b905060008111611a435760405162461bcd60e51b815260206004820152601760248201527f6e6f2070726f636565647320746f20776974686472617700000000000000000060448201526064016105d7565b600583015460405163a9059cbb60e01b8152336004820152602481018390526001600160a01b039091169063a9059cbb90604401602060405180830381600087803b158015611a9157600080fd5b505af1158015611aa5573d6000803e3d6000fd5b505050506040513d601f19601f82011682018060405250810190611ac99190613b00565b50505050505050565b60038401546002850154600091611afa9187916001600160a01b0390811691168787876122c9565b95945050505050565b60028401546003850154600091611afa9187916001600160a01b0390811691168787876122c9565b6001600160a01b038216611ba75760405162461bcd60e51b815260206004820152602160248201527f45524332303a206275726e2066726f6d20746865207a65726f2061646472657360448201527f730000000000000000000000000000000000000000000000000000000000000060648201526084016105d7565b6001600160a01b03821660009081526020819052604090205481811015611c365760405162461bcd60e51b815260206004820152602260248201527f45524332303a206275726e20616d6f756e7420657863656564732062616c616e60448201527f636500000000000000000000000000000000000000000000000000000000000060648201526084016105d7565b6001600160a01b0383166000908152602081905260408120838303905560028054849290611c65908490613b22565b90915550506040518281526000906001600160a01b038516907fddf252ad1be2c89b69c2b068fc378daa952ba7f163c4a11628f55a4df523b3ef9060200160405180910390a3505050565b6001600160a01b038216611d065760405162461bcd60e51b815260206004820152601f60248201527f45524332303a206d696e7420746f20746865207a65726f20616464726573730060448201526064016105d7565b8060026000828254611d189190613a9f565b90915550506001600160a01b03821660009081526020819052604081208054839290611d45908490613a9f565b90915550506040518181526001600160a01b038316906000907fddf252ad1be2c89b69c2b068fc378daa952ba7f163c4a11628f55a4df523b3ef9060200160405180910390a35b5050565b60007812725dd1d243aba0e75fe645cc4873f9e65afe688c928e1f21821115611de8576040517f3492ffd9000000000000000000000000000000000000000000000000000000008152600481018390526024016105d7565b50670de0b6b3a76400000290565b60007812725dd1d243aba0e75fe645cc4873f9e65afe688c928e1f21821115611e4e576040517f6155b67d000000000000000000000000000000000000000000000000000000008152600481018390526024016105d7565b6104e8670de0b6b3a7640000830261256d565b60006105f383836126f5565b60008181526003830160205260408120548190438111611ecf5760405162461bcd60e51b815260206004820152601660248201527f6f7264657220616c72656164792066696e69736865640000000000000000000060448201526064016105d7565b600084815260048601602052604081205490611eeb4384613b22565b9050611ef78282613ab7565b6000878152600589016020526040902054909550611f2a61106d611f1a85611d90565b838b600101546110679190613b22565b945082886000016000828254611f409190613b22565b90915550506000878152600489016020908152604080832083905560038b01825280832083905586835260028b0190915281208054859290611f83908490613b22565b92505081905550505050509250929050565b6000836001015482611fa79190613b22565b60028501546001600160a01b0316600090815260048601602052604081205491925090611fd5908390613ab7565b60038601546001600160a01b0316600090815260048701602052604081205491925090612003908490613ab7565b60028701546001600160a01b039081166000908152602088905260408082205460038b0154909316825281205492935090919080808061204586868a8a6127ea565b9350935093509350818b60008e60020160009054906101000a90046001600160a01b03166001600160a01b03166001600160a01b0316815260200190815260200160002081905550808b60008e60030160009054906101000a90046001600160a01b03166001600160a01b03166001600160a01b031681526020019081526020016000208190555060008c60040160008e60020160009054906101000a90046001600160a01b03166001600160a01b03166001600160a01b03168152602001908152602001600020905060008d60040160008f60030160009054906101000a90046001600160a01b03166001600160a01b03166001600160a01b031681526020019081526020016000209050612164858361298690919063ffffffff16565b61216e8187612986565b612178828d6129c8565b612182818d6129c8565b505050506001909901969096555050505050505050565b60008181526004830160205260408120548061221d5760405162461bcd60e51b815260206004820152602260248201527f73616c6573207261746520616d6f756e74206d75737420626520706f7369746960448201527f766500000000000000000000000000000000000000000000000000000000000060648201526084016105d7565b600083815260038501602090815260408083205460058801909252909120544382101561228857600082815260068701602052604090205461226e61106d61226486611d90565b6110678585613b22565b600087815260048901602052604081205594506122c09050565b6122a761106d61229785611d90565b8389600101546110679190613b22565b6001870154600087815260058901602052604090205593505b50505092915050565b60006122d587836118df565b6040516323b872dd60e01b8152336004820152306024820152604481018590526001600160a01b038716906323b872dd90606401602060405180830381600087803b15801561232357600080fd5b505af1158015612337573d6000803e3d6000fd5b505050506040513d601f19601f8201168201806040525081019061235b9190613b00565b508654439060009061236d9083613b39565b6123779083613b22565b9050600081612387876001613a9f565b8b546123939190613ab7565b61239d9190613a9f565b905060006123ab8483613b22565b6123b59089613aec565b6001600160a01b038b16600090815260048d016020526040902060058d0154919250906123e59082908486612a0c565b6040518060c001604052808d600501548152602001848152602001838152602001336001600160a01b031681526020018c6001600160a01b031681526020018b6001600160a01b03168152508c60060160008e60050154815260200190815260200160002060008201518160000155602082015181600101556040820151816002015560608201518160030160006101000a8154816001600160a01b0302191690836001600160a01b0316021790555060808201518160040160006101000a8154816001600160a01b0302191690836001600160a01b0316021790555060a08201518160050160006101000a8154816001600160a01b0302191690836001600160a01b031602179055509050508b6007016000336001600160a01b03166001600160a01b031681526020019081526020016000208c6005015490806001815401808255809150506001900390600052602060002001600090919091909150558b600501600081548092919061255990613b4d565b909155509c9b505050505050505050505050565b60008161257c57506000919050565b5060018170010000000000000000000000000000000081106125a35760409190911b9060801c5b6801000000000000000081106125be5760209190911b9060401c5b64010000000081106125d55760109190911b9060201c5b6201000081106125ea5760089190911b9060101c5b61010081106125fe5760049190911b9060081c5b601081106126115760029190911b9060041c5b6008811061262157600182901b91505b600182848161263257612632613ad6565b048301901c9150600182848161264a5761264a613ad6565b048301901c9150600182848161266257612662613ad6565b048301901c9150600182848161267a5761267a613ad6565b048301901c9150600182848161269257612692613ad6565b048301901c915060018284816126aa576126aa613ad6565b048301901c915060018284816126c2576126c2613ad6565b048301901c915060008284816126da576126da613ad6565b049050808310156126eb57826126ed565b805b949350505050565b60008080600019848609848602925082811083820303915050670de0b6b3a76400008110612752576040517fd31b3402000000000000000000000000000000000000000000000000000000008152600481018290526024016105d7565b600080670de0b6b3a76400008688099150506706f05b59d3b1ffff81118261278c5780670de0b6b3a76400008504019450505050506104e8565b6204000082850304939091119091037d40000000000000000000000000000000000000000000000000000000000002919091177faccb18165bd6fe31ae1cf318dc5b51eee0e1ba569b88cd74c1773b91fac106690201905092915050565b6000808080851580156127fb575084155b156128115750600092508291508690508561297b565b85612857576128208588613a9f565b61282a868a613ab7565b6128349190613aec565b9350600092506128448489613b22565b91506128508588613a9f565b905061297b565b84612896576000935061286a8689613a9f565b6128748789613ab7565b61287e9190613aec565b925061288a8689613a9f565b91506128508388613b22565b60006128a187612a80565b905060006128ae87612a80565b905060006128bb8b612a80565b905060006128c88b612a80565b905060006128d68383612b35565b905060006128e684848888612c45565b905060006128f8878784868989612ca2565b905060006129108561290a8885612d47565b90612b35565b905060008261291f8a89613b68565b6129299190613bc0565b90506000826129388a89613b68565b6129429190613bc0565b905061294d82612e58565b61295682612e58565b61295f86612e58565b61296886612e58565b9d509d509d509d50505050505050505050505b945094509450949050565b815415611d8c576129ac61299d8360000154611d90565b6129a683611d90565b90612e6c565b8260010160008282546129bf9190613a9f565b90915550505050565b60008181526002830160205260408120548354909182918591906129ed908490613b22565b9091555050506001820154600091825260069092016020526040902055565b81846000016000828254612a209190613a9f565b9091555050600184015460008481526005860160209081526040808320939093556003870181528282208490556004870181528282208590558382526002870190529081208054849290612a75908490613a9f565b909155505050505050565b60007ffffffffffffffff6c6d11716de2a2f8c500cdd19dbc6030cd280cbb9b6b8f070821215612adf576040517fe608e18b000000000000000000000000000000000000000000000000000000008152600481018390526024016105d7565b7809392ee8e921d5d073aff322e62439fcf32d7f344649470f90821315611de8576040517f71f72a31000000000000000000000000000000000000000000000000000000008152600481018390526024016105d7565b6000600160ff1b831480612b4c5750600160ff1b82145b15612b83576040517f3406846c00000000000000000000000000000000000000000000000000000000815260040160405180910390fd5b60008060008512612b945784612b99565b846000035b915060008412612ba95783612bae565b836000035b90506000612bbc83836126f5565b90507f7fffffffffffffffffffffffffffffffffffffffffffffffffffffffffffffff811115612c1b576040517fbf79e8d9000000000000000000000000000000000000000000000000000000008152600481018290526024016105d7565b600019808713908613808218600114612c345782612c39565b826000035b98975050505050505050565b600080612c5d612c5484612e81565b61290a88612e81565b90506000612c6d612c5486612e81565b90506000612c7b8284613bc0565b90506000612c898385613b68565b9050612c958282612d47565b9998505050505050505050565b600080612cbf612cba8861290a8b61290a6004612a80565b612e81565b90506000612cd7612cd2612c5486612e81565b612f16565b90506000612ced612ce88484612b35565b612f36565b90506000612d0e612cfe8a84613bc0565b612d088b85613b68565b90612d47565b90506000612d2b612d1e8d612e81565b61290a612cba8c8f612d47565b9050612d378282612b35565b9c9b505050505050505050505050565b6000600160ff1b831480612d5e5750600160ff1b82145b15612d95576040517fb3c754a300000000000000000000000000000000000000000000000000000000815260040160405180910390fd5b60008060008512612da65784612dab565b846000035b915060008412612dbb5783612dc0565b836000035b90506000612dd783670de0b6b3a764000084612fd5565b90507f7fffffffffffffffffffffffffffffffffffffffffffffffffffffffffffffff811115612e36576040517f7cb4bef5000000000000000000000000000000000000000000000000000000008152600481018290526024016105d7565b600019808713908613808218600114612e4f5782612c39565b612c3983613c18565b6000670de0b6b3a7640000825b0592915050565b60006105f383670de0b6b3a764000084612fd5565b600080821215612ec0576040517fc11907fe000000000000000000000000000000000000000000000000000000008152600481018390526024016105d7565b7809392ee8e921d5d073aff322e62439fcf32d7f344649470f90821315611e4e576040517f2c482c39000000000000000000000000000000000000000000000000000000008152600481018390526024016105d7565b6000816ec097ce7bc90715b34b9f100000000081612e6557612e65613ad6565b60007ffffffffffffffffffffffffffffffffffffffffffffffffdc0d0570925a462ce821215612f6857506000919050565b680736ea4425c11ac6318212612fad576040517f99bb7541000000000000000000000000000000000000000000000000000000008152600481018390526024016105d7565b6714057b7ef767814f82026105f3670de0b6b3a76400006706f05b59d3b200008301056130bc565b6000808060001985870985870292508281108382030391505080600014156130105783828161300657613006613ad6565b04925050506105f3565b838110613053576040517f773cc18c00000000000000000000000000000000000000000000000000000000815260048101829052602481018590526044016105d7565b60008486880960026001871981018816978890046003810283188082028403028082028403028082028403028082028403028082028403029081029092039091026000889003889004909101858311909403939093029303949094049190911702949350505050565b60008082121561311f577ffffffffffffffffffffffffffffffffffffffffffffffffcc22e87f6eb468eeb8212156130f657506000919050565b613102826000036130bc565b6ec097ce7bc90715b34b9f100000000081612e6557612e65613ad6565b680a688906bd8b0000008212613164576040517fe69458f9000000000000000000000000000000000000000000000000000000008152600481018390526024016105d7565b670de0b6b3a7640000604083901b046105f381613181565b919050565b778000000000000000000000000000000000000000000000006780000000000000008216156131b95768016a09e667f3bcc9090260401c5b6740000000000000008216156131d8576801306fe0a31b7152df0260401c5b6720000000000000008216156131f7576801172b83c7d517adce0260401c5b6710000000000000008216156132165768010b5586cf9890f62a0260401c5b670800000000000000821615613235576801059b0d31585743ae0260401c5b67040000000000000082161561325457680102c9a3e778060ee70260401c5b6702000000000000008216156132735768010163da9fb33356d80260401c5b67010000000000000082161561329257680100b1afa5abcbed610260401c5b66800000000000008216156132b05768010058c86da1c09ea20260401c5b66400000000000008216156132ce576801002c605e2e8cec500260401c5b66200000000000008216156132ec57680100162f3904051fa10260401c5b661000000000000082161561330a576801000b175effdc76ba0260401c5b660800000000000082161561332857680100058ba01fb9f96d0260401c5b66040000000000008216156133465768010002c5cc37da94920260401c5b6602000000000000821615613364576801000162e525ee05470260401c5b66010000000000008216156133825768010000b17255775c040260401c5b6580000000000082161561339f576801000058b91b5bc9ae0260401c5b654000000000008216156133bc57680100002c5c89d5ec6d0260401c5b652000000000008216156133d95768010000162e43f4f8310260401c5b651000000000008216156133f657680100000b1721bcfc9a0260401c5b650800000000008216156134135768010000058b90cf1e6e0260401c5b65040000000000821615613430576801000002c5c863b73f0260401c5b6502000000000082161561344d57680100000162e430e5a20260401c5b6501000000000082161561346a576801000000b1721835510260401c5b64800000000082161561348657680100000058b90c0b490260401c5b6440000000008216156134a25768010000002c5c8601cc0260401c5b6420000000008216156134be576801000000162e42fff00260401c5b6410000000008216156134da5768010000000b17217fbb0260401c5b6408000000008216156134f6576801000000058b90bfce0260401c5b64040000000082161561351257680100000002c5c85fe30260401c5b64020000000082161561352e5768010000000162e42ff10260401c5b64010000000082161561354a57680100000000b17217f80260401c5b63800000008216156135655768010000000058b90bfc0260401c5b6340000000821615613580576801000000002c5c85fe0260401c5b632000000082161561359b57680100000000162e42ff0260401c5b63100000008216156135b6576801000000000b17217f0260401c5b63080000008216156135d157680100000000058b90c00260401c5b63040000008216156135ec5768010000000002c5c8600260401c5b6302000000821615613607576801000000000162e4300260401c5b63010000008216156136225768010000000000b172180260401c5b6280000082161561363c576801000000000058b90c0260401c5b6240000082161561365657680100000000002c5c860260401c5b622000008216156136705768010000000000162e430260401c5b6210000082161561368a57680100000000000b17210260401c5b620800008216156136a45768010000000000058b910260401c5b620400008216156136be576801000000000002c5c80260401c5b620200008216156136d857680100000000000162e40260401c5b620100008216156136f2576801000000000000b1720260401c5b61800082161561370b57680100000000000058b90260401c5b6140008216156137245768010000000000002c5d0260401c5b61200082161561373d576801000000000000162e0260401c5b6110008216156137565768010000000000000b170260401c5b61080082161561376f576801000000000000058c0260401c5b61040082161561378857680100000000000002c60260401c5b6102008216156137a157680100000000000001630260401c5b6101008216156137ba57680100000000000000b10260401c5b60808216156137d257680100000000000000590260401c5b60408216156137ea576801000000000000002c0260401c5b602082161561380257680100000000000000160260401c5b601082161561381a576801000000000000000b0260401c5b600882161561383257680100000000000000060260401c5b600482161561384a57680100000000000000030260401c5b600282161561386257680100000000000000010260401c5b600182161561387a57680100000000000000010260401c5b670de0b6b3a76400000260409190911c60bf031c90565b600060208083528351808285015260005b818110156138be578581018301518582016040015282016138a2565b818111156138d0576000604083870101525b50601f017fffffffffffffffffffffffffffffffffffffffffffffffffffffffffffffffe016929092016040019392505050565b80356001600160a01b038116811461317c57600080fd5b6000806040838503121561392e57600080fd5b61393783613904565b946020939093013593505050565b60006020828403121561395757600080fd5b5035919050565b60008060006060848603121561397357600080fd5b61397c84613904565b925061398a60208501613904565b9150604084013590509250925092565b6000602082840312156139ac57600080fd5b6105f382613904565b6020808252825182820181905260009190848201906040850190845b818110156139ed578351835292840192918401916001016139d1565b50909695505050505050565b60008060408385031215613a0c57600080fd5b50508035926020909101359150565b60008060408385031215613a2e57600080fd5b613a3783613904565b9150613a4560208401613904565b90509250929050565b600181811c90821680613a6257607f821691505b60208210811415613a8357634e487b7160e01b600052602260045260246000fd5b50919050565b634e487b7160e01b600052601160045260246000fd5b60008219821115613ab257613ab2613a89565b500190565b6000816000190483118215151615613ad157613ad1613a89565b500290565b634e487b7160e01b600052601260045260246000fd5b600082613afb57613afb613ad6565b500490565b600060208284031215613b1257600080fd5b815180151581146105f357600080fd5b600082821015613b3457613b34613a89565b500390565b600082613b4857613b48613ad6565b500690565b6000600019821415613b6157613b61613a89565b5060010190565b6000808212827f7fffffffffffffffffffffffffffffffffffffffffffffffffffffffffffffff03841381151615613ba257613ba2613a89565b82600160ff1b038412811615613bba57613bba613a89565b50500190565b600080831283600160ff1b01831281151615613bde57613bde613a89565b837f7fffffffffffffffffffffffffffffffffffffffffffffffffffffffffffffff018313811615613c1257613c12613a89565b50500390565b6000600160ff1b821415613c2e57613c2e613a89565b506000039056fea2646970667358221220274ea1d233e025f4d632b91de06fff5db2d193950c47784ae3c3834f8219db5264736f6c63430008090033",
  "linkReferences": {},
  "deployedLinkReferences": {}
}