{
  "_format": "hh-sol-artifact-1",
  "contractName": "TWAMM",
  "sourceName": "contracts/TWAMM.sol",
  "abi": [
    {
      "inputs": [
        {
          "internalType": "string",
          "name": "_name",
          "type": "string"
        },
        {
          "internalType": "string",
          "name": "_symbol",
          "type": "string"
        },
        {
          "internalType": "address",
          "name": "_tokenA",
          "type": "address"
        },
        {
          "internalType": "address",
          "name": "_tokenB",
          "type": "address"
        },
        {
          "internalType": "uint256",
          "name": "_orderBlockInterval",
          "type": "uint256"
        }
      ],
      "stateMutability": "nonpayable",
      "type": "constructor"
    },
    {
      "inputs": [],
      "name": "PRBMathSD59x18__DivInputTooSmall",
      "type": "error"
    },
    {
      "inputs": [
        {
          "internalType": "uint256",
          "name": "rAbs",
          "type": "uint256"
        }
      ],
      "name": "PRBMathSD59x18__DivOverflow",
      "type": "error"
    },
    {
      "inputs": [
        {
          "internalType": "int256",
          "name": "x",
          "type": "int256"
        }
      ],
      "name": "PRBMathSD59x18__Exp2InputTooBig",
      "type": "error"
    },
    {
      "inputs": [
        {
          "internalType": "int256",
          "name": "x",
          "type": "int256"
        }
      ],
      "name": "PRBMathSD59x18__ExpInputTooBig",
      "type": "error"
    },
    {
      "inputs": [
        {
          "internalType": "int256",
          "name": "x",
          "type": "int256"
        }
      ],
      "name": "PRBMathSD59x18__FromIntOverflow",
      "type": "error"
    },
    {
      "inputs": [
        {
          "internalType": "int256",
          "name": "x",
          "type": "int256"
        }
      ],
      "name": "PRBMathSD59x18__FromIntUnderflow",
      "type": "error"
    },
    {
      "inputs": [],
      "name": "PRBMathSD59x18__MulInputTooSmall",
      "type": "error"
    },
    {
      "inputs": [
        {
          "internalType": "uint256",
          "name": "rAbs",
          "type": "uint256"
        }
      ],
      "name": "PRBMathSD59x18__MulOverflow",
      "type": "error"
    },
    {
      "inputs": [
        {
          "internalType": "int256",
          "name": "x",
          "type": "int256"
        }
      ],
      "name": "PRBMathSD59x18__SqrtNegativeInput",
      "type": "error"
    },
    {
      "inputs": [
        {
          "internalType": "int256",
          "name": "x",
          "type": "int256"
        }
      ],
      "name": "PRBMathSD59x18__SqrtOverflow",
      "type": "error"
    },
    {
      "inputs": [
        {
          "internalType": "uint256",
          "name": "x",
          "type": "uint256"
        }
      ],
      "name": "PRBMathUD60x18__FromUintOverflow",
      "type": "error"
    },
    {
      "inputs": [
        {
          "internalType": "uint256",
          "name": "x",
          "type": "uint256"
        }
      ],
      "name": "PRBMathUD60x18__SqrtOverflow",
      "type": "error"
    },
    {
      "inputs": [
        {
          "internalType": "uint256",
          "name": "prod1",
          "type": "uint256"
        }
      ],
      "name": "PRBMath__MulDivFixedPointOverflow",
      "type": "error"
    },
    {
      "inputs": [
        {
          "internalType": "uint256",
          "name": "prod1",
          "type": "uint256"
        },
        {
          "internalType": "uint256",
          "name": "denominator",
          "type": "uint256"
        }
      ],
      "name": "PRBMath__MulDivOverflow",
      "type": "error"
    },
    {
      "anonymous": false,
      "inputs": [
        {
          "indexed": true,
          "internalType": "address",
          "name": "owner",
          "type": "address"
        },
        {
          "indexed": true,
          "internalType": "address",
          "name": "spender",
          "type": "address"
        },
        {
          "indexed": false,
          "internalType": "uint256",
          "name": "value",
          "type": "uint256"
        }
      ],
      "name": "Approval",
      "type": "event"
    },
    {
      "anonymous": false,
      "inputs": [
        {
          "indexed": true,
          "internalType": "address",
          "name": "addr",
          "type": "address"
        },
        {
          "indexed": false,
          "internalType": "uint256",
          "name": "orderId",
          "type": "uint256"
        }
      ],
      "name": "CancelLongTermOrder",
      "type": "event"
    },
    {
      "anonymous": false,
      "inputs": [
        {
          "indexed": true,
          "internalType": "address",
          "name": "addr",
          "type": "address"
        },
        {
          "indexed": false,
          "internalType": "uint256",
          "name": "amountA",
          "type": "uint256"
        },
        {
          "indexed": false,
          "internalType": "uint256",
          "name": "amountB",
          "type": "uint256"
        }
      ],
      "name": "InitialLiquidityProvided",
      "type": "event"
    },
    {
      "anonymous": false,
      "inputs": [
        {
          "indexed": true,
          "internalType": "address",
          "name": "addr",
          "type": "address"
        },
        {
          "indexed": false,
          "internalType": "uint256",
          "name": "lpTokens",
          "type": "uint256"
        }
      ],
      "name": "LiquidityProvided",
      "type": "event"
    },
    {
      "anonymous": false,
      "inputs": [
        {
          "indexed": true,
          "internalType": "address",
          "name": "addr",
          "type": "address"
        },
        {
          "indexed": false,
          "internalType": "uint256",
          "name": "lpTokens",
          "type": "uint256"
        }
      ],
      "name": "LiquidityRemoved",
      "type": "event"
    },
    {
      "anonymous": false,
      "inputs": [
        {
          "indexed": true,
          "internalType": "address",
          "name": "addr",
          "type": "address"
        },
        {
          "indexed": false,
          "internalType": "uint256",
          "name": "amountAIn",
          "type": "uint256"
        },
        {
          "indexed": false,
          "internalType": "uint256",
          "name": "orderId",
          "type": "uint256"
        }
      ],
      "name": "LongTermSwapAToB",
      "type": "event"
    },
    {
      "anonymous": false,
      "inputs": [
        {
          "indexed": true,
          "internalType": "address",
          "name": "addr",
          "type": "address"
        },
        {
          "indexed": false,
          "internalType": "uint256",
          "name": "amountBIn",
          "type": "uint256"
        },
        {
          "indexed": false,
          "internalType": "uint256",
          "name": "orderId",
          "type": "uint256"
        }
      ],
      "name": "LongTermSwapBToA",
      "type": "event"
    },
    {
      "anonymous": false,
      "inputs": [
        {
          "indexed": true,
          "internalType": "address",
          "name": "addr",
          "type": "address"
        },
        {
          "indexed": false,
          "internalType": "uint256",
          "name": "amountAIn",
          "type": "uint256"
        },
        {
          "indexed": false,
          "internalType": "uint256",
          "name": "amountBOut",
          "type": "uint256"
        }
      ],
      "name": "SwapAToB",
      "type": "event"
    },
    {
      "anonymous": false,
      "inputs": [
        {
          "indexed": true,
          "internalType": "address",
          "name": "addr",
          "type": "address"
        },
        {
          "indexed": false,
          "internalType": "uint256",
          "name": "amountBIn",
          "type": "uint256"
        },
        {
          "indexed": false,
          "internalType": "uint256",
          "name": "amountAOut",
          "type": "uint256"
        }
      ],
      "name": "SwapBToA",
      "type": "event"
    },
    {
      "anonymous": false,
      "inputs": [
        {
          "indexed": true,
          "internalType": "address",
          "name": "from",
          "type": "address"
        },
        {
          "indexed": true,
          "internalType": "address",
          "name": "to",
          "type": "address"
        },
        {
          "indexed": false,
          "internalType": "uint256",
          "name": "value",
          "type": "uint256"
        }
      ],
      "name": "Transfer",
      "type": "event"
    },
    {
      "anonymous": false,
      "inputs": [
        {
          "indexed": true,
          "internalType": "address",
          "name": "addr",
          "type": "address"
        },
        {
          "indexed": false,
          "internalType": "uint256",
          "name": "orderId",
          "type": "uint256"
        }
      ],
      "name": "WithdrawProceedsFromLongTermOrder",
      "type": "event"
    },
    {
      "inputs": [],
      "name": "LP_FEE",
      "outputs": [
        {
          "internalType": "uint256",
          "name": "",
          "type": "uint256"
        }
      ],
      "stateMutability": "view",
      "type": "function"
    },
    {
      "inputs": [
        {
          "internalType": "address",
          "name": "owner",
          "type": "address"
        },
        {
          "internalType": "address",
          "name": "spender",
          "type": "address"
        }
      ],
      "name": "allowance",
      "outputs": [
        {
          "internalType": "uint256",
          "name": "",
          "type": "uint256"
        }
      ],
      "stateMutability": "view",
      "type": "function"
    },
    {
      "inputs": [
        {
          "internalType": "address",
          "name": "spender",
          "type": "address"
        },
        {
          "internalType": "uint256",
          "name": "amount",
          "type": "uint256"
        }
      ],
      "name": "approve",
      "outputs": [
        {
          "internalType": "bool",
          "name": "",
          "type": "bool"
        }
      ],
      "stateMutability": "nonpayable",
      "type": "function"
    },
    {
      "inputs": [
        {
          "internalType": "address",
          "name": "account",
          "type": "address"
        }
      ],
      "name": "balanceOf",
      "outputs": [
        {
          "internalType": "uint256",
          "name": "",
          "type": "uint256"
        }
      ],
      "stateMutability": "view",
      "type": "function"
    },
    {
      "inputs": [
        {
          "internalType": "uint256",
          "name": "orderId",
          "type": "uint256"
        }
      ],
      "name": "cancelLongTermSwap",
      "outputs": [],
      "stateMutability": "nonpayable",
      "type": "function"
    },
    {
      "inputs": [],
      "name": "decimals",
      "outputs": [
        {
          "internalType": "uint8",
          "name": "",
          "type": "uint8"
        }
      ],
      "stateMutability": "view",
      "type": "function"
    },
    {
      "inputs": [
        {
          "internalType": "address",
          "name": "spender",
          "type": "address"
        },
        {
          "internalType": "uint256",
          "name": "subtractedValue",
          "type": "uint256"
        }
      ],
      "name": "decreaseAllowance",
      "outputs": [
        {
          "internalType": "bool",
          "name": "",
          "type": "bool"
        }
      ],
      "stateMutability": "nonpayable",
      "type": "function"
    },
    {
      "inputs": [],
      "name": "executeVirtualOrders",
      "outputs": [],
      "stateMutability": "nonpayable",
      "type": "function"
    },
    {
      "inputs": [
        {
          "internalType": "address",
          "name": "spender",
          "type": "address"
        },
        {
          "internalType": "uint256",
          "name": "addedValue",
          "type": "uint256"
        }
      ],
      "name": "increaseAllowance",
      "outputs": [
        {
          "internalType": "bool",
          "name": "",
          "type": "bool"
        }
      ],
      "stateMutability": "nonpayable",
      "type": "function"
    },
    {
      "inputs": [
        {
          "internalType": "uint256",
          "name": "amountAIn",
          "type": "uint256"
        },
        {
          "internalType": "uint256",
          "name": "numberOfBlockIntervals",
          "type": "uint256"
        }
      ],
      "name": "longTermSwapFromAToB",
      "outputs": [],
      "stateMutability": "nonpayable",
      "type": "function"
    },
    {
      "inputs": [
        {
          "internalType": "uint256",
          "name": "amountBIn",
          "type": "uint256"
        },
        {
          "internalType": "uint256",
          "name": "numberOfBlockIntervals",
          "type": "uint256"
        }
      ],
      "name": "longTermSwapFromBToA",
      "outputs": [],
      "stateMutability": "nonpayable",
      "type": "function"
    },
    {
      "inputs": [],
      "name": "name",
      "outputs": [
        {
          "internalType": "string",
          "name": "",
          "type": "string"
        }
      ],
      "stateMutability": "view",
      "type": "function"
    },
    {
      "inputs": [],
      "name": "orderBlockInterval",
      "outputs": [
        {
          "internalType": "uint256",
          "name": "",
          "type": "uint256"
        }
      ],
      "stateMutability": "view",
      "type": "function"
    },
    {
      "inputs": [
        {
          "internalType": "uint256",
          "name": "amountA",
          "type": "uint256"
        },
        {
          "internalType": "uint256",
          "name": "amountB",
          "type": "uint256"
        }
      ],
      "name": "provideInitialLiquidity",
      "outputs": [],
      "stateMutability": "nonpayable",
      "type": "function"
    },
    {
      "inputs": [
        {
          "internalType": "uint256",
          "name": "lpTokenAmount",
          "type": "uint256"
        }
      ],
      "name": "provideLiquidity",
      "outputs": [],
      "stateMutability": "nonpayable",
      "type": "function"
    },
    {
      "inputs": [
        {
          "internalType": "uint256",
          "name": "lpTokenAmount",
          "type": "uint256"
        }
      ],
      "name": "removeLiquidity",
      "outputs": [],
      "stateMutability": "nonpayable",
      "type": "function"
    },
    {
      "inputs": [
        {
          "internalType": "uint256",
          "name": "amountAIn",
          "type": "uint256"
        }
      ],
      "name": "swapFromAToB",
      "outputs": [],
      "stateMutability": "nonpayable",
      "type": "function"
    },
    {
      "inputs": [
        {
          "internalType": "uint256",
          "name": "amountBIn",
          "type": "uint256"
        }
      ],
      "name": "swapFromBToA",
      "outputs": [],
      "stateMutability": "nonpayable",
      "type": "function"
    },
    {
      "inputs": [],
      "name": "symbol",
      "outputs": [
        {
          "internalType": "string",
          "name": "",
          "type": "string"
        }
      ],
      "stateMutability": "view",
      "type": "function"
    },
    {
      "inputs": [],
      "name": "tokenA",
      "outputs": [
        {
          "internalType": "address",
          "name": "",
          "type": "address"
        }
      ],
      "stateMutability": "view",
      "type": "function"
    },
    {
      "inputs": [],
      "name": "tokenAReserves",
      "outputs": [
        {
          "internalType": "uint256",
          "name": "",
          "type": "uint256"
        }
      ],
      "stateMutability": "view",
      "type": "function"
    },
    {
      "inputs": [],
      "name": "tokenB",
      "outputs": [
        {
          "internalType": "address",
          "name": "",
          "type": "address"
        }
      ],
      "stateMutability": "view",
      "type": "function"
    },
    {
      "inputs": [],
      "name": "tokenBReserves",
      "outputs": [
        {
          "internalType": "uint256",
          "name": "",
          "type": "uint256"
        }
      ],
      "stateMutability": "view",
      "type": "function"
    },
    {
      "inputs": [],
      "name": "totalSupply",
      "outputs": [
        {
          "internalType": "uint256",
          "name": "",
          "type": "uint256"
        }
      ],
      "stateMutability": "view",
      "type": "function"
    },
    {
      "inputs": [
        {
          "internalType": "address",
          "name": "recipient",
          "type": "address"
        },
        {
          "internalType": "uint256",
          "name": "amount",
          "type": "uint256"
        }
      ],
      "name": "transfer",
      "outputs": [
        {
          "internalType": "bool",
          "name": "",
          "type": "bool"
        }
      ],
      "stateMutability": "nonpayable",
      "type": "function"
    },
    {
      "inputs": [
        {
          "internalType": "address",
          "name": "sender",
          "type": "address"
        },
        {
          "internalType": "address",
          "name": "recipient",
          "type": "address"
        },
        {
          "internalType": "uint256",
          "name": "amount",
          "type": "uint256"
        }
      ],
      "name": "transferFrom",
      "outputs": [
        {
          "internalType": "bool",
          "name": "",
          "type": "bool"
        }
      ],
      "stateMutability": "nonpayable",
      "type": "function"
    },
    {
      "inputs": [
        {
          "internalType": "uint256",
          "name": "orderId",
          "type": "uint256"
        }
      ],
      "name": "withdrawProceedsFromLongTermSwap",
      "outputs": [],
      "stateMutability": "nonpayable",
      "type": "function"
    }
  ],
  "bytecode": "0x60806040523480156200001157600080fd5b5060405162003b1238038062003b12833981016040819052620000349162000294565b8451859085906200004d90600390602085019062000104565b5080516200006390600490602084019062000104565b5050600580546001600160a01b03199081166001600160a01b038781169190911790925560068054909116918516919091179055506008819055620000b9600984844385620000c4602090811b62000fab17901c565b50505050506200036a565b6002850180546001600160a01b039586166001600160a01b0319918216179091556003860180549490951693169290921790925560018301919091559055565b82805462000112906200032d565b90600052602060002090601f01602090048101928262000136576000855562000181565b82601f106200015157805160ff191683800117855562000181565b8280016001018555821562000181579182015b828111156200018157825182559160200191906001019062000164565b506200018f92915062000193565b5090565b5b808211156200018f576000815560010162000194565b634e487b7160e01b600052604160045260246000fd5b600082601f830112620001d257600080fd5b81516001600160401b0380821115620001ef57620001ef620001aa565b604051601f8301601f19908116603f011681019082821181831017156200021a576200021a620001aa565b816040528381526020925086838588010111156200023757600080fd5b600091505b838210156200025b57858201830151818301840152908201906200023c565b838211156200026d5760008385830101525b9695505050505050565b80516001600160a01b03811681146200028f57600080fd5b919050565b600080600080600060a08688031215620002ad57600080fd5b85516001600160401b0380821115620002c557600080fd5b620002d389838a01620001c0565b96506020880151915080821115620002ea57600080fd5b50620002f988828901620001c0565b9450506200030a6040870162000277565b92506200031a6060870162000277565b9150608086015190509295509295909350565b600181811c908216806200034257607f821691505b602082108114156200036457634e487b7160e01b600052602260045260246000fd5b50919050565b613798806200037a6000396000f3fe608060405234801561001057600080fd5b50600436106101a95760003560e01c806363784245116100f9578063a457c2d711610097578063ceb2894c11610071578063ceb2894c1461038b578063dd62ed3e146103ab578063eb521a4c146103e4578063f8534e40146103f757600080fd5b8063a457c2d714610352578063a9059cbb14610365578063a9dd57381461037857600080fd5b8063855b65d0116100d3578063855b65d0146103115780638e91701c1461032457806395d89b41146103375780639c8f9f231461033f57600080fd5b806363784245146102cd57806370a08231146102d557806381fd0a46146102fe57600080fd5b8063313ce567116101665780635a9fae6e116101405780635a9fae6e146102965780635e3f2727146102a95780635f64b55b146102b157806360a9d505146102c457600080fd5b8063313ce5671461025457806339509351146102635780633b4a6bc31461027657600080fd5b806306fdde03146101ae578063095ea7b3146101cc5780630fc63d10146101ef57806318160ddd1461021a5780631f4f5b421461022c57806323b872dd14610241575b600080fd5b6101b661040a565b6040516101c3919061342c565b60405180910390f35b6101df6101da366004613498565b61049c565b60405190151581526020016101c3565b600554610202906001600160a01b031681565b6040516001600160a01b0390911681526020016101c3565b6002545b6040519081526020016101c3565b61023f61023a3660046134c2565b6104b3565b005b6101df61024f3660046134db565b6104f9565b604051601281526020016101c3565b6101df610271366004613498565b6105aa565b6005546001600160a01b031660009081526007602052604090205461021e565b61023f6102a43660046134c2565b6105e6565b61021e601e81565b600654610202906001600160a01b031681565b61021e60085481565b61023f610649565b61021e6102e3366004613517565b6001600160a01b031660009081526020819052604090205490565b61023f61030c3660046134c2565b610657565b61023f61031f366004613532565b610696565b61023f610332366004613532565b6106ea565b6101b6610735565b61023f61034d3660046134c2565b610744565b6101df610360366004613498565b6109c0565b6101df610373366004613498565b610a59565b61023f6103863660046134c2565b610a66565b6006546001600160a01b031660009081526007602052604090205461021e565b61021e6103b9366004613554565b6001600160a01b03918216600090815260016020908152604080832093909416825291909152205490565b61023f6103f23660046134c2565b610ac1565b61023f610405366004613532565b610d73565b60606003805461041990613587565b80601f016020809104026020016040519081016040528092919081815260200182805461044590613587565b80156104925780601f1061046757610100808354040283529160200191610492565b820191906000526020600020905b81548152906001019060200180831161047557829003601f168201915b5050505050905090565b60006104a9338484610feb565b5060015b92915050565b6104c0600982600761110f565b60405181815233907fec1efa7415f20eabaabbfdfc33d5c736e9d413afcc9dedd898c035c0d1889eaa906020015b60405180910390a250565b6000610506848484611320565b6001600160a01b0384166000908152600160209081526040808320338452909152902054828110156105905760405162461bcd60e51b815260206004820152602860248201527f45524332303a207472616e7366657220616d6f756e74206578636565647320616044820152676c6c6f77616e636560c01b60648201526084015b60405180910390fd5b61059d8533858403610feb565b60019150505b9392505050565b3360008181526001602090815260408083206001600160a01b038716845290915281205490916104a99185906105e19086906135d8565b610feb565b600554600654600091610606916001600160a01b039182169116846114ef565b604080518481526020810183905291925033917f1a442df1f5a0e29117f2a0d6ceb8d5db8b4e68203b0d5edac8e267920708522e91015b60405180910390a25050565b6106556009600761172c565b565b610664600982600761179f565b60405181815233907fe91f05f05f7e013ffc245507e3fd86ec0ca1d2f5ab431eea8827cc80f303bf7a906020016104ee565b60006106a6600984846007611919565b604080518581526020810183905291925033917f3f9021da39409c8415526f6f5150f90f549aff31c146178262479dd87789440091015b60405180910390a2505050565b60006106fa60098484600761194a565b604080518581526020810183905291925033917f3118cfac1ed5d8e668c193690497d56fff82f1aabbdf08f598025b0dfe30872791016106dd565b60606004805461041990613587565b6002548111156107965760405162461bcd60e51b815260206004820152601e60248201527f6e6f7420656e6f756768206c7020746f6b656e7320617661696c61626c6500006044820152606401610587565b6107a26009600761172c565b60006107ad60025490565b6005546001600160a01b03166000908152600760205260409020546107d39084906135f0565b6107dd9190613625565b905060006107ea60025490565b6006546001600160a01b03166000908152600760205260409020546108109085906135f0565b61081a9190613625565b60055460405163a9059cbb60e01b8152336004820152602481018590529192506001600160a01b03169063a9059cbb90604401602060405180830381600087803b15801561086757600080fd5b505af115801561087b573d6000803e3d6000fd5b505050506040513d601f19601f8201168201806040525081019061089f9190613639565b5060065460405163a9059cbb60e01b8152336004820152602481018390526001600160a01b039091169063a9059cbb90604401602060405180830381600087803b1580156108ec57600080fd5b505af1158015610900573d6000803e3d6000fd5b505050506040513d601f19601f820116820180604052508101906109249190613639565b506005546001600160a01b03166000908152600760205260408120805484929061094f90849061365b565b90915550506006546001600160a01b03166000908152600760205260408120805483929061097e90849061365b565b9091555061098e90503384611972565b60405183815233907fc2c3f06e49b9f15e7b4af9055e183b0d73362e033ad82a07dec9bf9840171719906020016106dd565b3360009081526001602090815260408083206001600160a01b038616845290915281205482811015610a425760405162461bcd60e51b815260206004820152602560248201527f45524332303a2064656372656173656420616c6c6f77616e63652062656c6f77604482015264207a65726f60d81b6064820152608401610587565b610a4f3385858403610feb565b5060019392505050565b60006104a9338484611320565b600654600554600091610a86916001600160a01b039182169116846114ef565b604080518481526020810183905291925033917f1201e4c6b2a8cfdbb8440a213b3b16f2e11b23315ddb1751c9522fa3f3e6b355910161063d565b600254610b475760405162461bcd60e51b815260206004820152604860248201527f6e6f206c697175696469747920686173206265656e2070726f7669646564207960448201527f65742c206e65656420746f2063616c6c2070726f76696465496e697469616c4c606482015267697175696469747960c01b608482015260a401610587565b610b536009600761172c565b6000610b5e60025490565b6005546001600160a01b0316600090815260076020526040902054610b8390846135f0565b610b8d9190613625565b90506000610b9a60025490565b6006546001600160a01b0316600090815260076020526040902054610bbf90856135f0565b610bc99190613625565b6005546040516323b872dd60e01b81529192506001600160a01b0316906323b872dd90610bfe90339030908790600401613672565b602060405180830381600087803b158015610c1857600080fd5b505af1158015610c2c573d6000803e3d6000fd5b505050506040513d601f19601f82011682018060405250810190610c509190613639565b506006546040516323b872dd60e01b81526001600160a01b03909116906323b872dd90610c8590339030908690600401613672565b602060405180830381600087803b158015610c9f57600080fd5b505af1158015610cb3573d6000803e3d6000fd5b505050506040513d601f19601f82011682018060405250810190610cd79190613639565b506005546001600160a01b031660009081526007602052604081208054849290610d029084906135d8565b90915550506006546001600160a01b031660009081526007602052604081208054839290610d319084906135d8565b90915550610d4190503384611ac0565b60405183815233907fccb2ae3a2936bf4c94fa4e12cdf0cdad6ed0e4888a044cef89afa60f2e4b92d3906020016106dd565b60025415610df45760405162461bcd60e51b815260206004820152604260248201527f6c69717569646974792068617320616c7265616479206265656e2070726f766960448201527f6465642c206e65656420746f2063616c6c2070726f766964654c697175696469606482015261747960f01b608482015260a401610587565b6005546040516323b872dd60e01b81526001600160a01b03909116906323b872dd90610e2890339030908790600401613672565b602060405180830381600087803b158015610e4257600080fd5b505af1158015610e56573d6000803e3d6000fd5b505050506040513d601f19601f82011682018060405250810190610e7a9190613639565b506006546040516323b872dd60e01b81526001600160a01b03909116906323b872dd90610eaf90339030908690600401613672565b602060405180830381600087803b158015610ec957600080fd5b505af1158015610edd573d6000803e3d6000fd5b505050506040513d601f19601f82011682018060405250810190610f019190613639565b506005546001600160a01b039081166000908152600760205260408082208590556006549092168152908120829055610f67610f59610f47610f4285611ba0565b611bed565b610f53610f4287611ba0565b90611c3f565b670de0b6b3a7640000900490565b9050610f733382611ac0565b604080518481526020810184905233917f6f6e8d9cc87c64a4776e719d1ad22f4b0b45089829effa9a2a8cddbdbc43b62b91016106dd565b6002850180546001600160a01b039586166001600160a01b0319918216179091556003860180549490951693169290921790925560018301919091559055565b6001600160a01b03831661104d5760405162461bcd60e51b8152602060048201526024808201527f45524332303a20617070726f76652066726f6d20746865207a65726f206164646044820152637265737360e01b6064820152608401610587565b6001600160a01b0382166110ae5760405162461bcd60e51b815260206004820152602260248201527f45524332303a20617070726f766520746f20746865207a65726f206164647265604482015261737360f01b6064820152608401610587565b6001600160a01b0383811660008181526001602090815260408083209487168084529482529182902085905590518481527f8c5be1e5ebec7d5bd14f71427d1e84f3dd0314c0f7b2291e5b200ac8c7c3b925910160405180910390a3505050565b611119838261172c565b6000828152600684016020526040902060038101546001600160a01b031633146111855760405162461bcd60e51b815260206004820152601a60248201527f73656e646572206d757374206265206f72646572206f776e65720000000000006044820152606401610587565b6004818101546001600160a01b031660009081529085016020526040812090806111af8387611c4b565b9150915060008211806111c25750600081115b6112085760405162461bcd60e51b81526020600482015260176024820152766e6f2070726f636565647320746f20776974686472617760481b6044820152606401610587565b600584015460405163a9059cbb60e01b8152336004820152602481018390526001600160a01b039091169063a9059cbb90604401602060405180830381600087803b15801561125657600080fd5b505af115801561126a573d6000803e3d6000fd5b505050506040513d601f19601f8201168201806040525081019061128e9190613639565b5060048481015460405163a9059cbb60e01b81523392810192909252602482018490526001600160a01b03169063a9059cbb90604401602060405180830381600087803b1580156112de57600080fd5b505af11580156112f2573d6000803e3d6000fd5b505050506040513d601f19601f820116820180604052508101906113169190613639565b5050505050505050565b6001600160a01b0383166113845760405162461bcd60e51b815260206004820152602560248201527f45524332303a207472616e736665722066726f6d20746865207a65726f206164604482015264647265737360d81b6064820152608401610587565b6001600160a01b0382166113e65760405162461bcd60e51b815260206004820152602360248201527f45524332303a207472616e7366657220746f20746865207a65726f206164647260448201526265737360e81b6064820152608401610587565b6001600160a01b0383166000908152602081905260409020548181101561145e5760405162461bcd60e51b815260206004820152602660248201527f45524332303a207472616e7366657220616d6f756e7420657863656564732062604482015265616c616e636560d01b6064820152608401610587565b6001600160a01b038085166000908152602081905260408082208585039055918516815290812080548492906114959084906135d8565b92505081905550826001600160a01b0316846001600160a01b03167fddf252ad1be2c89b69c2b068fc378daa952ba7f163c4a11628f55a4df523b3ef846040516114e191815260200190565b60405180910390a350505050565b60008082116115405760405162461bcd60e51b815260206004820152601c60248201527f7377617020616d6f756e74206d75737420626520706f736974697665000000006044820152606401610587565b61154c6009600761172c565b6001600160a01b0384166000908152600760205260408120546115709084906135d8565b6001600160a01b0385166000908152600760205260409020546115949085906135f0565b61159e9190613625565b90506127106115ae601e8261365b565b6115b890836135f0565b6115c29190613625565b6040516323b872dd60e01b81529092506001600160a01b038616906323b872dd906115f590339030908890600401613672565b602060405180830381600087803b15801561160f57600080fd5b505af1158015611623573d6000803e3d6000fd5b505050506040513d601f19601f820116820180604052508101906116479190613639565b5060405163a9059cbb60e01b8152336004820152602481018390526001600160a01b0385169063a9059cbb90604401602060405180830381600087803b15801561169057600080fd5b505af11580156116a4573d6000803e3d6000fd5b505050506040513d601f19601f820116820180604052508101906116c89190613639565b506001600160a01b038516600090815260076020526040812080548592906116f19084906135d8565b90915550506001600160a01b0384166000908152600760205260408120805484929061171e90849061365b565b909155509195945050505050565b8154600183015460009190611742908290613696565b8460010154611751919061365b565b61175b91906135d8565b90505b4381101561178457611771838383611d6c565b825461177d90826135d8565b905061175e565b4383600101541461179a5761179a838343611d6c565b505050565b6117a9838261172c565b6000828152600684016020526040902060038101546001600160a01b031633146118155760405162461bcd60e51b815260206004820152601a60248201527f73656e646572206d757374206265206f72646572206f776e65720000000000006044820152606401610587565b6004818101546001600160a01b03166000908152908501602052604081209061183e8286611f70565b90506000811161188a5760405162461bcd60e51b81526020600482015260176024820152766e6f2070726f636565647320746f20776974686472617760481b6044820152606401610587565b600583015460405163a9059cbb60e01b8152336004820152602481018390526001600160a01b039091169063a9059cbb90604401602060405180830381600087803b1580156118d857600080fd5b505af11580156118ec573d6000803e3d6000fd5b505050506040513d601f19601f820116820180604052508101906119109190613639565b50505050505050565b600384015460028501546000916119419187916001600160a01b039081169116878787612085565b95945050505050565b600284015460038501546000916119419187916001600160a01b039081169116878787612085565b6001600160a01b0382166119d25760405162461bcd60e51b815260206004820152602160248201527f45524332303a206275726e2066726f6d20746865207a65726f206164647265736044820152607360f81b6064820152608401610587565b6001600160a01b03821660009081526020819052604090205481811015611a465760405162461bcd60e51b815260206004820152602260248201527f45524332303a206275726e20616d6f756e7420657863656564732062616c616e604482015261636560f01b6064820152608401610587565b6001600160a01b0383166000908152602081905260408120838303905560028054849290611a7590849061365b565b90915550506040518281526000906001600160a01b038516907fddf252ad1be2c89b69c2b068fc378daa952ba7f163c4a11628f55a4df523b3ef9060200160405180910390a3505050565b6001600160a01b038216611b165760405162461bcd60e51b815260206004820152601f60248201527f45524332303a206d696e7420746f20746865207a65726f2061646472657373006044820152606401610587565b8060026000828254611b2891906135d8565b90915550506001600160a01b03821660009081526020819052604081208054839290611b559084906135d8565b90915550506040518181526001600160a01b038316906000907fddf252ad1be2c89b69c2b068fc378daa952ba7f163c4a11628f55a4df523b3ef9060200160405180910390a35b5050565b60007812725dd1d243aba0e75fe645cc4873f9e65afe688c928e1f21821115611bdf57604051633492ffd960e01b815260048101839052602401610587565b50670de0b6b3a76400000290565b60007812725dd1d243aba0e75fe645cc4873f9e65afe688c928e1f21821115611c2c57604051636155b67d60e01b815260048101839052602401610587565b6104ad670de0b6b3a764000083026122d3565b60006105a3838361244e565b60008181526003830160205260408120548190438111611ca65760405162461bcd60e51b81526020600482015260166024820152751bdc99195c88185b1c9958591e48199a5b9a5cda195960521b6044820152606401610587565b600084815260048601602052604081205490611cc2438461365b565b9050611cce82826135f0565b6000878152600589016020526040902054909550611d01610f59611cf185611ba0565b838b60010154610f53919061365b565b945082886000016000828254611d17919061365b565b90915550506000878152600489016020908152604080832083905560038b01825280832083905586835260028b0190915281208054859290611d5a90849061365b565b92505081905550505050509250929050565b6000836001015482611d7e919061365b565b60028501546001600160a01b0316600090815260048601602052604081205491925090611dac9083906135f0565b60038601546001600160a01b0316600090815260048701602052604081205491925090611dda9084906135f0565b60028701546001600160a01b039081166000908152602088905260408082205460038b01549093168252812054929350909190808080611e1c86868a8a612510565b9350935093509350818b60008e60020160009054906101000a90046001600160a01b03166001600160a01b03166001600160a01b0316815260200190815260200160002081905550808b60008e60030160009054906101000a90046001600160a01b03166001600160a01b03166001600160a01b031681526020019081526020016000208190555060008c60040160008e60020160009054906101000a90046001600160a01b03166001600160a01b03166001600160a01b03168152602001908152602001600020905060008d60040160008f60030160009054906101000a90046001600160a01b03166001600160a01b03166001600160a01b031681526020019081526020016000209050611f3b85836126ac90919063ffffffff16565b611f4581876126ac565b611f4f828d6126ee565b611f59818d6126ee565b505050506001909901969096555050505050505050565b600081815260048301602052604081205480611fd95760405162461bcd60e51b815260206004820152602260248201527f73616c6573207261746520616d6f756e74206d75737420626520706f73697469604482015261766560f01b6064820152608401610587565b600083815260038501602090815260408083205460058801909252909120544382101561204457600082815260068701602052604090205461202a610f5961202086611ba0565b610f53858561365b565b6000878152600489016020526040812055945061207c9050565b612063610f5961205385611ba0565b838960010154610f53919061365b565b6001870154600087815260058901602052604090205593505b50505092915050565b6000612091878361172c565b6040516323b872dd60e01b81526001600160a01b038716906323b872dd906120c190339030908990600401613672565b602060405180830381600087803b1580156120db57600080fd5b505af11580156120ef573d6000803e3d6000fd5b505050506040513d601f19601f820116820180604052508101906121139190613639565b50865443906000906121259083613696565b61212f908361365b565b905060008161213f8760016135d8565b8b5461214b91906135f0565b61215591906135d8565b90506000612163848361365b565b61216d9089613625565b6001600160a01b038b16600090815260048d016020526040902060058d01549192509061219d9082908486612732565b6040518060c001604052808d600501548152602001848152602001838152602001336001600160a01b031681526020018c6001600160a01b031681526020018b6001600160a01b03168152508c60060160008e60050154815260200190815260200160002060008201518160000155602082015181600101556040820151816002015560608201518160030160006101000a8154816001600160a01b0302191690836001600160a01b0316021790555060808201518160040160006101000a8154816001600160a01b0302191690836001600160a01b0316021790555060a08201518160050160006101000a8154816001600160a01b0302191690836001600160a01b031602179055509050508b60050160008154809291906122bf906136aa565b909155509c9b505050505050505050505050565b6000816122e257506000919050565b50600181600160801b81106122fc5760409190911b9060801c5b6801000000000000000081106123175760209190911b9060401c5b640100000000811061232e5760109190911b9060201c5b6201000081106123435760089190911b9060101c5b61010081106123575760049190911b9060081c5b6010811061236a5760029190911b9060041c5b6008811061237a57600182901b91505b600182848161238b5761238b61360f565b048301901c915060018284816123a3576123a361360f565b048301901c915060018284816123bb576123bb61360f565b048301901c915060018284816123d3576123d361360f565b048301901c915060018284816123eb576123eb61360f565b048301901c915060018284816124035761240361360f565b048301901c9150600182848161241b5761241b61360f565b048301901c915060008284816124335761243361360f565b049050808310156124445782612446565b805b949350505050565b60008080600019848609848602925082811083820303915050670de0b6b3a764000081106124925760405163698d9a0160e11b815260048101829052602401610587565b600080670de0b6b3a76400008688099150506706f05b59d3b1ffff8111826124cc5780670de0b6b3a76400008504019450505050506104ad565b620400008285030493909111909103600160ee1b02919091177faccb18165bd6fe31ae1cf318dc5b51eee0e1ba569b88cd74c1773b91fac106690201905092915050565b600080808085158015612521575084155b15612537575060009250829150869050856126a1565b8561257d5761254685886135d8565b612550868a6135f0565b61255a9190613625565b93506000925061256a848961365b565b915061257685886135d8565b90506126a1565b846125bc576000935061259086896135d8565b61259a87896135f0565b6125a49190613625565b92506125b086896135d8565b9150612576838861365b565b60006125c7876127a6565b905060006125d4876127a6565b905060006125e18b6127a6565b905060006125ee8b6127a6565b905060006125fc8383612823565b9050600061260c848488886128e8565b9050600061261e878784868989612945565b905060006126368561263088856129ea565b90612823565b90506000826126458a896136c5565b61264f9190613706565b905060008261265e8a896136c5565b6126689190613706565b905061267382612ab0565b61267c82612ab0565b61268586612ab0565b61268e86612ab0565b9d509d509d509d50505050505050505050505b945094509450949050565b815415611b9c576126d26126c38360000154611ba0565b6126cc83611ba0565b90612ac4565b8260010160008282546126e591906135d8565b90915550505050565b600081815260028301602052604081205483549091829185919061271390849061365b565b9091555050506001820154600091825260069092016020526040902055565b8184600001600082825461274691906135d8565b909155505060018401546000848152600586016020908152604080832093909355600387018152828220849055600487018152828220859055838252600287019052908120805484929061279b9084906135d8565b909155505050505050565b60007809392ee8e921d5d073aff322e62439fcf32d7f344649470f8f198212156127e65760405163e608e18b60e01b815260048101839052602401610587565b7809392ee8e921d5d073aff322e62439fcf32d7f344649470f90821315611bdf576040516371f72a3160e01b815260048101839052602401610587565b6000600160ff1b83148061283a5750600160ff1b82145b1561285857604051630d01a11b60e21b815260040160405180910390fd5b60008060008512612869578461286e565b846000035b91506000841261287e5783612883565b836000035b90506000612891838361244e565b90506001600160ff1b038111156128be5760405163bf79e8d960e01b815260048101829052602401610587565b6000198087139086138082186001146128d757826128dc565b826000035b98975050505050505050565b6000806129006128f784612ad9565b61263088612ad9565b905060006129106128f786612ad9565b9050600061291e8284613706565b9050600061292c83856136c5565b905061293882826129ea565b9998505050505050505050565b60008061296261295d886126308b61263060046127a6565b612ad9565b9050600061297a6129756128f786612ad9565b612b3c565b9050600061299061298b8484612823565b612b5c565b905060006129b16129a18a84613706565b6129ab8b856136c5565b906129ea565b905060006129ce6129c18d612ad9565b61263061295d8c8f6129ea565b90506129da8282612823565b9c9b505050505050505050505050565b6000600160ff1b831480612a015750600160ff1b82145b15612a1f5760405163b3c754a360e01b815260040160405180910390fd5b60008060008512612a305784612a35565b846000035b915060008412612a455783612a4a565b836000035b90506000612a6183670de0b6b3a764000084612bcc565b90506001600160ff1b03811115612a8e57604051637cb4bef560e01b815260048101829052602401610587565b600019808713908613808218600114612aa757826128dc565b6128dc83613745565b6000670de0b6b3a7640000825b0592915050565b60006105a383670de0b6b3a764000084612bcc565b600080821215612aff5760405163608c83ff60e11b815260048101839052602401610587565b7809392ee8e921d5d073aff322e62439fcf32d7f344649470f90821315611c2c57604051632c482c3960e01b815260048101839052602401610587565b6000816ec097ce7bc90715b34b9f100000000081612abd57612abd61360f565b600068023f2fa8f6da5b9d3119821215612b7857506000919050565b680736ea4425c11ac6318212612ba4576040516399bb754160e01b815260048101839052602401610587565b6714057b7ef767814f82026105a3670de0b6b3a76400006706f05b59d3b20000830105612c9a565b600080806000198587098587029250828110838203039150508060001415612c0757838281612bfd57612bfd61360f565b04925050506105a3565b838110612c3157604051631dcf306360e21b81526004810182905260248101859052604401610587565b60008486880960026001871981018816978890046003810283188082028403028082028403028082028403028082028403028082028403029081029092039091026000889003889004909101858311909403939093029303949094049190911702949350505050565b600080821215612ce75768033dd1780914b9711419821215612cbe57506000919050565b612cca82600003612c9a565b6ec097ce7bc90715b34b9f100000000081612abd57612abd61360f565b680a688906bd8b0000008212612d135760405163e69458f960e01b815260048101839052602401610587565b670de0b6b3a7640000604083901b046105a381612d30565b919050565b600160bf1b678000000000000000821615612d545768016a09e667f3bcc9090260401c5b674000000000000000821615612d73576801306fe0a31b7152df0260401c5b672000000000000000821615612d92576801172b83c7d517adce0260401c5b671000000000000000821615612db15768010b5586cf9890f62a0260401c5b670800000000000000821615612dd0576801059b0d31585743ae0260401c5b670400000000000000821615612def57680102c9a3e778060ee70260401c5b670200000000000000821615612e0e5768010163da9fb33356d80260401c5b670100000000000000821615612e2d57680100b1afa5abcbed610260401c5b6680000000000000821615612e4b5768010058c86da1c09ea20260401c5b6640000000000000821615612e69576801002c605e2e8cec500260401c5b6620000000000000821615612e8757680100162f3904051fa10260401c5b6610000000000000821615612ea5576801000b175effdc76ba0260401c5b6608000000000000821615612ec357680100058ba01fb9f96d0260401c5b6604000000000000821615612ee15768010002c5cc37da94920260401c5b6602000000000000821615612eff576801000162e525ee05470260401c5b6601000000000000821615612f1d5768010000b17255775c040260401c5b65800000000000821615612f3a576801000058b91b5bc9ae0260401c5b65400000000000821615612f5757680100002c5c89d5ec6d0260401c5b65200000000000821615612f745768010000162e43f4f8310260401c5b65100000000000821615612f9157680100000b1721bcfc9a0260401c5b65080000000000821615612fae5768010000058b90cf1e6e0260401c5b65040000000000821615612fcb576801000002c5c863b73f0260401c5b65020000000000821615612fe857680100000162e430e5a20260401c5b65010000000000821615613005576801000000b1721835510260401c5b64800000000082161561302157680100000058b90c0b490260401c5b64400000000082161561303d5768010000002c5c8601cc0260401c5b642000000000821615613059576801000000162e42fff00260401c5b6410000000008216156130755768010000000b17217fbb0260401c5b640800000000821615613091576801000000058b90bfce0260401c5b6404000000008216156130ad57680100000002c5c85fe30260401c5b6402000000008216156130c95768010000000162e42ff10260401c5b6401000000008216156130e557680100000000b17217f80260401c5b63800000008216156131005768010000000058b90bfc0260401c5b634000000082161561311b576801000000002c5c85fe0260401c5b632000000082161561313657680100000000162e42ff0260401c5b6310000000821615613151576801000000000b17217f0260401c5b630800000082161561316c57680100000000058b90c00260401c5b63040000008216156131875768010000000002c5c8600260401c5b63020000008216156131a2576801000000000162e4300260401c5b63010000008216156131bd5768010000000000b172180260401c5b628000008216156131d7576801000000000058b90c0260401c5b624000008216156131f157680100000000002c5c860260401c5b6220000082161561320b5768010000000000162e430260401c5b6210000082161561322557680100000000000b17210260401c5b6208000082161561323f5768010000000000058b910260401c5b62040000821615613259576801000000000002c5c80260401c5b6202000082161561327357680100000000000162e40260401c5b6201000082161561328d576801000000000000b1720260401c5b6180008216156132a657680100000000000058b90260401c5b6140008216156132bf5768010000000000002c5d0260401c5b6120008216156132d8576801000000000000162e0260401c5b6110008216156132f15768010000000000000b170260401c5b61080082161561330a576801000000000000058c0260401c5b61040082161561332357680100000000000002c60260401c5b61020082161561333c57680100000000000001630260401c5b61010082161561335557680100000000000000b10260401c5b608082161561336d57680100000000000000590260401c5b6040821615613385576801000000000000002c0260401c5b602082161561339d57680100000000000000160260401c5b60108216156133b5576801000000000000000b0260401c5b60088216156133cd57680100000000000000060260401c5b60048216156133e557680100000000000000030260401c5b60028216156133fd57680100000000000000010260401c5b600182161561341557680100000000000000010260401c5b670de0b6b3a76400000260409190911c60bf031c90565b600060208083528351808285015260005b818110156134595785810183015185820160400152820161343d565b8181111561346b576000604083870101525b50601f01601f1916929092016040019392505050565b80356001600160a01b0381168114612d2b57600080fd5b600080604083850312156134ab57600080fd5b6134b483613481565b946020939093013593505050565b6000602082840312156134d457600080fd5b5035919050565b6000806000606084860312156134f057600080fd5b6134f984613481565b925061350760208501613481565b9150604084013590509250925092565b60006020828403121561352957600080fd5b6105a382613481565b6000806040838503121561354557600080fd5b50508035926020909101359150565b6000806040838503121561356757600080fd5b61357083613481565b915061357e60208401613481565b90509250929050565b600181811c9082168061359b57607f821691505b602082108114156135bc57634e487b7160e01b600052602260045260246000fd5b50919050565b634e487b7160e01b600052601160045260246000fd5b600082198211156135eb576135eb6135c2565b500190565b600081600019048311821515161561360a5761360a6135c2565b500290565b634e487b7160e01b600052601260045260246000fd5b6000826136345761363461360f565b500490565b60006020828403121561364b57600080fd5b815180151581146105a357600080fd5b60008282101561366d5761366d6135c2565b500390565b6001600160a01b039384168152919092166020820152604081019190915260600190565b6000826136a5576136a561360f565b500690565b60006000198214156136be576136be6135c2565b5060010190565b600080821280156001600160ff1b03849003851316156136e7576136e76135c2565b600160ff1b8390038412811615613700576137006135c2565b50500190565b60008083128015600160ff1b850184121615613724576137246135c2565b6001600160ff1b038401831381161561373f5761373f6135c2565b50500390565b6000600160ff1b82141561375b5761375b6135c2565b506000039056fea2646970667358221220746d9223e23535a56cd381eca279dd553c7d0617d1faf612104b660a89eef49064736f6c63430008090033",
  "linkReferences": {},
  "deployedLinkReferences": {}
}