{
  "_format": "hh-sol-artifact-1",
  "contractName": "TWAMM",
  "sourceName": "contracts/TWAMM.sol",
  "abi": [
    {
      "inputs": [
        {
          "internalType": "address",
          "name": "_factory",
          "type": "address"
        },
        {
          "internalType": "address",
          "name": "_WETH",
          "type": "address"
        }
      ],
      "stateMutability": "nonpayable",
      "type": "constructor"
    },
    {
      "inputs": [],
      "name": "WETH",
      "outputs": [
        {
          "internalType": "address",
          "name": "",
          "type": "address"
        }
      ],
      "stateMutability": "view",
      "type": "function"
    },
    {
      "inputs": [
        {
          "internalType": "address",
          "name": "token0",
          "type": "address"
        },
        {
          "internalType": "address",
          "name": "token1",
          "type": "address"
        },
        {
          "internalType": "uint256",
          "name": "amount0",
          "type": "uint256"
        },
        {
          "internalType": "uint256",
          "name": "amount1",
          "type": "uint256"
        },
        {
          "internalType": "uint256",
          "name": "deadline",
          "type": "uint256"
        }
      ],
      "name": "addInitialLiquidity",
      "outputs": [],
      "stateMutability": "nonpayable",
      "type": "function"
    },
    {
      "inputs": [
        {
          "internalType": "address",
          "name": "token",
          "type": "address"
        },
        {
          "internalType": "uint256",
          "name": "amountToken",
          "type": "uint256"
        },
        {
          "internalType": "uint256",
          "name": "amountETH",
          "type": "uint256"
        },
        {
          "internalType": "uint256",
          "name": "deadline",
          "type": "uint256"
        }
      ],
      "name": "addInitialLiquidityETH",
      "outputs": [],
      "stateMutability": "payable",
      "type": "function"
    },
    {
      "inputs": [
        {
          "internalType": "address",
          "name": "token0",
          "type": "address"
        },
        {
          "internalType": "address",
          "name": "token1",
          "type": "address"
        },
        {
          "internalType": "uint256",
          "name": "lpTokenAmount",
          "type": "uint256"
        },
        {
          "internalType": "uint256",
          "name": "deadline",
          "type": "uint256"
        }
      ],
      "name": "addLiquidity",
      "outputs": [],
      "stateMutability": "nonpayable",
      "type": "function"
    },
    {
      "inputs": [
        {
          "internalType": "address",
          "name": "token",
          "type": "address"
        },
        {
          "internalType": "uint256",
          "name": "lpTokenAmount",
          "type": "uint256"
        },
        {
          "internalType": "uint256",
          "name": "deadline",
          "type": "uint256"
        }
      ],
      "name": "addLiquidityETH",
      "outputs": [],
      "stateMutability": "payable",
      "type": "function"
    },
    {
      "inputs": [
        {
          "internalType": "address",
          "name": "token0",
          "type": "address"
        },
        {
          "internalType": "address",
          "name": "token1",
          "type": "address"
        },
        {
          "internalType": "uint256",
          "name": "orderId",
          "type": "uint256"
        },
        {
          "internalType": "uint256",
          "name": "deadline",
          "type": "uint256"
        }
      ],
      "name": "cancelTermSwap",
      "outputs": [],
      "stateMutability": "nonpayable",
      "type": "function"
    },
    {
      "inputs": [],
      "name": "factory",
      "outputs": [
        {
          "internalType": "address",
          "name": "",
          "type": "address"
        }
      ],
      "stateMutability": "view",
      "type": "function"
    },
    {
      "inputs": [
        {
          "internalType": "address",
          "name": "token",
          "type": "address"
        },
        {
          "internalType": "uint256",
          "name": "amountETHIn",
          "type": "uint256"
        },
        {
          "internalType": "uint256",
          "name": "deadline",
          "type": "uint256"
        }
      ],
      "name": "instantSwapETHToToken",
      "outputs": [],
      "stateMutability": "payable",
      "type": "function"
    },
    {
      "inputs": [
        {
          "internalType": "address",
          "name": "token",
          "type": "address"
        },
        {
          "internalType": "uint256",
          "name": "amountTokenIn",
          "type": "uint256"
        },
        {
          "internalType": "uint256",
          "name": "deadline",
          "type": "uint256"
        }
      ],
      "name": "instantSwapTokenToETH",
      "outputs": [],
      "stateMutability": "nonpayable",
      "type": "function"
    },
    {
      "inputs": [
        {
          "internalType": "address",
          "name": "token0",
          "type": "address"
        },
        {
          "internalType": "address",
          "name": "token1",
          "type": "address"
        },
        {
          "internalType": "uint256",
          "name": "amountIn",
          "type": "uint256"
        },
        {
          "internalType": "uint256",
          "name": "deadline",
          "type": "uint256"
        }
      ],
      "name": "instantSwapTokenToToken",
      "outputs": [],
      "stateMutability": "nonpayable",
      "type": "function"
    },
    {
      "inputs": [
        {
          "internalType": "address",
          "name": "token",
          "type": "address"
        },
        {
          "internalType": "uint256",
          "name": "amountETHIn",
          "type": "uint256"
        },
        {
          "internalType": "uint256",
          "name": "numberOfBlockIntervals",
          "type": "uint256"
        },
        {
          "internalType": "uint256",
          "name": "deadline",
          "type": "uint256"
        }
      ],
      "name": "termSwapETHToToken",
      "outputs": [],
      "stateMutability": "payable",
      "type": "function"
    },
    {
      "inputs": [
        {
          "internalType": "address",
          "name": "token",
          "type": "address"
        },
        {
          "internalType": "uint256",
          "name": "amountTokenIn",
          "type": "uint256"
        },
        {
          "internalType": "uint256",
          "name": "numberOfBlockIntervals",
          "type": "uint256"
        },
        {
          "internalType": "uint256",
          "name": "deadline",
          "type": "uint256"
        }
      ],
      "name": "termSwapTokenToETH",
      "outputs": [],
      "stateMutability": "nonpayable",
      "type": "function"
    },
    {
      "inputs": [
        {
          "internalType": "address",
          "name": "token0",
          "type": "address"
        },
        {
          "internalType": "address",
          "name": "token1",
          "type": "address"
        },
        {
          "internalType": "uint256",
          "name": "amountIn",
          "type": "uint256"
        },
        {
          "internalType": "uint256",
          "name": "numberOfBlockIntervals",
          "type": "uint256"
        },
        {
          "internalType": "uint256",
          "name": "deadline",
          "type": "uint256"
        }
      ],
      "name": "termSwapTokenToToken",
      "outputs": [],
      "stateMutability": "nonpayable",
      "type": "function"
    },
    {
      "inputs": [
        {
          "internalType": "address",
          "name": "token0",
          "type": "address"
        },
        {
          "internalType": "address",
          "name": "token1",
          "type": "address"
        },
        {
          "internalType": "uint256",
          "name": "lpTokenAmount",
          "type": "uint256"
        },
        {
          "internalType": "uint256",
          "name": "deadline",
          "type": "uint256"
        }
      ],
      "name": "withdrawLiquidity",
      "outputs": [],
      "stateMutability": "nonpayable",
      "type": "function"
    },
    {
      "inputs": [
        {
          "internalType": "address",
          "name": "token",
          "type": "address"
        },
        {
          "internalType": "uint256",
          "name": "lpTokenAmount",
          "type": "uint256"
        },
        {
          "internalType": "uint256",
          "name": "deadline",
          "type": "uint256"
        }
      ],
      "name": "withdrawLiquidityETH",
      "outputs": [],
      "stateMutability": "nonpayable",
      "type": "function"
    },
    {
      "inputs": [
        {
          "internalType": "address",
          "name": "token0",
          "type": "address"
        },
        {
          "internalType": "address",
          "name": "token1",
          "type": "address"
        },
        {
          "internalType": "uint256",
          "name": "orderId",
          "type": "uint256"
        },
        {
          "internalType": "uint256",
          "name": "deadline",
          "type": "uint256"
        }
      ],
      "name": "withdrawProceedsFromTermSwap",
      "outputs": [],
      "stateMutability": "nonpayable",
      "type": "function"
    },
    {
      "stateMutability": "payable",
      "type": "receive"
    }
  ],
  "bytecode": "0x60c06040523480156200001157600080fd5b506040516200260e3803806200260e833981016040819052620000349162000069565b6001600160a01b039182166080521660a052620000a1565b80516001600160a01b03811681146200006457600080fd5b919050565b600080604083850312156200007d57600080fd5b62000088836200004c565b915062000098602084016200004c565b90509250929050565b60805160a0516123fe620002106000396000818161010701528181610286015281816103bb0152818161040a015281816104c10152818161064c0152818161073a01528181610809015281816108370152818161088a01528181610afd01528181610b2b015281816110f10152818161111f01528181611149015281816111bd015281816113440152818161140d015281816114f201528181611594015281816115c2015281816116f30152818161178b01528181611aa801528181611ad601528181611b000152611b740152600081816102d601528181610399015281816103e80152818161067701528181610762015281816107e7015281816109e701528181610adb01528181610cd001528181610d9b01528181610e2001528181610f58015281816110d001528181611322015281816113eb01528181611572015281816116d10152818161180b015281816118c9015281816119c901528181611a870152611cdf01526123fe6000f3fe6080604052600436106100f75760003560e01c80636e3419011161008a578063c45a015511610059578063c45a0155146102c4578063cf6c62ea146102f8578063da89825514610318578063e961ab001461032b57600080fd5b80636e341901146102145780637e5844a014610234578063a13a315114610254578063ad5c46481461027457600080fd5b806345786c2f116100c657806345786c2f146101a1578063574c3c1a146101c157806357c08c3a146101e15780635a2b46d7146101f457600080fd5b80630145ff681461013b5780630ea9fab21461014e57806323417feb146101615780632a1d627f1461018157600080fd5b3661013657336001600160a01b037f0000000000000000000000000000000000000000000000000000000000000000161461013457610134612177565b005b600080fd5b6101346101493660046121a5565b61034b565b61013461015c3660046121da565b6105d2565b34801561016d57600080fd5b5061013461017c366004612215565b61099e565b34801561018d57600080fd5b5061013461019c3660046121da565b610a92565b3480156101ad57600080fd5b506101346101bc36600461225b565b610c4b565b3480156101cd57600080fd5b506101346101dc36600461225b565b610f0f565b6101346101ef3660046121a5565b611087565b34801561020057600080fd5b5061013461020f3660046121a5565b6112d9565b34801561022057600080fd5b5061013461022f3660046121a5565b611529565b34801561024057600080fd5b5061013461024f366004612215565b6117c2565b34801561026057600080fd5b5061013461026f366004612215565b611880565b34801561028057600080fd5b506102a87f000000000000000000000000000000000000000000000000000000000000000081565b6040516001600160a01b03909116815260200160405180910390f35b3480156102d057600080fd5b506102a87f000000000000000000000000000000000000000000000000000000000000000081565b34801561030457600080fd5b50610134610313366004612215565b611980565b6101346103263660046121da565b611a3e565b34801561033757600080fd5b50610134610346366004612215565b611c96565b80428110156103925760405162461bcd60e51b815260206004820152600e60248201526d1515d053534e881156141254915160921b60448201526064015b60405180910390fd5b60006103df7f0000000000000000000000000000000000000000000000000000000000000000867f0000000000000000000000000000000000000000000000000000000000000000611d54565b9050600061042e7f0000000000000000000000000000000000000000000000000000000000000000877f0000000000000000000000000000000000000000000000000000000000000000611e63565b9150506000826001600160a01b03166318160ddd6040518163ffffffff1660e01b815260040160206040518083038186803b15801561046c57600080fd5b505afa158015610480573d6000803e3d6000fd5b505050506040513d601f19601f820116820180604052508101906104a491906122ac565b90506000816104b384896122db565b6104bd9190612318565b90507f00000000000000000000000000000000000000000000000000000000000000006001600160a01b031663d0e30db0826040518263ffffffff1660e01b81526004016000604051808303818588803b15801561051a57600080fd5b505af115801561052e573d6000803e3d6000fd5b50506040517f5fea6120000000000000000000000000000000000000000000000000000000008152336004820152602481018b90526001600160a01b0388169350635fea612092506044019050600060405180830381600087803b15801561059557600080fd5b505af11580156105a9573d6000803e3d6000fd5b50505050803411156105c8576105c8336105c3833461233a565b611fa5565b5050505050505050565b80428110156106145760405162461bcd60e51b815260206004820152600e60248201526d1515d053534e881156141254915160921b6044820152606401610389565b6040517fe6a439050000000000000000000000000000000000000000000000000000000081526001600160a01b0386811660048301527f0000000000000000000000000000000000000000000000000000000000000000811660248301526000917f00000000000000000000000000000000000000000000000000000000000000009091169063e6a439059060440160206040518083038186803b1580156106bb57600080fd5b505afa1580156106cf573d6000803e3d6000fd5b505050506040513d601f19601f820116820180604052508101906106f39190612351565b6001600160a01b031614156107e0576040517fc9c653960000000000000000000000000000000000000000000000000000000081526001600160a01b0386811660048301527f0000000000000000000000000000000000000000000000000000000000000000811660248301527f0000000000000000000000000000000000000000000000000000000000000000169063c9c6539690604401602060405180830381600087803b1580156107a657600080fd5b505af11580156107ba573d6000803e3d6000fd5b505050506040513d601f19601f820116820180604052508101906107de9190612351565b505b600061082d7f0000000000000000000000000000000000000000000000000000000000000000877f0000000000000000000000000000000000000000000000000000000000000000611d54565b9050600061085b877f000000000000000000000000000000000000000000000000000000000000000061208d565b509050600080886001600160a01b0316836001600160a01b031614610881578688610884565b87875b915091507f00000000000000000000000000000000000000000000000000000000000000006001600160a01b031663d0e30db0886040518263ffffffff1660e01b81526004016000604051808303818588803b1580156108e357600080fd5b505af11580156108f7573d6000803e3d6000fd5b50506040517f6f9d42d200000000000000000000000000000000000000000000000000000000815233600482015260248101869052604481018590526001600160a01b0388169350636f9d42d292506064019050600060405180830381600087803b15801561096557600080fd5b505af1158015610979573d6000803e3d6000fd5b505050508634111561099357610993336105c3893461233a565b505050505050505050565b80428110156109e05760405162461bcd60e51b815260206004820152600e60248201526d1515d053534e881156141254915160921b6044820152606401610389565b6000610a0d7f00000000000000000000000000000000000000000000000000000000000000008787611d54565b6040517f42b98a14000000000000000000000000000000000000000000000000000000008152336004820152602481018690529091506001600160a01b038216906342b98a14906044015b600060405180830381600087803b158015610a7257600080fd5b505af1158015610a86573d6000803e3d6000fd5b50505050505050505050565b8042811015610ad45760405162461bcd60e51b815260206004820152600e60248201526d1515d053534e881156141254915160921b6044820152606401610389565b6000610b217f0000000000000000000000000000000000000000000000000000000000000000877f0000000000000000000000000000000000000000000000000000000000000000611d54565b90506000610b4f877f000000000000000000000000000000000000000000000000000000000000000061208d565b509050866001600160a01b0316816001600160a01b03161415610bd957604051635ef083bf60e11b815233600482015260248101879052604481018690526001600160a01b0383169063bde1077e906064015b600060405180830381600087803b158015610bbc57600080fd5b505af1158015610bd0573d6000803e3d6000fd5b50505050610c42565b60405163659509c560e01b815233600482015260248101879052604481018690526001600160a01b0383169063659509c5906064015b600060405180830381600087803b158015610c2957600080fd5b505af1158015610c3d573d6000803e3d6000fd5b505050505b50505050505050565b8042811015610c8d5760405162461bcd60e51b815260206004820152600e60248201526d1515d053534e881156141254915160921b6044820152606401610389565b6040517fe6a439050000000000000000000000000000000000000000000000000000000081526001600160a01b03878116600483015286811660248301526000917f00000000000000000000000000000000000000000000000000000000000000009091169063e6a439059060440160206040518083038186803b158015610d1457600080fd5b505afa158015610d28573d6000803e3d6000fd5b505050506040513d601f19601f82011682018060405250810190610d4c9190612351565b6001600160a01b03161415610e19576040517fc9c653960000000000000000000000000000000000000000000000000000000081526001600160a01b03878116600483015286811660248301527f0000000000000000000000000000000000000000000000000000000000000000169063c9c6539690604401602060405180830381600087803b158015610ddf57600080fd5b505af1158015610df3573d6000803e3d6000fd5b505050506040513d601f19601f82011682018060405250810190610e179190612351565b505b6000610e467f00000000000000000000000000000000000000000000000000000000000000008888611d54565b90506000610e54888861208d565b509050600080896001600160a01b0316836001600160a01b031614610e7a578688610e7d565b87875b6040517f6f9d42d2000000000000000000000000000000000000000000000000000000008152336004820152602481018390526044810182905291935091506001600160a01b03851690636f9d42d2906064015b600060405180830381600087803b158015610eeb57600080fd5b505af1158015610eff573d6000803e3d6000fd5b5050505050505050505050505050565b8042811015610f515760405162461bcd60e51b815260206004820152600e60248201526d1515d053534e881156141254915160921b6044820152606401610389565b6000610f7e7f00000000000000000000000000000000000000000000000000000000000000008888611d54565b90506000610f8c888861208d565b509050876001600160a01b0316816001600160a01b0316141561101557604051635ef083bf60e11b815233600482015260248101879052604481018690526001600160a01b0383169063bde1077e90606401600060405180830381600087803b158015610ff857600080fd5b505af115801561100c573d6000803e3d6000fd5b505050506105c8565b60405163659509c560e01b815233600482015260248101879052604481018690526001600160a01b0383169063659509c5906064015b600060405180830381600087803b15801561106557600080fd5b505af1158015611079573d6000803e3d6000fd5b505050505050505050505050565b80428110156110c95760405162461bcd60e51b815260206004820152600e60248201526d1515d053534e881156141254915160921b6044820152606401610389565b60006111167f00000000000000000000000000000000000000000000000000000000000000007f000000000000000000000000000000000000000000000000000000000000000087611d54565b905060006111447f00000000000000000000000000000000000000000000000000000000000000008761208d565b5090507f00000000000000000000000000000000000000000000000000000000000000006001600160a01b031663d0e30db0866040518263ffffffff1660e01b81526004016000604051808303818588803b1580156111a257600080fd5b505af11580156111b6573d6000803e3d6000fd5b50505050507f00000000000000000000000000000000000000000000000000000000000000006001600160a01b0316816001600160a01b0316141561125a576040516310d8217360e01b8152336004820152602481018690526001600160a01b038316906310d8217390604401600060405180830381600087803b15801561123d57600080fd5b505af1158015611251573d6000803e3d6000fd5b505050506112bb565b604051639a89f22d60e01b8152336004820152602481018690526001600160a01b03831690639a89f22d90604401600060405180830381600087803b1580156112a257600080fd5b505af11580156112b6573d6000803e3d6000fd5b505050505b843411156112d1576112d1336105c3873461233a565b505050505050565b804281101561131b5760405162461bcd60e51b815260206004820152600e60248201526d1515d053534e881156141254915160921b6044820152606401610389565b60006113687f0000000000000000000000000000000000000000000000000000000000000000867f0000000000000000000000000000000000000000000000000000000000000000611d54565b6040517fa201ccf6000000000000000000000000000000000000000000000000000000008152336004820152602481018690529091506001600160a01b0382169063a201ccf690604401600060405180830381600087803b1580156113cc57600080fd5b505af11580156113e0573d6000803e3d6000fd5b5050505060006114317f0000000000000000000000000000000000000000000000000000000000000000877f0000000000000000000000000000000000000000000000000000000000000000611e63565b9150506000826001600160a01b03166318160ddd6040518163ffffffff1660e01b815260040160206040518083038186803b15801561146f57600080fd5b505afa158015611483573d6000803e3d6000fd5b505050506040513d601f19601f820116820180604052508101906114a791906122ac565b90506000816114b688856122db565b6114c09190612318565b6040517f2e1a7d4d000000000000000000000000000000000000000000000000000000008152600481018290529091507f00000000000000000000000000000000000000000000000000000000000000006001600160a01b031690632e1a7d4d9060240161104b565b804281101561156b5760405162461bcd60e51b815260206004820152600e60248201526d1515d053534e881156141254915160921b6044820152606401610389565b60006115b87f0000000000000000000000000000000000000000000000000000000000000000867f0000000000000000000000000000000000000000000000000000000000000000611d54565b905060006115e6867f000000000000000000000000000000000000000000000000000000000000000061208d565b509050856001600160a01b0316816001600160a01b03161415611668576040516310d8217360e01b8152336004820152602481018690526001600160a01b038316906310d8217390604401600060405180830381600087803b15801561164b57600080fd5b505af115801561165f573d6000803e3d6000fd5b505050506116c9565b604051639a89f22d60e01b8152336004820152602481018690526001600160a01b03831690639a89f22d90604401600060405180830381600087803b1580156116b057600080fd5b505af11580156116c4573d6000803e3d6000fd5b505050505b6000806117177f0000000000000000000000000000000000000000000000000000000000000000897f0000000000000000000000000000000000000000000000000000000000000000611e63565b909250905060006117288884612375565b61173289846122db565b61173c9190612318565b905060006103e861174f836103e56122db565b6117599190612318565b6040517f2e1a7d4d000000000000000000000000000000000000000000000000000000008152600481018290529091507f00000000000000000000000000000000000000000000000000000000000000006001600160a01b031690632e1a7d4d90602401610ed1565b80428110156118045760405162461bcd60e51b815260206004820152600e60248201526d1515d053534e881156141254915160921b6044820152606401610389565b60006118317f00000000000000000000000000000000000000000000000000000000000000008787611d54565b6040517f13bf4fd2000000000000000000000000000000000000000000000000000000008152336004820152602481018690529091506001600160a01b038216906313bf4fd290604401610a58565b80428110156118c25760405162461bcd60e51b815260206004820152600e60248201526d1515d053534e881156141254915160921b6044820152606401610389565b60006118ef7f00000000000000000000000000000000000000000000000000000000000000008787611d54565b905060006118fd878761208d565b509050866001600160a01b0316816001600160a01b0316141561194d576040516310d8217360e01b8152336004820152602481018690526001600160a01b038316906310d8217390604401610ba2565b604051639a89f22d60e01b8152336004820152602481018690526001600160a01b03831690639a89f22d90604401610c0f565b80428110156119c25760405162461bcd60e51b815260206004820152600e60248201526d1515d053534e881156141254915160921b6044820152606401610389565b60006119ef7f00000000000000000000000000000000000000000000000000000000000000008787611d54565b6040517f5fea6120000000000000000000000000000000000000000000000000000000008152336004820152602481018690529091506001600160a01b03821690635fea612090604401610a58565b8042811015611a805760405162461bcd60e51b815260206004820152600e60248201526d1515d053534e881156141254915160921b6044820152606401610389565b6000611acd7f00000000000000000000000000000000000000000000000000000000000000007f000000000000000000000000000000000000000000000000000000000000000088611d54565b90506000611afb7f00000000000000000000000000000000000000000000000000000000000000008861208d565b5090507f00000000000000000000000000000000000000000000000000000000000000006001600160a01b031663d0e30db0876040518263ffffffff1660e01b81526004016000604051808303818588803b158015611b5957600080fd5b505af1158015611b6d573d6000803e3d6000fd5b50505050507f00000000000000000000000000000000000000000000000000000000000000006001600160a01b0316816001600160a01b03161415611c1857604051635ef083bf60e11b815233600482015260248101879052604481018690526001600160a01b0383169063bde1077e90606401600060405180830381600087803b158015611bfb57600080fd5b505af1158015611c0f573d6000803e3d6000fd5b50505050611c80565b60405163659509c560e01b815233600482015260248101879052604481018690526001600160a01b0383169063659509c590606401600060405180830381600087803b158015611c6757600080fd5b505af1158015611c7b573d6000803e3d6000fd5b505050505b85341115610c4257610c42336105c3883461233a565b8042811015611cd85760405162461bcd60e51b815260206004820152600e60248201526d1515d053534e881156141254915160921b6044820152606401610389565b6000611d057f00000000000000000000000000000000000000000000000000000000000000008787611d54565b6040517fa201ccf6000000000000000000000000000000000000000000000000000000008152336004820152602481018690529091506001600160a01b0382169063a201ccf690604401610a58565b6000806000611d63858561208d565b6040516bffffffffffffffffffffffff19606084811b8216602084015283901b1660348201529193509150869060480160405160208183030381529060405280519060200120604051602001611e239291907fff00000000000000000000000000000000000000000000000000000000000000815260609290921b6bffffffffffffffffffffffff1916600183015260158201527f63c299addfdc4454a364c5f10cb76dbddbf9521d9270c432917d79ca11e10373603582015260550190565b604080517fffffffffffffffffffffffffffffffffffffffffffffffffffffffffffffffe081840301815291905280516020909101209695505050505050565b6000806000611e72858561208d565b5090506000611e82878787611d54565b6001600160a01b0316633b4a6bc36040518163ffffffff1660e01b815260040160206040518083038186803b158015611eba57600080fd5b505afa158015611ece573d6000803e3d6000fd5b505050506040513d601f19601f82011682018060405250810190611ef291906122ac565b90506000611f01888888611d54565b6001600160a01b031663ceb2894c6040518163ffffffff1660e01b815260040160206040518083038186803b158015611f3957600080fd5b505afa158015611f4d573d6000803e3d6000fd5b505050506040513d601f19601f82011682018060405250810190611f7191906122ac565b9050826001600160a01b0316876001600160a01b031614611f93578082611f96565b81815b90999098509650505050505050565b604080516000808252602082019092526001600160a01b038416908390604051611fcf919061238d565b60006040518083038185875af1925050503d806000811461200c576040519150601f19603f3d011682016040523d82523d6000602084013e612011565b606091505b50509050806120885760405162461bcd60e51b815260206004820152603460248201527f5472616e7366657248656c7065723a3a736166655472616e736665724554483a60448201527f20455448207472616e73666572206661696c65640000000000000000000000006064820152608401610389565b505050565b600080826001600160a01b0316846001600160a01b031614156120f25760405162461bcd60e51b815260206004820152601c60248201527f4c4942524152593a204944454e544943414c5f414444524553534553000000006044820152606401610389565b826001600160a01b0316846001600160a01b031610612112578284612115565b83835b90925090506001600160a01b0382166121705760405162461bcd60e51b815260206004820152601560248201527f4c4942524152593a205a45524f5f4144445245535300000000000000000000006044820152606401610389565b9250929050565b634e487b7160e01b600052600160045260246000fd5b6001600160a01b03811681146121a257600080fd5b50565b6000806000606084860312156121ba57600080fd5b83356121c58161218d565b95602085013595506040909401359392505050565b600080600080608085870312156121f057600080fd5b84356121fb8161218d565b966020860135965060408601359560600135945092505050565b6000806000806080858703121561222b57600080fd5b84356122368161218d565b935060208501356122468161218d565b93969395505050506040820135916060013590565b600080600080600060a0868803121561227357600080fd5b853561227e8161218d565b9450602086013561228e8161218d565b94979496505050506040830135926060810135926080909101359150565b6000602082840312156122be57600080fd5b5051919050565b634e487b7160e01b600052601160045260246000fd5b6000817fffffffffffffffffffffffffffffffffffffffffffffffffffffffffffffffff0483118215151615612313576123136122c5565b500290565b60008261233557634e487b7160e01b600052601260045260246000fd5b500490565b60008282101561234c5761234c6122c5565b500390565b60006020828403121561236357600080fd5b815161236e8161218d565b9392505050565b60008219821115612388576123886122c5565b500190565b6000825160005b818110156123ae5760208186018101518583015201612394565b818111156123bd576000828501525b50919091019291505056fea2646970667358221220151940be3054d55c8ed32fd66d25af4e9493780307eb0bf36ffb3105503b80ac64736f6c63430008090033",
  "linkReferences": {},
  "deployedLinkReferences": {}
}