{
  "_format": "hh-sol-artifact-1",
  "contractName": "TWAMM",
  "sourceName": "contracts/TWAMM.sol",
  "abi": [
    {
      "inputs": [
        {
          "internalType": "address",
          "name": "_factory",
          "type": "address"
        },
        {
          "internalType": "address",
          "name": "_WETH",
          "type": "address"
        }
      ],
      "stateMutability": "nonpayable",
      "type": "constructor"
    },
    {
      "inputs": [],
      "name": "WETH",
      "outputs": [
        {
          "internalType": "address",
          "name": "",
          "type": "address"
        }
      ],
      "stateMutability": "view",
      "type": "function"
    },
    {
      "inputs": [
        {
          "internalType": "address",
          "name": "token0",
          "type": "address"
        },
        {
          "internalType": "address",
          "name": "token1",
          "type": "address"
        },
        {
          "internalType": "uint256",
          "name": "orderId",
          "type": "uint256"
        },
        {
          "internalType": "uint256",
          "name": "deadline",
          "type": "uint256"
        }
      ],
      "name": "_cancelLongTermSwap",
      "outputs": [],
      "stateMutability": "nonpayable",
      "type": "function"
    },
    {
      "inputs": [
        {
          "internalType": "address",
          "name": "token0",
          "type": "address"
        },
        {
          "internalType": "address",
          "name": "token1",
          "type": "address"
        },
        {
          "internalType": "uint256",
          "name": "amount0",
          "type": "uint256"
        },
        {
          "internalType": "uint256",
          "name": "amount1",
          "type": "uint256"
        },
        {
          "internalType": "uint256",
          "name": "deadline",
          "type": "uint256"
        }
      ],
      "name": "_provideInitialLiquidity",
      "outputs": [],
      "stateMutability": "nonpayable",
      "type": "function"
    },
    {
      "inputs": [
        {
          "internalType": "address",
          "name": "token",
          "type": "address"
        },
        {
          "internalType": "uint256",
          "name": "amountToken",
          "type": "uint256"
        },
        {
          "internalType": "uint256",
          "name": "amountETH",
          "type": "uint256"
        },
        {
          "internalType": "uint256",
          "name": "deadline",
          "type": "uint256"
        }
      ],
      "name": "_provideInitialLiquidityETH",
      "outputs": [],
      "stateMutability": "payable",
      "type": "function"
    },
    {
      "inputs": [
        {
          "internalType": "address",
          "name": "token0",
          "type": "address"
        },
        {
          "internalType": "address",
          "name": "token1",
          "type": "address"
        },
        {
          "internalType": "uint256",
          "name": "lpTokenAmount",
          "type": "uint256"
        },
        {
          "internalType": "uint256",
          "name": "deadline",
          "type": "uint256"
        }
      ],
      "name": "_provideLiquidity",
      "outputs": [],
      "stateMutability": "nonpayable",
      "type": "function"
    },
    {
      "inputs": [
        {
          "internalType": "address",
          "name": "token",
          "type": "address"
        },
        {
          "internalType": "uint256",
          "name": "lpTokenAmount",
          "type": "uint256"
        },
        {
          "internalType": "uint256",
          "name": "deadline",
          "type": "uint256"
        }
      ],
      "name": "_provideLiquidityETH",
      "outputs": [],
      "stateMutability": "payable",
      "type": "function"
    },
    {
      "inputs": [
        {
          "internalType": "address",
          "name": "token0",
          "type": "address"
        },
        {
          "internalType": "address",
          "name": "token1",
          "type": "address"
        },
        {
          "internalType": "uint256",
          "name": "lpTokenAmount",
          "type": "uint256"
        },
        {
          "internalType": "uint256",
          "name": "deadline",
          "type": "uint256"
        }
      ],
      "name": "_removeLiquidity",
      "outputs": [],
      "stateMutability": "nonpayable",
      "type": "function"
    },
    {
      "inputs": [
        {
          "internalType": "address",
          "name": "token",
          "type": "address"
        },
        {
          "internalType": "uint256",
          "name": "lpTokenAmount",
          "type": "uint256"
        },
        {
          "internalType": "uint256",
          "name": "deadline",
          "type": "uint256"
        }
      ],
      "name": "_removeLiquidityETH",
      "outputs": [],
      "stateMutability": "nonpayable",
      "type": "function"
    },
    {
      "inputs": [
        {
          "internalType": "address",
          "name": "token0",
          "type": "address"
        },
        {
          "internalType": "address",
          "name": "token1",
          "type": "address"
        },
        {
          "internalType": "uint256",
          "name": "orderId",
          "type": "uint256"
        },
        {
          "internalType": "uint256",
          "name": "deadline",
          "type": "uint256"
        }
      ],
      "name": "_withdrawProceedsFromLongTermSwap",
      "outputs": [],
      "stateMutability": "nonpayable",
      "type": "function"
    },
    {
      "inputs": [],
      "name": "factory",
      "outputs": [
        {
          "internalType": "address",
          "name": "",
          "type": "address"
        }
      ],
      "stateMutability": "view",
      "type": "function"
    },
    {
      "inputs": [
        {
          "internalType": "address",
          "name": "token",
          "type": "address"
        },
        {
          "internalType": "uint256",
          "name": "amountETHIn",
          "type": "uint256"
        },
        {
          "internalType": "uint256",
          "name": "deadline",
          "type": "uint256"
        }
      ],
      "name": "instantSwapETHToToken",
      "outputs": [],
      "stateMutability": "payable",
      "type": "function"
    },
    {
      "inputs": [
        {
          "internalType": "address",
          "name": "token",
          "type": "address"
        },
        {
          "internalType": "uint256",
          "name": "amountTokenIn",
          "type": "uint256"
        },
        {
          "internalType": "uint256",
          "name": "deadline",
          "type": "uint256"
        }
      ],
      "name": "instantSwapTokenToETH",
      "outputs": [],
      "stateMutability": "nonpayable",
      "type": "function"
    },
    {
      "inputs": [
        {
          "internalType": "address",
          "name": "token0",
          "type": "address"
        },
        {
          "internalType": "address",
          "name": "token1",
          "type": "address"
        },
        {
          "internalType": "uint256",
          "name": "amountIn",
          "type": "uint256"
        },
        {
          "internalType": "uint256",
          "name": "deadline",
          "type": "uint256"
        }
      ],
      "name": "instantSwapTokenToToken",
      "outputs": [],
      "stateMutability": "nonpayable",
      "type": "function"
    },
    {
      "inputs": [
        {
          "internalType": "address",
          "name": "token",
          "type": "address"
        },
        {
          "internalType": "uint256",
          "name": "amountETHIn",
          "type": "uint256"
        },
        {
          "internalType": "uint256",
          "name": "numberOfBlockIntervals",
          "type": "uint256"
        },
        {
          "internalType": "uint256",
          "name": "deadline",
          "type": "uint256"
        }
      ],
      "name": "termSwapETHToToken",
      "outputs": [],
      "stateMutability": "payable",
      "type": "function"
    },
    {
      "inputs": [
        {
          "internalType": "address",
          "name": "token",
          "type": "address"
        },
        {
          "internalType": "uint256",
          "name": "amountTokenIn",
          "type": "uint256"
        },
        {
          "internalType": "uint256",
          "name": "numberOfBlockIntervals",
          "type": "uint256"
        },
        {
          "internalType": "uint256",
          "name": "deadline",
          "type": "uint256"
        }
      ],
      "name": "termSwapTokenToETH",
      "outputs": [],
      "stateMutability": "nonpayable",
      "type": "function"
    },
    {
      "inputs": [
        {
          "internalType": "address",
          "name": "token0",
          "type": "address"
        },
        {
          "internalType": "address",
          "name": "token1",
          "type": "address"
        },
        {
          "internalType": "uint256",
          "name": "amountIn",
          "type": "uint256"
        },
        {
          "internalType": "uint256",
          "name": "numberOfBlockIntervals",
          "type": "uint256"
        },
        {
          "internalType": "uint256",
          "name": "deadline",
          "type": "uint256"
        }
      ],
      "name": "termSwapTokenToToken",
      "outputs": [],
      "stateMutability": "nonpayable",
      "type": "function"
    },
    {
      "stateMutability": "payable",
      "type": "receive"
    }
  ],
  "bytecode": "0x60c06040523480156200001157600080fd5b5060405162001f7038038062001f70833981016040819052620000349162000069565b6001600160a01b039182166080521660a052620000a1565b80516001600160a01b03811681146200006457600080fd5b919050565b600080604083850312156200007d57600080fd5b62000088836200004c565b915062000098602084016200004c565b90509250929050565b60805160a051611d83620001ed60003960008181610107015281816102a60152818161039e015281816103cc0152818161052a015281816105da015281816106a60152818161075f015281816107ae0152818161086501528181610bed01528181610c1b01528181610c4501528181610cb901528181610e1f01528181610e4d01528181610e7901528181610ec001528181610fff0152818161102d0152818161115e015281816111dd01528181611524015281816115520152818161157c01526115f00152600081816102f60152818161037c01528181610508015281816105b80152818161073d0152818161078c0152818161098401528181610a3d01528181610abc01528181610bcc01528181610dfd01528181610fdd0152818161113c01528181611276015281816112f5015281816113740152818161144901526115030152611d836000f3fe6080604052600436106100f75760003560e01c80636e3419011161008a578063ad5c464811610059578063ad5c464814610294578063c45a0155146102e4578063d524db1f14610318578063da8982551461033857600080fd5b80636e341901146102145780638cc904d9146102345780639c8d10b014610254578063a13a31511461027457600080fd5b806348942bf5116100c657806348942bf5146101ae578063574c3c1a146101ce57806357c08c3a146101ee5780635893fac51461020157600080fd5b80632a1d627f1461013b5780632c35a7e41461015b5780632ed6cbcc1461017b578063474d8e851461018e57600080fd5b3661013657336001600160a01b037f0000000000000000000000000000000000000000000000000000000000000000161461013457610134611ae4565b005b600080fd5b34801561014757600080fd5b50610134610156366004611b16565b61034b565b34801561016757600080fd5b50610134610176366004611b4f565b6104e0565b610134610189366004611b4f565b610715565b34801561019a57600080fd5b506101346101a9366004611b82565b61095c565b3480156101ba57600080fd5b506101346101c9366004611b82565b610a15565b3480156101da57600080fd5b506101346101e9366004611bc4565b610a94565b6101346101fc366004611b4f565b610ba4565b61013461020f366004611b16565b610dd5565b34801561022057600080fd5b5061013461022f366004611b4f565b610fb5565b34801561024057600080fd5b5061013461024f366004611b82565b61124e565b34801561026057600080fd5b5061013461026f366004611b82565b6112cd565b34801561028057600080fd5b5061013461028f366004611b82565b61134c565b3480156102a057600080fd5b506102c87f000000000000000000000000000000000000000000000000000000000000000081565b6040516001600160a01b03909116815260200160405180910390f35b3480156102f057600080fd5b506102c87f000000000000000000000000000000000000000000000000000000000000000081565b34801561032457600080fd5b50610134610333366004611bc4565b611421565b610134610346366004611b16565b6114db565b80428110156103755760405162461bcd60e51b815260040161036c90611c11565b60405180910390fd5b60006103c27f0000000000000000000000000000000000000000000000000000000000000000877f0000000000000000000000000000000000000000000000000000000000000000611708565b905060006103f0877f00000000000000000000000000000000000000000000000000000000000000006117e1565b509050866001600160a01b0316816001600160a01b0316141561047457604051635ef083bf60e11b81526001600160a01b0383169063bde1077e9061043d9033908a908a90600401611c39565b600060405180830381600087803b15801561045757600080fd5b505af115801561046b573d6000803e3d6000fd5b505050506104d7565b60405163659509c560e01b81526001600160a01b0383169063659509c5906104a49033908a908a90600401611c39565b600060405180830381600087803b1580156104be57600080fd5b505af11580156104d2573d6000803e3d6000fd5b505050505b50505050505050565b80428110156105015760405162461bcd60e51b815260040161036c90611c11565b600061054e7f0000000000000000000000000000000000000000000000000000000000000000867f0000000000000000000000000000000000000000000000000000000000000000611708565b604051635100e67b60e11b81529091506001600160a01b0382169063a201ccf69061057f9033908890600401611c5a565b600060405180830381600087803b15801561059957600080fd5b505af11580156105ad573d6000803e3d6000fd5b5050505060006105fe7f0000000000000000000000000000000000000000000000000000000000000000877f00000000000000000000000000000000000000000000000000000000000000006118c3565b5090506000826001600160a01b03166318160ddd6040518163ffffffff1660e01b815260040160206040518083038186803b15801561063c57600080fd5b505afa158015610650573d6000803e3d6000fd5b505050506040513d601f19601f820116820180604052508101906106749190611c73565b90506000816106838885611ca2565b61068d9190611cc1565b604051632e1a7d4d60e01b8152600481018290529091507f00000000000000000000000000000000000000000000000000000000000000006001600160a01b031690632e1a7d4d906024015b600060405180830381600087803b1580156106f357600080fd5b505af1158015610707573d6000803e3d6000fd5b505050505050505050505050565b80428110156107365760405162461bcd60e51b815260040161036c90611c11565b60006107837f0000000000000000000000000000000000000000000000000000000000000000867f0000000000000000000000000000000000000000000000000000000000000000611708565b905060006107d27f0000000000000000000000000000000000000000000000000000000000000000877f00000000000000000000000000000000000000000000000000000000000000006118c3565b9150506000826001600160a01b03166318160ddd6040518163ffffffff1660e01b815260040160206040518083038186803b15801561081057600080fd5b505afa158015610824573d6000803e3d6000fd5b505050506040513d601f19601f820116820180604052508101906108489190611c73565b90506000816108578489611ca2565b6108619190611cc1565b90507f00000000000000000000000000000000000000000000000000000000000000006001600160a01b031663d0e30db0826040518263ffffffff1660e01b81526004016000604051808303818588803b1580156108be57600080fd5b505af11580156108d2573d6000803e3d6000fd5b50506040516302ff530960e51b81526001600160a01b0388169350635fea61209250610905915033908b90600401611c5a565b600060405180830381600087803b15801561091f57600080fd5b505af1158015610933573d6000803e3d6000fd5b5050505080341115610952576109523361094d8334611ce3565b611a05565b5050505050505050565b804281101561097d5760405162461bcd60e51b815260040161036c90611c11565b60006109aa7f00000000000000000000000000000000000000000000000000000000000000008787611708565b604051635100e67b60e11b81529091506001600160a01b0382169063a201ccf6906109db9033908890600401611c5a565b600060405180830381600087803b1580156109f557600080fd5b505af1158015610a09573d6000803e3d6000fd5b50505050505050505050565b8042811015610a365760405162461bcd60e51b815260040161036c90611c11565b6000610a637f00000000000000000000000000000000000000000000000000000000000000008787611708565b6040516310ae628560e21b81529091506001600160a01b038216906342b98a14906109db9033908890600401611c5a565b8042811015610ab55760405162461bcd60e51b815260040161036c90611c11565b6000610ae27f00000000000000000000000000000000000000000000000000000000000000008888611708565b90506000610af088886117e1565b509050876001600160a01b0316816001600160a01b03161415610b7457604051635ef083bf60e11b81526001600160a01b0383169063bde1077e90610b3d9033908a908a90600401611c39565b600060405180830381600087803b158015610b5757600080fd5b505af1158015610b6b573d6000803e3d6000fd5b50505050610952565b60405163659509c560e01b81526001600160a01b0383169063659509c5906106d99033908a908a90600401611c39565b8042811015610bc55760405162461bcd60e51b815260040161036c90611c11565b6000610c127f00000000000000000000000000000000000000000000000000000000000000007f000000000000000000000000000000000000000000000000000000000000000087611708565b90506000610c407f0000000000000000000000000000000000000000000000000000000000000000876117e1565b5090507f00000000000000000000000000000000000000000000000000000000000000006001600160a01b031663d0e30db0866040518263ffffffff1660e01b81526004016000604051808303818588803b158015610c9e57600080fd5b505af1158015610cb2573d6000803e3d6000fd5b50505050507f00000000000000000000000000000000000000000000000000000000000000006001600160a01b0316816001600160a01b03161415610d56576040516310d8217360e01b81526001600160a01b038316906310d8217390610d1f9033908990600401611c5a565b600060405180830381600087803b158015610d3957600080fd5b505af1158015610d4d573d6000803e3d6000fd5b50505050610db7565b604051639a89f22d60e01b81526001600160a01b03831690639a89f22d90610d849033908990600401611c5a565b600060405180830381600087803b158015610d9e57600080fd5b505af1158015610db2573d6000803e3d6000fd5b505050505b84341115610dcd57610dcd3361094d8734611ce3565b505050505050565b8042811015610df65760405162461bcd60e51b815260040161036c90611c11565b6000610e437f0000000000000000000000000000000000000000000000000000000000000000877f0000000000000000000000000000000000000000000000000000000000000000611708565b90506000610e71877f00000000000000000000000000000000000000000000000000000000000000006117e1565b5090506000807f00000000000000000000000000000000000000000000000000000000000000006001600160a01b0316836001600160a01b031614610eb7578688610eba565b87875b915091507f00000000000000000000000000000000000000000000000000000000000000006001600160a01b031663d0e30db0886040518263ffffffff1660e01b81526004016000604051808303818588803b158015610f1957600080fd5b505af1158015610f2d573d6000803e3d6000fd5b50506040516337cea16960e11b81526001600160a01b0388169350636f9d42d29250610f629150339086908690600401611c39565b600060405180830381600087803b158015610f7c57600080fd5b505af1158015610f90573d6000803e3d6000fd5b5050505086341115610faa57610faa3361094d8934611ce3565b505050505050505050565b8042811015610fd65760405162461bcd60e51b815260040161036c90611c11565b60006110237f0000000000000000000000000000000000000000000000000000000000000000867f0000000000000000000000000000000000000000000000000000000000000000611708565b90506000611051867f00000000000000000000000000000000000000000000000000000000000000006117e1565b509050856001600160a01b0316816001600160a01b031614156110d3576040516310d8217360e01b81526001600160a01b038316906310d821739061109c9033908990600401611c5a565b600060405180830381600087803b1580156110b657600080fd5b505af11580156110ca573d6000803e3d6000fd5b50505050611134565b604051639a89f22d60e01b81526001600160a01b03831690639a89f22d906111019033908990600401611c5a565b600060405180830381600087803b15801561111b57600080fd5b505af115801561112f573d6000803e3d6000fd5b505050505b6000806111827f0000000000000000000000000000000000000000000000000000000000000000897f00000000000000000000000000000000000000000000000000000000000000006118c3565b909250905060006111938884611cfa565b61119d8984611ca2565b6111a79190611cc1565b905060006127106111ba836103ca611ca2565b6111c49190611cc1565b604051632e1a7d4d60e01b8152600481018290529091507f00000000000000000000000000000000000000000000000000000000000000006001600160a01b031690632e1a7d4d906024015b600060405180830381600087803b15801561122a57600080fd5b505af115801561123e573d6000803e3d6000fd5b5050505050505050505050505050565b804281101561126f5760405162461bcd60e51b815260040161036c90611c11565b600061129c7f00000000000000000000000000000000000000000000000000000000000000008787611708565b6040516302ff530960e51b81529091506001600160a01b03821690635fea6120906109db9033908890600401611c5a565b80428110156112ee5760405162461bcd60e51b815260040161036c90611c11565b600061131b7f00000000000000000000000000000000000000000000000000000000000000008787611708565b6040516309dfa7e960e11b81529091506001600160a01b038216906313bf4fd2906109db9033908890600401611c5a565b804281101561136d5760405162461bcd60e51b815260040161036c90611c11565b600061139a7f00000000000000000000000000000000000000000000000000000000000000008787611708565b905060006113a887876117e1565b509050866001600160a01b0316816001600160a01b031614156113f3576040516310d8217360e01b81526001600160a01b038316906310d821739061043d9033908990600401611c5a565b604051639a89f22d60e01b81526001600160a01b03831690639a89f22d906104a49033908990600401611c5a565b80428110156114425760405162461bcd60e51b815260040161036c90611c11565b600061146f7f00000000000000000000000000000000000000000000000000000000000000008888611708565b9050600061147d88886117e1565b509050600080886001600160a01b0316836001600160a01b0316146114a35786886114a6565b87875b6040516337cea16960e11b815291935091506001600160a01b03851690636f9d42d29061121090339086908690600401611c39565b80428110156114fc5760405162461bcd60e51b815260040161036c90611c11565b60006115497f00000000000000000000000000000000000000000000000000000000000000007f000000000000000000000000000000000000000000000000000000000000000088611708565b905060006115777f0000000000000000000000000000000000000000000000000000000000000000886117e1565b5090507f00000000000000000000000000000000000000000000000000000000000000006001600160a01b031663d0e30db0876040518263ffffffff1660e01b81526004016000604051808303818588803b1580156115d557600080fd5b505af11580156115e9573d6000803e3d6000fd5b50505050507f00000000000000000000000000000000000000000000000000000000000000006001600160a01b0316816001600160a01b0316141561168f57604051635ef083bf60e11b81526001600160a01b0383169063bde1077e906116589033908a908a90600401611c39565b600060405180830381600087803b15801561167257600080fd5b505af1158015611686573d6000803e3d6000fd5b505050506116f2565b60405163659509c560e01b81526001600160a01b0383169063659509c5906116bf9033908a908a90600401611c39565b600060405180830381600087803b1580156116d957600080fd5b505af11580156116ed573d6000803e3d6000fd5b505050505b853411156104d7576104d73361094d8834611ce3565b600080600061171785856117e1565b6040516bffffffffffffffffffffffff19606084811b8216602084015283901b16603482015291935091508690604801604051602081830303815290604052805190602001206040516020016117bf9291906001600160f81b0319815260609290921b6bffffffffffffffffffffffff1916600183015260158201527f96e8ac4277198ff8b6f785478aa9a39f403cb768dd02cbee326c3e7da348845f603582015260550190565b60408051601f1981840301815291905280516020909101209695505050505050565b600080826001600160a01b0316846001600160a01b031614156118465760405162461bcd60e51b815260206004820152601c60248201527f4c4942524152593a204944454e544943414c5f41444452455353455300000000604482015260640161036c565b826001600160a01b0316846001600160a01b031610611866578284611869565b83835b90925090506001600160a01b0382166118bc5760405162461bcd60e51b81526020600482015260156024820152744c4942524152593a205a45524f5f4144445245535360581b604482015260640161036c565b9250929050565b60008060006118d285856117e1565b50905060006118e2878787611708565b6001600160a01b0316633b4a6bc36040518163ffffffff1660e01b815260040160206040518083038186803b15801561191a57600080fd5b505afa15801561192e573d6000803e3d6000fd5b505050506040513d601f19601f820116820180604052508101906119529190611c73565b90506000611961888888611708565b6001600160a01b031663ceb2894c6040518163ffffffff1660e01b815260040160206040518083038186803b15801561199957600080fd5b505afa1580156119ad573d6000803e3d6000fd5b505050506040513d601f19601f820116820180604052508101906119d19190611c73565b9050826001600160a01b0316876001600160a01b0316146119f35780826119f6565b81815b90999098509650505050505050565b604080516000808252602082019092526001600160a01b038416908390604051611a2f9190611d12565b60006040518083038185875af1925050503d8060008114611a6c576040519150601f19603f3d011682016040523d82523d6000602084013e611a71565b606091505b5050905080611adf5760405162461bcd60e51b815260206004820152603460248201527f5472616e7366657248656c7065723a3a736166655472616e736665724554483a60448201527308115512081d1c985b9cd9995c8819985a5b195960621b606482015260840161036c565b505050565b634e487b7160e01b600052600160045260246000fd5b80356001600160a01b0381168114611b1157600080fd5b919050565b60008060008060808587031215611b2c57600080fd5b611b3585611afa565b966020860135965060408601359560600135945092505050565b600080600060608486031215611b6457600080fd5b611b6d84611afa565b95602085013595506040909401359392505050565b60008060008060808587031215611b9857600080fd5b611ba185611afa565b9350611baf60208601611afa565b93969395505050506040820135916060013590565b600080600080600060a08688031215611bdc57600080fd5b611be586611afa565b9450611bf360208701611afa565b94979496505050506040830135926060810135926080909101359150565b6020808252600e908201526d1515d053534e881156141254915160921b604082015260600190565b6001600160a01b039390931683526020830191909152604082015260600190565b6001600160a01b03929092168252602082015260400190565b600060208284031215611c8557600080fd5b5051919050565b634e487b7160e01b600052601160045260246000fd5b6000816000190483118215151615611cbc57611cbc611c8c565b500290565b600082611cde57634e487b7160e01b600052601260045260246000fd5b500490565b600082821015611cf557611cf5611c8c565b500390565b60008219821115611d0d57611d0d611c8c565b500190565b6000825160005b81811015611d335760208186018101518583015201611d19565b81811115611d42576000828501525b50919091019291505056fea2646970667358221220058d3172841ac9622bcc50326630f4691d22310125aebde79ee4a573c1943f1f64736f6c63430008090033",
  "linkReferences": {},
  "deployedLinkReferences": {}
}