{
  "_format": "hh-sol-artifact-1",
  "contractName": "TWAMM",
  "sourceName": "contracts/TWAMM.sol",
  "abi": [
    {
      "inputs": [
        {
          "internalType": "address",
          "name": "_factory",
          "type": "address"
        },
        {
          "internalType": "address",
          "name": "_WETH",
          "type": "address"
        }
      ],
      "stateMutability": "nonpayable",
      "type": "constructor"
    },
    {
      "inputs": [],
      "name": "WETH",
      "outputs": [
        {
          "internalType": "address",
          "name": "",
          "type": "address"
        }
      ],
      "stateMutability": "view",
      "type": "function"
    },
    {
      "inputs": [
        {
          "internalType": "address",
          "name": "token0",
          "type": "address"
        },
        {
          "internalType": "address",
          "name": "token1",
          "type": "address"
        },
        {
          "internalType": "uint256",
          "name": "orderId",
          "type": "uint256"
        }
      ],
      "name": "_cancelLongTermSwap",
      "outputs": [],
      "stateMutability": "nonpayable",
      "type": "function"
    },
    {
      "inputs": [
        {
          "internalType": "address",
          "name": "token0",
          "type": "address"
        },
        {
          "internalType": "address",
          "name": "token1",
          "type": "address"
        },
        {
          "internalType": "uint256",
          "name": "amount0",
          "type": "uint256"
        },
        {
          "internalType": "uint256",
          "name": "amount1",
          "type": "uint256"
        }
      ],
      "name": "_provideInitialLiquidity",
      "outputs": [],
      "stateMutability": "nonpayable",
      "type": "function"
    },
    {
      "inputs": [
        {
          "internalType": "address",
          "name": "token0",
          "type": "address"
        },
        {
          "internalType": "address",
          "name": "token1",
          "type": "address"
        },
        {
          "internalType": "uint256",
          "name": "lpTokenAmount",
          "type": "uint256"
        }
      ],
      "name": "_provideLiquidity",
      "outputs": [],
      "stateMutability": "nonpayable",
      "type": "function"
    },
    {
      "inputs": [
        {
          "internalType": "address",
          "name": "token0",
          "type": "address"
        },
        {
          "internalType": "address",
          "name": "token1",
          "type": "address"
        },
        {
          "internalType": "uint256",
          "name": "lpTokenAmount",
          "type": "uint256"
        }
      ],
      "name": "_removeLiquidity",
      "outputs": [],
      "stateMutability": "nonpayable",
      "type": "function"
    },
    {
      "inputs": [
        {
          "internalType": "address",
          "name": "token0",
          "type": "address"
        },
        {
          "internalType": "address",
          "name": "token1",
          "type": "address"
        },
        {
          "internalType": "uint256",
          "name": "orderId",
          "type": "uint256"
        }
      ],
      "name": "_withdrawProceedsFromLongTermSwap",
      "outputs": [],
      "stateMutability": "nonpayable",
      "type": "function"
    },
    {
      "inputs": [],
      "name": "factory",
      "outputs": [
        {
          "internalType": "address",
          "name": "",
          "type": "address"
        }
      ],
      "stateMutability": "view",
      "type": "function"
    },
    {
      "inputs": [
        {
          "internalType": "address",
          "name": "token0",
          "type": "address"
        },
        {
          "internalType": "address",
          "name": "token1",
          "type": "address"
        },
        {
          "internalType": "uint256",
          "name": "amountIn",
          "type": "uint256"
        }
      ],
      "name": "instantSwap",
      "outputs": [],
      "stateMutability": "nonpayable",
      "type": "function"
    },
    {
      "inputs": [
        {
          "internalType": "address",
          "name": "token0",
          "type": "address"
        },
        {
          "internalType": "address",
          "name": "token1",
          "type": "address"
        },
        {
          "internalType": "uint256",
          "name": "amountIn",
          "type": "uint256"
        },
        {
          "internalType": "uint256",
          "name": "numberOfBlockIntervals",
          "type": "uint256"
        }
      ],
      "name": "termSwap",
      "outputs": [],
      "stateMutability": "nonpayable",
      "type": "function"
    },
    {
      "stateMutability": "payable",
      "type": "receive"
    }
  ],
  "bytecode": "0x60c060405234801561001057600080fd5b50604051610abc380380610abc83398101604081905261002f91610062565b6001600160a01b039182166080521660a052610095565b80516001600160a01b038116811461005d57600080fd5b919050565b6000806040838503121561007557600080fd5b61007e83610046565b915061008c60208401610046565b90509250929050565b60805160a0516109cb6100f160003960008181609a01526101600152600081816101f0015281816102720152818161031301528181610447015281816104de015281816105410152818161066601526106c901526109cb6000f3fe60806040526004361061008a5760003560e01c8063ad5c464811610059578063ad5c46481461014e578063c03200b71461019e578063c2358973146101be578063c45a0155146101de578063de8fb9bd1461021257600080fd5b8063035b9243146100ce57806333fdedea146100ee5780636792e7ce1461010e5780636c2692cb1461012e57600080fd5b366100c957336001600160a01b037f000000000000000000000000000000000000000000000000000000000000000016146100c7576100c76108e5565b005b600080fd5b3480156100da57600080fd5b506100c76100e9366004610917565b610232565b3480156100fa57600080fd5b506100c7610109366004610917565b61030c565b34801561011a57600080fd5b506100c7610129366004610959565b610440565b34801561013a57600080fd5b506100c7610149366004610959565b6104d7565b34801561015a57600080fd5b506101827f000000000000000000000000000000000000000000000000000000000000000081565b6040516001600160a01b03909116815260200160405180910390f35b3480156101aa57600080fd5b506100c76101b9366004610959565b61053a565b3480156101ca57600080fd5b506100c76101d9366004610959565b61065f565b3480156101ea57600080fd5b506101827f000000000000000000000000000000000000000000000000000000000000000081565b34801561021e57600080fd5b506100c761022d366004610959565b6106c2565b600061023e8585610725565b509050600080856001600160a01b0316836001600160a01b031614610264578385610267565b84845b9150915060006102987f0000000000000000000000000000000000000000000000000000000000000000898961080c565b6040516337cea16960e11b815233600482015260248101859052604481018490529091506001600160a01b03821690636f9d42d290606401600060405180830381600087803b1580156102ea57600080fd5b505af11580156102fe573d6000803e3d6000fd5b505050505050505050505050565b60006103397f0000000000000000000000000000000000000000000000000000000000000000868661080c565b905060006103478686610725565b509050856001600160a01b0316816001600160a01b031614156103d057604051635ef083bf60e11b815233600482015260248101859052604481018490526001600160a01b0383169063bde1077e90606401600060405180830381600087803b1580156103b357600080fd5b505af11580156103c7573d6000803e3d6000fd5b50505050610438565b60405163659509c560e01b815233600482015260248101859052604481018490526001600160a01b0383169063659509c590606401600060405180830381600087803b15801561041f57600080fd5b505af1158015610433573d6000803e3d6000fd5b505050505b505050505050565b600061046d7f0000000000000000000000000000000000000000000000000000000000000000858561080c565b6040516309dfa7e960e11b8152336004820152602481018490529091506001600160a01b038216906313bf4fd2906044015b600060405180830381600087803b1580156104b957600080fd5b505af11580156104cd573d6000803e3d6000fd5b5050505050505050565b60006105047f0000000000000000000000000000000000000000000000000000000000000000858561080c565b604051635100e67b60e11b8152336004820152602481018490529091506001600160a01b0382169063a201ccf69060440161049f565b60006105677f0000000000000000000000000000000000000000000000000000000000000000858561080c565b905060006105758585610725565b509050846001600160a01b0316816001600160a01b031614156105f7576040516310d8217360e01b8152336004820152602481018490526001600160a01b038316906310d8217390604401600060405180830381600087803b1580156105da57600080fd5b505af11580156105ee573d6000803e3d6000fd5b50505050610658565b604051639a89f22d60e01b8152336004820152602481018490526001600160a01b03831690639a89f22d90604401600060405180830381600087803b15801561063f57600080fd5b505af1158015610653573d6000803e3d6000fd5b505050505b5050505050565b600061068c7f0000000000000000000000000000000000000000000000000000000000000000858561080c565b6040516302ff530960e51b8152336004820152602481018490529091506001600160a01b03821690635fea61209060440161049f565b60006106ef7f0000000000000000000000000000000000000000000000000000000000000000858561080c565b6040516310ae628560e21b8152336004820152602481018490529091506001600160a01b038216906342b98a149060440161049f565b600080826001600160a01b0316846001600160a01b0316141561078f5760405162461bcd60e51b815260206004820152601c60248201527f4c4942524152593a204944454e544943414c5f4144445245535345530000000060448201526064015b60405180910390fd5b826001600160a01b0316846001600160a01b0316106107af5782846107b2565b83835b90925090506001600160a01b0382166108055760405162461bcd60e51b81526020600482015260156024820152744c4942524152593a205a45524f5f4144445245535360581b6044820152606401610786565b9250929050565b600080600061081b8585610725565b6040516bffffffffffffffffffffffff19606084811b8216602084015283901b16603482015291935091508690604801604051602081830303815290604052805190602001206040516020016108c39291906001600160f81b0319815260609290921b6bffffffffffffffffffffffff1916600183015260158201527f96e8ac4277198ff8b6f785478aa9a39f403cb768dd02cbee326c3e7da348845f603582015260550190565b60408051601f1981840301815291905280516020909101209695505050505050565b634e487b7160e01b600052600160045260246000fd5b80356001600160a01b038116811461091257600080fd5b919050565b6000806000806080858703121561092d57600080fd5b610936856108fb565b9350610944602086016108fb565b93969395505050506040820135916060013590565b60008060006060848603121561096e57600080fd5b610977846108fb565b9250610985602085016108fb565b915060408401359050925092509256fea264697066735822122065d57b7c9a64a13383d968c6efa63e3539ddcfa31216a3928e405c5dec6d95fb64736f6c63430008090033",
  "linkReferences": {},
  "deployedLinkReferences": {}
}