{
  "_format": "hh-sol-artifact-1",
  "contractName": "TWAMM",
  "sourceName": "contracts/TWAMM.sol",
  "abi": [
    {
      "inputs": [
        {
          "internalType": "address",
          "name": "_factory",
          "type": "address"
        },
        {
          "internalType": "address",
          "name": "_WETH",
          "type": "address"
        }
      ],
      "stateMutability": "nonpayable",
      "type": "constructor"
    },
    {
      "inputs": [],
      "name": "WETH",
      "outputs": [
        {
          "internalType": "address",
          "name": "",
          "type": "address"
        }
      ],
      "stateMutability": "view",
      "type": "function"
    },
    {
      "inputs": [
        {
          "internalType": "address",
          "name": "token0",
          "type": "address"
        },
        {
          "internalType": "address",
          "name": "token1",
          "type": "address"
        },
        {
          "internalType": "uint256",
          "name": "amount0",
          "type": "uint256"
        },
        {
          "internalType": "uint256",
          "name": "amount1",
          "type": "uint256"
        },
        {
          "internalType": "uint256",
          "name": "deadline",
          "type": "uint256"
        }
      ],
      "name": "addInitialLiquidity",
      "outputs": [],
      "stateMutability": "nonpayable",
      "type": "function"
    },
    {
      "inputs": [
        {
          "internalType": "address",
          "name": "token",
          "type": "address"
        },
        {
          "internalType": "uint256",
          "name": "amountToken",
          "type": "uint256"
        },
        {
          "internalType": "uint256",
          "name": "amountETH",
          "type": "uint256"
        },
        {
          "internalType": "uint256",
          "name": "deadline",
          "type": "uint256"
        }
      ],
      "name": "addInitialLiquidityETH",
      "outputs": [],
      "stateMutability": "payable",
      "type": "function"
    },
    {
      "inputs": [
        {
          "internalType": "address",
          "name": "token0",
          "type": "address"
        },
        {
          "internalType": "address",
          "name": "token1",
          "type": "address"
        },
        {
          "internalType": "uint256",
          "name": "lpTokenAmount",
          "type": "uint256"
        },
        {
          "internalType": "uint256",
          "name": "deadline",
          "type": "uint256"
        }
      ],
      "name": "addLiquidity",
      "outputs": [],
      "stateMutability": "nonpayable",
      "type": "function"
    },
    {
      "inputs": [
        {
          "internalType": "address",
          "name": "token",
          "type": "address"
        },
        {
          "internalType": "uint256",
          "name": "lpTokenAmount",
          "type": "uint256"
        },
        {
          "internalType": "uint256",
          "name": "deadline",
          "type": "uint256"
        }
      ],
      "name": "addLiquidityETH",
      "outputs": [],
      "stateMutability": "payable",
      "type": "function"
    },
    {
      "inputs": [
        {
          "internalType": "address",
          "name": "token0",
          "type": "address"
        },
        {
          "internalType": "address",
          "name": "token1",
          "type": "address"
        },
        {
          "internalType": "uint256",
          "name": "orderId",
          "type": "uint256"
        },
        {
          "internalType": "uint256",
          "name": "deadline",
          "type": "uint256"
        }
      ],
      "name": "cancelTermSwap",
      "outputs": [],
      "stateMutability": "nonpayable",
      "type": "function"
    },
    {
      "inputs": [],
      "name": "factory",
      "outputs": [
        {
          "internalType": "address",
          "name": "",
          "type": "address"
        }
      ],
      "stateMutability": "view",
      "type": "function"
    },
    {
      "inputs": [
        {
          "internalType": "address",
          "name": "token",
          "type": "address"
        },
        {
          "internalType": "uint256",
          "name": "amountETHIn",
          "type": "uint256"
        },
        {
          "internalType": "uint256",
          "name": "deadline",
          "type": "uint256"
        }
      ],
      "name": "instantSwapETHToToken",
      "outputs": [],
      "stateMutability": "payable",
      "type": "function"
    },
    {
      "inputs": [
        {
          "internalType": "address",
          "name": "token",
          "type": "address"
        },
        {
          "internalType": "uint256",
          "name": "amountTokenIn",
          "type": "uint256"
        },
        {
          "internalType": "uint256",
          "name": "deadline",
          "type": "uint256"
        }
      ],
      "name": "instantSwapTokenToETH",
      "outputs": [],
      "stateMutability": "nonpayable",
      "type": "function"
    },
    {
      "inputs": [
        {
          "internalType": "address",
          "name": "token0",
          "type": "address"
        },
        {
          "internalType": "address",
          "name": "token1",
          "type": "address"
        },
        {
          "internalType": "uint256",
          "name": "amountIn",
          "type": "uint256"
        },
        {
          "internalType": "uint256",
          "name": "deadline",
          "type": "uint256"
        }
      ],
      "name": "instantSwapTokenToToken",
      "outputs": [],
      "stateMutability": "nonpayable",
      "type": "function"
    },
    {
      "inputs": [
        {
          "internalType": "address",
          "name": "token",
          "type": "address"
        },
        {
          "internalType": "uint256",
          "name": "amountETHIn",
          "type": "uint256"
        },
        {
          "internalType": "uint256",
          "name": "numberOfBlockIntervals",
          "type": "uint256"
        },
        {
          "internalType": "uint256",
          "name": "deadline",
          "type": "uint256"
        }
      ],
      "name": "longTermSwapETHToToken",
      "outputs": [],
      "stateMutability": "payable",
      "type": "function"
    },
    {
      "inputs": [
        {
          "internalType": "address",
          "name": "token",
          "type": "address"
        },
        {
          "internalType": "uint256",
          "name": "amountTokenIn",
          "type": "uint256"
        },
        {
          "internalType": "uint256",
          "name": "numberOfBlockIntervals",
          "type": "uint256"
        },
        {
          "internalType": "uint256",
          "name": "deadline",
          "type": "uint256"
        }
      ],
      "name": "longTermSwapTokenToETH",
      "outputs": [],
      "stateMutability": "nonpayable",
      "type": "function"
    },
    {
      "inputs": [
        {
          "internalType": "address",
          "name": "token0",
          "type": "address"
        },
        {
          "internalType": "address",
          "name": "token1",
          "type": "address"
        },
        {
          "internalType": "uint256",
          "name": "amountIn",
          "type": "uint256"
        },
        {
          "internalType": "uint256",
          "name": "numberOfBlockIntervals",
          "type": "uint256"
        },
        {
          "internalType": "uint256",
          "name": "deadline",
          "type": "uint256"
        }
      ],
      "name": "longTermSwapTokenToToken",
      "outputs": [],
      "stateMutability": "nonpayable",
      "type": "function"
    },
    {
      "inputs": [
        {
          "internalType": "address",
          "name": "token0",
          "type": "address"
        },
        {
          "internalType": "address",
          "name": "token1",
          "type": "address"
        },
        {
          "internalType": "uint256",
          "name": "lpTokenAmount",
          "type": "uint256"
        },
        {
          "internalType": "uint256",
          "name": "deadline",
          "type": "uint256"
        }
      ],
      "name": "withdrawLiquidity",
      "outputs": [],
      "stateMutability": "nonpayable",
      "type": "function"
    },
    {
      "inputs": [
        {
          "internalType": "address",
          "name": "token",
          "type": "address"
        },
        {
          "internalType": "uint256",
          "name": "lpTokenAmount",
          "type": "uint256"
        },
        {
          "internalType": "uint256",
          "name": "deadline",
          "type": "uint256"
        }
      ],
      "name": "withdrawLiquidityETH",
      "outputs": [],
      "stateMutability": "nonpayable",
      "type": "function"
    },
    {
      "inputs": [
        {
          "internalType": "address",
          "name": "token0",
          "type": "address"
        },
        {
          "internalType": "address",
          "name": "token1",
          "type": "address"
        },
        {
          "internalType": "uint256",
          "name": "orderId",
          "type": "uint256"
        },
        {
          "internalType": "uint256",
          "name": "deadline",
          "type": "uint256"
        }
      ],
      "name": "withdrawProceedsFromTermSwap",
      "outputs": [],
      "stateMutability": "nonpayable",
      "type": "function"
    },
    {
      "stateMutability": "payable",
      "type": "receive"
    }
  ],
  "bytecode": "0x60c06040523480156200001157600080fd5b506040516200229738038062002297833981016040819052620000349162000069565b6001600160a01b039182166080521660a052620000a1565b80516001600160a01b03811681146200006457600080fd5b919050565b600080604083850312156200007d57600080fd5b62000088836200004c565b915062000098602084016200004c565b90509250929050565b60805160a0516120876200021060003960008181610107015281816102460152818161039e015281816103ed015281816104a4015281816105db015281816106b00152818161077f015281816107ad0152818161080001528181610c4901528181610c7701528181610ca101528181610d1501528181610e7b01528181610f2b01528181610ff7015281816110b0015281816110de0152818161120f0152818161128e015281816114d5015281816115030152818161152d015281816115a101528181611911015261193f0152600081816102a90152818161037c015281816103cb01528181610606015281816106d80152818161075d0152818161091d015281816109f901528181610aab01528181610b3001528181610c2801528181610e5901528181610f090152818161108e015281816111ed015281816112ed0152818161136c015281816114b4015281816116e1015281816117f10152818161187001526118ef01526120876000f3fe6080604052600436106100f75760003560e01c8063a13a31511161008a578063cd743e3e11610059578063cd743e3e146102cb578063cf6c62ea146102eb578063e961ab001461030b578063f202ce9d1461032b57600080fd5b8063a13a315114610214578063ad5c464814610234578063c3a4c3e914610284578063c45a01551461029757600080fd5b806357c08c3a116100c657806357c08c3a146101a15780635a2b46d7146101b45780636e341901146101d45780637e5844a0146101f457600080fd5b80630145ff681461013b5780630ea9fab21461014e57806323417feb1461016157806345786c2f1461018157600080fd5b3661013657336001600160a01b037f0000000000000000000000000000000000000000000000000000000000000000161461013457610134611dbc565b005b600080fd5b610134610149366004611dea565b61034b565b61013461015c366004611e1f565b61059b565b34801561016d57600080fd5b5061013461017c366004611e5a565b6108f5565b34801561018d57600080fd5b5061013461019c366004611ea0565b6109ae565b6101346101af366004611dea565b610c00565b3480156101c057600080fd5b506101346101cf366004611dea565b610e31565b3480156101e057600080fd5b506101346101ef366004611dea565b611066565b34801561020057600080fd5b5061013461020f366004611e5a565b6112c5565b34801561022057600080fd5b5061013461022f366004611e5a565b611344565b34801561024057600080fd5b506102687f000000000000000000000000000000000000000000000000000000000000000081565b6040516001600160a01b03909116815260200160405180910390f35b610134610292366004611e1f565b61148c565b3480156102a357600080fd5b506102687f000000000000000000000000000000000000000000000000000000000000000081565b3480156102d757600080fd5b506101346102e6366004611ea0565b6116b9565b3480156102f757600080fd5b50610134610306366004611e5a565b6117c9565b34801561031757600080fd5b50610134610326366004611e5a565b611848565b34801561033757600080fd5b50610134610346366004611e1f565b6118c7565b80428110156103755760405162461bcd60e51b815260040161036c90611ef1565b60405180910390fd5b60006103c27f0000000000000000000000000000000000000000000000000000000000000000867f00000000000000000000000000000000000000000000000000000000000000006119e0565b905060006104117f0000000000000000000000000000000000000000000000000000000000000000877f0000000000000000000000000000000000000000000000000000000000000000611ab9565b9150506000826001600160a01b03166318160ddd6040518163ffffffff1660e01b815260040160206040518083038186803b15801561044f57600080fd5b505afa158015610463573d6000803e3d6000fd5b505050506040513d601f19601f820116820180604052508101906104879190611f19565b90506000816104968489611f48565b6104a09190611f67565b90507f00000000000000000000000000000000000000000000000000000000000000006001600160a01b031663d0e30db0826040518263ffffffff1660e01b81526004016000604051808303818588803b1580156104fd57600080fd5b505af1158015610511573d6000803e3d6000fd5b50506040516302ff530960e51b81526001600160a01b0388169350635fea61209250610544915033908b90600401611f89565b600060405180830381600087803b15801561055e57600080fd5b505af1158015610572573d6000803e3d6000fd5b5050505080341115610591576105913361058c8334611fa2565b611bfb565b5050505050505050565b80428110156105bc5760405162461bcd60e51b815260040161036c90611ef1565b60405163e6a4390560e01b81526001600160a01b0386811660048301527f0000000000000000000000000000000000000000000000000000000000000000811660248301526000917f00000000000000000000000000000000000000000000000000000000000000009091169063e6a439059060440160206040518083038186803b15801561064a57600080fd5b505afa15801561065e573d6000803e3d6000fd5b505050506040513d601f19601f820116820180604052508101906106829190611fb9565b6001600160a01b03161415610756576040516364e329cb60e11b81526001600160a01b0386811660048301527f0000000000000000000000000000000000000000000000000000000000000000811660248301527f0000000000000000000000000000000000000000000000000000000000000000169063c9c6539690604401602060405180830381600087803b15801561071c57600080fd5b505af1158015610730573d6000803e3d6000fd5b505050506040513d601f19601f820116820180604052508101906107549190611fb9565b505b60006107a37f0000000000000000000000000000000000000000000000000000000000000000877f00000000000000000000000000000000000000000000000000000000000000006119e0565b905060006107d1877f0000000000000000000000000000000000000000000000000000000000000000611cda565b509050600080886001600160a01b0316836001600160a01b0316146107f75786886107fa565b87875b915091507f00000000000000000000000000000000000000000000000000000000000000006001600160a01b031663d0e30db0886040518263ffffffff1660e01b81526004016000604051808303818588803b15801561085957600080fd5b505af115801561086d573d6000803e3d6000fd5b50506040516337cea16960e11b81526001600160a01b0388169350636f9d42d292506108a29150339086908690600401611fdd565b600060405180830381600087803b1580156108bc57600080fd5b505af11580156108d0573d6000803e3d6000fd5b50505050863411156108ea576108ea3361058c8934611fa2565b505050505050505050565b80428110156109165760405162461bcd60e51b815260040161036c90611ef1565b60006109437f000000000000000000000000000000000000000000000000000000000000000087876119e0565b6040516310ae628560e21b81529091506001600160a01b038216906342b98a14906109749033908890600401611f89565b600060405180830381600087803b15801561098e57600080fd5b505af11580156109a2573d6000803e3d6000fd5b50505050505050505050565b80428110156109cf5760405162461bcd60e51b815260040161036c90611ef1565b60405163e6a4390560e01b81526001600160a01b03878116600483015286811660248301526000917f00000000000000000000000000000000000000000000000000000000000000009091169063e6a439059060440160206040518083038186803b158015610a3d57600080fd5b505afa158015610a51573d6000803e3d6000fd5b505050506040513d601f19601f82011682018060405250810190610a759190611fb9565b6001600160a01b03161415610b29576040516364e329cb60e11b81526001600160a01b03878116600483015286811660248301527f0000000000000000000000000000000000000000000000000000000000000000169063c9c6539690604401602060405180830381600087803b158015610aef57600080fd5b505af1158015610b03573d6000803e3d6000fd5b505050506040513d601f19601f82011682018060405250810190610b279190611fb9565b505b6000610b567f000000000000000000000000000000000000000000000000000000000000000088886119e0565b90506000610b648888611cda565b509050600080896001600160a01b0316836001600160a01b031614610b8a578688610b8d565b87875b6040516337cea16960e11b815291935091506001600160a01b03851690636f9d42d290610bc290339086908690600401611fdd565b600060405180830381600087803b158015610bdc57600080fd5b505af1158015610bf0573d6000803e3d6000fd5b5050505050505050505050505050565b8042811015610c215760405162461bcd60e51b815260040161036c90611ef1565b6000610c6e7f00000000000000000000000000000000000000000000000000000000000000007f0000000000000000000000000000000000000000000000000000000000000000876119e0565b90506000610c9c7f000000000000000000000000000000000000000000000000000000000000000087611cda565b5090507f00000000000000000000000000000000000000000000000000000000000000006001600160a01b031663d0e30db0866040518263ffffffff1660e01b81526004016000604051808303818588803b158015610cfa57600080fd5b505af1158015610d0e573d6000803e3d6000fd5b50505050507f00000000000000000000000000000000000000000000000000000000000000006001600160a01b0316816001600160a01b03161415610db25760405163d5d859c160e01b81526001600160a01b0383169063d5d859c190610d7b9033908990600401611f89565b600060405180830381600087803b158015610d9557600080fd5b505af1158015610da9573d6000803e3d6000fd5b50505050610e13565b604051639c48a8f960e01b81526001600160a01b03831690639c48a8f990610de09033908990600401611f89565b600060405180830381600087803b158015610dfa57600080fd5b505af1158015610e0e573d6000803e3d6000fd5b505050505b84341115610e2957610e293361058c8734611fa2565b505050505050565b8042811015610e525760405162461bcd60e51b815260040161036c90611ef1565b6000610e9f7f0000000000000000000000000000000000000000000000000000000000000000867f00000000000000000000000000000000000000000000000000000000000000006119e0565b604051635100e67b60e11b81529091506001600160a01b0382169063a201ccf690610ed09033908890600401611f89565b600060405180830381600087803b158015610eea57600080fd5b505af1158015610efe573d6000803e3d6000fd5b505050506000610f4f7f0000000000000000000000000000000000000000000000000000000000000000877f0000000000000000000000000000000000000000000000000000000000000000611ab9565b9150506000826001600160a01b03166318160ddd6040518163ffffffff1660e01b815260040160206040518083038186803b158015610f8d57600080fd5b505afa158015610fa1573d6000803e3d6000fd5b505050506040513d601f19601f82011682018060405250810190610fc59190611f19565b9050600081610fd48885611f48565b610fde9190611f67565b604051632e1a7d4d60e01b8152600481018290529091507f00000000000000000000000000000000000000000000000000000000000000006001600160a01b031690632e1a7d4d906024015b600060405180830381600087803b15801561104457600080fd5b505af1158015611058573d6000803e3d6000fd5b505050505050505050505050565b80428110156110875760405162461bcd60e51b815260040161036c90611ef1565b60006110d47f0000000000000000000000000000000000000000000000000000000000000000867f00000000000000000000000000000000000000000000000000000000000000006119e0565b90506000611102867f0000000000000000000000000000000000000000000000000000000000000000611cda565b509050856001600160a01b0316816001600160a01b031614156111845760405163d5d859c160e01b81526001600160a01b0383169063d5d859c19061114d9033908990600401611f89565b600060405180830381600087803b15801561116757600080fd5b505af115801561117b573d6000803e3d6000fd5b505050506111e5565b604051639c48a8f960e01b81526001600160a01b03831690639c48a8f9906111b29033908990600401611f89565b600060405180830381600087803b1580156111cc57600080fd5b505af11580156111e0573d6000803e3d6000fd5b505050505b6000806112337f0000000000000000000000000000000000000000000000000000000000000000897f0000000000000000000000000000000000000000000000000000000000000000611ab9565b909250905060006112448884611ffe565b61124e8984611f48565b6112589190611f67565b905060006103e861126b836103e5611f48565b6112759190611f67565b604051632e1a7d4d60e01b8152600481018290529091507f00000000000000000000000000000000000000000000000000000000000000006001600160a01b031690632e1a7d4d90602401610bc2565b80428110156112e65760405162461bcd60e51b815260040161036c90611ef1565b60006113137f000000000000000000000000000000000000000000000000000000000000000087876119e0565b6040516309dfa7e960e11b81529091506001600160a01b038216906313bf4fd2906109749033908890600401611f89565b80428110156113655760405162461bcd60e51b815260040161036c90611ef1565b60006113927f000000000000000000000000000000000000000000000000000000000000000087876119e0565b905060006113a08787611cda565b509050866001600160a01b0316816001600160a01b031614156114225760405163d5d859c160e01b81526001600160a01b0383169063d5d859c1906113eb9033908990600401611f89565b600060405180830381600087803b15801561140557600080fd5b505af1158015611419573d6000803e3d6000fd5b50505050611483565b604051639c48a8f960e01b81526001600160a01b03831690639c48a8f9906114509033908990600401611f89565b600060405180830381600087803b15801561146a57600080fd5b505af115801561147e573d6000803e3d6000fd5b505050505b50505050505050565b80428110156114ad5760405162461bcd60e51b815260040161036c90611ef1565b60006114fa7f00000000000000000000000000000000000000000000000000000000000000007f0000000000000000000000000000000000000000000000000000000000000000886119e0565b905060006115287f000000000000000000000000000000000000000000000000000000000000000088611cda565b5090507f00000000000000000000000000000000000000000000000000000000000000006001600160a01b031663d0e30db0876040518263ffffffff1660e01b81526004016000604051808303818588803b15801561158657600080fd5b505af115801561159a573d6000803e3d6000fd5b50505050507f00000000000000000000000000000000000000000000000000000000000000006001600160a01b0316816001600160a01b0316141561164057604051635ef083bf60e11b81526001600160a01b0383169063bde1077e906116099033908a908a90600401611fdd565b600060405180830381600087803b15801561162357600080fd5b505af1158015611637573d6000803e3d6000fd5b505050506116a3565b60405163659509c560e01b81526001600160a01b0383169063659509c5906116709033908a908a90600401611fdd565b600060405180830381600087803b15801561168a57600080fd5b505af115801561169e573d6000803e3d6000fd5b505050505b85341115611483576114833361058c8834611fa2565b80428110156116da5760405162461bcd60e51b815260040161036c90611ef1565b60006117077f000000000000000000000000000000000000000000000000000000000000000088886119e0565b905060006117158888611cda565b509050876001600160a01b0316816001600160a01b0316141561179957604051635ef083bf60e11b81526001600160a01b0383169063bde1077e906117629033908a908a90600401611fdd565b600060405180830381600087803b15801561177c57600080fd5b505af1158015611790573d6000803e3d6000fd5b50505050610591565b60405163659509c560e01b81526001600160a01b0383169063659509c59061102a9033908a908a90600401611fdd565b80428110156117ea5760405162461bcd60e51b815260040161036c90611ef1565b60006118177f000000000000000000000000000000000000000000000000000000000000000087876119e0565b6040516302ff530960e51b81529091506001600160a01b03821690635fea6120906109749033908890600401611f89565b80428110156118695760405162461bcd60e51b815260040161036c90611ef1565b60006118967f000000000000000000000000000000000000000000000000000000000000000087876119e0565b604051635100e67b60e11b81529091506001600160a01b0382169063a201ccf6906109749033908890600401611f89565b80428110156118e85760405162461bcd60e51b815260040161036c90611ef1565b60006119357f0000000000000000000000000000000000000000000000000000000000000000877f00000000000000000000000000000000000000000000000000000000000000006119e0565b90506000611963877f0000000000000000000000000000000000000000000000000000000000000000611cda565b509050866001600160a01b0316816001600160a01b031614156119b057604051635ef083bf60e11b81526001600160a01b0383169063bde1077e906113eb9033908a908a90600401611fdd565b60405163659509c560e01b81526001600160a01b0383169063659509c5906114509033908a908a90600401611fdd565b60008060006119ef8585611cda565b6040516bffffffffffffffffffffffff19606084811b8216602084015283901b1660348201529193509150869060480160405160208183030381529060405280519060200120604051602001611a979291906001600160f81b0319815260609290921b6bffffffffffffffffffffffff1916600183015260158201527f57f900fec4f9ef5dbff745cf1cbc43e5812bb34ebb13d0e8c948c689ba0ba59b603582015260550190565b60408051601f1981840301815291905280516020909101209695505050505050565b6000806000611ac88585611cda565b5090506000611ad88787876119e0565b6001600160a01b0316633b4a6bc36040518163ffffffff1660e01b815260040160206040518083038186803b158015611b1057600080fd5b505afa158015611b24573d6000803e3d6000fd5b505050506040513d601f19601f82011682018060405250810190611b489190611f19565b90506000611b578888886119e0565b6001600160a01b031663ceb2894c6040518163ffffffff1660e01b815260040160206040518083038186803b158015611b8f57600080fd5b505afa158015611ba3573d6000803e3d6000fd5b505050506040513d601f19601f82011682018060405250810190611bc79190611f19565b9050826001600160a01b0316876001600160a01b031614611be9578082611bec565b81815b90999098509650505050505050565b604080516000808252602082019092526001600160a01b038416908390604051611c259190612016565b60006040518083038185875af1925050503d8060008114611c62576040519150601f19603f3d011682016040523d82523d6000602084013e611c67565b606091505b5050905080611cd55760405162461bcd60e51b815260206004820152603460248201527f5472616e7366657248656c7065723a3a736166655472616e736665724554483a60448201527308115512081d1c985b9cd9995c8819985a5b195960621b606482015260840161036c565b505050565b600080826001600160a01b0316846001600160a01b03161415611d3f5760405162461bcd60e51b815260206004820152601c60248201527f4c6962726172793a204964656e746963616c5f41646472657373657300000000604482015260640161036c565b826001600160a01b0316846001600160a01b031610611d5f578284611d62565b83835b90925090506001600160a01b038216611db55760405162461bcd60e51b81526020600482015260156024820152744c6962726172793a205a65726f5f4164647265737360581b604482015260640161036c565b9250929050565b634e487b7160e01b600052600160045260246000fd5b6001600160a01b0381168114611de757600080fd5b50565b600080600060608486031215611dff57600080fd5b8335611e0a81611dd2565b95602085013595506040909401359392505050565b60008060008060808587031215611e3557600080fd5b8435611e4081611dd2565b966020860135965060408601359560600135945092505050565b60008060008060808587031215611e7057600080fd5b8435611e7b81611dd2565b93506020850135611e8b81611dd2565b93969395505050506040820135916060013590565b600080600080600060a08688031215611eb857600080fd5b8535611ec381611dd2565b94506020860135611ed381611dd2565b94979496505050506040830135926060810135926080909101359150565b6020808252600e908201526d1515d053534e88115e1c1a5c995960921b604082015260600190565b600060208284031215611f2b57600080fd5b5051919050565b634e487b7160e01b600052601160045260246000fd5b6000816000190483118215151615611f6257611f62611f32565b500290565b600082611f8457634e487b7160e01b600052601260045260246000fd5b500490565b6001600160a01b03929092168252602082015260400190565b600082821015611fb457611fb4611f32565b500390565b600060208284031215611fcb57600080fd5b8151611fd681611dd2565b9392505050565b6001600160a01b039390931683526020830191909152604082015260600190565b6000821982111561201157612011611f32565b500190565b6000825160005b81811015612037576020818601810151858301520161201d565b81811115612046576000828501525b50919091019291505056fea26469706673582212204a380f742807215e41b5ad7560597056ab004e4a6b7f7ca676b31d4a80759de064736f6c63430008090033",
  "linkReferences": {},
  "deployedLinkReferences": {}
}